{
	"Solidity/Twitter.sol": {
		"Twitter": {
			"abi": [
				{
					"inputs": [
						{
							"internalType": "uint256",
							"name": "",
							"type": "uint256"
						}
					],
					"name": "actions",
					"outputs": [
						{
							"internalType": "string",
							"name": "",
							"type": "string"
						}
					],
					"stateMutability": "view",
					"type": "function"
				},
				{
					"inputs": [
						{
							"internalType": "string",
							"name": "_tweet",
							"type": "string"
						}
					],
					"name": "createTweet",
					"outputs": [],
					"stateMutability": "nonpayable",
					"type": "function"
				},
				{
					"inputs": [
						{
							"internalType": "uint256",
							"name": "_index",
							"type": "uint256"
						}
					],
					"name": "getAction",
					"outputs": [
						{
							"internalType": "string",
							"name": "",
							"type": "string"
						}
					],
					"stateMutability": "view",
					"type": "function"
				},
				{
					"inputs": [],
					"name": "getActionsLength",
					"outputs": [
						{
							"internalType": "uint256",
							"name": "",
							"type": "uint256"
						}
					],
					"stateMutability": "view",
					"type": "function"
				},
				{
					"inputs": [
						{
							"internalType": "address",
							"name": "_owner",
							"type": "address"
						}
					],
					"name": "getAllOwnerTweets",
					"outputs": [
						{
							"components": [
								{
									"internalType": "uint256",
									"name": "id",
									"type": "uint256"
								},
								{
									"internalType": "address",
									"name": "author",
									"type": "address"
								},
								{
									"internalType": "string",
									"name": "content",
									"type": "string"
								},
								{
									"internalType": "uint256",
									"name": "timestamp",
									"type": "uint256"
								},
								{
									"internalType": "uint256",
									"name": "likes",
									"type": "uint256"
								}
							],
							"internalType": "struct Twitter.Tweet[]",
							"name": "",
							"type": "tuple[]"
						}
					],
					"stateMutability": "view",
					"type": "function"
				},
				{
					"inputs": [
						{
							"internalType": "address",
							"name": "_owner",
							"type": "address"
						},
						{
							"internalType": "uint256",
							"name": "_index",
							"type": "uint256"
						}
					],
					"name": "getTweet",
					"outputs": [
						{
							"internalType": "string",
							"name": "",
							"type": "string"
						}
					],
					"stateMutability": "view",
					"type": "function"
				},
				{
					"inputs": [
						{
							"internalType": "address",
							"name": "_author",
							"type": "address"
						},
						{
							"internalType": "uint256",
							"name": "tweetIndex",
							"type": "uint256"
						}
					],
					"name": "getTweetLikes",
					"outputs": [
						{
							"internalType": "uint256",
							"name": "",
							"type": "uint256"
						}
					],
					"stateMutability": "view",
					"type": "function"
				},
				{
					"inputs": [
						{
							"internalType": "address",
							"name": "_author",
							"type": "address"
						},
						{
							"internalType": "uint256",
							"name": "tweetIndex",
							"type": "uint256"
						}
					],
					"name": "likeTweet",
					"outputs": [],
					"stateMutability": "nonpayable",
					"type": "function"
				},
				{
					"inputs": [
						{
							"internalType": "address",
							"name": "",
							"type": "address"
						},
						{
							"internalType": "uint256",
							"name": "",
							"type": "uint256"
						}
					],
					"name": "tweets",
					"outputs": [
						{
							"internalType": "uint256",
							"name": "id",
							"type": "uint256"
						},
						{
							"internalType": "address",
							"name": "author",
							"type": "address"
						},
						{
							"internalType": "string",
							"name": "content",
							"type": "string"
						},
						{
							"internalType": "uint256",
							"name": "timestamp",
							"type": "uint256"
						},
						{
							"internalType": "uint256",
							"name": "likes",
							"type": "uint256"
						}
					],
					"stateMutability": "view",
					"type": "function"
				},
				{
					"inputs": [
						{
							"internalType": "address",
							"name": "_author",
							"type": "address"
						},
						{
							"internalType": "uint256",
							"name": "tweetIndex",
							"type": "uint256"
						}
					],
					"name": "unLikeTweet",
					"outputs": [],
					"stateMutability": "nonpayable",
					"type": "function"
				},
				{
					"inputs": [
						{
							"internalType": "string",
							"name": "_action",
							"type": "string"
						}
					],
					"name": "updateUserActionsOptions",
					"outputs": [],
					"stateMutability": "nonpayable",
					"type": "function"
				}
			],
			"devdoc": {
				"kind": "dev",
				"methods": {},
				"version": 1
			},
			"evm": {
				"assembly": "    /* \"Solidity/Twitter.sol\":57:2395  contract Twitter {... */\n  mstore(0x40, 0x80)\n    /* \"Solidity/Twitter.sol\":366:420  string[] public actions = [\"like\", \"reply\", \"reshare\"] */\n  mload(0x40)\n  dup1\n  0x60\n  add\n  0x40\n  mstore\n  dup1\n  mload(0x40)\n  dup1\n  0x40\n  add\n  0x40\n  mstore\n  dup1\n  0x04\n  dup2\n  mstore\n  0x20\n  add\n  0x6c696b6500000000000000000000000000000000000000000000000000000000\n  dup2\n  mstore\n  pop\n  dup2\n  mstore\n  0x20\n  add\n  mload(0x40)\n  dup1\n  0x40\n  add\n  0x40\n  mstore\n  dup1\n  0x05\n  dup2\n  mstore\n  0x20\n  add\n  0x7265706c79000000000000000000000000000000000000000000000000000000\n  dup2\n  mstore\n  pop\n  dup2\n  mstore\n  0x20\n  add\n  mload(0x40)\n  dup1\n  0x40\n  add\n  0x40\n  mstore\n  dup1\n  0x07\n  dup2\n  mstore\n  0x20\n  add\n  0x7265736861726500000000000000000000000000000000000000000000000000\n  dup2\n  mstore\n  pop\n  dup2\n  mstore\n  pop\n  0x01\n  swap1\n  0x03\n  tag_1\n  swap3\n  swap2\n  swap1\n  tag_2\n  jump\t// in\ntag_1:\n  pop\n    /* \"Solidity/Twitter.sol\":57:2395  contract Twitter {... */\n  callvalue\n  dup1\n  iszero\n  tag_3\n  jumpi\n  revert(0x00, 0x00)\ntag_3:\n  pop\n  jump(tag_4)\ntag_2:\n  dup3\n  dup1\n  sload\n  dup3\n  dup3\n  sstore\n  swap1\n  0x00\n  mstore\n  keccak256(0x00, 0x20)\n  swap1\n  dup2\n  add\n  swap3\n  dup3\n  iszero\n  tag_5\n  jumpi\n  swap2\n  0x20\n  mul\n  dup3\n  add\ntag_6:\n  dup3\n  dup2\n  gt\n  iszero\n  tag_7\n  jumpi\n  dup3\n  mload\n  dup3\n  swap1\n  dup2\n  tag_8\n  swap2\n  swap1\n  tag_9\n  jump\t// in\ntag_8:\n  pop\n  swap2\n  0x20\n  add\n  swap2\n  swap1\n  0x01\n  add\n  swap1\n  jump(tag_6)\ntag_7:\ntag_5:\n  pop\n  swap1\n  pop\n  tag_10\n  swap2\n  swap1\n  tag_11\n  jump\t// in\ntag_10:\n  pop\n  swap1\n  jump\t// out\ntag_11:\ntag_12:\n  dup1\n  dup3\n  gt\n  iszero\n  tag_13\n  jumpi\n  0x00\n  dup2\n  dup2\n  tag_14\n  swap2\n  swap1\n  tag_15\n  jump\t// in\ntag_14:\n  pop\n  0x01\n  add\n  jump(tag_12)\ntag_13:\n  pop\n  swap1\n  jump\t// out\ntag_15:\n  pop\n  dup1\n  sload\n  tag_16\n  swap1\n  tag_17\n  jump\t// in\ntag_16:\n  0x00\n  dup3\n  sstore\n  dup1\n  0x1f\n  lt\n  tag_19\n  jumpi\n  pop\n  jump(tag_18)\ntag_19:\n  0x1f\n  add\n  0x20\n  swap1\n  div\n  swap1\n  0x00\n  mstore\n  keccak256(0x00, 0x20)\n  swap1\n  dup2\n  add\n  swap1\n  tag_20\n  swap2\n  swap1\n  tag_21\n  jump\t// in\ntag_20:\ntag_18:\n  pop\n  jump\t// out\ntag_21:\ntag_22:\n  dup1\n  dup3\n  gt\n  iszero\n  tag_23\n  jumpi\n  0x00\n  dup2\n  0x00\n  swap1\n  sstore\n  pop\n  0x01\n  add\n  jump(tag_22)\ntag_23:\n  pop\n  swap1\n  jump\t// out\n    /* \"#utility.yul\":7:106   */\ntag_24:\n    /* \"#utility.yul\":59:65   */\n  0x00\n    /* \"#utility.yul\":93:98   */\n  dup2\n    /* \"#utility.yul\":87:99   */\n  mload\n    /* \"#utility.yul\":77:99   */\n  swap1\n  pop\n    /* \"#utility.yul\":7:106   */\n  swap2\n  swap1\n  pop\n  jump\t// out\n    /* \"#utility.yul\":112:292   */\ntag_25:\n    /* \"#utility.yul\":160:237   */\n  0x4e487b7100000000000000000000000000000000000000000000000000000000\n    /* \"#utility.yul\":157:158   */\n  0x00\n    /* \"#utility.yul\":150:238   */\n  mstore\n    /* \"#utility.yul\":257:261   */\n  0x41\n    /* \"#utility.yul\":254:255   */\n  0x04\n    /* \"#utility.yul\":247:262   */\n  mstore\n    /* \"#utility.yul\":281:285   */\n  0x24\n    /* \"#utility.yul\":278:279   */\n  0x00\n    /* \"#utility.yul\":271:286   */\n  revert\n    /* \"#utility.yul\":298:478   */\ntag_26:\n    /* \"#utility.yul\":346:423   */\n  0x4e487b7100000000000000000000000000000000000000000000000000000000\n    /* \"#utility.yul\":343:344   */\n  0x00\n    /* \"#utility.yul\":336:424   */\n  mstore\n    /* \"#utility.yul\":443:447   */\n  0x22\n    /* \"#utility.yul\":440:441   */\n  0x04\n    /* \"#utility.yul\":433:448   */\n  mstore\n    /* \"#utility.yul\":467:471   */\n  0x24\n    /* \"#utility.yul\":464:465   */\n  0x00\n    /* \"#utility.yul\":457:472   */\n  revert\n    /* \"#utility.yul\":484:804   */\ntag_17:\n    /* \"#utility.yul\":528:534   */\n  0x00\n    /* \"#utility.yul\":565:566   */\n  0x02\n    /* \"#utility.yul\":559:563   */\n  dup3\n    /* \"#utility.yul\":555:567   */\n  div\n    /* \"#utility.yul\":545:567   */\n  swap1\n  pop\n    /* \"#utility.yul\":612:613   */\n  0x01\n    /* \"#utility.yul\":606:610   */\n  dup3\n    /* \"#utility.yul\":602:614   */\n  and\n    /* \"#utility.yul\":633:651   */\n  dup1\n    /* \"#utility.yul\":623:704   */\n  tag_48\n  jumpi\n    /* \"#utility.yul\":689:693   */\n  0x7f\n    /* \"#utility.yul\":681:687   */\n  dup3\n    /* \"#utility.yul\":677:694   */\n  and\n    /* \"#utility.yul\":667:694   */\n  swap2\n  pop\n    /* \"#utility.yul\":623:704   */\ntag_48:\n    /* \"#utility.yul\":751:753   */\n  0x20\n    /* \"#utility.yul\":743:749   */\n  dup3\n    /* \"#utility.yul\":740:754   */\n  lt\n    /* \"#utility.yul\":720:738   */\n  dup2\n    /* \"#utility.yul\":717:755   */\n  sub\n    /* \"#utility.yul\":714:798   */\n  tag_49\n  jumpi\n    /* \"#utility.yul\":770:788   */\n  tag_50\n  tag_26\n  jump\t// in\ntag_50:\n    /* \"#utility.yul\":714:798   */\ntag_49:\n    /* \"#utility.yul\":535:804   */\n  pop\n    /* \"#utility.yul\":484:804   */\n  swap2\n  swap1\n  pop\n  jump\t// out\n    /* \"#utility.yul\":810:951   */\ntag_27:\n    /* \"#utility.yul\":859:863   */\n  0x00\n    /* \"#utility.yul\":882:885   */\n  dup2\n    /* \"#utility.yul\":874:885   */\n  swap1\n  pop\n    /* \"#utility.yul\":905:908   */\n  dup2\n    /* \"#utility.yul\":902:903   */\n  0x00\n    /* \"#utility.yul\":895:909   */\n  mstore\n    /* \"#utility.yul\":939:943   */\n  0x20\n    /* \"#utility.yul\":936:937   */\n  0x00\n    /* \"#utility.yul\":926:944   */\n  keccak256\n    /* \"#utility.yul\":918:944   */\n  swap1\n  pop\n    /* \"#utility.yul\":810:951   */\n  swap2\n  swap1\n  pop\n  jump\t// out\n    /* \"#utility.yul\":957:1050   */\ntag_28:\n    /* \"#utility.yul\":994:1000   */\n  0x00\n    /* \"#utility.yul\":1041:1043   */\n  0x20\n    /* \"#utility.yul\":1036:1038   */\n  0x1f\n    /* \"#utility.yul\":1029:1034   */\n  dup4\n    /* \"#utility.yul\":1025:1039   */\n  add\n    /* \"#utility.yul\":1021:1044   */\n  div\n    /* \"#utility.yul\":1011:1044   */\n  swap1\n  pop\n    /* \"#utility.yul\":957:1050   */\n  swap2\n  swap1\n  pop\n  jump\t// out\n    /* \"#utility.yul\":1056:1163   */\ntag_29:\n    /* \"#utility.yul\":1100:1108   */\n  0x00\n    /* \"#utility.yul\":1150:1155   */\n  dup3\n    /* \"#utility.yul\":1144:1148   */\n  dup3\n    /* \"#utility.yul\":1140:1156   */\n  shl\n    /* \"#utility.yul\":1119:1156   */\n  swap1\n  pop\n    /* \"#utility.yul\":1056:1163   */\n  swap3\n  swap2\n  pop\n  pop\n  jump\t// out\n    /* \"#utility.yul\":1169:1562   */\ntag_30:\n    /* \"#utility.yul\":1238:1244   */\n  0x00\n    /* \"#utility.yul\":1288:1289   */\n  0x08\n    /* \"#utility.yul\":1276:1286   */\n  dup4\n    /* \"#utility.yul\":1272:1290   */\n  mul\n    /* \"#utility.yul\":1311:1408   */\n  tag_55\n    /* \"#utility.yul\":1341:1407   */\n  0xffffffffffffffffffffffffffffffffffffffffffffffffffffffffffffffff\n    /* \"#utility.yul\":1330:1339   */\n  dup3\n    /* \"#utility.yul\":1311:1408   */\n  tag_29\n  jump\t// in\ntag_55:\n    /* \"#utility.yul\":1429:1468   */\n  tag_56\n    /* \"#utility.yul\":1459:1467   */\n  dup7\n    /* \"#utility.yul\":1448:1457   */\n  dup4\n    /* \"#utility.yul\":1429:1468   */\n  tag_29\n  jump\t// in\ntag_56:\n    /* \"#utility.yul\":1417:1468   */\n  swap6\n  pop\n    /* \"#utility.yul\":1501:1505   */\n  dup1\n    /* \"#utility.yul\":1497:1506   */\n  not\n    /* \"#utility.yul\":1490:1495   */\n  dup5\n    /* \"#utility.yul\":1486:1507   */\n  and\n    /* \"#utility.yul\":1477:1507   */\n  swap4\n  pop\n    /* \"#utility.yul\":1550:1554   */\n  dup1\n    /* \"#utility.yul\":1540:1548   */\n  dup7\n    /* \"#utility.yul\":1536:1555   */\n  and\n    /* \"#utility.yul\":1529:1534   */\n  dup5\n    /* \"#utility.yul\":1526:1556   */\n  or\n    /* \"#utility.yul\":1516:1556   */\n  swap3\n  pop\n    /* \"#utility.yul\":1245:1562   */\n  pop\n  pop\n    /* \"#utility.yul\":1169:1562   */\n  swap4\n  swap3\n  pop\n  pop\n  pop\n  jump\t// out\n    /* \"#utility.yul\":1568:1645   */\ntag_31:\n    /* \"#utility.yul\":1605:1612   */\n  0x00\n    /* \"#utility.yul\":1634:1639   */\n  dup2\n    /* \"#utility.yul\":1623:1639   */\n  swap1\n  pop\n    /* \"#utility.yul\":1568:1645   */\n  swap2\n  swap1\n  pop\n  jump\t// out\n    /* \"#utility.yul\":1651:1711   */\ntag_32:\n    /* \"#utility.yul\":1679:1682   */\n  0x00\n    /* \"#utility.yul\":1700:1705   */\n  dup2\n    /* \"#utility.yul\":1693:1705   */\n  swap1\n  pop\n    /* \"#utility.yul\":1651:1711   */\n  swap2\n  swap1\n  pop\n  jump\t// out\n    /* \"#utility.yul\":1717:1859   */\ntag_33:\n    /* \"#utility.yul\":1767:1776   */\n  0x00\n    /* \"#utility.yul\":1800:1853   */\n  tag_60\n    /* \"#utility.yul\":1818:1852   */\n  tag_61\n    /* \"#utility.yul\":1827:1851   */\n  tag_62\n    /* \"#utility.yul\":1845:1850   */\n  dup5\n    /* \"#utility.yul\":1827:1851   */\n  tag_31\n  jump\t// in\ntag_62:\n    /* \"#utility.yul\":1818:1852   */\n  tag_32\n  jump\t// in\ntag_61:\n    /* \"#utility.yul\":1800:1853   */\n  tag_31\n  jump\t// in\ntag_60:\n    /* \"#utility.yul\":1787:1853   */\n  swap1\n  pop\n    /* \"#utility.yul\":1717:1859   */\n  swap2\n  swap1\n  pop\n  jump\t// out\n    /* \"#utility.yul\":1865:1940   */\ntag_34:\n    /* \"#utility.yul\":1908:1911   */\n  0x00\n    /* \"#utility.yul\":1929:1934   */\n  dup2\n    /* \"#utility.yul\":1922:1934   */\n  swap1\n  pop\n    /* \"#utility.yul\":1865:1940   */\n  swap2\n  swap1\n  pop\n  jump\t// out\n    /* \"#utility.yul\":1946:2215   */\ntag_35:\n    /* \"#utility.yul\":2056:2095   */\n  tag_65\n    /* \"#utility.yul\":2087:2094   */\n  dup4\n    /* \"#utility.yul\":2056:2095   */\n  tag_33\n  jump\t// in\ntag_65:\n    /* \"#utility.yul\":2117:2208   */\n  tag_66\n    /* \"#utility.yul\":2166:2207   */\n  tag_67\n    /* \"#utility.yul\":2190:2206   */\n  dup3\n    /* \"#utility.yul\":2166:2207   */\n  tag_34\n  jump\t// in\ntag_67:\n    /* \"#utility.yul\":2158:2164   */\n  dup5\n    /* \"#utility.yul\":2151:2155   */\n  dup5\n    /* \"#utility.yul\":2145:2156   */\n  sload\n    /* \"#utility.yul\":2117:2208   */\n  tag_30\n  jump\t// in\ntag_66:\n    /* \"#utility.yul\":2111:2115   */\n  dup3\n    /* \"#utility.yul\":2104:2209   */\n  sstore\n    /* \"#utility.yul\":2022:2215   */\n  pop\n    /* \"#utility.yul\":1946:2215   */\n  pop\n  pop\n  pop\n  jump\t// out\n    /* \"#utility.yul\":2221:2294   */\ntag_36:\n    /* \"#utility.yul\":2266:2269   */\n  0x00\n    /* \"#utility.yul\":2287:2288   */\n  0x00\n    /* \"#utility.yul\":2280:2288   */\n  swap1\n  pop\n    /* \"#utility.yul\":2221:2294   */\n  swap1\n  jump\t// out\n    /* \"#utility.yul\":2300:2489   */\ntag_37:\n    /* \"#utility.yul\":2377:2409   */\n  tag_70\n  tag_36\n  jump\t// in\ntag_70:\n    /* \"#utility.yul\":2418:2483   */\n  tag_71\n    /* \"#utility.yul\":2476:2482   */\n  dup2\n    /* \"#utility.yul\":2468:2474   */\n  dup5\n    /* \"#utility.yul\":2462:2466   */\n  dup5\n    /* \"#utility.yul\":2418:2483   */\n  tag_35\n  jump\t// in\ntag_71:\n    /* \"#utility.yul\":2353:2489   */\n  pop\n    /* \"#utility.yul\":2300:2489   */\n  pop\n  pop\n  jump\t// out\n    /* \"#utility.yul\":2495:2681   */\ntag_38:\n    /* \"#utility.yul\":2555:2675   */\ntag_73:\n    /* \"#utility.yul\":2572:2575   */\n  dup2\n    /* \"#utility.yul\":2565:2570   */\n  dup2\n    /* \"#utility.yul\":2562:2576   */\n  lt\n    /* \"#utility.yul\":2555:2675   */\n  iszero\n  tag_75\n  jumpi\n    /* \"#utility.yul\":2626:2665   */\n  tag_76\n    /* \"#utility.yul\":2663:2664   */\n  0x00\n    /* \"#utility.yul\":2656:2661   */\n  dup3\n    /* \"#utility.yul\":2626:2665   */\n  tag_37\n  jump\t// in\ntag_76:\n    /* \"#utility.yul\":2599:2600   */\n  0x01\n    /* \"#utility.yul\":2592:2597   */\n  dup2\n    /* \"#utility.yul\":2588:2601   */\n  add\n    /* \"#utility.yul\":2579:2601   */\n  swap1\n  pop\n    /* \"#utility.yul\":2555:2675   */\n  jump(tag_73)\ntag_75:\n    /* \"#utility.yul\":2495:2681   */\n  pop\n  pop\n  jump\t// out\n    /* \"#utility.yul\":2687:3230   */\ntag_39:\n    /* \"#utility.yul\":2788:2790   */\n  0x1f\n    /* \"#utility.yul\":2783:2786   */\n  dup3\n    /* \"#utility.yul\":2780:2791   */\n  gt\n    /* \"#utility.yul\":2777:3223   */\n  iszero\n  tag_78\n  jumpi\n    /* \"#utility.yul\":2822:2860   */\n  tag_79\n    /* \"#utility.yul\":2854:2859   */\n  dup2\n    /* \"#utility.yul\":2822:2860   */\n  tag_27\n  jump\t// in\ntag_79:\n    /* \"#utility.yul\":2906:2935   */\n  tag_80\n    /* \"#utility.yul\":2924:2934   */\n  dup5\n    /* \"#utility.yul\":2906:2935   */\n  tag_28\n  jump\t// in\ntag_80:\n    /* \"#utility.yul\":2896:2904   */\n  dup2\n    /* \"#utility.yul\":2892:2936   */\n  add\n    /* \"#utility.yul\":3089:3091   */\n  0x20\n    /* \"#utility.yul\":3077:3087   */\n  dup6\n    /* \"#utility.yul\":3074:3092   */\n  lt\n    /* \"#utility.yul\":3071:3120   */\n  iszero\n  tag_81\n  jumpi\n    /* \"#utility.yul\":3110:3118   */\n  dup2\n    /* \"#utility.yul\":3095:3118   */\n  swap1\n  pop\n    /* \"#utility.yul\":3071:3120   */\ntag_81:\n    /* \"#utility.yul\":3133:3213   */\n  tag_82\n    /* \"#utility.yul\":3189:3211   */\n  tag_83\n    /* \"#utility.yul\":3207:3210   */\n  dup6\n    /* \"#utility.yul\":3189:3211   */\n  tag_28\n  jump\t// in\ntag_83:\n    /* \"#utility.yul\":3179:3187   */\n  dup4\n    /* \"#utility.yul\":3175:3212   */\n  add\n    /* \"#utility.yul\":3162:3173   */\n  dup3\n    /* \"#utility.yul\":3133:3213   */\n  tag_38\n  jump\t// in\ntag_82:\n    /* \"#utility.yul\":2792:3223   */\n  pop\n  pop\n    /* \"#utility.yul\":2777:3223   */\ntag_78:\n    /* \"#utility.yul\":2687:3230   */\n  pop\n  pop\n  pop\n  jump\t// out\n    /* \"#utility.yul\":3236:3353   */\ntag_40:\n    /* \"#utility.yul\":3290:3298   */\n  0x00\n    /* \"#utility.yul\":3340:3345   */\n  dup3\n    /* \"#utility.yul\":3334:3338   */\n  dup3\n    /* \"#utility.yul\":3330:3346   */\n  shr\n    /* \"#utility.yul\":3309:3346   */\n  swap1\n  pop\n    /* \"#utility.yul\":3236:3353   */\n  swap3\n  swap2\n  pop\n  pop\n  jump\t// out\n    /* \"#utility.yul\":3359:3528   */\ntag_41:\n    /* \"#utility.yul\":3403:3409   */\n  0x00\n    /* \"#utility.yul\":3436:3487   */\n  tag_86\n    /* \"#utility.yul\":3484:3485   */\n  0x00\n    /* \"#utility.yul\":3480:3486   */\n  not\n    /* \"#utility.yul\":3472:3477   */\n  dup5\n    /* \"#utility.yul\":3469:3470   */\n  0x08\n    /* \"#utility.yul\":3465:3478   */\n  mul\n    /* \"#utility.yul\":3436:3487   */\n  tag_40\n  jump\t// in\ntag_86:\n    /* \"#utility.yul\":3432:3488   */\n  not\n    /* \"#utility.yul\":3517:3521   */\n  dup1\n    /* \"#utility.yul\":3511:3515   */\n  dup4\n    /* \"#utility.yul\":3507:3522   */\n  and\n    /* \"#utility.yul\":3497:3522   */\n  swap2\n  pop\n    /* \"#utility.yul\":3410:3528   */\n  pop\n    /* \"#utility.yul\":3359:3528   */\n  swap3\n  swap2\n  pop\n  pop\n  jump\t// out\n    /* \"#utility.yul\":3533:3828   */\ntag_42:\n    /* \"#utility.yul\":3609:3613   */\n  0x00\n    /* \"#utility.yul\":3755:3784   */\n  tag_88\n    /* \"#utility.yul\":3780:3783   */\n  dup4\n    /* \"#utility.yul\":3774:3778   */\n  dup4\n    /* \"#utility.yul\":3755:3784   */\n  tag_41\n  jump\t// in\ntag_88:\n    /* \"#utility.yul\":3747:3784   */\n  swap2\n  pop\n    /* \"#utility.yul\":3817:3820   */\n  dup3\n    /* \"#utility.yul\":3814:3815   */\n  0x02\n    /* \"#utility.yul\":3810:3821   */\n  mul\n    /* \"#utility.yul\":3804:3808   */\n  dup3\n    /* \"#utility.yul\":3801:3822   */\n  or\n    /* \"#utility.yul\":3793:3822   */\n  swap1\n  pop\n    /* \"#utility.yul\":3533:3828   */\n  swap3\n  swap2\n  pop\n  pop\n  jump\t// out\n    /* \"#utility.yul\":3833:5228   */\ntag_9:\n    /* \"#utility.yul\":3950:3987   */\n  tag_90\n    /* \"#utility.yul\":3983:3986   */\n  dup3\n    /* \"#utility.yul\":3950:3987   */\n  tag_24\n  jump\t// in\ntag_90:\n    /* \"#utility.yul\":4052:4070   */\n  0xffffffffffffffff\n    /* \"#utility.yul\":4044:4050   */\n  dup2\n    /* \"#utility.yul\":4041:4071   */\n  gt\n    /* \"#utility.yul\":4038:4094   */\n  iszero\n  tag_91\n  jumpi\n    /* \"#utility.yul\":4074:4092   */\n  tag_92\n  tag_25\n  jump\t// in\ntag_92:\n    /* \"#utility.yul\":4038:4094   */\ntag_91:\n    /* \"#utility.yul\":4118:4156   */\n  tag_93\n    /* \"#utility.yul\":4150:4154   */\n  dup3\n    /* \"#utility.yul\":4144:4155   */\n  sload\n    /* \"#utility.yul\":4118:4156   */\n  tag_17\n  jump\t// in\ntag_93:\n    /* \"#utility.yul\":4203:4270   */\n  tag_94\n    /* \"#utility.yul\":4263:4269   */\n  dup3\n    /* \"#utility.yul\":4255:4261   */\n  dup3\n    /* \"#utility.yul\":4249:4253   */\n  dup6\n    /* \"#utility.yul\":4203:4270   */\n  tag_39\n  jump\t// in\ntag_94:\n    /* \"#utility.yul\":4297:4298   */\n  0x00\n    /* \"#utility.yul\":4321:4325   */\n  0x20\n    /* \"#utility.yul\":4308:4325   */\n  swap1\n  pop\n    /* \"#utility.yul\":4353:4355   */\n  0x1f\n    /* \"#utility.yul\":4345:4351   */\n  dup4\n    /* \"#utility.yul\":4342:4356   */\n  gt\n    /* \"#utility.yul\":4370:4371   */\n  0x01\n    /* \"#utility.yul\":4365:4983   */\n  dup2\n  eq\n  tag_96\n  jumpi\n    /* \"#utility.yul\":5027:5028   */\n  0x00\n    /* \"#utility.yul\":5044:5050   */\n  dup5\n    /* \"#utility.yul\":5041:5118   */\n  iszero\n  tag_97\n  jumpi\n    /* \"#utility.yul\":5093:5102   */\n  dup3\n    /* \"#utility.yul\":5088:5091   */\n  dup8\n    /* \"#utility.yul\":5084:5103   */\n  add\n    /* \"#utility.yul\":5078:5104   */\n  mload\n    /* \"#utility.yul\":5069:5104   */\n  swap1\n  pop\n    /* \"#utility.yul\":5041:5118   */\ntag_97:\n    /* \"#utility.yul\":5144:5211   */\n  tag_98\n    /* \"#utility.yul\":5204:5210   */\n  dup6\n    /* \"#utility.yul\":5197:5202   */\n  dup3\n    /* \"#utility.yul\":5144:5211   */\n  tag_42\n  jump\t// in\ntag_98:\n    /* \"#utility.yul\":5138:5142   */\n  dup7\n    /* \"#utility.yul\":5131:5212   */\n  sstore\n    /* \"#utility.yul\":5000:5222   */\n  pop\n    /* \"#utility.yul\":4335:5222   */\n  jump(tag_95)\n    /* \"#utility.yul\":4365:4983   */\ntag_96:\n    /* \"#utility.yul\":4417:4421   */\n  0x1f\n    /* \"#utility.yul\":4413:4422   */\n  not\n    /* \"#utility.yul\":4405:4411   */\n  dup5\n    /* \"#utility.yul\":4401:4423   */\n  and\n    /* \"#utility.yul\":4451:4488   */\n  tag_99\n    /* \"#utility.yul\":4483:4487   */\n  dup7\n    /* \"#utility.yul\":4451:4488   */\n  tag_27\n  jump\t// in\ntag_99:\n    /* \"#utility.yul\":4510:4511   */\n  0x00\n    /* \"#utility.yul\":4524:4732   */\ntag_100:\n    /* \"#utility.yul\":4538:4545   */\n  dup3\n    /* \"#utility.yul\":4535:4536   */\n  dup2\n    /* \"#utility.yul\":4532:4546   */\n  lt\n    /* \"#utility.yul\":4524:4732   */\n  iszero\n  tag_102\n  jumpi\n    /* \"#utility.yul\":4617:4626   */\n  dup5\n    /* \"#utility.yul\":4612:4615   */\n  dup10\n    /* \"#utility.yul\":4608:4627   */\n  add\n    /* \"#utility.yul\":4602:4628   */\n  mload\n    /* \"#utility.yul\":4594:4600   */\n  dup3\n    /* \"#utility.yul\":4587:4629   */\n  sstore\n    /* \"#utility.yul\":4668:4669   */\n  0x01\n    /* \"#utility.yul\":4660:4666   */\n  dup3\n    /* \"#utility.yul\":4656:4670   */\n  add\n    /* \"#utility.yul\":4646:4670   */\n  swap2\n  pop\n    /* \"#utility.yul\":4715:4717   */\n  0x20\n    /* \"#utility.yul\":4704:4713   */\n  dup6\n    /* \"#utility.yul\":4700:4718   */\n  add\n    /* \"#utility.yul\":4687:4718   */\n  swap5\n  pop\n    /* \"#utility.yul\":4561:4565   */\n  0x20\n    /* \"#utility.yul\":4558:4559   */\n  dup2\n    /* \"#utility.yul\":4554:4566   */\n  add\n    /* \"#utility.yul\":4549:4566   */\n  swap1\n  pop\n    /* \"#utility.yul\":4524:4732   */\n  jump(tag_100)\ntag_102:\n    /* \"#utility.yul\":4760:4766   */\n  dup7\n    /* \"#utility.yul\":4751:4758   */\n  dup4\n    /* \"#utility.yul\":4748:4767   */\n  lt\n    /* \"#utility.yul\":4745:4924   */\n  iszero\n  tag_103\n  jumpi\n    /* \"#utility.yul\":4818:4827   */\n  dup5\n    /* \"#utility.yul\":4813:4816   */\n  dup10\n    /* \"#utility.yul\":4809:4828   */\n  add\n    /* \"#utility.yul\":4803:4829   */\n  mload\n    /* \"#utility.yul\":4861:4909   */\n  tag_104\n    /* \"#utility.yul\":4903:4907   */\n  0x1f\n    /* \"#utility.yul\":4895:4901   */\n  dup10\n    /* \"#utility.yul\":4891:4908   */\n  and\n    /* \"#utility.yul\":4880:4889   */\n  dup3\n    /* \"#utility.yul\":4861:4909   */\n  tag_41\n  jump\t// in\ntag_104:\n    /* \"#utility.yul\":4853:4859   */\n  dup4\n    /* \"#utility.yul\":4846:4910   */\n  sstore\n    /* \"#utility.yul\":4768:4924   */\n  pop\n    /* \"#utility.yul\":4745:4924   */\ntag_103:\n    /* \"#utility.yul\":4970:4971   */\n  0x01\n    /* \"#utility.yul\":4966:4967   */\n  0x02\n    /* \"#utility.yul\":4958:4964   */\n  dup9\n    /* \"#utility.yul\":4954:4968   */\n  mul\n    /* \"#utility.yul\":4950:4972   */\n  add\n    /* \"#utility.yul\":4944:4948   */\n  dup9\n    /* \"#utility.yul\":4937:4973   */\n  sstore\n    /* \"#utility.yul\":4372:4983   */\n  pop\n  pop\n  pop\n    /* \"#utility.yul\":4335:5222   */\ntag_95:\n  pop\n    /* \"#utility.yul\":3925:5228   */\n  pop\n  pop\n  pop\n    /* \"#utility.yul\":3833:5228   */\n  pop\n  pop\n  jump\t// out\n    /* \"Solidity/Twitter.sol\":57:2395  contract Twitter {... */\ntag_4:\n  dataSize(sub_0)\n  dup1\n  dataOffset(sub_0)\n  0x00\n  codecopy\n  0x00\n  return\nstop\n\nsub_0: assembly {\n        /* \"Solidity/Twitter.sol\":57:2395  contract Twitter {... */\n      mstore(0x40, 0x80)\n      callvalue\n      dup1\n      iszero\n      tag_1\n      jumpi\n      revert(0x00, 0x00)\n    tag_1:\n      pop\n      jumpi(tag_2, lt(calldatasize, 0x04))\n      shr(0xe0, calldataload(0x00))\n      dup1\n      0x80eb3587\n      gt\n      tag_14\n      jumpi\n      dup1\n      0x80eb3587\n      eq\n      tag_8\n      jumpi\n      dup1\n      0x83240f83\n      eq\n      tag_9\n      jumpi\n      dup1\n      0x9ef8633f\n      eq\n      tag_10\n      jumpi\n      dup1\n      0xb6e76873\n      eq\n      tag_11\n      jumpi\n      dup1\n      0xe78c65aa\n      eq\n      tag_12\n      jumpi\n      dup1\n      0xff5c520d\n      eq\n      tag_13\n      jumpi\n      jump(tag_2)\n    tag_14:\n      dup1\n      0x05a1b4a9\n      eq\n      tag_3\n      jumpi\n      dup1\n      0x112f54e3\n      eq\n      tag_4\n      jumpi\n      dup1\n      0x63378216\n      eq\n      tag_5\n      jumpi\n      dup1\n      0x78977bf4\n      eq\n      tag_6\n      jumpi\n      dup1\n      0x7c9cd2bc\n      eq\n      tag_7\n      jumpi\n    tag_2:\n      revert(0x00, 0x00)\n        /* \"Solidity/Twitter.sol\":317:359  mapping (address => Tweet[]) public tweets */\n    tag_3:\n      tag_15\n      0x04\n      dup1\n      calldatasize\n      sub\n      dup2\n      add\n      swap1\n      tag_16\n      swap2\n      swap1\n      tag_17\n      jump\t// in\n    tag_16:\n      tag_18\n      jump\t// in\n    tag_15:\n      mload(0x40)\n      tag_19\n      swap6\n      swap5\n      swap4\n      swap3\n      swap2\n      swap1\n      tag_20\n      jump\t// in\n    tag_19:\n      mload(0x40)\n      dup1\n      swap2\n      sub\n      swap1\n      return\n        /* \"Solidity/Twitter.sol\":965:1102  function getTweet(address _owner, uint _index) public view returns (string memory) {... */\n    tag_4:\n      tag_21\n      0x04\n      dup1\n      calldatasize\n      sub\n      dup2\n      add\n      swap1\n      tag_22\n      swap2\n      swap1\n      tag_17\n      jump\t// in\n    tag_22:\n      tag_23\n      jump\t// in\n    tag_21:\n      mload(0x40)\n      tag_24\n      swap2\n      swap1\n      tag_25\n      jump\t// in\n    tag_24:\n      mload(0x40)\n      dup1\n      swap2\n      sub\n      swap1\n      return\n        /* \"Solidity/Twitter.sol\":1307:1521  function likeTweet(address _author, uint tweetIndex) external {... */\n    tag_5:\n      tag_26\n      0x04\n      dup1\n      calldatasize\n      sub\n      dup2\n      add\n      swap1\n      tag_27\n      swap2\n      swap1\n      tag_17\n      jump\t// in\n    tag_27:\n      tag_28\n      jump\t// in\n    tag_26:\n      stop\n        /* \"Solidity/Twitter.sol\":2075:2177  function updateUserActionsOptions(string memory _action) public {... */\n    tag_6:\n      tag_29\n      0x04\n      dup1\n      calldatasize\n      sub\n      dup2\n      add\n      swap1\n      tag_30\n      swap2\n      swap1\n      tag_31\n      jump\t// in\n    tag_30:\n      tag_32\n      jump\t// in\n    tag_29:\n      stop\n        /* \"Solidity/Twitter.sol\":427:959  function createTweet(string memory _tweet) public {... */\n    tag_7:\n      tag_33\n      0x04\n      dup1\n      calldatasize\n      sub\n      dup2\n      add\n      swap1\n      tag_34\n      swap2\n      swap1\n      tag_31\n      jump\t// in\n    tag_34:\n      tag_35\n      jump\t// in\n    tag_33:\n      stop\n        /* \"Solidity/Twitter.sol\":1838:2069  function getTweetLikes(address _author, uint tweetIndex) external view returns(uint) {... */\n    tag_8:\n      tag_36\n      0x04\n      dup1\n      calldatasize\n      sub\n      dup2\n      add\n      swap1\n      tag_37\n      swap2\n      swap1\n      tag_17\n      jump\t// in\n    tag_37:\n      tag_38\n      jump\t// in\n    tag_36:\n      mload(0x40)\n      tag_39\n      swap2\n      swap1\n      tag_40\n      jump\t// in\n    tag_39:\n      mload(0x40)\n      dup1\n      swap2\n      sub\n      swap1\n      return\n        /* \"Solidity/Twitter.sol\":366:420  string[] public actions = [\"like\", \"reply\", \"reshare\"] */\n    tag_9:\n      tag_41\n      0x04\n      dup1\n      calldatasize\n      sub\n      dup2\n      add\n      swap1\n      tag_42\n      swap2\n      swap1\n      tag_43\n      jump\t// in\n    tag_42:\n      tag_44\n      jump\t// in\n    tag_41:\n      mload(0x40)\n      tag_45\n      swap2\n      swap1\n      tag_25\n      jump\t// in\n    tag_45:\n      mload(0x40)\n      dup1\n      swap2\n      sub\n      swap1\n      return\n        /* \"Solidity/Twitter.sol\":1527:1832  function unLikeTweet(address _author, uint tweetIndex) external {... */\n    tag_10:\n      tag_46\n      0x04\n      dup1\n      calldatasize\n      sub\n      dup2\n      add\n      swap1\n      tag_47\n      swap2\n      swap1\n      tag_17\n      jump\t// in\n    tag_47:\n      tag_48\n      jump\t// in\n    tag_46:\n      stop\n        /* \"Solidity/Twitter.sol\":2286:2393  function getAction(uint _index) public view returns (string memory) {... */\n    tag_11:\n      tag_49\n      0x04\n      dup1\n      calldatasize\n      sub\n      dup2\n      add\n      swap1\n      tag_50\n      swap2\n      swap1\n      tag_43\n      jump\t// in\n    tag_50:\n      tag_51\n      jump\t// in\n    tag_49:\n      mload(0x40)\n      tag_52\n      swap2\n      swap1\n      tag_25\n      jump\t// in\n    tag_52:\n      mload(0x40)\n      dup1\n      swap2\n      sub\n      swap1\n      return\n        /* \"Solidity/Twitter.sol\":2187:2280  function getActionsLength() public view returns (uint) {... */\n    tag_12:\n      tag_53\n      tag_54\n      jump\t// in\n    tag_53:\n      mload(0x40)\n      tag_55\n      swap2\n      swap1\n      tag_40\n      jump\t// in\n    tag_55:\n      mload(0x40)\n      dup1\n      swap2\n      sub\n      swap1\n      return\n        /* \"Solidity/Twitter.sol\":1108:1301  function getAllOwnerTweets(address _owner) public view returns (Tweet[] memory) {... */\n    tag_13:\n      tag_56\n      0x04\n      dup1\n      calldatasize\n      sub\n      dup2\n      add\n      swap1\n      tag_57\n      swap2\n      swap1\n      tag_58\n      jump\t// in\n    tag_57:\n      tag_59\n      jump\t// in\n    tag_56:\n      mload(0x40)\n      tag_60\n      swap2\n      swap1\n      tag_61\n      jump\t// in\n    tag_60:\n      mload(0x40)\n      dup1\n      swap2\n      sub\n      swap1\n      return\n        /* \"Solidity/Twitter.sol\":317:359  mapping (address => Tweet[]) public tweets */\n    tag_18:\n      mstore(0x20, 0x00)\n      dup2\n      0x00\n      mstore\n      keccak256(0x00, 0x40)\n      dup2\n      dup2\n      sload\n      dup2\n      lt\n      tag_62\n      jumpi\n      0x00\n      dup1\n      revert\n    tag_62:\n      swap1\n      0x00\n      mstore\n      keccak256(0x00, 0x20)\n      swap1\n      0x05\n      mul\n      add\n      0x00\n      swap2\n      pop\n      swap2\n      pop\n      pop\n      dup1\n      0x00\n      add\n      sload\n      swap1\n      dup1\n      0x01\n      add\n      0x00\n      swap1\n      sload\n      swap1\n      0x0100\n      exp\n      swap1\n      div\n      0xffffffffffffffffffffffffffffffffffffffff\n      and\n      swap1\n      dup1\n      0x02\n      add\n      dup1\n      sload\n      tag_64\n      swap1\n      tag_65\n      jump\t// in\n    tag_64:\n      dup1\n      0x1f\n      add\n      0x20\n      dup1\n      swap2\n      div\n      mul\n      0x20\n      add\n      mload(0x40)\n      swap1\n      dup2\n      add\n      0x40\n      mstore\n      dup1\n      swap3\n      swap2\n      swap1\n      dup2\n      dup2\n      mstore\n      0x20\n      add\n      dup3\n      dup1\n      sload\n      tag_66\n      swap1\n      tag_65\n      jump\t// in\n    tag_66:\n      dup1\n      iszero\n      tag_67\n      jumpi\n      dup1\n      0x1f\n      lt\n      tag_68\n      jumpi\n      0x0100\n      dup1\n      dup4\n      sload\n      div\n      mul\n      dup4\n      mstore\n      swap2\n      0x20\n      add\n      swap2\n      jump(tag_67)\n    tag_68:\n      dup3\n      add\n      swap2\n      swap1\n      0x00\n      mstore\n      keccak256(0x00, 0x20)\n      swap1\n    tag_69:\n      dup2\n      sload\n      dup2\n      mstore\n      swap1\n      0x01\n      add\n      swap1\n      0x20\n      add\n      dup1\n      dup4\n      gt\n      tag_69\n      jumpi\n      dup3\n      swap1\n      sub\n      0x1f\n      and\n      dup3\n      add\n      swap2\n    tag_67:\n      pop\n      pop\n      pop\n      pop\n      pop\n      swap1\n      dup1\n      0x03\n      add\n      sload\n      swap1\n      dup1\n      0x04\n      add\n      sload\n      swap1\n      pop\n      dup6\n      jump\t// out\n        /* \"Solidity/Twitter.sol\":965:1102  function getTweet(address _owner, uint _index) public view returns (string memory) {... */\n    tag_23:\n        /* \"Solidity/Twitter.sol\":1033:1046  string memory */\n      0x60\n        /* \"Solidity/Twitter.sol\":1065:1071  tweets */\n      0x00\n        /* \"Solidity/Twitter.sol\":1065:1079  tweets[_owner] */\n      0x00\n        /* \"Solidity/Twitter.sol\":1072:1078  _owner */\n      dup5\n        /* \"Solidity/Twitter.sol\":1065:1079  tweets[_owner] */\n      0xffffffffffffffffffffffffffffffffffffffff\n      and\n      0xffffffffffffffffffffffffffffffffffffffff\n      and\n      dup2\n      mstore\n      0x20\n      add\n      swap1\n      dup2\n      mstore\n      0x20\n      add\n      0x00\n      keccak256\n        /* \"Solidity/Twitter.sol\":1080:1086  _index */\n      dup3\n        /* \"Solidity/Twitter.sol\":1065:1087  tweets[_owner][_index] */\n      dup2\n      sload\n      dup2\n      lt\n      tag_71\n      jumpi\n      tag_72\n      tag_73\n      jump\t// in\n    tag_72:\n    tag_71:\n      swap1\n      0x00\n      mstore\n      keccak256(0x00, 0x20)\n      swap1\n      0x05\n      mul\n      add\n        /* \"Solidity/Twitter.sol\":1065:1095  tweets[_owner][_index].content */\n      0x02\n      add\n        /* \"Solidity/Twitter.sol\":1058:1095  return tweets[_owner][_index].content */\n      dup1\n      sload\n      tag_75\n      swap1\n      tag_65\n      jump\t// in\n    tag_75:\n      dup1\n      0x1f\n      add\n      0x20\n      dup1\n      swap2\n      div\n      mul\n      0x20\n      add\n      mload(0x40)\n      swap1\n      dup2\n      add\n      0x40\n      mstore\n      dup1\n      swap3\n      swap2\n      swap1\n      dup2\n      dup2\n      mstore\n      0x20\n      add\n      dup3\n      dup1\n      sload\n      tag_76\n      swap1\n      tag_65\n      jump\t// in\n    tag_76:\n      dup1\n      iszero\n      tag_77\n      jumpi\n      dup1\n      0x1f\n      lt\n      tag_78\n      jumpi\n      0x0100\n      dup1\n      dup4\n      sload\n      div\n      mul\n      dup4\n      mstore\n      swap2\n      0x20\n      add\n      swap2\n      jump(tag_77)\n    tag_78:\n      dup3\n      add\n      swap2\n      swap1\n      0x00\n      mstore\n      keccak256(0x00, 0x20)\n      swap1\n    tag_79:\n      dup2\n      sload\n      dup2\n      mstore\n      swap1\n      0x01\n      add\n      swap1\n      0x20\n      add\n      dup1\n      dup4\n      gt\n      tag_79\n      jumpi\n      dup3\n      swap1\n      sub\n      0x1f\n      and\n      dup3\n      add\n      swap2\n    tag_77:\n      pop\n      pop\n      pop\n      pop\n      pop\n      swap1\n      pop\n        /* \"Solidity/Twitter.sol\":965:1102  function getTweet(address _owner, uint _index) public view returns (string memory) {... */\n      swap3\n      swap2\n      pop\n      pop\n      jump\t// out\n        /* \"Solidity/Twitter.sol\":1307:1521  function likeTweet(address _author, uint tweetIndex) external {... */\n    tag_28:\n        /* \"Solidity/Twitter.sol\":1425:1432  _author */\n      dup2\n        /* \"Solidity/Twitter.sol\":1387:1432  tweets[_author][tweetIndex].author == _author */\n      0xffffffffffffffffffffffffffffffffffffffff\n      and\n        /* \"Solidity/Twitter.sol\":1387:1393  tweets */\n      0x00\n        /* \"Solidity/Twitter.sol\":1387:1402  tweets[_author] */\n      0x00\n        /* \"Solidity/Twitter.sol\":1394:1401  _author */\n      dup5\n        /* \"Solidity/Twitter.sol\":1387:1402  tweets[_author] */\n      0xffffffffffffffffffffffffffffffffffffffff\n      and\n      0xffffffffffffffffffffffffffffffffffffffff\n      and\n      dup2\n      mstore\n      0x20\n      add\n      swap1\n      dup2\n      mstore\n      0x20\n      add\n      0x00\n      keccak256\n        /* \"Solidity/Twitter.sol\":1403:1413  tweetIndex */\n      dup3\n        /* \"Solidity/Twitter.sol\":1387:1414  tweets[_author][tweetIndex] */\n      dup2\n      sload\n      dup2\n      lt\n      tag_81\n      jumpi\n      tag_82\n      tag_73\n      jump\t// in\n    tag_82:\n    tag_81:\n      swap1\n      0x00\n      mstore\n      keccak256(0x00, 0x20)\n      swap1\n      0x05\n      mul\n      add\n        /* \"Solidity/Twitter.sol\":1387:1421  tweets[_author][tweetIndex].author */\n      0x01\n      add\n      0x00\n      swap1\n      sload\n      swap1\n      0x0100\n      exp\n      swap1\n      div\n      0xffffffffffffffffffffffffffffffffffffffff\n      and\n        /* \"Solidity/Twitter.sol\":1387:1432  tweets[_author][tweetIndex].author == _author */\n      0xffffffffffffffffffffffffffffffffffffffff\n      and\n      eq\n        /* \"Solidity/Twitter.sol\":1379:1457  require(tweets[_author][tweetIndex].author == _author, \"Tweet does not exist\") */\n      tag_84\n      jumpi\n      mload(0x40)\n      0x08c379a000000000000000000000000000000000000000000000000000000000\n      dup2\n      mstore\n      0x04\n      add\n      tag_85\n      swap1\n      tag_86\n      jump\t// in\n    tag_85:\n      mload(0x40)\n      dup1\n      swap2\n      sub\n      swap1\n      revert\n    tag_84:\n        /* \"Solidity/Twitter.sol\":1513:1514  1 */\n      0x01\n        /* \"Solidity/Twitter.sol\":1476:1482  tweets */\n      0x00\n        /* \"Solidity/Twitter.sol\":1476:1491  tweets[_author] */\n      0x00\n        /* \"Solidity/Twitter.sol\":1483:1490  _author */\n      dup5\n        /* \"Solidity/Twitter.sol\":1476:1491  tweets[_author] */\n      0xffffffffffffffffffffffffffffffffffffffff\n      and\n      0xffffffffffffffffffffffffffffffffffffffff\n      and\n      dup2\n      mstore\n      0x20\n      add\n      swap1\n      dup2\n      mstore\n      0x20\n      add\n      0x00\n      keccak256\n        /* \"Solidity/Twitter.sol\":1492:1502  tweetIndex */\n      dup3\n        /* \"Solidity/Twitter.sol\":1476:1503  tweets[_author][tweetIndex] */\n      dup2\n      sload\n      dup2\n      lt\n      tag_87\n      jumpi\n      tag_88\n      tag_73\n      jump\t// in\n    tag_88:\n    tag_87:\n      swap1\n      0x00\n      mstore\n      keccak256(0x00, 0x20)\n      swap1\n      0x05\n      mul\n      add\n        /* \"Solidity/Twitter.sol\":1476:1509  tweets[_author][tweetIndex].likes */\n      0x04\n      add\n      0x00\n        /* \"Solidity/Twitter.sol\":1476:1514  tweets[_author][tweetIndex].likes += 1 */\n      dup3\n      dup3\n      sload\n      tag_90\n      swap2\n      swap1\n      tag_91\n      jump\t// in\n    tag_90:\n      swap3\n      pop\n      pop\n      dup2\n      swap1\n      sstore\n      pop\n        /* \"Solidity/Twitter.sol\":1307:1521  function likeTweet(address _author, uint tweetIndex) external {... */\n      pop\n      pop\n      jump\t// out\n        /* \"Solidity/Twitter.sol\":2075:2177  function updateUserActionsOptions(string memory _action) public {... */\n    tag_32:\n        /* \"Solidity/Twitter.sol\":2149:2156  actions */\n      0x01\n        /* \"Solidity/Twitter.sol\":2162:2169  _action */\n      dup2\n        /* \"Solidity/Twitter.sol\":2149:2170  actions.push(_action) */\n      swap1\n      dup1\n      0x01\n      dup2\n      sload\n      add\n      dup1\n      dup3\n      sstore\n      dup1\n      swap2\n      pop\n      pop\n      0x01\n      swap1\n      sub\n      swap1\n      0x00\n      mstore\n      keccak256(0x00, 0x20)\n      add\n      0x00\n      swap1\n      swap2\n      swap1\n      swap2\n      swap1\n      swap2\n      pop\n      swap1\n      dup2\n      tag_94\n      swap2\n      swap1\n      tag_95\n      jump\t// in\n    tag_94:\n      pop\n        /* \"Solidity/Twitter.sol\":2075:2177  function updateUserActionsOptions(string memory _action) public {... */\n      pop\n      jump\t// out\n        /* \"Solidity/Twitter.sol\":427:959  function createTweet(string memory _tweet) public {... */\n    tag_35:\n        /* \"Solidity/Twitter.sol\":518:519  0 */\n      0x00\n        /* \"Solidity/Twitter.sol\":501:507  _tweet */\n      dup2\n        /* \"Solidity/Twitter.sol\":495:515  bytes(_tweet).length */\n      mload\n        /* \"Solidity/Twitter.sol\":495:519  bytes(_tweet).length > 0 */\n      gt\n        /* \"Solidity/Twitter.sol\":487:545  require(bytes(_tweet).length > 0, \"Tweet cannot be empty\") */\n      tag_97\n      jumpi\n      mload(0x40)\n      0x08c379a000000000000000000000000000000000000000000000000000000000\n      dup2\n      mstore\n      0x04\n      add\n      tag_98\n      swap1\n      tag_99\n      jump\t// in\n    tag_98:\n      mload(0x40)\n      dup1\n      swap2\n      sub\n      swap1\n      revert\n    tag_97:\n        /* \"Solidity/Twitter.sol\":116:119  280 */\n      0x0118\n        /* \"Solidity/Twitter.sol\":563:603  bytes(_tweet).length <= MAX_TWEET_LENGTH */\n      0xffff\n      and\n        /* \"Solidity/Twitter.sol\":569:575  _tweet */\n      dup2\n        /* \"Solidity/Twitter.sol\":563:583  bytes(_tweet).length */\n      mload\n        /* \"Solidity/Twitter.sol\":563:603  bytes(_tweet).length <= MAX_TWEET_LENGTH */\n      gt\n      iszero\n        /* \"Solidity/Twitter.sol\":555:648  require(bytes(_tweet).length <= MAX_TWEET_LENGTH, \"Tweet cannot be more than 280 characters\") */\n      tag_100\n      jumpi\n      mload(0x40)\n      0x08c379a000000000000000000000000000000000000000000000000000000000\n      dup2\n      mstore\n      0x04\n      add\n      tag_101\n      swap1\n      tag_102\n      jump\t// in\n    tag_101:\n      mload(0x40)\n      dup1\n      swap2\n      sub\n      swap1\n      revert\n    tag_100:\n        /* \"Solidity/Twitter.sol\":659:680  Tweet memory newTweet */\n      0x00\n        /* \"Solidity/Twitter.sol\":683:909  Tweet({... */\n      mload(0x40)\n      dup1\n      0xa0\n      add\n      0x40\n      mstore\n      dup1\n        /* \"Solidity/Twitter.sol\":742:757  block.timestamp */\n      timestamp\n        /* \"Solidity/Twitter.sol\":759:769  msg.sender */\n      caller\n        /* \"Solidity/Twitter.sol\":725:770  abi.encodePacked(block.timestamp, msg.sender) */\n      add(0x20, mload(0x40))\n      tag_103\n      swap3\n      swap2\n      swap1\n      tag_104\n      jump\t// in\n    tag_103:\n      mload(0x40)\n      0x20\n      dup2\n      dup4\n      sub\n      sub\n      dup2\n      mstore\n      swap1\n      0x40\n      mstore\n        /* \"Solidity/Twitter.sol\":715:771  keccak256(abi.encodePacked(block.timestamp, msg.sender)) */\n      dup1\n      mload\n      swap1\n      0x20\n      add\n      keccak256\n        /* \"Solidity/Twitter.sol\":707:772  uint256(keccak256(abi.encodePacked(block.timestamp, msg.sender))) */\n      0x00\n      shr\n        /* \"Solidity/Twitter.sol\":683:909  Tweet({... */\n      dup2\n      mstore\n      0x20\n      add\n        /* \"Solidity/Twitter.sol\":866:876  msg.sender */\n      caller\n        /* \"Solidity/Twitter.sol\":683:909  Tweet({... */\n      0xffffffffffffffffffffffffffffffffffffffff\n      and\n      dup2\n      mstore\n      0x20\n      add\n        /* \"Solidity/Twitter.sol\":796:802  _tweet */\n      dup4\n        /* \"Solidity/Twitter.sol\":683:909  Tweet({... */\n      dup2\n      mstore\n      0x20\n      add\n        /* \"Solidity/Twitter.sol\":828:843  block.timestamp */\n      timestamp\n        /* \"Solidity/Twitter.sol\":683:909  Tweet({... */\n      dup2\n      mstore\n      0x20\n      add\n        /* \"Solidity/Twitter.sol\":897:898  0 */\n      0x00\n        /* \"Solidity/Twitter.sol\":683:909  Tweet({... */\n      dup2\n      mstore\n      pop\n        /* \"Solidity/Twitter.sol\":659:909  Tweet memory newTweet = Tweet({... */\n      swap1\n      pop\n        /* \"Solidity/Twitter.sol\":919:925  tweets */\n      0x00\n        /* \"Solidity/Twitter.sol\":919:937  tweets[msg.sender] */\n      0x00\n        /* \"Solidity/Twitter.sol\":926:936  msg.sender */\n      caller\n        /* \"Solidity/Twitter.sol\":919:937  tweets[msg.sender] */\n      0xffffffffffffffffffffffffffffffffffffffff\n      and\n      0xffffffffffffffffffffffffffffffffffffffff\n      and\n      dup2\n      mstore\n      0x20\n      add\n      swap1\n      dup2\n      mstore\n      0x20\n      add\n      0x00\n      keccak256\n        /* \"Solidity/Twitter.sol\":943:951  newTweet */\n      dup2\n        /* \"Solidity/Twitter.sol\":919:952  tweets[msg.sender].push(newTweet) */\n      swap1\n      dup1\n      0x01\n      dup2\n      sload\n      add\n      dup1\n      dup3\n      sstore\n      dup1\n      swap2\n      pop\n      pop\n      0x01\n      swap1\n      sub\n      swap1\n      0x00\n      mstore\n      keccak256(0x00, 0x20)\n      swap1\n      0x05\n      mul\n      add\n      0x00\n      swap1\n      swap2\n      swap1\n      swap2\n      swap1\n      swap2\n      pop\n      0x00\n      dup3\n      add\n      mload\n      dup2\n      0x00\n      add\n      sstore\n      0x20\n      dup3\n      add\n      mload\n      dup2\n      0x01\n      add\n      exp(0x0100, 0x00)\n      dup2\n      sload\n      dup2\n      0xffffffffffffffffffffffffffffffffffffffff\n      mul\n      not\n      and\n      swap1\n      dup4\n      0xffffffffffffffffffffffffffffffffffffffff\n      and\n      mul\n      or\n      swap1\n      sstore\n      pop\n      0x40\n      dup3\n      add\n      mload\n      dup2\n      0x02\n      add\n      swap1\n      dup2\n      tag_106\n      swap2\n      swap1\n      tag_95\n      jump\t// in\n    tag_106:\n      pop\n      0x60\n      dup3\n      add\n      mload\n      dup2\n      0x03\n      add\n      sstore\n      0x80\n      dup3\n      add\n      mload\n      dup2\n      0x04\n      add\n      sstore\n      pop\n      pop\n        /* \"Solidity/Twitter.sol\":477:959  {... */\n      pop\n        /* \"Solidity/Twitter.sol\":427:959  function createTweet(string memory _tweet) public {... */\n      pop\n      jump\t// out\n        /* \"Solidity/Twitter.sol\":1838:2069  function getTweetLikes(address _author, uint tweetIndex) external view returns(uint) {... */\n    tag_38:\n        /* \"Solidity/Twitter.sol\":1917:1921  uint */\n      0x00\n        /* \"Solidity/Twitter.sol\":1979:1986  _author */\n      dup3\n        /* \"Solidity/Twitter.sol\":1941:1986  tweets[_author][tweetIndex].author == _author */\n      0xffffffffffffffffffffffffffffffffffffffff\n      and\n        /* \"Solidity/Twitter.sol\":1941:1947  tweets */\n      0x00\n        /* \"Solidity/Twitter.sol\":1941:1956  tweets[_author] */\n      0x00\n        /* \"Solidity/Twitter.sol\":1948:1955  _author */\n      dup6\n        /* \"Solidity/Twitter.sol\":1941:1956  tweets[_author] */\n      0xffffffffffffffffffffffffffffffffffffffff\n      and\n      0xffffffffffffffffffffffffffffffffffffffff\n      and\n      dup2\n      mstore\n      0x20\n      add\n      swap1\n      dup2\n      mstore\n      0x20\n      add\n      0x00\n      keccak256\n        /* \"Solidity/Twitter.sol\":1957:1967  tweetIndex */\n      dup4\n        /* \"Solidity/Twitter.sol\":1941:1968  tweets[_author][tweetIndex] */\n      dup2\n      sload\n      dup2\n      lt\n      tag_108\n      jumpi\n      tag_109\n      tag_73\n      jump\t// in\n    tag_109:\n    tag_108:\n      swap1\n      0x00\n      mstore\n      keccak256(0x00, 0x20)\n      swap1\n      0x05\n      mul\n      add\n        /* \"Solidity/Twitter.sol\":1941:1975  tweets[_author][tweetIndex].author */\n      0x01\n      add\n      0x00\n      swap1\n      sload\n      swap1\n      0x0100\n      exp\n      swap1\n      div\n      0xffffffffffffffffffffffffffffffffffffffff\n      and\n        /* \"Solidity/Twitter.sol\":1941:1986  tweets[_author][tweetIndex].author == _author */\n      0xffffffffffffffffffffffffffffffffffffffff\n      and\n      eq\n        /* \"Solidity/Twitter.sol\":1933:2011  require(tweets[_author][tweetIndex].author == _author, \"Tweet does not exist\") */\n      tag_111\n      jumpi\n      mload(0x40)\n      0x08c379a000000000000000000000000000000000000000000000000000000000\n      dup2\n      mstore\n      0x04\n      add\n      tag_112\n      swap1\n      tag_86\n      jump\t// in\n    tag_112:\n      mload(0x40)\n      dup1\n      swap2\n      sub\n      swap1\n      revert\n    tag_111:\n        /* \"Solidity/Twitter.sol\":2029:2035  tweets */\n      0x00\n        /* \"Solidity/Twitter.sol\":2029:2044  tweets[_author] */\n      0x00\n        /* \"Solidity/Twitter.sol\":2036:2043  _author */\n      dup5\n        /* \"Solidity/Twitter.sol\":2029:2044  tweets[_author] */\n      0xffffffffffffffffffffffffffffffffffffffff\n      and\n      0xffffffffffffffffffffffffffffffffffffffff\n      and\n      dup2\n      mstore\n      0x20\n      add\n      swap1\n      dup2\n      mstore\n      0x20\n      add\n      0x00\n      keccak256\n        /* \"Solidity/Twitter.sol\":2045:2055  tweetIndex */\n      dup3\n        /* \"Solidity/Twitter.sol\":2029:2056  tweets[_author][tweetIndex] */\n      dup2\n      sload\n      dup2\n      lt\n      tag_113\n      jumpi\n      tag_114\n      tag_73\n      jump\t// in\n    tag_114:\n    tag_113:\n      swap1\n      0x00\n      mstore\n      keccak256(0x00, 0x20)\n      swap1\n      0x05\n      mul\n      add\n        /* \"Solidity/Twitter.sol\":2029:2062  tweets[_author][tweetIndex].likes */\n      0x04\n      add\n      sload\n        /* \"Solidity/Twitter.sol\":2022:2062  return tweets[_author][tweetIndex].likes */\n      swap1\n      pop\n        /* \"Solidity/Twitter.sol\":1838:2069  function getTweetLikes(address _author, uint tweetIndex) external view returns(uint) {... */\n      swap3\n      swap2\n      pop\n      pop\n      jump\t// out\n        /* \"Solidity/Twitter.sol\":366:420  string[] public actions = [\"like\", \"reply\", \"reshare\"] */\n    tag_44:\n      0x01\n      dup2\n      dup2\n      sload\n      dup2\n      lt\n      tag_116\n      jumpi\n      0x00\n      dup1\n      revert\n    tag_116:\n      swap1\n      0x00\n      mstore\n      keccak256(0x00, 0x20)\n      add\n      0x00\n      swap2\n      pop\n      swap1\n      pop\n      dup1\n      sload\n      tag_118\n      swap1\n      tag_65\n      jump\t// in\n    tag_118:\n      dup1\n      0x1f\n      add\n      0x20\n      dup1\n      swap2\n      div\n      mul\n      0x20\n      add\n      mload(0x40)\n      swap1\n      dup2\n      add\n      0x40\n      mstore\n      dup1\n      swap3\n      swap2\n      swap1\n      dup2\n      dup2\n      mstore\n      0x20\n      add\n      dup3\n      dup1\n      sload\n      tag_119\n      swap1\n      tag_65\n      jump\t// in\n    tag_119:\n      dup1\n      iszero\n      tag_120\n      jumpi\n      dup1\n      0x1f\n      lt\n      tag_121\n      jumpi\n      0x0100\n      dup1\n      dup4\n      sload\n      div\n      mul\n      dup4\n      mstore\n      swap2\n      0x20\n      add\n      swap2\n      jump(tag_120)\n    tag_121:\n      dup3\n      add\n      swap2\n      swap1\n      0x00\n      mstore\n      keccak256(0x00, 0x20)\n      swap1\n    tag_122:\n      dup2\n      sload\n      dup2\n      mstore\n      swap1\n      0x01\n      add\n      swap1\n      0x20\n      add\n      dup1\n      dup4\n      gt\n      tag_122\n      jumpi\n      dup3\n      swap1\n      sub\n      0x1f\n      and\n      dup3\n      add\n      swap2\n    tag_120:\n      pop\n      pop\n      pop\n      pop\n      pop\n      dup2\n      jump\t// out\n        /* \"Solidity/Twitter.sol\":1527:1832  function unLikeTweet(address _author, uint tweetIndex) external {... */\n    tag_48:\n        /* \"Solidity/Twitter.sol\":1647:1654  _author */\n      dup2\n        /* \"Solidity/Twitter.sol\":1609:1654  tweets[_author][tweetIndex].author == _author */\n      0xffffffffffffffffffffffffffffffffffffffff\n      and\n        /* \"Solidity/Twitter.sol\":1609:1615  tweets */\n      0x00\n        /* \"Solidity/Twitter.sol\":1609:1624  tweets[_author] */\n      0x00\n        /* \"Solidity/Twitter.sol\":1616:1623  _author */\n      dup5\n        /* \"Solidity/Twitter.sol\":1609:1624  tweets[_author] */\n      0xffffffffffffffffffffffffffffffffffffffff\n      and\n      0xffffffffffffffffffffffffffffffffffffffff\n      and\n      dup2\n      mstore\n      0x20\n      add\n      swap1\n      dup2\n      mstore\n      0x20\n      add\n      0x00\n      keccak256\n        /* \"Solidity/Twitter.sol\":1625:1635  tweetIndex */\n      dup3\n        /* \"Solidity/Twitter.sol\":1609:1636  tweets[_author][tweetIndex] */\n      dup2\n      sload\n      dup2\n      lt\n      tag_124\n      jumpi\n      tag_125\n      tag_73\n      jump\t// in\n    tag_125:\n    tag_124:\n      swap1\n      0x00\n      mstore\n      keccak256(0x00, 0x20)\n      swap1\n      0x05\n      mul\n      add\n        /* \"Solidity/Twitter.sol\":1609:1643  tweets[_author][tweetIndex].author */\n      0x01\n      add\n      0x00\n      swap1\n      sload\n      swap1\n      0x0100\n      exp\n      swap1\n      div\n      0xffffffffffffffffffffffffffffffffffffffff\n      and\n        /* \"Solidity/Twitter.sol\":1609:1654  tweets[_author][tweetIndex].author == _author */\n      0xffffffffffffffffffffffffffffffffffffffff\n      and\n      eq\n        /* \"Solidity/Twitter.sol\":1601:1679  require(tweets[_author][tweetIndex].author == _author, \"Tweet does not exist\") */\n      tag_127\n      jumpi\n      mload(0x40)\n      0x08c379a000000000000000000000000000000000000000000000000000000000\n      dup2\n      mstore\n      0x04\n      add\n      tag_128\n      swap1\n      tag_86\n      jump\t// in\n    tag_128:\n      mload(0x40)\n      dup1\n      swap2\n      sub\n      swap1\n      revert\n    tag_127:\n        /* \"Solidity/Twitter.sol\":1733:1734  0 */\n      0x00\n        /* \"Solidity/Twitter.sol\":1697:1703  tweets */\n      0x00\n        /* \"Solidity/Twitter.sol\":1697:1712  tweets[_author] */\n      0x00\n        /* \"Solidity/Twitter.sol\":1704:1711  _author */\n      dup5\n        /* \"Solidity/Twitter.sol\":1697:1712  tweets[_author] */\n      0xffffffffffffffffffffffffffffffffffffffff\n      and\n      0xffffffffffffffffffffffffffffffffffffffff\n      and\n      dup2\n      mstore\n      0x20\n      add\n      swap1\n      dup2\n      mstore\n      0x20\n      add\n      0x00\n      keccak256\n        /* \"Solidity/Twitter.sol\":1713:1723  tweetIndex */\n      dup3\n        /* \"Solidity/Twitter.sol\":1697:1724  tweets[_author][tweetIndex] */\n      dup2\n      sload\n      dup2\n      lt\n      tag_129\n      jumpi\n      tag_130\n      tag_73\n      jump\t// in\n    tag_130:\n    tag_129:\n      swap1\n      0x00\n      mstore\n      keccak256(0x00, 0x20)\n      swap1\n      0x05\n      mul\n      add\n        /* \"Solidity/Twitter.sol\":1697:1730  tweets[_author][tweetIndex].likes */\n      0x04\n      add\n      sload\n        /* \"Solidity/Twitter.sol\":1697:1734  tweets[_author][tweetIndex].likes > 0 */\n      gt\n        /* \"Solidity/Twitter.sol\":1689:1768  require(tweets[_author][tweetIndex].likes > 0, \"Tweet does not have any likes\") */\n      tag_132\n      jumpi\n      mload(0x40)\n      0x08c379a000000000000000000000000000000000000000000000000000000000\n      dup2\n      mstore\n      0x04\n      add\n      tag_133\n      swap1\n      tag_134\n      jump\t// in\n    tag_133:\n      mload(0x40)\n      dup1\n      swap2\n      sub\n      swap1\n      revert\n    tag_132:\n        /* \"Solidity/Twitter.sol\":1824:1825  1 */\n      0x01\n        /* \"Solidity/Twitter.sol\":1787:1793  tweets */\n      0x00\n        /* \"Solidity/Twitter.sol\":1787:1802  tweets[_author] */\n      0x00\n        /* \"Solidity/Twitter.sol\":1794:1801  _author */\n      dup5\n        /* \"Solidity/Twitter.sol\":1787:1802  tweets[_author] */\n      0xffffffffffffffffffffffffffffffffffffffff\n      and\n      0xffffffffffffffffffffffffffffffffffffffff\n      and\n      dup2\n      mstore\n      0x20\n      add\n      swap1\n      dup2\n      mstore\n      0x20\n      add\n      0x00\n      keccak256\n        /* \"Solidity/Twitter.sol\":1803:1813  tweetIndex */\n      dup3\n        /* \"Solidity/Twitter.sol\":1787:1814  tweets[_author][tweetIndex] */\n      dup2\n      sload\n      dup2\n      lt\n      tag_135\n      jumpi\n      tag_136\n      tag_73\n      jump\t// in\n    tag_136:\n    tag_135:\n      swap1\n      0x00\n      mstore\n      keccak256(0x00, 0x20)\n      swap1\n      0x05\n      mul\n      add\n        /* \"Solidity/Twitter.sol\":1787:1820  tweets[_author][tweetIndex].likes */\n      0x04\n      add\n      0x00\n        /* \"Solidity/Twitter.sol\":1787:1825  tweets[_author][tweetIndex].likes -= 1 */\n      dup3\n      dup3\n      sload\n      tag_138\n      swap2\n      swap1\n      tag_139\n      jump\t// in\n    tag_138:\n      swap3\n      pop\n      pop\n      dup2\n      swap1\n      sstore\n      pop\n        /* \"Solidity/Twitter.sol\":1527:1832  function unLikeTweet(address _author, uint tweetIndex) external {... */\n      pop\n      pop\n      jump\t// out\n        /* \"Solidity/Twitter.sol\":2286:2393  function getAction(uint _index) public view returns (string memory) {... */\n    tag_51:\n        /* \"Solidity/Twitter.sol\":2339:2352  string memory */\n      0x60\n        /* \"Solidity/Twitter.sol\":2371:2378  actions */\n      0x01\n        /* \"Solidity/Twitter.sol\":2379:2385  _index */\n      dup3\n        /* \"Solidity/Twitter.sol\":2371:2386  actions[_index] */\n      dup2\n      sload\n      dup2\n      lt\n      tag_141\n      jumpi\n      tag_142\n      tag_73\n      jump\t// in\n    tag_142:\n    tag_141:\n      swap1\n      0x00\n      mstore\n      keccak256(0x00, 0x20)\n      add\n        /* \"Solidity/Twitter.sol\":2364:2386  return actions[_index] */\n      dup1\n      sload\n      tag_144\n      swap1\n      tag_65\n      jump\t// in\n    tag_144:\n      dup1\n      0x1f\n      add\n      0x20\n      dup1\n      swap2\n      div\n      mul\n      0x20\n      add\n      mload(0x40)\n      swap1\n      dup2\n      add\n      0x40\n      mstore\n      dup1\n      swap3\n      swap2\n      swap1\n      dup2\n      dup2\n      mstore\n      0x20\n      add\n      dup3\n      dup1\n      sload\n      tag_145\n      swap1\n      tag_65\n      jump\t// in\n    tag_145:\n      dup1\n      iszero\n      tag_146\n      jumpi\n      dup1\n      0x1f\n      lt\n      tag_147\n      jumpi\n      0x0100\n      dup1\n      dup4\n      sload\n      div\n      mul\n      dup4\n      mstore\n      swap2\n      0x20\n      add\n      swap2\n      jump(tag_146)\n    tag_147:\n      dup3\n      add\n      swap2\n      swap1\n      0x00\n      mstore\n      keccak256(0x00, 0x20)\n      swap1\n    tag_148:\n      dup2\n      sload\n      dup2\n      mstore\n      swap1\n      0x01\n      add\n      swap1\n      0x20\n      add\n      dup1\n      dup4\n      gt\n      tag_148\n      jumpi\n      dup3\n      swap1\n      sub\n      0x1f\n      and\n      dup3\n      add\n      swap2\n    tag_146:\n      pop\n      pop\n      pop\n      pop\n      pop\n      swap1\n      pop\n        /* \"Solidity/Twitter.sol\":2286:2393  function getAction(uint _index) public view returns (string memory) {... */\n      swap2\n      swap1\n      pop\n      jump\t// out\n        /* \"Solidity/Twitter.sol\":2187:2280  function getActionsLength() public view returns (uint) {... */\n    tag_54:\n        /* \"Solidity/Twitter.sol\":2236:2240  uint */\n      0x00\n        /* \"Solidity/Twitter.sol\":2259:2266  actions */\n      0x01\n        /* \"Solidity/Twitter.sol\":2259:2273  actions.length */\n      dup1\n      sload\n      swap1\n      pop\n        /* \"Solidity/Twitter.sol\":2252:2273  return actions.length */\n      swap1\n      pop\n        /* \"Solidity/Twitter.sol\":2187:2280  function getActionsLength() public view returns (uint) {... */\n      swap1\n      jump\t// out\n        /* \"Solidity/Twitter.sol\":1108:1301  function getAllOwnerTweets(address _owner) public view returns (Tweet[] memory) {... */\n    tag_59:\n        /* \"Solidity/Twitter.sol\":1172:1186  Tweet[] memory */\n      0x60\n        /* \"Solidity/Twitter.sol\":1220:1226  _owner */\n      dup2\n        /* \"Solidity/Twitter.sol\":1206:1226  msg.sender == _owner */\n      0xffffffffffffffffffffffffffffffffffffffff\n      and\n        /* \"Solidity/Twitter.sol\":1206:1216  msg.sender */\n      caller\n        /* \"Solidity/Twitter.sol\":1206:1226  msg.sender == _owner */\n      0xffffffffffffffffffffffffffffffffffffffff\n      and\n      eq\n        /* \"Solidity/Twitter.sol\":1198:1263  require(msg.sender == _owner, \"You can only get your own tweets\") */\n      tag_151\n      jumpi\n      mload(0x40)\n      0x08c379a000000000000000000000000000000000000000000000000000000000\n      dup2\n      mstore\n      0x04\n      add\n      tag_152\n      swap1\n      tag_153\n      jump\t// in\n    tag_152:\n      mload(0x40)\n      dup1\n      swap2\n      sub\n      swap1\n      revert\n    tag_151:\n        /* \"Solidity/Twitter.sol\":1280:1286  tweets */\n      0x00\n        /* \"Solidity/Twitter.sol\":1280:1294  tweets[_owner] */\n      0x00\n        /* \"Solidity/Twitter.sol\":1287:1293  _owner */\n      dup4\n        /* \"Solidity/Twitter.sol\":1280:1294  tweets[_owner] */\n      0xffffffffffffffffffffffffffffffffffffffff\n      and\n      0xffffffffffffffffffffffffffffffffffffffff\n      and\n      dup2\n      mstore\n      0x20\n      add\n      swap1\n      dup2\n      mstore\n      0x20\n      add\n      0x00\n      keccak256\n        /* \"Solidity/Twitter.sol\":1273:1294  return tweets[_owner] */\n      dup1\n      sload\n      dup1\n      0x20\n      mul\n      0x20\n      add\n      mload(0x40)\n      swap1\n      dup2\n      add\n      0x40\n      mstore\n      dup1\n      swap3\n      swap2\n      swap1\n      dup2\n      dup2\n      mstore\n      0x20\n      add\n      0x00\n      swap1\n    tag_154:\n      dup3\n      dup3\n      lt\n      iszero\n      tag_155\n      jumpi\n      dup4\n      dup3\n      swap1\n      0x00\n      mstore\n      keccak256(0x00, 0x20)\n      swap1\n      0x05\n      mul\n      add\n      mload(0x40)\n      dup1\n      0xa0\n      add\n      0x40\n      mstore\n      swap1\n      dup2\n      0x00\n      dup3\n      add\n      sload\n      dup2\n      mstore\n      0x20\n      add\n      0x01\n      dup3\n      add\n      0x00\n      swap1\n      sload\n      swap1\n      0x0100\n      exp\n      swap1\n      div\n      0xffffffffffffffffffffffffffffffffffffffff\n      and\n      0xffffffffffffffffffffffffffffffffffffffff\n      and\n      0xffffffffffffffffffffffffffffffffffffffff\n      and\n      dup2\n      mstore\n      0x20\n      add\n      0x02\n      dup3\n      add\n      dup1\n      sload\n      tag_157\n      swap1\n      tag_65\n      jump\t// in\n    tag_157:\n      dup1\n      0x1f\n      add\n      0x20\n      dup1\n      swap2\n      div\n      mul\n      0x20\n      add\n      mload(0x40)\n      swap1\n      dup2\n      add\n      0x40\n      mstore\n      dup1\n      swap3\n      swap2\n      swap1\n      dup2\n      dup2\n      mstore\n      0x20\n      add\n      dup3\n      dup1\n      sload\n      tag_158\n      swap1\n      tag_65\n      jump\t// in\n    tag_158:\n      dup1\n      iszero\n      tag_159\n      jumpi\n      dup1\n      0x1f\n      lt\n      tag_160\n      jumpi\n      0x0100\n      dup1\n      dup4\n      sload\n      div\n      mul\n      dup4\n      mstore\n      swap2\n      0x20\n      add\n      swap2\n      jump(tag_159)\n    tag_160:\n      dup3\n      add\n      swap2\n      swap1\n      0x00\n      mstore\n      keccak256(0x00, 0x20)\n      swap1\n    tag_161:\n      dup2\n      sload\n      dup2\n      mstore\n      swap1\n      0x01\n      add\n      swap1\n      0x20\n      add\n      dup1\n      dup4\n      gt\n      tag_161\n      jumpi\n      dup3\n      swap1\n      sub\n      0x1f\n      and\n      dup3\n      add\n      swap2\n    tag_159:\n      pop\n      pop\n      pop\n      pop\n      pop\n      dup2\n      mstore\n      0x20\n      add\n      0x03\n      dup3\n      add\n      sload\n      dup2\n      mstore\n      0x20\n      add\n      0x04\n      dup3\n      add\n      sload\n      dup2\n      mstore\n      pop\n      pop\n      dup2\n      mstore\n      0x20\n      add\n      swap1\n      0x01\n      add\n      swap1\n      jump(tag_154)\n    tag_155:\n      pop\n      pop\n      pop\n      pop\n      swap1\n      pop\n        /* \"Solidity/Twitter.sol\":1108:1301  function getAllOwnerTweets(address _owner) public view returns (Tweet[] memory) {... */\n      swap2\n      swap1\n      pop\n      jump\t// out\n        /* \"#utility.yul\":7:82   */\n    tag_162:\n        /* \"#utility.yul\":40:46   */\n      0x00\n        /* \"#utility.yul\":73:75   */\n      0x40\n        /* \"#utility.yul\":67:76   */\n      mload\n        /* \"#utility.yul\":57:76   */\n      swap1\n      pop\n        /* \"#utility.yul\":7:82   */\n      swap1\n      jump\t// out\n        /* \"#utility.yul\":88:205   */\n    tag_163:\n        /* \"#utility.yul\":197:198   */\n      0x00\n        /* \"#utility.yul\":194:195   */\n      0x00\n        /* \"#utility.yul\":187:199   */\n      revert\n        /* \"#utility.yul\":211:328   */\n    tag_164:\n        /* \"#utility.yul\":320:321   */\n      0x00\n        /* \"#utility.yul\":317:318   */\n      0x00\n        /* \"#utility.yul\":310:322   */\n      revert\n        /* \"#utility.yul\":334:460   */\n    tag_165:\n        /* \"#utility.yul\":371:378   */\n      0x00\n        /* \"#utility.yul\":411:453   */\n      0xffffffffffffffffffffffffffffffffffffffff\n        /* \"#utility.yul\":404:409   */\n      dup3\n        /* \"#utility.yul\":400:454   */\n      and\n        /* \"#utility.yul\":389:454   */\n      swap1\n      pop\n        /* \"#utility.yul\":334:460   */\n      swap2\n      swap1\n      pop\n      jump\t// out\n        /* \"#utility.yul\":466:562   */\n    tag_166:\n        /* \"#utility.yul\":503:510   */\n      0x00\n        /* \"#utility.yul\":532:556   */\n      tag_238\n        /* \"#utility.yul\":550:555   */\n      dup3\n        /* \"#utility.yul\":532:556   */\n      tag_165\n      jump\t// in\n    tag_238:\n        /* \"#utility.yul\":521:556   */\n      swap1\n      pop\n        /* \"#utility.yul\":466:562   */\n      swap2\n      swap1\n      pop\n      jump\t// out\n        /* \"#utility.yul\":568:690   */\n    tag_167:\n        /* \"#utility.yul\":641:665   */\n      tag_240\n        /* \"#utility.yul\":659:664   */\n      dup2\n        /* \"#utility.yul\":641:665   */\n      tag_166\n      jump\t// in\n    tag_240:\n        /* \"#utility.yul\":634:639   */\n      dup2\n        /* \"#utility.yul\":631:666   */\n      eq\n        /* \"#utility.yul\":621:684   */\n      tag_241\n      jumpi\n        /* \"#utility.yul\":680:681   */\n      0x00\n        /* \"#utility.yul\":677:678   */\n      0x00\n        /* \"#utility.yul\":670:682   */\n      revert\n        /* \"#utility.yul\":621:684   */\n    tag_241:\n        /* \"#utility.yul\":568:690   */\n      pop\n      jump\t// out\n        /* \"#utility.yul\":696:835   */\n    tag_168:\n        /* \"#utility.yul\":742:747   */\n      0x00\n        /* \"#utility.yul\":780:786   */\n      dup2\n        /* \"#utility.yul\":767:787   */\n      calldataload\n        /* \"#utility.yul\":758:787   */\n      swap1\n      pop\n        /* \"#utility.yul\":796:829   */\n      tag_243\n        /* \"#utility.yul\":823:828   */\n      dup2\n        /* \"#utility.yul\":796:829   */\n      tag_167\n      jump\t// in\n    tag_243:\n        /* \"#utility.yul\":696:835   */\n      swap3\n      swap2\n      pop\n      pop\n      jump\t// out\n        /* \"#utility.yul\":841:918   */\n    tag_169:\n        /* \"#utility.yul\":878:885   */\n      0x00\n        /* \"#utility.yul\":907:912   */\n      dup2\n        /* \"#utility.yul\":896:912   */\n      swap1\n      pop\n        /* \"#utility.yul\":841:918   */\n      swap2\n      swap1\n      pop\n      jump\t// out\n        /* \"#utility.yul\":924:1046   */\n    tag_170:\n        /* \"#utility.yul\":997:1021   */\n      tag_246\n        /* \"#utility.yul\":1015:1020   */\n      dup2\n        /* \"#utility.yul\":997:1021   */\n      tag_169\n      jump\t// in\n    tag_246:\n        /* \"#utility.yul\":990:995   */\n      dup2\n        /* \"#utility.yul\":987:1022   */\n      eq\n        /* \"#utility.yul\":977:1040   */\n      tag_247\n      jumpi\n        /* \"#utility.yul\":1036:1037   */\n      0x00\n        /* \"#utility.yul\":1033:1034   */\n      0x00\n        /* \"#utility.yul\":1026:1038   */\n      revert\n        /* \"#utility.yul\":977:1040   */\n    tag_247:\n        /* \"#utility.yul\":924:1046   */\n      pop\n      jump\t// out\n        /* \"#utility.yul\":1052:1191   */\n    tag_171:\n        /* \"#utility.yul\":1098:1103   */\n      0x00\n        /* \"#utility.yul\":1136:1142   */\n      dup2\n        /* \"#utility.yul\":1123:1143   */\n      calldataload\n        /* \"#utility.yul\":1114:1143   */\n      swap1\n      pop\n        /* \"#utility.yul\":1152:1185   */\n      tag_249\n        /* \"#utility.yul\":1179:1184   */\n      dup2\n        /* \"#utility.yul\":1152:1185   */\n      tag_170\n      jump\t// in\n    tag_249:\n        /* \"#utility.yul\":1052:1191   */\n      swap3\n      swap2\n      pop\n      pop\n      jump\t// out\n        /* \"#utility.yul\":1197:1671   */\n    tag_17:\n        /* \"#utility.yul\":1265:1271   */\n      0x00\n        /* \"#utility.yul\":1273:1279   */\n      0x00\n        /* \"#utility.yul\":1322:1324   */\n      0x40\n        /* \"#utility.yul\":1310:1319   */\n      dup4\n        /* \"#utility.yul\":1301:1308   */\n      dup6\n        /* \"#utility.yul\":1297:1320   */\n      sub\n        /* \"#utility.yul\":1293:1325   */\n      slt\n        /* \"#utility.yul\":1290:1409   */\n      iszero\n      tag_251\n      jumpi\n        /* \"#utility.yul\":1328:1407   */\n      tag_252\n      tag_163\n      jump\t// in\n    tag_252:\n        /* \"#utility.yul\":1290:1409   */\n    tag_251:\n        /* \"#utility.yul\":1448:1449   */\n      0x00\n        /* \"#utility.yul\":1473:1526   */\n      tag_253\n        /* \"#utility.yul\":1518:1525   */\n      dup6\n        /* \"#utility.yul\":1509:1515   */\n      dup3\n        /* \"#utility.yul\":1498:1507   */\n      dup7\n        /* \"#utility.yul\":1494:1516   */\n      add\n        /* \"#utility.yul\":1473:1526   */\n      tag_168\n      jump\t// in\n    tag_253:\n        /* \"#utility.yul\":1463:1526   */\n      swap3\n      pop\n        /* \"#utility.yul\":1419:1536   */\n      pop\n        /* \"#utility.yul\":1575:1577   */\n      0x20\n        /* \"#utility.yul\":1601:1654   */\n      tag_254\n        /* \"#utility.yul\":1646:1653   */\n      dup6\n        /* \"#utility.yul\":1637:1643   */\n      dup3\n        /* \"#utility.yul\":1626:1635   */\n      dup7\n        /* \"#utility.yul\":1622:1644   */\n      add\n        /* \"#utility.yul\":1601:1654   */\n      tag_171\n      jump\t// in\n    tag_254:\n        /* \"#utility.yul\":1591:1654   */\n      swap2\n      pop\n        /* \"#utility.yul\":1546:1664   */\n      pop\n        /* \"#utility.yul\":1197:1671   */\n      swap3\n      pop\n      swap3\n      swap1\n      pop\n      jump\t// out\n        /* \"#utility.yul\":1677:1795   */\n    tag_172:\n        /* \"#utility.yul\":1764:1788   */\n      tag_256\n        /* \"#utility.yul\":1782:1787   */\n      dup2\n        /* \"#utility.yul\":1764:1788   */\n      tag_169\n      jump\t// in\n    tag_256:\n        /* \"#utility.yul\":1759:1762   */\n      dup3\n        /* \"#utility.yul\":1752:1789   */\n      mstore\n        /* \"#utility.yul\":1677:1795   */\n      pop\n      pop\n      jump\t// out\n        /* \"#utility.yul\":1801:1919   */\n    tag_173:\n        /* \"#utility.yul\":1888:1912   */\n      tag_258\n        /* \"#utility.yul\":1906:1911   */\n      dup2\n        /* \"#utility.yul\":1888:1912   */\n      tag_166\n      jump\t// in\n    tag_258:\n        /* \"#utility.yul\":1883:1886   */\n      dup3\n        /* \"#utility.yul\":1876:1913   */\n      mstore\n        /* \"#utility.yul\":1801:1919   */\n      pop\n      pop\n      jump\t// out\n        /* \"#utility.yul\":1925:2024   */\n    tag_174:\n        /* \"#utility.yul\":1977:1983   */\n      0x00\n        /* \"#utility.yul\":2011:2016   */\n      dup2\n        /* \"#utility.yul\":2005:2017   */\n      mload\n        /* \"#utility.yul\":1995:2017   */\n      swap1\n      pop\n        /* \"#utility.yul\":1925:2024   */\n      swap2\n      swap1\n      pop\n      jump\t// out\n        /* \"#utility.yul\":2030:2199   */\n    tag_175:\n        /* \"#utility.yul\":2114:2125   */\n      0x00\n        /* \"#utility.yul\":2148:2154   */\n      dup3\n        /* \"#utility.yul\":2143:2146   */\n      dup3\n        /* \"#utility.yul\":2136:2155   */\n      mstore\n        /* \"#utility.yul\":2188:2192   */\n      0x20\n        /* \"#utility.yul\":2183:2186   */\n      dup3\n        /* \"#utility.yul\":2179:2193   */\n      add\n        /* \"#utility.yul\":2164:2193   */\n      swap1\n      pop\n        /* \"#utility.yul\":2030:2199   */\n      swap3\n      swap2\n      pop\n      pop\n      jump\t// out\n        /* \"#utility.yul\":2205:2344   */\n    tag_176:\n        /* \"#utility.yul\":2294:2300   */\n      dup3\n        /* \"#utility.yul\":2289:2292   */\n      dup2\n        /* \"#utility.yul\":2284:2287   */\n      dup4\n        /* \"#utility.yul\":2278:2301   */\n      mcopy\n        /* \"#utility.yul\":2335:2336   */\n      0x00\n        /* \"#utility.yul\":2326:2332   */\n      dup4\n        /* \"#utility.yul\":2321:2324   */\n      dup4\n        /* \"#utility.yul\":2317:2333   */\n      add\n        /* \"#utility.yul\":2310:2337   */\n      mstore\n        /* \"#utility.yul\":2205:2344   */\n      pop\n      pop\n      pop\n      jump\t// out\n        /* \"#utility.yul\":2350:2452   */\n    tag_177:\n        /* \"#utility.yul\":2391:2397   */\n      0x00\n        /* \"#utility.yul\":2442:2444   */\n      0x1f\n        /* \"#utility.yul\":2438:2445   */\n      not\n        /* \"#utility.yul\":2433:2435   */\n      0x1f\n        /* \"#utility.yul\":2426:2431   */\n      dup4\n        /* \"#utility.yul\":2422:2436   */\n      add\n        /* \"#utility.yul\":2418:2446   */\n      and\n        /* \"#utility.yul\":2408:2446   */\n      swap1\n      pop\n        /* \"#utility.yul\":2350:2452   */\n      swap2\n      swap1\n      pop\n      jump\t// out\n        /* \"#utility.yul\":2458:2835   */\n    tag_178:\n        /* \"#utility.yul\":2546:2549   */\n      0x00\n        /* \"#utility.yul\":2574:2613   */\n      tag_264\n        /* \"#utility.yul\":2607:2612   */\n      dup3\n        /* \"#utility.yul\":2574:2613   */\n      tag_174\n      jump\t// in\n    tag_264:\n        /* \"#utility.yul\":2629:2700   */\n      tag_265\n        /* \"#utility.yul\":2693:2699   */\n      dup2\n        /* \"#utility.yul\":2688:2691   */\n      dup6\n        /* \"#utility.yul\":2629:2700   */\n      tag_175\n      jump\t// in\n    tag_265:\n        /* \"#utility.yul\":2622:2700   */\n      swap4\n      pop\n        /* \"#utility.yul\":2709:2774   */\n      tag_266\n        /* \"#utility.yul\":2767:2773   */\n      dup2\n        /* \"#utility.yul\":2762:2765   */\n      dup6\n        /* \"#utility.yul\":2755:2759   */\n      0x20\n        /* \"#utility.yul\":2748:2753   */\n      dup7\n        /* \"#utility.yul\":2744:2760   */\n      add\n        /* \"#utility.yul\":2709:2774   */\n      tag_176\n      jump\t// in\n    tag_266:\n        /* \"#utility.yul\":2799:2828   */\n      tag_267\n        /* \"#utility.yul\":2821:2827   */\n      dup2\n        /* \"#utility.yul\":2799:2828   */\n      tag_177\n      jump\t// in\n    tag_267:\n        /* \"#utility.yul\":2794:2797   */\n      dup5\n        /* \"#utility.yul\":2790:2829   */\n      add\n        /* \"#utility.yul\":2783:2829   */\n      swap2\n      pop\n        /* \"#utility.yul\":2550:2835   */\n      pop\n        /* \"#utility.yul\":2458:2835   */\n      swap3\n      swap2\n      pop\n      pop\n      jump\t// out\n        /* \"#utility.yul\":2841:3596   */\n    tag_20:\n        /* \"#utility.yul\":3066:3070   */\n      0x00\n        /* \"#utility.yul\":3104:3107   */\n      0xa0\n        /* \"#utility.yul\":3093:3102   */\n      dup3\n        /* \"#utility.yul\":3089:3108   */\n      add\n        /* \"#utility.yul\":3081:3108   */\n      swap1\n      pop\n        /* \"#utility.yul\":3118:3189   */\n      tag_269\n        /* \"#utility.yul\":3186:3187   */\n      0x00\n        /* \"#utility.yul\":3175:3184   */\n      dup4\n        /* \"#utility.yul\":3171:3188   */\n      add\n        /* \"#utility.yul\":3162:3168   */\n      dup9\n        /* \"#utility.yul\":3118:3189   */\n      tag_172\n      jump\t// in\n    tag_269:\n        /* \"#utility.yul\":3199:3271   */\n      tag_270\n        /* \"#utility.yul\":3267:3269   */\n      0x20\n        /* \"#utility.yul\":3256:3265   */\n      dup4\n        /* \"#utility.yul\":3252:3270   */\n      add\n        /* \"#utility.yul\":3243:3249   */\n      dup8\n        /* \"#utility.yul\":3199:3271   */\n      tag_173\n      jump\t// in\n    tag_270:\n        /* \"#utility.yul\":3318:3327   */\n      dup2\n        /* \"#utility.yul\":3312:3316   */\n      dup2\n        /* \"#utility.yul\":3308:3328   */\n      sub\n        /* \"#utility.yul\":3303:3305   */\n      0x40\n        /* \"#utility.yul\":3292:3301   */\n      dup4\n        /* \"#utility.yul\":3288:3306   */\n      add\n        /* \"#utility.yul\":3281:3329   */\n      mstore\n        /* \"#utility.yul\":3346:3424   */\n      tag_271\n        /* \"#utility.yul\":3419:3423   */\n      dup2\n        /* \"#utility.yul\":3410:3416   */\n      dup7\n        /* \"#utility.yul\":3346:3424   */\n      tag_178\n      jump\t// in\n    tag_271:\n        /* \"#utility.yul\":3338:3424   */\n      swap1\n      pop\n        /* \"#utility.yul\":3434:3506   */\n      tag_272\n        /* \"#utility.yul\":3502:3504   */\n      0x60\n        /* \"#utility.yul\":3491:3500   */\n      dup4\n        /* \"#utility.yul\":3487:3505   */\n      add\n        /* \"#utility.yul\":3478:3484   */\n      dup6\n        /* \"#utility.yul\":3434:3506   */\n      tag_172\n      jump\t// in\n    tag_272:\n        /* \"#utility.yul\":3516:3589   */\n      tag_273\n        /* \"#utility.yul\":3584:3587   */\n      0x80\n        /* \"#utility.yul\":3573:3582   */\n      dup4\n        /* \"#utility.yul\":3569:3588   */\n      add\n        /* \"#utility.yul\":3560:3566   */\n      dup5\n        /* \"#utility.yul\":3516:3589   */\n      tag_172\n      jump\t// in\n    tag_273:\n        /* \"#utility.yul\":2841:3596   */\n      swap7\n      swap6\n      pop\n      pop\n      pop\n      pop\n      pop\n      pop\n      jump\t// out\n        /* \"#utility.yul\":3602:3915   */\n    tag_25:\n        /* \"#utility.yul\":3715:3719   */\n      0x00\n        /* \"#utility.yul\":3753:3755   */\n      0x20\n        /* \"#utility.yul\":3742:3751   */\n      dup3\n        /* \"#utility.yul\":3738:3756   */\n      add\n        /* \"#utility.yul\":3730:3756   */\n      swap1\n      pop\n        /* \"#utility.yul\":3802:3811   */\n      dup2\n        /* \"#utility.yul\":3796:3800   */\n      dup2\n        /* \"#utility.yul\":3792:3812   */\n      sub\n        /* \"#utility.yul\":3788:3789   */\n      0x00\n        /* \"#utility.yul\":3777:3786   */\n      dup4\n        /* \"#utility.yul\":3773:3790   */\n      add\n        /* \"#utility.yul\":3766:3813   */\n      mstore\n        /* \"#utility.yul\":3830:3908   */\n      tag_275\n        /* \"#utility.yul\":3903:3907   */\n      dup2\n        /* \"#utility.yul\":3894:3900   */\n      dup5\n        /* \"#utility.yul\":3830:3908   */\n      tag_178\n      jump\t// in\n    tag_275:\n        /* \"#utility.yul\":3822:3908   */\n      swap1\n      pop\n        /* \"#utility.yul\":3602:3915   */\n      swap3\n      swap2\n      pop\n      pop\n      jump\t// out\n        /* \"#utility.yul\":3921:4038   */\n    tag_179:\n        /* \"#utility.yul\":4030:4031   */\n      0x00\n        /* \"#utility.yul\":4027:4028   */\n      0x00\n        /* \"#utility.yul\":4020:4032   */\n      revert\n        /* \"#utility.yul\":4044:4161   */\n    tag_180:\n        /* \"#utility.yul\":4153:4154   */\n      0x00\n        /* \"#utility.yul\":4150:4151   */\n      0x00\n        /* \"#utility.yul\":4143:4155   */\n      revert\n        /* \"#utility.yul\":4167:4347   */\n    tag_181:\n        /* \"#utility.yul\":4215:4292   */\n      0x4e487b7100000000000000000000000000000000000000000000000000000000\n        /* \"#utility.yul\":4212:4213   */\n      0x00\n        /* \"#utility.yul\":4205:4293   */\n      mstore\n        /* \"#utility.yul\":4312:4316   */\n      0x41\n        /* \"#utility.yul\":4309:4310   */\n      0x04\n        /* \"#utility.yul\":4302:4317   */\n      mstore\n        /* \"#utility.yul\":4336:4340   */\n      0x24\n        /* \"#utility.yul\":4333:4334   */\n      0x00\n        /* \"#utility.yul\":4326:4341   */\n      revert\n        /* \"#utility.yul\":4353:4634   */\n    tag_182:\n        /* \"#utility.yul\":4436:4463   */\n      tag_280\n        /* \"#utility.yul\":4458:4462   */\n      dup3\n        /* \"#utility.yul\":4436:4463   */\n      tag_177\n      jump\t// in\n    tag_280:\n        /* \"#utility.yul\":4428:4434   */\n      dup2\n        /* \"#utility.yul\":4424:4464   */\n      add\n        /* \"#utility.yul\":4566:4572   */\n      dup2\n        /* \"#utility.yul\":4554:4564   */\n      dup2\n        /* \"#utility.yul\":4551:4573   */\n      lt\n        /* \"#utility.yul\":4530:4548   */\n      0xffffffffffffffff\n        /* \"#utility.yul\":4518:4528   */\n      dup3\n        /* \"#utility.yul\":4515:4549   */\n      gt\n        /* \"#utility.yul\":4512:4574   */\n      or\n        /* \"#utility.yul\":4509:4597   */\n      iszero\n      tag_281\n      jumpi\n        /* \"#utility.yul\":4577:4595   */\n      tag_282\n      tag_181\n      jump\t// in\n    tag_282:\n        /* \"#utility.yul\":4509:4597   */\n    tag_281:\n        /* \"#utility.yul\":4617:4627   */\n      dup1\n        /* \"#utility.yul\":4613:4615   */\n      0x40\n        /* \"#utility.yul\":4606:4628   */\n      mstore\n        /* \"#utility.yul\":4396:4634   */\n      pop\n        /* \"#utility.yul\":4353:4634   */\n      pop\n      pop\n      jump\t// out\n        /* \"#utility.yul\":4640:4769   */\n    tag_183:\n        /* \"#utility.yul\":4674:4680   */\n      0x00\n        /* \"#utility.yul\":4701:4721   */\n      tag_284\n      tag_162\n      jump\t// in\n    tag_284:\n        /* \"#utility.yul\":4691:4721   */\n      swap1\n      pop\n        /* \"#utility.yul\":4730:4763   */\n      tag_285\n        /* \"#utility.yul\":4758:4762   */\n      dup3\n        /* \"#utility.yul\":4750:4756   */\n      dup3\n        /* \"#utility.yul\":4730:4763   */\n      tag_182\n      jump\t// in\n    tag_285:\n        /* \"#utility.yul\":4640:4769   */\n      swap2\n      swap1\n      pop\n      jump\t// out\n        /* \"#utility.yul\":4775:5083   */\n    tag_184:\n        /* \"#utility.yul\":4837:4841   */\n      0x00\n        /* \"#utility.yul\":4927:4945   */\n      0xffffffffffffffff\n        /* \"#utility.yul\":4919:4925   */\n      dup3\n        /* \"#utility.yul\":4916:4946   */\n      gt\n        /* \"#utility.yul\":4913:4969   */\n      iszero\n      tag_287\n      jumpi\n        /* \"#utility.yul\":4949:4967   */\n      tag_288\n      tag_181\n      jump\t// in\n    tag_288:\n        /* \"#utility.yul\":4913:4969   */\n    tag_287:\n        /* \"#utility.yul\":4987:5016   */\n      tag_289\n        /* \"#utility.yul\":5009:5015   */\n      dup3\n        /* \"#utility.yul\":4987:5016   */\n      tag_177\n      jump\t// in\n    tag_289:\n        /* \"#utility.yul\":4979:5016   */\n      swap1\n      pop\n        /* \"#utility.yul\":5071:5075   */\n      0x20\n        /* \"#utility.yul\":5065:5069   */\n      dup2\n        /* \"#utility.yul\":5061:5076   */\n      add\n        /* \"#utility.yul\":5053:5076   */\n      swap1\n      pop\n        /* \"#utility.yul\":4775:5083   */\n      swap2\n      swap1\n      pop\n      jump\t// out\n        /* \"#utility.yul\":5089:5237   */\n    tag_185:\n        /* \"#utility.yul\":5187:5193   */\n      dup3\n        /* \"#utility.yul\":5182:5185   */\n      dup2\n        /* \"#utility.yul\":5177:5180   */\n      dup4\n        /* \"#utility.yul\":5164:5194   */\n      calldatacopy\n        /* \"#utility.yul\":5228:5229   */\n      0x00\n        /* \"#utility.yul\":5219:5225   */\n      dup4\n        /* \"#utility.yul\":5214:5217   */\n      dup4\n        /* \"#utility.yul\":5210:5226   */\n      add\n        /* \"#utility.yul\":5203:5230   */\n      mstore\n        /* \"#utility.yul\":5089:5237   */\n      pop\n      pop\n      pop\n      jump\t// out\n        /* \"#utility.yul\":5243:5668   */\n    tag_186:\n        /* \"#utility.yul\":5321:5326   */\n      0x00\n        /* \"#utility.yul\":5346:5412   */\n      tag_292\n        /* \"#utility.yul\":5362:5411   */\n      tag_293\n        /* \"#utility.yul\":5404:5410   */\n      dup5\n        /* \"#utility.yul\":5362:5411   */\n      tag_184\n      jump\t// in\n    tag_293:\n        /* \"#utility.yul\":5346:5412   */\n      tag_183\n      jump\t// in\n    tag_292:\n        /* \"#utility.yul\":5337:5412   */\n      swap1\n      pop\n        /* \"#utility.yul\":5435:5441   */\n      dup3\n        /* \"#utility.yul\":5428:5433   */\n      dup2\n        /* \"#utility.yul\":5421:5442   */\n      mstore\n        /* \"#utility.yul\":5473:5477   */\n      0x20\n        /* \"#utility.yul\":5466:5471   */\n      dup2\n        /* \"#utility.yul\":5462:5478   */\n      add\n        /* \"#utility.yul\":5511:5514   */\n      dup5\n        /* \"#utility.yul\":5502:5508   */\n      dup5\n        /* \"#utility.yul\":5497:5500   */\n      dup5\n        /* \"#utility.yul\":5493:5509   */\n      add\n        /* \"#utility.yul\":5490:5515   */\n      gt\n        /* \"#utility.yul\":5487:5599   */\n      iszero\n      tag_294\n      jumpi\n        /* \"#utility.yul\":5518:5597   */\n      tag_295\n      tag_180\n      jump\t// in\n    tag_295:\n        /* \"#utility.yul\":5487:5599   */\n    tag_294:\n        /* \"#utility.yul\":5608:5662   */\n      tag_296\n        /* \"#utility.yul\":5655:5661   */\n      dup5\n        /* \"#utility.yul\":5650:5653   */\n      dup3\n        /* \"#utility.yul\":5645:5648   */\n      dup6\n        /* \"#utility.yul\":5608:5662   */\n      tag_185\n      jump\t// in\n    tag_296:\n        /* \"#utility.yul\":5327:5668   */\n      pop\n        /* \"#utility.yul\":5243:5668   */\n      swap4\n      swap3\n      pop\n      pop\n      pop\n      jump\t// out\n        /* \"#utility.yul\":5688:6028   */\n    tag_187:\n        /* \"#utility.yul\":5744:5749   */\n      0x00\n        /* \"#utility.yul\":5793:5796   */\n      dup3\n        /* \"#utility.yul\":5786:5790   */\n      0x1f\n        /* \"#utility.yul\":5778:5784   */\n      dup4\n        /* \"#utility.yul\":5774:5791   */\n      add\n        /* \"#utility.yul\":5770:5797   */\n      slt\n        /* \"#utility.yul\":5760:5882   */\n      tag_298\n      jumpi\n        /* \"#utility.yul\":5801:5880   */\n      tag_299\n      tag_179\n      jump\t// in\n    tag_299:\n        /* \"#utility.yul\":5760:5882   */\n    tag_298:\n        /* \"#utility.yul\":5918:5924   */\n      dup2\n        /* \"#utility.yul\":5905:5925   */\n      calldataload\n        /* \"#utility.yul\":5943:6022   */\n      tag_300\n        /* \"#utility.yul\":6018:6021   */\n      dup5\n        /* \"#utility.yul\":6010:6016   */\n      dup3\n        /* \"#utility.yul\":6003:6007   */\n      0x20\n        /* \"#utility.yul\":5995:6001   */\n      dup7\n        /* \"#utility.yul\":5991:6008   */\n      add\n        /* \"#utility.yul\":5943:6022   */\n      tag_186\n      jump\t// in\n    tag_300:\n        /* \"#utility.yul\":5934:6022   */\n      swap2\n      pop\n        /* \"#utility.yul\":5750:6028   */\n      pop\n        /* \"#utility.yul\":5688:6028   */\n      swap3\n      swap2\n      pop\n      pop\n      jump\t// out\n        /* \"#utility.yul\":6034:6543   */\n    tag_31:\n        /* \"#utility.yul\":6103:6109   */\n      0x00\n        /* \"#utility.yul\":6152:6154   */\n      0x20\n        /* \"#utility.yul\":6140:6149   */\n      dup3\n        /* \"#utility.yul\":6131:6138   */\n      dup5\n        /* \"#utility.yul\":6127:6150   */\n      sub\n        /* \"#utility.yul\":6123:6155   */\n      slt\n        /* \"#utility.yul\":6120:6239   */\n      iszero\n      tag_302\n      jumpi\n        /* \"#utility.yul\":6158:6237   */\n      tag_303\n      tag_163\n      jump\t// in\n    tag_303:\n        /* \"#utility.yul\":6120:6239   */\n    tag_302:\n        /* \"#utility.yul\":6306:6307   */\n      0x00\n        /* \"#utility.yul\":6295:6304   */\n      dup3\n        /* \"#utility.yul\":6291:6308   */\n      add\n        /* \"#utility.yul\":6278:6309   */\n      calldataload\n        /* \"#utility.yul\":6336:6354   */\n      0xffffffffffffffff\n        /* \"#utility.yul\":6328:6334   */\n      dup2\n        /* \"#utility.yul\":6325:6355   */\n      gt\n        /* \"#utility.yul\":6322:6439   */\n      iszero\n      tag_304\n      jumpi\n        /* \"#utility.yul\":6358:6437   */\n      tag_305\n      tag_164\n      jump\t// in\n    tag_305:\n        /* \"#utility.yul\":6322:6439   */\n    tag_304:\n        /* \"#utility.yul\":6463:6526   */\n      tag_306\n        /* \"#utility.yul\":6518:6525   */\n      dup5\n        /* \"#utility.yul\":6509:6515   */\n      dup3\n        /* \"#utility.yul\":6498:6507   */\n      dup6\n        /* \"#utility.yul\":6494:6516   */\n      add\n        /* \"#utility.yul\":6463:6526   */\n      tag_187\n      jump\t// in\n    tag_306:\n        /* \"#utility.yul\":6453:6526   */\n      swap2\n      pop\n        /* \"#utility.yul\":6249:6536   */\n      pop\n        /* \"#utility.yul\":6034:6543   */\n      swap3\n      swap2\n      pop\n      pop\n      jump\t// out\n        /* \"#utility.yul\":6549:6771   */\n    tag_40:\n        /* \"#utility.yul\":6642:6646   */\n      0x00\n        /* \"#utility.yul\":6680:6682   */\n      0x20\n        /* \"#utility.yul\":6669:6678   */\n      dup3\n        /* \"#utility.yul\":6665:6683   */\n      add\n        /* \"#utility.yul\":6657:6683   */\n      swap1\n      pop\n        /* \"#utility.yul\":6693:6764   */\n      tag_308\n        /* \"#utility.yul\":6761:6762   */\n      0x00\n        /* \"#utility.yul\":6750:6759   */\n      dup4\n        /* \"#utility.yul\":6746:6763   */\n      add\n        /* \"#utility.yul\":6737:6743   */\n      dup5\n        /* \"#utility.yul\":6693:6764   */\n      tag_172\n      jump\t// in\n    tag_308:\n        /* \"#utility.yul\":6549:6771   */\n      swap3\n      swap2\n      pop\n      pop\n      jump\t// out\n        /* \"#utility.yul\":6777:7106   */\n    tag_43:\n        /* \"#utility.yul\":6836:6842   */\n      0x00\n        /* \"#utility.yul\":6885:6887   */\n      0x20\n        /* \"#utility.yul\":6873:6882   */\n      dup3\n        /* \"#utility.yul\":6864:6871   */\n      dup5\n        /* \"#utility.yul\":6860:6883   */\n      sub\n        /* \"#utility.yul\":6856:6888   */\n      slt\n        /* \"#utility.yul\":6853:6972   */\n      iszero\n      tag_310\n      jumpi\n        /* \"#utility.yul\":6891:6970   */\n      tag_311\n      tag_163\n      jump\t// in\n    tag_311:\n        /* \"#utility.yul\":6853:6972   */\n    tag_310:\n        /* \"#utility.yul\":7011:7012   */\n      0x00\n        /* \"#utility.yul\":7036:7089   */\n      tag_312\n        /* \"#utility.yul\":7081:7088   */\n      dup5\n        /* \"#utility.yul\":7072:7078   */\n      dup3\n        /* \"#utility.yul\":7061:7070   */\n      dup6\n        /* \"#utility.yul\":7057:7079   */\n      add\n        /* \"#utility.yul\":7036:7089   */\n      tag_171\n      jump\t// in\n    tag_312:\n        /* \"#utility.yul\":7026:7089   */\n      swap2\n      pop\n        /* \"#utility.yul\":6982:7099   */\n      pop\n        /* \"#utility.yul\":6777:7106   */\n      swap3\n      swap2\n      pop\n      pop\n      jump\t// out\n        /* \"#utility.yul\":7112:7441   */\n    tag_58:\n        /* \"#utility.yul\":7171:7177   */\n      0x00\n        /* \"#utility.yul\":7220:7222   */\n      0x20\n        /* \"#utility.yul\":7208:7217   */\n      dup3\n        /* \"#utility.yul\":7199:7206   */\n      dup5\n        /* \"#utility.yul\":7195:7218   */\n      sub\n        /* \"#utility.yul\":7191:7223   */\n      slt\n        /* \"#utility.yul\":7188:7307   */\n      iszero\n      tag_314\n      jumpi\n        /* \"#utility.yul\":7226:7305   */\n      tag_315\n      tag_163\n      jump\t// in\n    tag_315:\n        /* \"#utility.yul\":7188:7307   */\n    tag_314:\n        /* \"#utility.yul\":7346:7347   */\n      0x00\n        /* \"#utility.yul\":7371:7424   */\n      tag_316\n        /* \"#utility.yul\":7416:7423   */\n      dup5\n        /* \"#utility.yul\":7407:7413   */\n      dup3\n        /* \"#utility.yul\":7396:7405   */\n      dup6\n        /* \"#utility.yul\":7392:7414   */\n      add\n        /* \"#utility.yul\":7371:7424   */\n      tag_168\n      jump\t// in\n    tag_316:\n        /* \"#utility.yul\":7361:7424   */\n      swap2\n      pop\n        /* \"#utility.yul\":7317:7434   */\n      pop\n        /* \"#utility.yul\":7112:7441   */\n      swap3\n      swap2\n      pop\n      pop\n      jump\t// out\n        /* \"#utility.yul\":7447:7582   */\n    tag_188:\n        /* \"#utility.yul\":7535:7541   */\n      0x00\n        /* \"#utility.yul\":7569:7574   */\n      dup2\n        /* \"#utility.yul\":7563:7575   */\n      mload\n        /* \"#utility.yul\":7553:7575   */\n      swap1\n      pop\n        /* \"#utility.yul\":7447:7582   */\n      swap2\n      swap1\n      pop\n      jump\t// out\n        /* \"#utility.yul\":7588:7793   */\n    tag_189:\n        /* \"#utility.yul\":7708:7719   */\n      0x00\n        /* \"#utility.yul\":7742:7748   */\n      dup3\n        /* \"#utility.yul\":7737:7740   */\n      dup3\n        /* \"#utility.yul\":7730:7749   */\n      mstore\n        /* \"#utility.yul\":7782:7786   */\n      0x20\n        /* \"#utility.yul\":7777:7780   */\n      dup3\n        /* \"#utility.yul\":7773:7787   */\n      add\n        /* \"#utility.yul\":7758:7787   */\n      swap1\n      pop\n        /* \"#utility.yul\":7588:7793   */\n      swap3\n      swap2\n      pop\n      pop\n      jump\t// out\n        /* \"#utility.yul\":7799:7952   */\n    tag_190:\n        /* \"#utility.yul\":7887:7891   */\n      0x00\n        /* \"#utility.yul\":7910:7913   */\n      dup2\n        /* \"#utility.yul\":7902:7913   */\n      swap1\n      pop\n        /* \"#utility.yul\":7940:7944   */\n      0x20\n        /* \"#utility.yul\":7935:7938   */\n      dup3\n        /* \"#utility.yul\":7931:7945   */\n      add\n        /* \"#utility.yul\":7923:7945   */\n      swap1\n      pop\n        /* \"#utility.yul\":7799:7952   */\n      swap2\n      swap1\n      pop\n      jump\t// out\n        /* \"#utility.yul\":7958:8066   */\n    tag_191:\n        /* \"#utility.yul\":8035:8059   */\n      tag_321\n        /* \"#utility.yul\":8053:8058   */\n      dup2\n        /* \"#utility.yul\":8035:8059   */\n      tag_169\n      jump\t// in\n    tag_321:\n        /* \"#utility.yul\":8030:8033   */\n      dup3\n        /* \"#utility.yul\":8023:8060   */\n      mstore\n        /* \"#utility.yul\":7958:8066   */\n      pop\n      pop\n      jump\t// out\n        /* \"#utility.yul\":8072:8180   */\n    tag_192:\n        /* \"#utility.yul\":8149:8173   */\n      tag_323\n        /* \"#utility.yul\":8167:8172   */\n      dup2\n        /* \"#utility.yul\":8149:8173   */\n      tag_166\n      jump\t// in\n    tag_323:\n        /* \"#utility.yul\":8144:8147   */\n      dup3\n        /* \"#utility.yul\":8137:8174   */\n      mstore\n        /* \"#utility.yul\":8072:8180   */\n      pop\n      pop\n      jump\t// out\n        /* \"#utility.yul\":8186:8345   */\n    tag_193:\n        /* \"#utility.yul\":8260:8271   */\n      0x00\n        /* \"#utility.yul\":8294:8300   */\n      dup3\n        /* \"#utility.yul\":8289:8292   */\n      dup3\n        /* \"#utility.yul\":8282:8301   */\n      mstore\n        /* \"#utility.yul\":8334:8338   */\n      0x20\n        /* \"#utility.yul\":8329:8332   */\n      dup3\n        /* \"#utility.yul\":8325:8339   */\n      add\n        /* \"#utility.yul\":8310:8339   */\n      swap1\n      pop\n        /* \"#utility.yul\":8186:8345   */\n      swap3\n      swap2\n      pop\n      pop\n      jump\t// out\n        /* \"#utility.yul\":8351:8708   */\n    tag_194:\n        /* \"#utility.yul\":8429:8432   */\n      0x00\n        /* \"#utility.yul\":8457:8496   */\n      tag_326\n        /* \"#utility.yul\":8490:8495   */\n      dup3\n        /* \"#utility.yul\":8457:8496   */\n      tag_174\n      jump\t// in\n    tag_326:\n        /* \"#utility.yul\":8512:8573   */\n      tag_327\n        /* \"#utility.yul\":8566:8572   */\n      dup2\n        /* \"#utility.yul\":8561:8564   */\n      dup6\n        /* \"#utility.yul\":8512:8573   */\n      tag_193\n      jump\t// in\n    tag_327:\n        /* \"#utility.yul\":8505:8573   */\n      swap4\n      pop\n        /* \"#utility.yul\":8582:8647   */\n      tag_328\n        /* \"#utility.yul\":8640:8646   */\n      dup2\n        /* \"#utility.yul\":8635:8638   */\n      dup6\n        /* \"#utility.yul\":8628:8632   */\n      0x20\n        /* \"#utility.yul\":8621:8626   */\n      dup7\n        /* \"#utility.yul\":8617:8633   */\n      add\n        /* \"#utility.yul\":8582:8647   */\n      tag_176\n      jump\t// in\n    tag_328:\n        /* \"#utility.yul\":8672:8701   */\n      tag_329\n        /* \"#utility.yul\":8694:8700   */\n      dup2\n        /* \"#utility.yul\":8672:8701   */\n      tag_177\n      jump\t// in\n    tag_329:\n        /* \"#utility.yul\":8667:8670   */\n      dup5\n        /* \"#utility.yul\":8663:8702   */\n      add\n        /* \"#utility.yul\":8656:8702   */\n      swap2\n      pop\n        /* \"#utility.yul\":8433:8708   */\n      pop\n        /* \"#utility.yul\":8351:8708   */\n      swap3\n      swap2\n      pop\n      pop\n      jump\t// out\n        /* \"#utility.yul\":8766:9885   */\n    tag_195:\n        /* \"#utility.yul\":8867:8870   */\n      0x00\n        /* \"#utility.yul\":8903:8907   */\n      0xa0\n        /* \"#utility.yul\":8898:8901   */\n      dup4\n        /* \"#utility.yul\":8894:8908   */\n      add\n        /* \"#utility.yul\":8988:8992   */\n      0x00\n        /* \"#utility.yul\":8981:8986   */\n      dup4\n        /* \"#utility.yul\":8977:8993   */\n      add\n        /* \"#utility.yul\":8971:8994   */\n      mload\n        /* \"#utility.yul\":9007:9070   */\n      tag_331\n        /* \"#utility.yul\":9064:9068   */\n      0x00\n        /* \"#utility.yul\":9059:9062   */\n      dup7\n        /* \"#utility.yul\":9055:9069   */\n      add\n        /* \"#utility.yul\":9041:9053   */\n      dup3\n        /* \"#utility.yul\":9007:9070   */\n      tag_191\n      jump\t// in\n    tag_331:\n        /* \"#utility.yul\":8918:9080   */\n      pop\n        /* \"#utility.yul\":9164:9168   */\n      0x20\n        /* \"#utility.yul\":9157:9162   */\n      dup4\n        /* \"#utility.yul\":9153:9169   */\n      add\n        /* \"#utility.yul\":9147:9170   */\n      mload\n        /* \"#utility.yul\":9183:9246   */\n      tag_332\n        /* \"#utility.yul\":9240:9244   */\n      0x20\n        /* \"#utility.yul\":9235:9238   */\n      dup7\n        /* \"#utility.yul\":9231:9245   */\n      add\n        /* \"#utility.yul\":9217:9229   */\n      dup3\n        /* \"#utility.yul\":9183:9246   */\n      tag_192\n      jump\t// in\n    tag_332:\n        /* \"#utility.yul\":9090:9256   */\n      pop\n        /* \"#utility.yul\":9341:9345   */\n      0x40\n        /* \"#utility.yul\":9334:9339   */\n      dup4\n        /* \"#utility.yul\":9330:9346   */\n      add\n        /* \"#utility.yul\":9324:9347   */\n      mload\n        /* \"#utility.yul\":9394:9397   */\n      dup5\n        /* \"#utility.yul\":9388:9392   */\n      dup3\n        /* \"#utility.yul\":9384:9398   */\n      sub\n        /* \"#utility.yul\":9377:9381   */\n      0x40\n        /* \"#utility.yul\":9372:9375   */\n      dup7\n        /* \"#utility.yul\":9368:9382   */\n      add\n        /* \"#utility.yul\":9361:9399   */\n      mstore\n        /* \"#utility.yul\":9420:9493   */\n      tag_333\n        /* \"#utility.yul\":9488:9492   */\n      dup3\n        /* \"#utility.yul\":9474:9486   */\n      dup3\n        /* \"#utility.yul\":9420:9493   */\n      tag_194\n      jump\t// in\n    tag_333:\n        /* \"#utility.yul\":9412:9493   */\n      swap2\n      pop\n        /* \"#utility.yul\":9266:9504   */\n      pop\n        /* \"#utility.yul\":9591:9595   */\n      0x60\n        /* \"#utility.yul\":9584:9589   */\n      dup4\n        /* \"#utility.yul\":9580:9596   */\n      add\n        /* \"#utility.yul\":9574:9597   */\n      mload\n        /* \"#utility.yul\":9610:9673   */\n      tag_334\n        /* \"#utility.yul\":9667:9671   */\n      0x60\n        /* \"#utility.yul\":9662:9665   */\n      dup7\n        /* \"#utility.yul\":9658:9672   */\n      add\n        /* \"#utility.yul\":9644:9656   */\n      dup3\n        /* \"#utility.yul\":9610:9673   */\n      tag_191\n      jump\t// in\n    tag_334:\n        /* \"#utility.yul\":9514:9683   */\n      pop\n        /* \"#utility.yul\":9766:9770   */\n      0x80\n        /* \"#utility.yul\":9759:9764   */\n      dup4\n        /* \"#utility.yul\":9755:9771   */\n      add\n        /* \"#utility.yul\":9749:9772   */\n      mload\n        /* \"#utility.yul\":9785:9848   */\n      tag_335\n        /* \"#utility.yul\":9842:9846   */\n      0x80\n        /* \"#utility.yul\":9837:9840   */\n      dup7\n        /* \"#utility.yul\":9833:9847   */\n      add\n        /* \"#utility.yul\":9819:9831   */\n      dup3\n        /* \"#utility.yul\":9785:9848   */\n      tag_191\n      jump\t// in\n    tag_335:\n        /* \"#utility.yul\":9693:9858   */\n      pop\n        /* \"#utility.yul\":9875:9879   */\n      dup1\n        /* \"#utility.yul\":9868:9879   */\n      swap2\n      pop\n        /* \"#utility.yul\":8872:9885   */\n      pop\n        /* \"#utility.yul\":8766:9885   */\n      swap3\n      swap2\n      pop\n      pop\n      jump\t// out\n        /* \"#utility.yul\":9891:10131   */\n    tag_196:\n        /* \"#utility.yul\":10002:10012   */\n      0x00\n        /* \"#utility.yul\":10037:10125   */\n      tag_337\n        /* \"#utility.yul\":10121:10124   */\n      dup4\n        /* \"#utility.yul\":10113:10119   */\n      dup4\n        /* \"#utility.yul\":10037:10125   */\n      tag_195\n      jump\t// in\n    tag_337:\n        /* \"#utility.yul\":10023:10125   */\n      swap1\n      pop\n        /* \"#utility.yul\":9891:10131   */\n      swap3\n      swap2\n      pop\n      pop\n      jump\t// out\n        /* \"#utility.yul\":10137:10271   */\n    tag_197:\n        /* \"#utility.yul\":10228:10232   */\n      0x00\n        /* \"#utility.yul\":10260:10264   */\n      0x20\n        /* \"#utility.yul\":10255:10258   */\n      dup3\n        /* \"#utility.yul\":10251:10265   */\n      add\n        /* \"#utility.yul\":10243:10265   */\n      swap1\n      pop\n        /* \"#utility.yul\":10137:10271   */\n      swap2\n      swap1\n      pop\n      jump\t// out\n        /* \"#utility.yul\":10333:11412   */\n    tag_198:\n        /* \"#utility.yul\":10494:10497   */\n      0x00\n        /* \"#utility.yul\":10523:10598   */\n      tag_340\n        /* \"#utility.yul\":10592:10597   */\n      dup3\n        /* \"#utility.yul\":10523:10598   */\n      tag_188\n      jump\t// in\n    tag_340:\n        /* \"#utility.yul\":10614:10721   */\n      tag_341\n        /* \"#utility.yul\":10714:10720   */\n      dup2\n        /* \"#utility.yul\":10709:10712   */\n      dup6\n        /* \"#utility.yul\":10614:10721   */\n      tag_189\n      jump\t// in\n    tag_341:\n        /* \"#utility.yul\":10607:10721   */\n      swap4\n      pop\n        /* \"#utility.yul\":10747:10750   */\n      dup4\n        /* \"#utility.yul\":10792:10796   */\n      0x20\n        /* \"#utility.yul\":10784:10790   */\n      dup3\n        /* \"#utility.yul\":10780:10797   */\n      mul\n        /* \"#utility.yul\":10775:10778   */\n      dup6\n        /* \"#utility.yul\":10771:10798   */\n      add\n        /* \"#utility.yul\":10822:10899   */\n      tag_342\n        /* \"#utility.yul\":10893:10898   */\n      dup6\n        /* \"#utility.yul\":10822:10899   */\n      tag_190\n      jump\t// in\n    tag_342:\n        /* \"#utility.yul\":10922:10929   */\n      dup1\n        /* \"#utility.yul\":10953:10954   */\n      0x00\n        /* \"#utility.yul\":10938:11367   */\n    tag_343:\n        /* \"#utility.yul\":10963:10969   */\n      dup6\n        /* \"#utility.yul\":10960:10961   */\n      dup2\n        /* \"#utility.yul\":10957:10970   */\n      lt\n        /* \"#utility.yul\":10938:11367   */\n      iszero\n      tag_345\n      jumpi\n        /* \"#utility.yul\":11034:11043   */\n      dup5\n        /* \"#utility.yul\":11028:11032   */\n      dup5\n        /* \"#utility.yul\":11024:11044   */\n      sub\n        /* \"#utility.yul\":11019:11022   */\n      dup10\n        /* \"#utility.yul\":11012:11045   */\n      mstore\n        /* \"#utility.yul\":11085:11091   */\n      dup2\n        /* \"#utility.yul\":11079:11092   */\n      mload\n        /* \"#utility.yul\":11113:11219   */\n      tag_346\n        /* \"#utility.yul\":11214:11218   */\n      dup6\n        /* \"#utility.yul\":11199:11212   */\n      dup3\n        /* \"#utility.yul\":11113:11219   */\n      tag_196\n      jump\t// in\n    tag_346:\n        /* \"#utility.yul\":11105:11219   */\n      swap5\n      pop\n        /* \"#utility.yul\":11242:11323   */\n      tag_347\n        /* \"#utility.yul\":11316:11322   */\n      dup4\n        /* \"#utility.yul\":11242:11323   */\n      tag_197\n      jump\t// in\n    tag_347:\n        /* \"#utility.yul\":11232:11323   */\n      swap3\n      pop\n        /* \"#utility.yul\":11352:11356   */\n      0x20\n        /* \"#utility.yul\":11347:11350   */\n      dup11\n        /* \"#utility.yul\":11343:11357   */\n      add\n        /* \"#utility.yul\":11336:11357   */\n      swap10\n      pop\n        /* \"#utility.yul\":10998:11367   */\n      pop\n        /* \"#utility.yul\":10985:10986   */\n      0x01\n        /* \"#utility.yul\":10982:10983   */\n      dup2\n        /* \"#utility.yul\":10978:10987   */\n      add\n        /* \"#utility.yul\":10973:10987   */\n      swap1\n      pop\n        /* \"#utility.yul\":10938:11367   */\n      jump(tag_343)\n    tag_345:\n        /* \"#utility.yul\":10942:10956   */\n      pop\n        /* \"#utility.yul\":11383:11387   */\n      dup3\n        /* \"#utility.yul\":11376:11387   */\n      swap8\n      pop\n        /* \"#utility.yul\":11403:11406   */\n      dup8\n        /* \"#utility.yul\":11396:11406   */\n      swap6\n      pop\n        /* \"#utility.yul\":10499:11412   */\n      pop\n      pop\n      pop\n      pop\n      pop\n        /* \"#utility.yul\":10333:11412   */\n      swap3\n      swap2\n      pop\n      pop\n      jump\t// out\n        /* \"#utility.yul\":11418:11875   */\n    tag_61:\n        /* \"#utility.yul\":11603:11607   */\n      0x00\n        /* \"#utility.yul\":11641:11643   */\n      0x20\n        /* \"#utility.yul\":11630:11639   */\n      dup3\n        /* \"#utility.yul\":11626:11644   */\n      add\n        /* \"#utility.yul\":11618:11644   */\n      swap1\n      pop\n        /* \"#utility.yul\":11690:11699   */\n      dup2\n        /* \"#utility.yul\":11684:11688   */\n      dup2\n        /* \"#utility.yul\":11680:11700   */\n      sub\n        /* \"#utility.yul\":11676:11677   */\n      0x00\n        /* \"#utility.yul\":11665:11674   */\n      dup4\n        /* \"#utility.yul\":11661:11678   */\n      add\n        /* \"#utility.yul\":11654:11701   */\n      mstore\n        /* \"#utility.yul\":11718:11868   */\n      tag_349\n        /* \"#utility.yul\":11863:11867   */\n      dup2\n        /* \"#utility.yul\":11854:11860   */\n      dup5\n        /* \"#utility.yul\":11718:11868   */\n      tag_198\n      jump\t// in\n    tag_349:\n        /* \"#utility.yul\":11710:11868   */\n      swap1\n      pop\n        /* \"#utility.yul\":11418:11875   */\n      swap3\n      swap2\n      pop\n      pop\n      jump\t// out\n        /* \"#utility.yul\":11881:12061   */\n    tag_199:\n        /* \"#utility.yul\":11929:12006   */\n      0x4e487b7100000000000000000000000000000000000000000000000000000000\n        /* \"#utility.yul\":11926:11927   */\n      0x00\n        /* \"#utility.yul\":11919:12007   */\n      mstore\n        /* \"#utility.yul\":12026:12030   */\n      0x22\n        /* \"#utility.yul\":12023:12024   */\n      0x04\n        /* \"#utility.yul\":12016:12031   */\n      mstore\n        /* \"#utility.yul\":12050:12054   */\n      0x24\n        /* \"#utility.yul\":12047:12048   */\n      0x00\n        /* \"#utility.yul\":12040:12055   */\n      revert\n        /* \"#utility.yul\":12067:12387   */\n    tag_65:\n        /* \"#utility.yul\":12111:12117   */\n      0x00\n        /* \"#utility.yul\":12148:12149   */\n      0x02\n        /* \"#utility.yul\":12142:12146   */\n      dup3\n        /* \"#utility.yul\":12138:12150   */\n      div\n        /* \"#utility.yul\":12128:12150   */\n      swap1\n      pop\n        /* \"#utility.yul\":12195:12196   */\n      0x01\n        /* \"#utility.yul\":12189:12193   */\n      dup3\n        /* \"#utility.yul\":12185:12197   */\n      and\n        /* \"#utility.yul\":12216:12234   */\n      dup1\n        /* \"#utility.yul\":12206:12287   */\n      tag_352\n      jumpi\n        /* \"#utility.yul\":12272:12276   */\n      0x7f\n        /* \"#utility.yul\":12264:12270   */\n      dup3\n        /* \"#utility.yul\":12260:12277   */\n      and\n        /* \"#utility.yul\":12250:12277   */\n      swap2\n      pop\n        /* \"#utility.yul\":12206:12287   */\n    tag_352:\n        /* \"#utility.yul\":12334:12336   */\n      0x20\n        /* \"#utility.yul\":12326:12332   */\n      dup3\n        /* \"#utility.yul\":12323:12337   */\n      lt\n        /* \"#utility.yul\":12303:12321   */\n      dup2\n        /* \"#utility.yul\":12300:12338   */\n      sub\n        /* \"#utility.yul\":12297:12381   */\n      tag_353\n      jumpi\n        /* \"#utility.yul\":12353:12371   */\n      tag_354\n      tag_199\n      jump\t// in\n    tag_354:\n        /* \"#utility.yul\":12297:12381   */\n    tag_353:\n        /* \"#utility.yul\":12118:12387   */\n      pop\n        /* \"#utility.yul\":12067:12387   */\n      swap2\n      swap1\n      pop\n      jump\t// out\n        /* \"#utility.yul\":12393:12573   */\n    tag_73:\n        /* \"#utility.yul\":12441:12518   */\n      0x4e487b7100000000000000000000000000000000000000000000000000000000\n        /* \"#utility.yul\":12438:12439   */\n      0x00\n        /* \"#utility.yul\":12431:12519   */\n      mstore\n        /* \"#utility.yul\":12538:12542   */\n      0x32\n        /* \"#utility.yul\":12535:12536   */\n      0x04\n        /* \"#utility.yul\":12528:12543   */\n      mstore\n        /* \"#utility.yul\":12562:12566   */\n      0x24\n        /* \"#utility.yul\":12559:12560   */\n      0x00\n        /* \"#utility.yul\":12552:12567   */\n      revert\n        /* \"#utility.yul\":12579:12749   */\n    tag_200:\n        /* \"#utility.yul\":12719:12741   */\n      0x547765657420646f6573206e6f74206578697374000000000000000000000000\n        /* \"#utility.yul\":12715:12716   */\n      0x00\n        /* \"#utility.yul\":12707:12713   */\n      dup3\n        /* \"#utility.yul\":12703:12717   */\n      add\n        /* \"#utility.yul\":12696:12742   */\n      mstore\n        /* \"#utility.yul\":12579:12749   */\n      pop\n      jump\t// out\n        /* \"#utility.yul\":12755:13121   */\n    tag_201:\n        /* \"#utility.yul\":12897:12900   */\n      0x00\n        /* \"#utility.yul\":12918:12985   */\n      tag_358\n        /* \"#utility.yul\":12982:12984   */\n      0x14\n        /* \"#utility.yul\":12977:12980   */\n      dup4\n        /* \"#utility.yul\":12918:12985   */\n      tag_175\n      jump\t// in\n    tag_358:\n        /* \"#utility.yul\":12911:12985   */\n      swap2\n      pop\n        /* \"#utility.yul\":12994:13087   */\n      tag_359\n        /* \"#utility.yul\":13083:13086   */\n      dup3\n        /* \"#utility.yul\":12994:13087   */\n      tag_200\n      jump\t// in\n    tag_359:\n        /* \"#utility.yul\":13112:13114   */\n      0x20\n        /* \"#utility.yul\":13107:13110   */\n      dup3\n        /* \"#utility.yul\":13103:13115   */\n      add\n        /* \"#utility.yul\":13096:13115   */\n      swap1\n      pop\n        /* \"#utility.yul\":12755:13121   */\n      swap2\n      swap1\n      pop\n      jump\t// out\n        /* \"#utility.yul\":13127:13546   */\n    tag_86:\n        /* \"#utility.yul\":13293:13297   */\n      0x00\n        /* \"#utility.yul\":13331:13333   */\n      0x20\n        /* \"#utility.yul\":13320:13329   */\n      dup3\n        /* \"#utility.yul\":13316:13334   */\n      add\n        /* \"#utility.yul\":13308:13334   */\n      swap1\n      pop\n        /* \"#utility.yul\":13380:13389   */\n      dup2\n        /* \"#utility.yul\":13374:13378   */\n      dup2\n        /* \"#utility.yul\":13370:13390   */\n      sub\n        /* \"#utility.yul\":13366:13367   */\n      0x00\n        /* \"#utility.yul\":13355:13364   */\n      dup4\n        /* \"#utility.yul\":13351:13368   */\n      add\n        /* \"#utility.yul\":13344:13391   */\n      mstore\n        /* \"#utility.yul\":13408:13539   */\n      tag_361\n        /* \"#utility.yul\":13534:13538   */\n      dup2\n        /* \"#utility.yul\":13408:13539   */\n      tag_201\n      jump\t// in\n    tag_361:\n        /* \"#utility.yul\":13400:13539   */\n      swap1\n      pop\n        /* \"#utility.yul\":13127:13546   */\n      swap2\n      swap1\n      pop\n      jump\t// out\n        /* \"#utility.yul\":13552:13732   */\n    tag_202:\n        /* \"#utility.yul\":13600:13677   */\n      0x4e487b7100000000000000000000000000000000000000000000000000000000\n        /* \"#utility.yul\":13597:13598   */\n      0x00\n        /* \"#utility.yul\":13590:13678   */\n      mstore\n        /* \"#utility.yul\":13697:13701   */\n      0x11\n        /* \"#utility.yul\":13694:13695   */\n      0x04\n        /* \"#utility.yul\":13687:13702   */\n      mstore\n        /* \"#utility.yul\":13721:13725   */\n      0x24\n        /* \"#utility.yul\":13718:13719   */\n      0x00\n        /* \"#utility.yul\":13711:13726   */\n      revert\n        /* \"#utility.yul\":13738:13929   */\n    tag_91:\n        /* \"#utility.yul\":13778:13781   */\n      0x00\n        /* \"#utility.yul\":13797:13817   */\n      tag_364\n        /* \"#utility.yul\":13815:13816   */\n      dup3\n        /* \"#utility.yul\":13797:13817   */\n      tag_169\n      jump\t// in\n    tag_364:\n        /* \"#utility.yul\":13792:13817   */\n      swap2\n      pop\n        /* \"#utility.yul\":13831:13851   */\n      tag_365\n        /* \"#utility.yul\":13849:13850   */\n      dup4\n        /* \"#utility.yul\":13831:13851   */\n      tag_169\n      jump\t// in\n    tag_365:\n        /* \"#utility.yul\":13826:13851   */\n      swap3\n      pop\n        /* \"#utility.yul\":13874:13875   */\n      dup3\n        /* \"#utility.yul\":13871:13872   */\n      dup3\n        /* \"#utility.yul\":13867:13876   */\n      add\n        /* \"#utility.yul\":13860:13876   */\n      swap1\n      pop\n        /* \"#utility.yul\":13895:13898   */\n      dup1\n        /* \"#utility.yul\":13892:13893   */\n      dup3\n        /* \"#utility.yul\":13889:13899   */\n      gt\n        /* \"#utility.yul\":13886:13922   */\n      iszero\n      tag_366\n      jumpi\n        /* \"#utility.yul\":13902:13920   */\n      tag_367\n      tag_202\n      jump\t// in\n    tag_367:\n        /* \"#utility.yul\":13886:13922   */\n    tag_366:\n        /* \"#utility.yul\":13738:13929   */\n      swap3\n      swap2\n      pop\n      pop\n      jump\t// out\n        /* \"#utility.yul\":13935:14076   */\n    tag_203:\n        /* \"#utility.yul\":13984:13988   */\n      0x00\n        /* \"#utility.yul\":14007:14010   */\n      dup2\n        /* \"#utility.yul\":13999:14010   */\n      swap1\n      pop\n        /* \"#utility.yul\":14030:14033   */\n      dup2\n        /* \"#utility.yul\":14027:14028   */\n      0x00\n        /* \"#utility.yul\":14020:14034   */\n      mstore\n        /* \"#utility.yul\":14064:14068   */\n      0x20\n        /* \"#utility.yul\":14061:14062   */\n      0x00\n        /* \"#utility.yul\":14051:14069   */\n      keccak256\n        /* \"#utility.yul\":14043:14069   */\n      swap1\n      pop\n        /* \"#utility.yul\":13935:14076   */\n      swap2\n      swap1\n      pop\n      jump\t// out\n        /* \"#utility.yul\":14082:14175   */\n    tag_204:\n        /* \"#utility.yul\":14119:14125   */\n      0x00\n        /* \"#utility.yul\":14166:14168   */\n      0x20\n        /* \"#utility.yul\":14161:14163   */\n      0x1f\n        /* \"#utility.yul\":14154:14159   */\n      dup4\n        /* \"#utility.yul\":14150:14164   */\n      add\n        /* \"#utility.yul\":14146:14169   */\n      div\n        /* \"#utility.yul\":14136:14169   */\n      swap1\n      pop\n        /* \"#utility.yul\":14082:14175   */\n      swap2\n      swap1\n      pop\n      jump\t// out\n        /* \"#utility.yul\":14181:14288   */\n    tag_205:\n        /* \"#utility.yul\":14225:14233   */\n      0x00\n        /* \"#utility.yul\":14275:14280   */\n      dup3\n        /* \"#utility.yul\":14269:14273   */\n      dup3\n        /* \"#utility.yul\":14265:14281   */\n      shl\n        /* \"#utility.yul\":14244:14281   */\n      swap1\n      pop\n        /* \"#utility.yul\":14181:14288   */\n      swap3\n      swap2\n      pop\n      pop\n      jump\t// out\n        /* \"#utility.yul\":14294:14687   */\n    tag_206:\n        /* \"#utility.yul\":14363:14369   */\n      0x00\n        /* \"#utility.yul\":14413:14414   */\n      0x08\n        /* \"#utility.yul\":14401:14411   */\n      dup4\n        /* \"#utility.yul\":14397:14415   */\n      mul\n        /* \"#utility.yul\":14436:14533   */\n      tag_372\n        /* \"#utility.yul\":14466:14532   */\n      0xffffffffffffffffffffffffffffffffffffffffffffffffffffffffffffffff\n        /* \"#utility.yul\":14455:14464   */\n      dup3\n        /* \"#utility.yul\":14436:14533   */\n      tag_205\n      jump\t// in\n    tag_372:\n        /* \"#utility.yul\":14554:14593   */\n      tag_373\n        /* \"#utility.yul\":14584:14592   */\n      dup7\n        /* \"#utility.yul\":14573:14582   */\n      dup4\n        /* \"#utility.yul\":14554:14593   */\n      tag_205\n      jump\t// in\n    tag_373:\n        /* \"#utility.yul\":14542:14593   */\n      swap6\n      pop\n        /* \"#utility.yul\":14626:14630   */\n      dup1\n        /* \"#utility.yul\":14622:14631   */\n      not\n        /* \"#utility.yul\":14615:14620   */\n      dup5\n        /* \"#utility.yul\":14611:14632   */\n      and\n        /* \"#utility.yul\":14602:14632   */\n      swap4\n      pop\n        /* \"#utility.yul\":14675:14679   */\n      dup1\n        /* \"#utility.yul\":14665:14673   */\n      dup7\n        /* \"#utility.yul\":14661:14680   */\n      and\n        /* \"#utility.yul\":14654:14659   */\n      dup5\n        /* \"#utility.yul\":14651:14681   */\n      or\n        /* \"#utility.yul\":14641:14681   */\n      swap3\n      pop\n        /* \"#utility.yul\":14370:14687   */\n      pop\n      pop\n        /* \"#utility.yul\":14294:14687   */\n      swap4\n      swap3\n      pop\n      pop\n      pop\n      jump\t// out\n        /* \"#utility.yul\":14693:14753   */\n    tag_207:\n        /* \"#utility.yul\":14721:14724   */\n      0x00\n        /* \"#utility.yul\":14742:14747   */\n      dup2\n        /* \"#utility.yul\":14735:14747   */\n      swap1\n      pop\n        /* \"#utility.yul\":14693:14753   */\n      swap2\n      swap1\n      pop\n      jump\t// out\n        /* \"#utility.yul\":14759:14901   */\n    tag_208:\n        /* \"#utility.yul\":14809:14818   */\n      0x00\n        /* \"#utility.yul\":14842:14895   */\n      tag_376\n        /* \"#utility.yul\":14860:14894   */\n      tag_377\n        /* \"#utility.yul\":14869:14893   */\n      tag_378\n        /* \"#utility.yul\":14887:14892   */\n      dup5\n        /* \"#utility.yul\":14869:14893   */\n      tag_169\n      jump\t// in\n    tag_378:\n        /* \"#utility.yul\":14860:14894   */\n      tag_207\n      jump\t// in\n    tag_377:\n        /* \"#utility.yul\":14842:14895   */\n      tag_169\n      jump\t// in\n    tag_376:\n        /* \"#utility.yul\":14829:14895   */\n      swap1\n      pop\n        /* \"#utility.yul\":14759:14901   */\n      swap2\n      swap1\n      pop\n      jump\t// out\n        /* \"#utility.yul\":14907:14982   */\n    tag_209:\n        /* \"#utility.yul\":14950:14953   */\n      0x00\n        /* \"#utility.yul\":14971:14976   */\n      dup2\n        /* \"#utility.yul\":14964:14976   */\n      swap1\n      pop\n        /* \"#utility.yul\":14907:14982   */\n      swap2\n      swap1\n      pop\n      jump\t// out\n        /* \"#utility.yul\":14988:15257   */\n    tag_210:\n        /* \"#utility.yul\":15098:15137   */\n      tag_381\n        /* \"#utility.yul\":15129:15136   */\n      dup4\n        /* \"#utility.yul\":15098:15137   */\n      tag_208\n      jump\t// in\n    tag_381:\n        /* \"#utility.yul\":15159:15250   */\n      tag_382\n        /* \"#utility.yul\":15208:15249   */\n      tag_383\n        /* \"#utility.yul\":15232:15248   */\n      dup3\n        /* \"#utility.yul\":15208:15249   */\n      tag_209\n      jump\t// in\n    tag_383:\n        /* \"#utility.yul\":15200:15206   */\n      dup5\n        /* \"#utility.yul\":15193:15197   */\n      dup5\n        /* \"#utility.yul\":15187:15198   */\n      sload\n        /* \"#utility.yul\":15159:15250   */\n      tag_206\n      jump\t// in\n    tag_382:\n        /* \"#utility.yul\":15153:15157   */\n      dup3\n        /* \"#utility.yul\":15146:15251   */\n      sstore\n        /* \"#utility.yul\":15064:15257   */\n      pop\n        /* \"#utility.yul\":14988:15257   */\n      pop\n      pop\n      pop\n      jump\t// out\n        /* \"#utility.yul\":15263:15336   */\n    tag_211:\n        /* \"#utility.yul\":15308:15311   */\n      0x00\n        /* \"#utility.yul\":15329:15330   */\n      0x00\n        /* \"#utility.yul\":15322:15330   */\n      swap1\n      pop\n        /* \"#utility.yul\":15263:15336   */\n      swap1\n      jump\t// out\n        /* \"#utility.yul\":15342:15531   */\n    tag_212:\n        /* \"#utility.yul\":15419:15451   */\n      tag_386\n      tag_211\n      jump\t// in\n    tag_386:\n        /* \"#utility.yul\":15460:15525   */\n      tag_387\n        /* \"#utility.yul\":15518:15524   */\n      dup2\n        /* \"#utility.yul\":15510:15516   */\n      dup5\n        /* \"#utility.yul\":15504:15508   */\n      dup5\n        /* \"#utility.yul\":15460:15525   */\n      tag_210\n      jump\t// in\n    tag_387:\n        /* \"#utility.yul\":15395:15531   */\n      pop\n        /* \"#utility.yul\":15342:15531   */\n      pop\n      pop\n      jump\t// out\n        /* \"#utility.yul\":15537:15723   */\n    tag_213:\n        /* \"#utility.yul\":15597:15717   */\n    tag_389:\n        /* \"#utility.yul\":15614:15617   */\n      dup2\n        /* \"#utility.yul\":15607:15612   */\n      dup2\n        /* \"#utility.yul\":15604:15618   */\n      lt\n        /* \"#utility.yul\":15597:15717   */\n      iszero\n      tag_391\n      jumpi\n        /* \"#utility.yul\":15668:15707   */\n      tag_392\n        /* \"#utility.yul\":15705:15706   */\n      0x00\n        /* \"#utility.yul\":15698:15703   */\n      dup3\n        /* \"#utility.yul\":15668:15707   */\n      tag_212\n      jump\t// in\n    tag_392:\n        /* \"#utility.yul\":15641:15642   */\n      0x01\n        /* \"#utility.yul\":15634:15639   */\n      dup2\n        /* \"#utility.yul\":15630:15643   */\n      add\n        /* \"#utility.yul\":15621:15643   */\n      swap1\n      pop\n        /* \"#utility.yul\":15597:15717   */\n      jump(tag_389)\n    tag_391:\n        /* \"#utility.yul\":15537:15723   */\n      pop\n      pop\n      jump\t// out\n        /* \"#utility.yul\":15729:16272   */\n    tag_214:\n        /* \"#utility.yul\":15830:15832   */\n      0x1f\n        /* \"#utility.yul\":15825:15828   */\n      dup3\n        /* \"#utility.yul\":15822:15833   */\n      gt\n        /* \"#utility.yul\":15819:16265   */\n      iszero\n      tag_394\n      jumpi\n        /* \"#utility.yul\":15864:15902   */\n      tag_395\n        /* \"#utility.yul\":15896:15901   */\n      dup2\n        /* \"#utility.yul\":15864:15902   */\n      tag_203\n      jump\t// in\n    tag_395:\n        /* \"#utility.yul\":15948:15977   */\n      tag_396\n        /* \"#utility.yul\":15966:15976   */\n      dup5\n        /* \"#utility.yul\":15948:15977   */\n      tag_204\n      jump\t// in\n    tag_396:\n        /* \"#utility.yul\":15938:15946   */\n      dup2\n        /* \"#utility.yul\":15934:15978   */\n      add\n        /* \"#utility.yul\":16131:16133   */\n      0x20\n        /* \"#utility.yul\":16119:16129   */\n      dup6\n        /* \"#utility.yul\":16116:16134   */\n      lt\n        /* \"#utility.yul\":16113:16162   */\n      iszero\n      tag_397\n      jumpi\n        /* \"#utility.yul\":16152:16160   */\n      dup2\n        /* \"#utility.yul\":16137:16160   */\n      swap1\n      pop\n        /* \"#utility.yul\":16113:16162   */\n    tag_397:\n        /* \"#utility.yul\":16175:16255   */\n      tag_398\n        /* \"#utility.yul\":16231:16253   */\n      tag_399\n        /* \"#utility.yul\":16249:16252   */\n      dup6\n        /* \"#utility.yul\":16231:16253   */\n      tag_204\n      jump\t// in\n    tag_399:\n        /* \"#utility.yul\":16221:16229   */\n      dup4\n        /* \"#utility.yul\":16217:16254   */\n      add\n        /* \"#utility.yul\":16204:16215   */\n      dup3\n        /* \"#utility.yul\":16175:16255   */\n      tag_213\n      jump\t// in\n    tag_398:\n        /* \"#utility.yul\":15834:16265   */\n      pop\n      pop\n        /* \"#utility.yul\":15819:16265   */\n    tag_394:\n        /* \"#utility.yul\":15729:16272   */\n      pop\n      pop\n      pop\n      jump\t// out\n        /* \"#utility.yul\":16278:16395   */\n    tag_215:\n        /* \"#utility.yul\":16332:16340   */\n      0x00\n        /* \"#utility.yul\":16382:16387   */\n      dup3\n        /* \"#utility.yul\":16376:16380   */\n      dup3\n        /* \"#utility.yul\":16372:16388   */\n      shr\n        /* \"#utility.yul\":16351:16388   */\n      swap1\n      pop\n        /* \"#utility.yul\":16278:16395   */\n      swap3\n      swap2\n      pop\n      pop\n      jump\t// out\n        /* \"#utility.yul\":16401:16570   */\n    tag_216:\n        /* \"#utility.yul\":16445:16451   */\n      0x00\n        /* \"#utility.yul\":16478:16529   */\n      tag_402\n        /* \"#utility.yul\":16526:16527   */\n      0x00\n        /* \"#utility.yul\":16522:16528   */\n      not\n        /* \"#utility.yul\":16514:16519   */\n      dup5\n        /* \"#utility.yul\":16511:16512   */\n      0x08\n        /* \"#utility.yul\":16507:16520   */\n      mul\n        /* \"#utility.yul\":16478:16529   */\n      tag_215\n      jump\t// in\n    tag_402:\n        /* \"#utility.yul\":16474:16530   */\n      not\n        /* \"#utility.yul\":16559:16563   */\n      dup1\n        /* \"#utility.yul\":16553:16557   */\n      dup4\n        /* \"#utility.yul\":16549:16564   */\n      and\n        /* \"#utility.yul\":16539:16564   */\n      swap2\n      pop\n        /* \"#utility.yul\":16452:16570   */\n      pop\n        /* \"#utility.yul\":16401:16570   */\n      swap3\n      swap2\n      pop\n      pop\n      jump\t// out\n        /* \"#utility.yul\":16575:16870   */\n    tag_217:\n        /* \"#utility.yul\":16651:16655   */\n      0x00\n        /* \"#utility.yul\":16797:16826   */\n      tag_404\n        /* \"#utility.yul\":16822:16825   */\n      dup4\n        /* \"#utility.yul\":16816:16820   */\n      dup4\n        /* \"#utility.yul\":16797:16826   */\n      tag_216\n      jump\t// in\n    tag_404:\n        /* \"#utility.yul\":16789:16826   */\n      swap2\n      pop\n        /* \"#utility.yul\":16859:16862   */\n      dup3\n        /* \"#utility.yul\":16856:16857   */\n      0x02\n        /* \"#utility.yul\":16852:16863   */\n      mul\n        /* \"#utility.yul\":16846:16850   */\n      dup3\n        /* \"#utility.yul\":16843:16864   */\n      or\n        /* \"#utility.yul\":16835:16864   */\n      swap1\n      pop\n        /* \"#utility.yul\":16575:16870   */\n      swap3\n      swap2\n      pop\n      pop\n      jump\t// out\n        /* \"#utility.yul\":16875:18270   */\n    tag_95:\n        /* \"#utility.yul\":16992:17029   */\n      tag_406\n        /* \"#utility.yul\":17025:17028   */\n      dup3\n        /* \"#utility.yul\":16992:17029   */\n      tag_174\n      jump\t// in\n    tag_406:\n        /* \"#utility.yul\":17094:17112   */\n      0xffffffffffffffff\n        /* \"#utility.yul\":17086:17092   */\n      dup2\n        /* \"#utility.yul\":17083:17113   */\n      gt\n        /* \"#utility.yul\":17080:17136   */\n      iszero\n      tag_407\n      jumpi\n        /* \"#utility.yul\":17116:17134   */\n      tag_408\n      tag_181\n      jump\t// in\n    tag_408:\n        /* \"#utility.yul\":17080:17136   */\n    tag_407:\n        /* \"#utility.yul\":17160:17198   */\n      tag_409\n        /* \"#utility.yul\":17192:17196   */\n      dup3\n        /* \"#utility.yul\":17186:17197   */\n      sload\n        /* \"#utility.yul\":17160:17198   */\n      tag_65\n      jump\t// in\n    tag_409:\n        /* \"#utility.yul\":17245:17312   */\n      tag_410\n        /* \"#utility.yul\":17305:17311   */\n      dup3\n        /* \"#utility.yul\":17297:17303   */\n      dup3\n        /* \"#utility.yul\":17291:17295   */\n      dup6\n        /* \"#utility.yul\":17245:17312   */\n      tag_214\n      jump\t// in\n    tag_410:\n        /* \"#utility.yul\":17339:17340   */\n      0x00\n        /* \"#utility.yul\":17363:17367   */\n      0x20\n        /* \"#utility.yul\":17350:17367   */\n      swap1\n      pop\n        /* \"#utility.yul\":17395:17397   */\n      0x1f\n        /* \"#utility.yul\":17387:17393   */\n      dup4\n        /* \"#utility.yul\":17384:17398   */\n      gt\n        /* \"#utility.yul\":17412:17413   */\n      0x01\n        /* \"#utility.yul\":17407:18025   */\n      dup2\n      eq\n      tag_412\n      jumpi\n        /* \"#utility.yul\":18069:18070   */\n      0x00\n        /* \"#utility.yul\":18086:18092   */\n      dup5\n        /* \"#utility.yul\":18083:18160   */\n      iszero\n      tag_413\n      jumpi\n        /* \"#utility.yul\":18135:18144   */\n      dup3\n        /* \"#utility.yul\":18130:18133   */\n      dup8\n        /* \"#utility.yul\":18126:18145   */\n      add\n        /* \"#utility.yul\":18120:18146   */\n      mload\n        /* \"#utility.yul\":18111:18146   */\n      swap1\n      pop\n        /* \"#utility.yul\":18083:18160   */\n    tag_413:\n        /* \"#utility.yul\":18186:18253   */\n      tag_414\n        /* \"#utility.yul\":18246:18252   */\n      dup6\n        /* \"#utility.yul\":18239:18244   */\n      dup3\n        /* \"#utility.yul\":18186:18253   */\n      tag_217\n      jump\t// in\n    tag_414:\n        /* \"#utility.yul\":18180:18184   */\n      dup7\n        /* \"#utility.yul\":18173:18254   */\n      sstore\n        /* \"#utility.yul\":18042:18264   */\n      pop\n        /* \"#utility.yul\":17377:18264   */\n      jump(tag_411)\n        /* \"#utility.yul\":17407:18025   */\n    tag_412:\n        /* \"#utility.yul\":17459:17463   */\n      0x1f\n        /* \"#utility.yul\":17455:17464   */\n      not\n        /* \"#utility.yul\":17447:17453   */\n      dup5\n        /* \"#utility.yul\":17443:17465   */\n      and\n        /* \"#utility.yul\":17493:17530   */\n      tag_415\n        /* \"#utility.yul\":17525:17529   */\n      dup7\n        /* \"#utility.yul\":17493:17530   */\n      tag_203\n      jump\t// in\n    tag_415:\n        /* \"#utility.yul\":17552:17553   */\n      0x00\n        /* \"#utility.yul\":17566:17774   */\n    tag_416:\n        /* \"#utility.yul\":17580:17587   */\n      dup3\n        /* \"#utility.yul\":17577:17578   */\n      dup2\n        /* \"#utility.yul\":17574:17588   */\n      lt\n        /* \"#utility.yul\":17566:17774   */\n      iszero\n      tag_418\n      jumpi\n        /* \"#utility.yul\":17659:17668   */\n      dup5\n        /* \"#utility.yul\":17654:17657   */\n      dup10\n        /* \"#utility.yul\":17650:17669   */\n      add\n        /* \"#utility.yul\":17644:17670   */\n      mload\n        /* \"#utility.yul\":17636:17642   */\n      dup3\n        /* \"#utility.yul\":17629:17671   */\n      sstore\n        /* \"#utility.yul\":17710:17711   */\n      0x01\n        /* \"#utility.yul\":17702:17708   */\n      dup3\n        /* \"#utility.yul\":17698:17712   */\n      add\n        /* \"#utility.yul\":17688:17712   */\n      swap2\n      pop\n        /* \"#utility.yul\":17757:17759   */\n      0x20\n        /* \"#utility.yul\":17746:17755   */\n      dup6\n        /* \"#utility.yul\":17742:17760   */\n      add\n        /* \"#utility.yul\":17729:17760   */\n      swap5\n      pop\n        /* \"#utility.yul\":17603:17607   */\n      0x20\n        /* \"#utility.yul\":17600:17601   */\n      dup2\n        /* \"#utility.yul\":17596:17608   */\n      add\n        /* \"#utility.yul\":17591:17608   */\n      swap1\n      pop\n        /* \"#utility.yul\":17566:17774   */\n      jump(tag_416)\n    tag_418:\n        /* \"#utility.yul\":17802:17808   */\n      dup7\n        /* \"#utility.yul\":17793:17800   */\n      dup4\n        /* \"#utility.yul\":17790:17809   */\n      lt\n        /* \"#utility.yul\":17787:17966   */\n      iszero\n      tag_419\n      jumpi\n        /* \"#utility.yul\":17860:17869   */\n      dup5\n        /* \"#utility.yul\":17855:17858   */\n      dup10\n        /* \"#utility.yul\":17851:17870   */\n      add\n        /* \"#utility.yul\":17845:17871   */\n      mload\n        /* \"#utility.yul\":17903:17951   */\n      tag_420\n        /* \"#utility.yul\":17945:17949   */\n      0x1f\n        /* \"#utility.yul\":17937:17943   */\n      dup10\n        /* \"#utility.yul\":17933:17950   */\n      and\n        /* \"#utility.yul\":17922:17931   */\n      dup3\n        /* \"#utility.yul\":17903:17951   */\n      tag_216\n      jump\t// in\n    tag_420:\n        /* \"#utility.yul\":17895:17901   */\n      dup4\n        /* \"#utility.yul\":17888:17952   */\n      sstore\n        /* \"#utility.yul\":17810:17966   */\n      pop\n        /* \"#utility.yul\":17787:17966   */\n    tag_419:\n        /* \"#utility.yul\":18012:18013   */\n      0x01\n        /* \"#utility.yul\":18008:18009   */\n      0x02\n        /* \"#utility.yul\":18000:18006   */\n      dup9\n        /* \"#utility.yul\":17996:18010   */\n      mul\n        /* \"#utility.yul\":17992:18014   */\n      add\n        /* \"#utility.yul\":17986:17990   */\n      dup9\n        /* \"#utility.yul\":17979:18015   */\n      sstore\n        /* \"#utility.yul\":17414:18025   */\n      pop\n      pop\n      pop\n        /* \"#utility.yul\":17377:18264   */\n    tag_411:\n      pop\n        /* \"#utility.yul\":16967:18270   */\n      pop\n      pop\n      pop\n        /* \"#utility.yul\":16875:18270   */\n      pop\n      pop\n      jump\t// out\n        /* \"#utility.yul\":18276:18447   */\n    tag_218:\n        /* \"#utility.yul\":18416:18439   */\n      0x54776565742063616e6e6f7420626520656d7074790000000000000000000000\n        /* \"#utility.yul\":18412:18413   */\n      0x00\n        /* \"#utility.yul\":18404:18410   */\n      dup3\n        /* \"#utility.yul\":18400:18414   */\n      add\n        /* \"#utility.yul\":18393:18440   */\n      mstore\n        /* \"#utility.yul\":18276:18447   */\n      pop\n      jump\t// out\n        /* \"#utility.yul\":18453:18819   */\n    tag_219:\n        /* \"#utility.yul\":18595:18598   */\n      0x00\n        /* \"#utility.yul\":18616:18683   */\n      tag_423\n        /* \"#utility.yul\":18680:18682   */\n      0x15\n        /* \"#utility.yul\":18675:18678   */\n      dup4\n        /* \"#utility.yul\":18616:18683   */\n      tag_175\n      jump\t// in\n    tag_423:\n        /* \"#utility.yul\":18609:18683   */\n      swap2\n      pop\n        /* \"#utility.yul\":18692:18785   */\n      tag_424\n        /* \"#utility.yul\":18781:18784   */\n      dup3\n        /* \"#utility.yul\":18692:18785   */\n      tag_218\n      jump\t// in\n    tag_424:\n        /* \"#utility.yul\":18810:18812   */\n      0x20\n        /* \"#utility.yul\":18805:18808   */\n      dup3\n        /* \"#utility.yul\":18801:18813   */\n      add\n        /* \"#utility.yul\":18794:18813   */\n      swap1\n      pop\n        /* \"#utility.yul\":18453:18819   */\n      swap2\n      swap1\n      pop\n      jump\t// out\n        /* \"#utility.yul\":18825:19244   */\n    tag_99:\n        /* \"#utility.yul\":18991:18995   */\n      0x00\n        /* \"#utility.yul\":19029:19031   */\n      0x20\n        /* \"#utility.yul\":19018:19027   */\n      dup3\n        /* \"#utility.yul\":19014:19032   */\n      add\n        /* \"#utility.yul\":19006:19032   */\n      swap1\n      pop\n        /* \"#utility.yul\":19078:19087   */\n      dup2\n        /* \"#utility.yul\":19072:19076   */\n      dup2\n        /* \"#utility.yul\":19068:19088   */\n      sub\n        /* \"#utility.yul\":19064:19065   */\n      0x00\n        /* \"#utility.yul\":19053:19062   */\n      dup4\n        /* \"#utility.yul\":19049:19066   */\n      add\n        /* \"#utility.yul\":19042:19089   */\n      mstore\n        /* \"#utility.yul\":19106:19237   */\n      tag_426\n        /* \"#utility.yul\":19232:19236   */\n      dup2\n        /* \"#utility.yul\":19106:19237   */\n      tag_219\n      jump\t// in\n    tag_426:\n        /* \"#utility.yul\":19098:19237   */\n      swap1\n      pop\n        /* \"#utility.yul\":18825:19244   */\n      swap2\n      swap1\n      pop\n      jump\t// out\n        /* \"#utility.yul\":19250:19477   */\n    tag_220:\n        /* \"#utility.yul\":19390:19424   */\n      0x54776565742063616e6e6f74206265206d6f7265207468616e20323830206368\n        /* \"#utility.yul\":19386:19387   */\n      0x00\n        /* \"#utility.yul\":19378:19384   */\n      dup3\n        /* \"#utility.yul\":19374:19388   */\n      add\n        /* \"#utility.yul\":19367:19425   */\n      mstore\n        /* \"#utility.yul\":19459:19469   */\n      0x6172616374657273000000000000000000000000000000000000000000000000\n        /* \"#utility.yul\":19454:19456   */\n      0x20\n        /* \"#utility.yul\":19446:19452   */\n      dup3\n        /* \"#utility.yul\":19442:19457   */\n      add\n        /* \"#utility.yul\":19435:19470   */\n      mstore\n        /* \"#utility.yul\":19250:19477   */\n      pop\n      jump\t// out\n        /* \"#utility.yul\":19483:19849   */\n    tag_221:\n        /* \"#utility.yul\":19625:19628   */\n      0x00\n        /* \"#utility.yul\":19646:19713   */\n      tag_429\n        /* \"#utility.yul\":19710:19712   */\n      0x28\n        /* \"#utility.yul\":19705:19708   */\n      dup4\n        /* \"#utility.yul\":19646:19713   */\n      tag_175\n      jump\t// in\n    tag_429:\n        /* \"#utility.yul\":19639:19713   */\n      swap2\n      pop\n        /* \"#utility.yul\":19722:19815   */\n      tag_430\n        /* \"#utility.yul\":19811:19814   */\n      dup3\n        /* \"#utility.yul\":19722:19815   */\n      tag_220\n      jump\t// in\n    tag_430:\n        /* \"#utility.yul\":19840:19842   */\n      0x40\n        /* \"#utility.yul\":19835:19838   */\n      dup3\n        /* \"#utility.yul\":19831:19843   */\n      add\n        /* \"#utility.yul\":19824:19843   */\n      swap1\n      pop\n        /* \"#utility.yul\":19483:19849   */\n      swap2\n      swap1\n      pop\n      jump\t// out\n        /* \"#utility.yul\":19855:20274   */\n    tag_102:\n        /* \"#utility.yul\":20021:20025   */\n      0x00\n        /* \"#utility.yul\":20059:20061   */\n      0x20\n        /* \"#utility.yul\":20048:20057   */\n      dup3\n        /* \"#utility.yul\":20044:20062   */\n      add\n        /* \"#utility.yul\":20036:20062   */\n      swap1\n      pop\n        /* \"#utility.yul\":20108:20117   */\n      dup2\n        /* \"#utility.yul\":20102:20106   */\n      dup2\n        /* \"#utility.yul\":20098:20118   */\n      sub\n        /* \"#utility.yul\":20094:20095   */\n      0x00\n        /* \"#utility.yul\":20083:20092   */\n      dup4\n        /* \"#utility.yul\":20079:20096   */\n      add\n        /* \"#utility.yul\":20072:20119   */\n      mstore\n        /* \"#utility.yul\":20136:20267   */\n      tag_432\n        /* \"#utility.yul\":20262:20266   */\n      dup2\n        /* \"#utility.yul\":20136:20267   */\n      tag_221\n      jump\t// in\n    tag_432:\n        /* \"#utility.yul\":20128:20267   */\n      swap1\n      pop\n        /* \"#utility.yul\":19855:20274   */\n      swap2\n      swap1\n      pop\n      jump\t// out\n        /* \"#utility.yul\":20280:20359   */\n    tag_222:\n        /* \"#utility.yul\":20319:20326   */\n      0x00\n        /* \"#utility.yul\":20348:20353   */\n      dup2\n        /* \"#utility.yul\":20337:20353   */\n      swap1\n      pop\n        /* \"#utility.yul\":20280:20359   */\n      swap2\n      swap1\n      pop\n      jump\t// out\n        /* \"#utility.yul\":20365:20522   */\n    tag_223:\n        /* \"#utility.yul\":20470:20515   */\n      tag_435\n        /* \"#utility.yul\":20490:20514   */\n      tag_436\n        /* \"#utility.yul\":20508:20513   */\n      dup3\n        /* \"#utility.yul\":20490:20514   */\n      tag_169\n      jump\t// in\n    tag_436:\n        /* \"#utility.yul\":20470:20515   */\n      tag_222\n      jump\t// in\n    tag_435:\n        /* \"#utility.yul\":20465:20468   */\n      dup3\n        /* \"#utility.yul\":20458:20516   */\n      mstore\n        /* \"#utility.yul\":20365:20522   */\n      pop\n      pop\n      jump\t// out\n        /* \"#utility.yul\":20528:20622   */\n    tag_224:\n        /* \"#utility.yul\":20561:20569   */\n      0x00\n        /* \"#utility.yul\":20609:20614   */\n      dup2\n        /* \"#utility.yul\":20605:20607   */\n      0x60\n        /* \"#utility.yul\":20601:20615   */\n      shl\n        /* \"#utility.yul\":20580:20615   */\n      swap1\n      pop\n        /* \"#utility.yul\":20528:20622   */\n      swap2\n      swap1\n      pop\n      jump\t// out\n        /* \"#utility.yul\":20628:20722   */\n    tag_225:\n        /* \"#utility.yul\":20667:20674   */\n      0x00\n        /* \"#utility.yul\":20696:20716   */\n      tag_439\n        /* \"#utility.yul\":20710:20715   */\n      dup3\n        /* \"#utility.yul\":20696:20716   */\n      tag_224\n      jump\t// in\n    tag_439:\n        /* \"#utility.yul\":20685:20716   */\n      swap1\n      pop\n        /* \"#utility.yul\":20628:20722   */\n      swap2\n      swap1\n      pop\n      jump\t// out\n        /* \"#utility.yul\":20728:20828   */\n    tag_226:\n        /* \"#utility.yul\":20767:20774   */\n      0x00\n        /* \"#utility.yul\":20796:20822   */\n      tag_441\n        /* \"#utility.yul\":20816:20821   */\n      dup3\n        /* \"#utility.yul\":20796:20822   */\n      tag_225\n      jump\t// in\n    tag_441:\n        /* \"#utility.yul\":20785:20822   */\n      swap1\n      pop\n        /* \"#utility.yul\":20728:20828   */\n      swap2\n      swap1\n      pop\n      jump\t// out\n        /* \"#utility.yul\":20834:20991   */\n    tag_227:\n        /* \"#utility.yul\":20939:20984   */\n      tag_443\n        /* \"#utility.yul\":20959:20983   */\n      tag_444\n        /* \"#utility.yul\":20977:20982   */\n      dup3\n        /* \"#utility.yul\":20959:20983   */\n      tag_166\n      jump\t// in\n    tag_444:\n        /* \"#utility.yul\":20939:20984   */\n      tag_226\n      jump\t// in\n    tag_443:\n        /* \"#utility.yul\":20934:20937   */\n      dup3\n        /* \"#utility.yul\":20927:20985   */\n      mstore\n        /* \"#utility.yul\":20834:20991   */\n      pop\n      pop\n      jump\t// out\n        /* \"#utility.yul\":20997:21394   */\n    tag_104:\n        /* \"#utility.yul\":21137:21140   */\n      0x00\n        /* \"#utility.yul\":21152:21227   */\n      tag_446\n        /* \"#utility.yul\":21223:21226   */\n      dup3\n        /* \"#utility.yul\":21214:21220   */\n      dup6\n        /* \"#utility.yul\":21152:21227   */\n      tag_223\n      jump\t// in\n    tag_446:\n        /* \"#utility.yul\":21252:21254   */\n      0x20\n        /* \"#utility.yul\":21247:21250   */\n      dup3\n        /* \"#utility.yul\":21243:21255   */\n      add\n        /* \"#utility.yul\":21236:21255   */\n      swap2\n      pop\n        /* \"#utility.yul\":21265:21340   */\n      tag_447\n        /* \"#utility.yul\":21336:21339   */\n      dup3\n        /* \"#utility.yul\":21327:21333   */\n      dup5\n        /* \"#utility.yul\":21265:21340   */\n      tag_227\n      jump\t// in\n    tag_447:\n        /* \"#utility.yul\":21365:21367   */\n      0x14\n        /* \"#utility.yul\":21360:21363   */\n      dup3\n        /* \"#utility.yul\":21356:21368   */\n      add\n        /* \"#utility.yul\":21349:21368   */\n      swap2\n      pop\n        /* \"#utility.yul\":21385:21388   */\n      dup2\n        /* \"#utility.yul\":21378:21388   */\n      swap1\n      pop\n        /* \"#utility.yul\":20997:21394   */\n      swap4\n      swap3\n      pop\n      pop\n      pop\n      jump\t// out\n        /* \"#utility.yul\":21400:21579   */\n    tag_228:\n        /* \"#utility.yul\":21540:21571   */\n      0x547765657420646f6573206e6f74206861766520616e79206c696b6573000000\n        /* \"#utility.yul\":21536:21537   */\n      0x00\n        /* \"#utility.yul\":21528:21534   */\n      dup3\n        /* \"#utility.yul\":21524:21538   */\n      add\n        /* \"#utility.yul\":21517:21572   */\n      mstore\n        /* \"#utility.yul\":21400:21579   */\n      pop\n      jump\t// out\n        /* \"#utility.yul\":21585:21951   */\n    tag_229:\n        /* \"#utility.yul\":21727:21730   */\n      0x00\n        /* \"#utility.yul\":21748:21815   */\n      tag_450\n        /* \"#utility.yul\":21812:21814   */\n      0x1d\n        /* \"#utility.yul\":21807:21810   */\n      dup4\n        /* \"#utility.yul\":21748:21815   */\n      tag_175\n      jump\t// in\n    tag_450:\n        /* \"#utility.yul\":21741:21815   */\n      swap2\n      pop\n        /* \"#utility.yul\":21824:21917   */\n      tag_451\n        /* \"#utility.yul\":21913:21916   */\n      dup3\n        /* \"#utility.yul\":21824:21917   */\n      tag_228\n      jump\t// in\n    tag_451:\n        /* \"#utility.yul\":21942:21944   */\n      0x20\n        /* \"#utility.yul\":21937:21940   */\n      dup3\n        /* \"#utility.yul\":21933:21945   */\n      add\n        /* \"#utility.yul\":21926:21945   */\n      swap1\n      pop\n        /* \"#utility.yul\":21585:21951   */\n      swap2\n      swap1\n      pop\n      jump\t// out\n        /* \"#utility.yul\":21957:22376   */\n    tag_134:\n        /* \"#utility.yul\":22123:22127   */\n      0x00\n        /* \"#utility.yul\":22161:22163   */\n      0x20\n        /* \"#utility.yul\":22150:22159   */\n      dup3\n        /* \"#utility.yul\":22146:22164   */\n      add\n        /* \"#utility.yul\":22138:22164   */\n      swap1\n      pop\n        /* \"#utility.yul\":22210:22219   */\n      dup2\n        /* \"#utility.yul\":22204:22208   */\n      dup2\n        /* \"#utility.yul\":22200:22220   */\n      sub\n        /* \"#utility.yul\":22196:22197   */\n      0x00\n        /* \"#utility.yul\":22185:22194   */\n      dup4\n        /* \"#utility.yul\":22181:22198   */\n      add\n        /* \"#utility.yul\":22174:22221   */\n      mstore\n        /* \"#utility.yul\":22238:22369   */\n      tag_453\n        /* \"#utility.yul\":22364:22368   */\n      dup2\n        /* \"#utility.yul\":22238:22369   */\n      tag_229\n      jump\t// in\n    tag_453:\n        /* \"#utility.yul\":22230:22369   */\n      swap1\n      pop\n        /* \"#utility.yul\":21957:22376   */\n      swap2\n      swap1\n      pop\n      jump\t// out\n        /* \"#utility.yul\":22382:22576   */\n    tag_139:\n        /* \"#utility.yul\":22422:22426   */\n      0x00\n        /* \"#utility.yul\":22442:22462   */\n      tag_455\n        /* \"#utility.yul\":22460:22461   */\n      dup3\n        /* \"#utility.yul\":22442:22462   */\n      tag_169\n      jump\t// in\n    tag_455:\n        /* \"#utility.yul\":22437:22462   */\n      swap2\n      pop\n        /* \"#utility.yul\":22476:22496   */\n      tag_456\n        /* \"#utility.yul\":22494:22495   */\n      dup4\n        /* \"#utility.yul\":22476:22496   */\n      tag_169\n      jump\t// in\n    tag_456:\n        /* \"#utility.yul\":22471:22496   */\n      swap3\n      pop\n        /* \"#utility.yul\":22520:22521   */\n      dup3\n        /* \"#utility.yul\":22517:22518   */\n      dup3\n        /* \"#utility.yul\":22513:22522   */\n      sub\n        /* \"#utility.yul\":22505:22522   */\n      swap1\n      pop\n        /* \"#utility.yul\":22544:22545   */\n      dup2\n        /* \"#utility.yul\":22538:22542   */\n      dup2\n        /* \"#utility.yul\":22535:22546   */\n      gt\n        /* \"#utility.yul\":22532:22569   */\n      iszero\n      tag_457\n      jumpi\n        /* \"#utility.yul\":22549:22567   */\n      tag_458\n      tag_202\n      jump\t// in\n    tag_458:\n        /* \"#utility.yul\":22532:22569   */\n    tag_457:\n        /* \"#utility.yul\":22382:22576   */\n      swap3\n      swap2\n      pop\n      pop\n      jump\t// out\n        /* \"#utility.yul\":22582:22764   */\n    tag_230:\n        /* \"#utility.yul\":22722:22756   */\n      0x596f752063616e206f6e6c792067657420796f7572206f776e20747765657473\n        /* \"#utility.yul\":22718:22719   */\n      0x00\n        /* \"#utility.yul\":22710:22716   */\n      dup3\n        /* \"#utility.yul\":22706:22720   */\n      add\n        /* \"#utility.yul\":22699:22757   */\n      mstore\n        /* \"#utility.yul\":22582:22764   */\n      pop\n      jump\t// out\n        /* \"#utility.yul\":22770:23136   */\n    tag_231:\n        /* \"#utility.yul\":22912:22915   */\n      0x00\n        /* \"#utility.yul\":22933:23000   */\n      tag_461\n        /* \"#utility.yul\":22997:22999   */\n      0x20\n        /* \"#utility.yul\":22992:22995   */\n      dup4\n        /* \"#utility.yul\":22933:23000   */\n      tag_175\n      jump\t// in\n    tag_461:\n        /* \"#utility.yul\":22926:23000   */\n      swap2\n      pop\n        /* \"#utility.yul\":23009:23102   */\n      tag_462\n        /* \"#utility.yul\":23098:23101   */\n      dup3\n        /* \"#utility.yul\":23009:23102   */\n      tag_230\n      jump\t// in\n    tag_462:\n        /* \"#utility.yul\":23127:23129   */\n      0x20\n        /* \"#utility.yul\":23122:23125   */\n      dup3\n        /* \"#utility.yul\":23118:23130   */\n      add\n        /* \"#utility.yul\":23111:23130   */\n      swap1\n      pop\n        /* \"#utility.yul\":22770:23136   */\n      swap2\n      swap1\n      pop\n      jump\t// out\n        /* \"#utility.yul\":23142:23561   */\n    tag_153:\n        /* \"#utility.yul\":23308:23312   */\n      0x00\n        /* \"#utility.yul\":23346:23348   */\n      0x20\n        /* \"#utility.yul\":23335:23344   */\n      dup3\n        /* \"#utility.yul\":23331:23349   */\n      add\n        /* \"#utility.yul\":23323:23349   */\n      swap1\n      pop\n        /* \"#utility.yul\":23395:23404   */\n      dup2\n        /* \"#utility.yul\":23389:23393   */\n      dup2\n        /* \"#utility.yul\":23385:23405   */\n      sub\n        /* \"#utility.yul\":23381:23382   */\n      0x00\n        /* \"#utility.yul\":23370:23379   */\n      dup4\n        /* \"#utility.yul\":23366:23383   */\n      add\n        /* \"#utility.yul\":23359:23406   */\n      mstore\n        /* \"#utility.yul\":23423:23554   */\n      tag_464\n        /* \"#utility.yul\":23549:23553   */\n      dup2\n        /* \"#utility.yul\":23423:23554   */\n      tag_231\n      jump\t// in\n    tag_464:\n        /* \"#utility.yul\":23415:23554   */\n      swap1\n      pop\n        /* \"#utility.yul\":23142:23561   */\n      swap2\n      swap1\n      pop\n      jump\t// out\n\n    auxdata: 0xa2646970667358221220d5f40047d6f4f8989199ed39db4b2778df8b543401baf8a6e10644fb1cc419c764736f6c634300081f0033\n}\n",
				"bytecode": {
					"linkReferences": {},
					"object": "608060405260405180606001604052806040518060400160405280600481526020017f6c696b650000000000000000000000000000000000000000000000000000000081525081526020016040518060400160405280600581526020017f7265706c7900000000000000000000000000000000000000000000000000000081525081526020016040518060400160405280600781526020017f726573686172650000000000000000000000000000000000000000000000000081525081525060019060036100ce9291906100e0565b503480156100da575f5ffd5b506104be565b828054828255905f5260205f20908101928215610126579160200282015b8281111561012557825182908161011591906103ef565b50916020019190600101906100fe565b5b5090506101339190610137565b5090565b5b80821115610156575f818161014d919061015a565b50600101610138565b5090565b50805461016690610216565b5f825580601f106101775750610194565b601f0160209004905f5260205f20908101906101939190610197565b5b50565b5b808211156101ae575f815f905550600101610198565b5090565b5f81519050919050565b7f4e487b71000000000000000000000000000000000000000000000000000000005f52604160045260245ffd5b7f4e487b71000000000000000000000000000000000000000000000000000000005f52602260045260245ffd5b5f600282049050600182168061022d57607f821691505b6020821081036102405761023f6101e9565b5b50919050565b5f819050815f5260205f209050919050565b5f6020601f8301049050919050565b5f82821b905092915050565b5f600883026102a27fffffffffffffffffffffffffffffffffffffffffffffffffffffffffffffffff82610267565b6102ac8683610267565b95508019841693508086168417925050509392505050565b5f819050919050565b5f819050919050565b5f6102f06102eb6102e6846102c4565b6102cd565b6102c4565b9050919050565b5f819050919050565b610309836102d6565b61031d610315826102f7565b848454610273565b825550505050565b5f5f905090565b610334610325565b61033f818484610300565b505050565b5b81811015610362576103575f8261032c565b600181019050610345565b5050565b601f8211156103a75761037881610246565b61038184610258565b81016020851015610390578190505b6103a461039c85610258565b830182610344565b50505b505050565b5f82821c905092915050565b5f6103c75f19846008026103ac565b1980831691505092915050565b5f6103df83836103b8565b9150826002028217905092915050565b6103f8826101b2565b67ffffffffffffffff811115610411576104106101bc565b5b61041b8254610216565b610426828285610366565b5f60209050601f831160018114610457575f8415610445578287015190505b61044f85826103d4565b8655506104b6565b601f19841661046586610246565b5f5b8281101561048c57848901518255600182019150602085019450602081019050610467565b868310156104a957848901516104a5601f8916826103b8565b8355505b6001600288020188555050505b505050505050565b611a5a806104cb5f395ff3fe608060405234801561000f575f5ffd5b50600436106100a7575f3560e01c806380eb35871161006f57806380eb35871461016357806383240f83146101935780639ef8633f146101c3578063b6e76873146101df578063e78c65aa1461020f578063ff5c520d1461022d576100a7565b806305a1b4a9146100ab578063112f54e3146100df578063633782161461010f57806378977bf41461012b5780637c9cd2bc14610147575b5f5ffd5b6100c560048036038101906100c09190610f00565b61025d565b6040516100d6959493929190610fcc565b60405180910390f35b6100f960048036038101906100f49190610f00565b61034d565b6040516101069190611024565b60405180910390f35b61012960048036038101906101249190610f00565b61043b565b005b61014560048036038101906101409190611170565b61059d565b005b610161600480360381019061015c9190611170565b6105d2565b005b61017d60048036038101906101789190610f00565b6107aa565b60405161018a91906111b7565b60405180910390f35b6101ad60048036038101906101a891906111d0565b6108fb565b6040516101ba9190611024565b60405180910390f35b6101dd60048036038101906101d89190610f00565b6109a1565b005b6101f960048036038101906101f491906111d0565b610ba2565b6040516102069190611024565b60405180910390f35b610217610c4e565b60405161022491906111b7565b60405180910390f35b610247600480360381019061024291906111fb565b610c5a565b60405161025491906113ba565b60405180910390f35b5f602052815f5260405f208181548110610275575f80fd5b905f5260205f2090600502015f9150915050805f015490806001015f9054906101000a900473ffffffffffffffffffffffffffffffffffffffff16908060020180546102c090611407565b80601f01602080910402602001604051908101604052809291908181526020018280546102ec90611407565b80156103375780601f1061030e57610100808354040283529160200191610337565b820191905f5260205f20905b81548152906001019060200180831161031a57829003601f168201915b5050505050908060030154908060040154905085565b60605f5f8473ffffffffffffffffffffffffffffffffffffffff1673ffffffffffffffffffffffffffffffffffffffff1681526020019081526020015f20828154811061039d5761039c611437565b5b905f5260205f20906005020160020180546103b790611407565b80601f01602080910402602001604051908101604052809291908181526020018280546103e390611407565b801561042e5780601f106104055761010080835404028352916020019161042e565b820191905f5260205f20905b81548152906001019060200180831161041157829003601f168201915b5050505050905092915050565b8173ffffffffffffffffffffffffffffffffffffffff165f5f8473ffffffffffffffffffffffffffffffffffffffff1673ffffffffffffffffffffffffffffffffffffffff1681526020019081526020015f2082815481106104a05761049f611437565b5b905f5260205f2090600502016001015f9054906101000a900473ffffffffffffffffffffffffffffffffffffffff1673ffffffffffffffffffffffffffffffffffffffff1614610525576040517f08c379a000000000000000000000000000000000000000000000000000000000815260040161051c906114ae565b60405180910390fd5b60015f5f8473ffffffffffffffffffffffffffffffffffffffff1673ffffffffffffffffffffffffffffffffffffffff1681526020019081526020015f20828154811061057557610574611437565b5b905f5260205f2090600502016004015f82825461059291906114f9565b925050819055505050565b600181908060018154018082558091505060019003905f5260205f20015f9091909190915090816105ce91906116cc565b5050565b5f815111610615576040517f08c379a000000000000000000000000000000000000000000000000000000000815260040161060c906117e5565b60405180910390fd5b61011861ffff168151111561065f576040517f08c379a000000000000000000000000000000000000000000000000000000000815260040161065690611873565b60405180910390fd5b5f6040518060a00160405280423360405160200161067e9291906118f6565b604051602081830303815290604052805190602001205f1c81526020013373ffffffffffffffffffffffffffffffffffffffff1681526020018381526020014281526020015f81525090505f5f3373ffffffffffffffffffffffffffffffffffffffff1673ffffffffffffffffffffffffffffffffffffffff1681526020019081526020015f2081908060018154018082558091505060019003905f5260205f2090600502015f909190919091505f820151815f01556020820151816001015f6101000a81548173ffffffffffffffffffffffffffffffffffffffff021916908373ffffffffffffffffffffffffffffffffffffffff160217905550604082015181600201908161078f91906116cc565b50606082015181600301556080820151816004015550505050565b5f8273ffffffffffffffffffffffffffffffffffffffff165f5f8573ffffffffffffffffffffffffffffffffffffffff1673ffffffffffffffffffffffffffffffffffffffff1681526020019081526020015f2083815481106108105761080f611437565b5b905f5260205f2090600502016001015f9054906101000a900473ffffffffffffffffffffffffffffffffffffffff1673ffffffffffffffffffffffffffffffffffffffff1614610895576040517f08c379a000000000000000000000000000000000000000000000000000000000815260040161088c906114ae565b60405180910390fd5b5f5f8473ffffffffffffffffffffffffffffffffffffffff1673ffffffffffffffffffffffffffffffffffffffff1681526020019081526020015f2082815481106108e3576108e2611437565b5b905f5260205f20906005020160040154905092915050565b6001818154811061090a575f80fd5b905f5260205f20015f91509050805461092290611407565b80601f016020809104026020016040519081016040528092919081815260200182805461094e90611407565b80156109995780601f1061097057610100808354040283529160200191610999565b820191905f5260205f20905b81548152906001019060200180831161097c57829003601f168201915b505050505081565b8173ffffffffffffffffffffffffffffffffffffffff165f5f8473ffffffffffffffffffffffffffffffffffffffff1673ffffffffffffffffffffffffffffffffffffffff1681526020019081526020015f208281548110610a0657610a05611437565b5b905f5260205f2090600502016001015f9054906101000a900473ffffffffffffffffffffffffffffffffffffffff1673ffffffffffffffffffffffffffffffffffffffff1614610a8b576040517f08c379a0000000000000000000000000000000000000000000000000000000008152600401610a82906114ae565b60405180910390fd5b5f5f5f8473ffffffffffffffffffffffffffffffffffffffff1673ffffffffffffffffffffffffffffffffffffffff1681526020019081526020015f208281548110610ada57610ad9611437565b5b905f5260205f2090600502016004015411610b2a576040517f08c379a0000000000000000000000000000000000000000000000000000000008152600401610b219061196b565b60405180910390fd5b60015f5f8473ffffffffffffffffffffffffffffffffffffffff1673ffffffffffffffffffffffffffffffffffffffff1681526020019081526020015f208281548110610b7a57610b79611437565b5b905f5260205f2090600502016004015f828254610b979190611989565b925050819055505050565b606060018281548110610bb857610bb7611437565b5b905f5260205f20018054610bcb90611407565b80601f0160208091040260200160405190810160405280929190818152602001828054610bf790611407565b8015610c425780601f10610c1957610100808354040283529160200191610c42565b820191905f5260205f20905b815481529060010190602001808311610c2557829003601f168201915b50505050509050919050565b5f600180549050905090565b60608173ffffffffffffffffffffffffffffffffffffffff163373ffffffffffffffffffffffffffffffffffffffff1614610cca576040517f08c379a0000000000000000000000000000000000000000000000000000000008152600401610cc190611a06565b60405180910390fd5b5f5f8373ffffffffffffffffffffffffffffffffffffffff1673ffffffffffffffffffffffffffffffffffffffff1681526020019081526020015f20805480602002602001604051908101604052809291908181526020015f905b82821015610e57578382905f5260205f2090600502016040518060a00160405290815f8201548152602001600182015f9054906101000a900473ffffffffffffffffffffffffffffffffffffffff1673ffffffffffffffffffffffffffffffffffffffff1673ffffffffffffffffffffffffffffffffffffffff168152602001600282018054610db490611407565b80601f0160208091040260200160405190810160405280929190818152602001828054610de090611407565b8015610e2b5780601f10610e0257610100808354040283529160200191610e2b565b820191905f5260205f20905b815481529060010190602001808311610e0e57829003601f168201915b505050505081526020016003820154815260200160048201548152505081526020019060010190610d25565b505050509050919050565b5f604051905090565b5f5ffd5b5f5ffd5b5f73ffffffffffffffffffffffffffffffffffffffff82169050919050565b5f610e9c82610e73565b9050919050565b610eac81610e92565b8114610eb6575f5ffd5b50565b5f81359050610ec781610ea3565b92915050565b5f819050919050565b610edf81610ecd565b8114610ee9575f5ffd5b50565b5f81359050610efa81610ed6565b92915050565b5f5f60408385031215610f1657610f15610e6b565b5b5f610f2385828601610eb9565b9250506020610f3485828601610eec565b9150509250929050565b610f4781610ecd565b82525050565b610f5681610e92565b82525050565b5f81519050919050565b5f82825260208201905092915050565b8281835e5f83830152505050565b5f601f19601f8301169050919050565b5f610f9e82610f5c565b610fa88185610f66565b9350610fb8818560208601610f76565b610fc181610f84565b840191505092915050565b5f60a082019050610fdf5f830188610f3e565b610fec6020830187610f4d565b8181036040830152610ffe8186610f94565b905061100d6060830185610f3e565b61101a6080830184610f3e565b9695505050505050565b5f6020820190508181035f83015261103c8184610f94565b905092915050565b5f5ffd5b5f5ffd5b7f4e487b71000000000000000000000000000000000000000000000000000000005f52604160045260245ffd5b61108282610f84565b810181811067ffffffffffffffff821117156110a1576110a061104c565b5b80604052505050565b5f6110b3610e62565b90506110bf8282611079565b919050565b5f67ffffffffffffffff8211156110de576110dd61104c565b5b6110e782610f84565b9050602081019050919050565b828183375f83830152505050565b5f61111461110f846110c4565b6110aa565b9050828152602081018484840111156111305761112f611048565b5b61113b8482856110f4565b509392505050565b5f82601f83011261115757611156611044565b5b8135611167848260208601611102565b91505092915050565b5f6020828403121561118557611184610e6b565b5b5f82013567ffffffffffffffff8111156111a2576111a1610e6f565b5b6111ae84828501611143565b91505092915050565b5f6020820190506111ca5f830184610f3e565b92915050565b5f602082840312156111e5576111e4610e6b565b5b5f6111f284828501610eec565b91505092915050565b5f602082840312156112105761120f610e6b565b5b5f61121d84828501610eb9565b91505092915050565b5f81519050919050565b5f82825260208201905092915050565b5f819050602082019050919050565b61125881610ecd565b82525050565b61126781610e92565b82525050565b5f82825260208201905092915050565b5f61128782610f5c565b611291818561126d565b93506112a1818560208601610f76565b6112aa81610f84565b840191505092915050565b5f60a083015f8301516112ca5f86018261124f565b5060208301516112dd602086018261125e565b50604083015184820360408601526112f5828261127d565b915050606083015161130a606086018261124f565b50608083015161131d608086018261124f565b508091505092915050565b5f61133383836112b5565b905092915050565b5f602082019050919050565b5f61135182611226565b61135b8185611230565b93508360208202850161136d85611240565b805f5b858110156113a857848403895281516113898582611328565b94506113948361133b565b925060208a01995050600181019050611370565b50829750879550505050505092915050565b5f6020820190508181035f8301526113d28184611347565b905092915050565b7f4e487b71000000000000000000000000000000000000000000000000000000005f52602260045260245ffd5b5f600282049050600182168061141e57607f821691505b602082108103611431576114306113da565b5b50919050565b7f4e487b71000000000000000000000000000000000000000000000000000000005f52603260045260245ffd5b7f547765657420646f6573206e6f742065786973740000000000000000000000005f82015250565b5f611498601483610f66565b91506114a382611464565b602082019050919050565b5f6020820190508181035f8301526114c58161148c565b9050919050565b7f4e487b71000000000000000000000000000000000000000000000000000000005f52601160045260245ffd5b5f61150382610ecd565b915061150e83610ecd565b9250828201905080821115611526576115256114cc565b5b92915050565b5f819050815f5260205f209050919050565b5f6020601f8301049050919050565b5f82821b905092915050565b5f600883026115887fffffffffffffffffffffffffffffffffffffffffffffffffffffffffffffffff8261154d565b611592868361154d565b95508019841693508086168417925050509392505050565b5f819050919050565b5f6115cd6115c86115c384610ecd565b6115aa565b610ecd565b9050919050565b5f819050919050565b6115e6836115b3565b6115fa6115f2826115d4565b848454611559565b825550505050565b5f5f905090565b611611611602565b61161c8184846115dd565b505050565b5b8181101561163f576116345f82611609565b600181019050611622565b5050565b601f821115611684576116558161152c565b61165e8461153e565b8101602085101561166d578190505b6116816116798561153e565b830182611621565b50505b505050565b5f82821c905092915050565b5f6116a45f1984600802611689565b1980831691505092915050565b5f6116bc8383611695565b9150826002028217905092915050565b6116d582610f5c565b67ffffffffffffffff8111156116ee576116ed61104c565b5b6116f88254611407565b611703828285611643565b5f60209050601f831160018114611734575f8415611722578287015190505b61172c85826116b1565b865550611793565b601f1984166117428661152c565b5f5b8281101561176957848901518255600182019150602085019450602081019050611744565b868310156117865784890151611782601f891682611695565b8355505b6001600288020188555050505b505050505050565b7f54776565742063616e6e6f7420626520656d70747900000000000000000000005f82015250565b5f6117cf601583610f66565b91506117da8261179b565b602082019050919050565b5f6020820190508181035f8301526117fc816117c3565b9050919050565b7f54776565742063616e6e6f74206265206d6f7265207468616e203238302063685f8201527f6172616374657273000000000000000000000000000000000000000000000000602082015250565b5f61185d602883610f66565b915061186882611803565b604082019050919050565b5f6020820190508181035f83015261188a81611851565b9050919050565b5f819050919050565b6118ab6118a682610ecd565b611891565b82525050565b5f8160601b9050919050565b5f6118c7826118b1565b9050919050565b5f6118d8826118bd565b9050919050565b6118f06118eb82610e92565b6118ce565b82525050565b5f611901828561189a565b60208201915061191182846118df565b6014820191508190509392505050565b7f547765657420646f6573206e6f74206861766520616e79206c696b65730000005f82015250565b5f611955601d83610f66565b915061196082611921565b602082019050919050565b5f6020820190508181035f83015261198281611949565b9050919050565b5f61199382610ecd565b915061199e83610ecd565b92508282039050818111156119b6576119b56114cc565b5b92915050565b7f596f752063616e206f6e6c792067657420796f7572206f776e207477656574735f82015250565b5f6119f0602083610f66565b91506119fb826119bc565b602082019050919050565b5f6020820190508181035f830152611a1d816119e4565b905091905056fea2646970667358221220d5f40047d6f4f8989199ed39db4b2778df8b543401baf8a6e10644fb1cc419c764736f6c634300081f0033",
					"opcodes": "PUSH1 0x80 PUSH1 0x40 MSTORE PUSH1 0x40 MLOAD DUP1 PUSH1 0x60 ADD PUSH1 0x40 MSTORE DUP1 PUSH1 0x40 MLOAD DUP1 PUSH1 0x40 ADD PUSH1 0x40 MSTORE DUP1 PUSH1 0x4 DUP2 MSTORE PUSH1 0x20 ADD PUSH32 0x6C696B6500000000000000000000000000000000000000000000000000000000 DUP2 MSTORE POP DUP2 MSTORE PUSH1 0x20 ADD PUSH1 0x40 MLOAD DUP1 PUSH1 0x40 ADD PUSH1 0x40 MSTORE DUP1 PUSH1 0x5 DUP2 MSTORE PUSH1 0x20 ADD PUSH32 0x7265706C79000000000000000000000000000000000000000000000000000000 DUP2 MSTORE POP DUP2 MSTORE PUSH1 0x20 ADD PUSH1 0x40 MLOAD DUP1 PUSH1 0x40 ADD PUSH1 0x40 MSTORE DUP1 PUSH1 0x7 DUP2 MSTORE PUSH1 0x20 ADD PUSH32 0x7265736861726500000000000000000000000000000000000000000000000000 DUP2 MSTORE POP DUP2 MSTORE POP PUSH1 0x1 SWAP1 PUSH1 0x3 PUSH2 0xCE SWAP3 SWAP2 SWAP1 PUSH2 0xE0 JUMP JUMPDEST POP CALLVALUE DUP1 ISZERO PUSH2 0xDA JUMPI PUSH0 PUSH0 REVERT JUMPDEST POP PUSH2 0x4BE JUMP JUMPDEST DUP3 DUP1 SLOAD DUP3 DUP3 SSTORE SWAP1 PUSH0 MSTORE PUSH1 0x20 PUSH0 KECCAK256 SWAP1 DUP2 ADD SWAP3 DUP3 ISZERO PUSH2 0x126 JUMPI SWAP2 PUSH1 0x20 MUL DUP3 ADD JUMPDEST DUP3 DUP2 GT ISZERO PUSH2 0x125 JUMPI DUP3 MLOAD DUP3 SWAP1 DUP2 PUSH2 0x115 SWAP2 SWAP1 PUSH2 0x3EF JUMP JUMPDEST POP SWAP2 PUSH1 0x20 ADD SWAP2 SWAP1 PUSH1 0x1 ADD SWAP1 PUSH2 0xFE JUMP JUMPDEST JUMPDEST POP SWAP1 POP PUSH2 0x133 SWAP2 SWAP1 PUSH2 0x137 JUMP JUMPDEST POP SWAP1 JUMP JUMPDEST JUMPDEST DUP1 DUP3 GT ISZERO PUSH2 0x156 JUMPI PUSH0 DUP2 DUP2 PUSH2 0x14D SWAP2 SWAP1 PUSH2 0x15A JUMP JUMPDEST POP PUSH1 0x1 ADD PUSH2 0x138 JUMP JUMPDEST POP SWAP1 JUMP JUMPDEST POP DUP1 SLOAD PUSH2 0x166 SWAP1 PUSH2 0x216 JUMP JUMPDEST PUSH0 DUP3 SSTORE DUP1 PUSH1 0x1F LT PUSH2 0x177 JUMPI POP PUSH2 0x194 JUMP JUMPDEST PUSH1 0x1F ADD PUSH1 0x20 SWAP1 DIV SWAP1 PUSH0 MSTORE PUSH1 0x20 PUSH0 KECCAK256 SWAP1 DUP2 ADD SWAP1 PUSH2 0x193 SWAP2 SWAP1 PUSH2 0x197 JUMP JUMPDEST JUMPDEST POP JUMP JUMPDEST JUMPDEST DUP1 DUP3 GT ISZERO PUSH2 0x1AE JUMPI PUSH0 DUP2 PUSH0 SWAP1 SSTORE POP PUSH1 0x1 ADD PUSH2 0x198 JUMP JUMPDEST POP SWAP1 JUMP JUMPDEST PUSH0 DUP2 MLOAD SWAP1 POP SWAP2 SWAP1 POP JUMP JUMPDEST PUSH32 0x4E487B7100000000000000000000000000000000000000000000000000000000 PUSH0 MSTORE PUSH1 0x41 PUSH1 0x4 MSTORE PUSH1 0x24 PUSH0 REVERT JUMPDEST PUSH32 0x4E487B7100000000000000000000000000000000000000000000000000000000 PUSH0 MSTORE PUSH1 0x22 PUSH1 0x4 MSTORE PUSH1 0x24 PUSH0 REVERT JUMPDEST PUSH0 PUSH1 0x2 DUP3 DIV SWAP1 POP PUSH1 0x1 DUP3 AND DUP1 PUSH2 0x22D JUMPI PUSH1 0x7F DUP3 AND SWAP2 POP JUMPDEST PUSH1 0x20 DUP3 LT DUP2 SUB PUSH2 0x240 JUMPI PUSH2 0x23F PUSH2 0x1E9 JUMP JUMPDEST JUMPDEST POP SWAP2 SWAP1 POP JUMP JUMPDEST PUSH0 DUP2 SWAP1 POP DUP2 PUSH0 MSTORE PUSH1 0x20 PUSH0 KECCAK256 SWAP1 POP SWAP2 SWAP1 POP JUMP JUMPDEST PUSH0 PUSH1 0x20 PUSH1 0x1F DUP4 ADD DIV SWAP1 POP SWAP2 SWAP1 POP JUMP JUMPDEST PUSH0 DUP3 DUP3 SHL SWAP1 POP SWAP3 SWAP2 POP POP JUMP JUMPDEST PUSH0 PUSH1 0x8 DUP4 MUL PUSH2 0x2A2 PUSH32 0xFFFFFFFFFFFFFFFFFFFFFFFFFFFFFFFFFFFFFFFFFFFFFFFFFFFFFFFFFFFFFFFF DUP3 PUSH2 0x267 JUMP JUMPDEST PUSH2 0x2AC DUP7 DUP4 PUSH2 0x267 JUMP JUMPDEST SWAP6 POP DUP1 NOT DUP5 AND SWAP4 POP DUP1 DUP7 AND DUP5 OR SWAP3 POP POP POP SWAP4 SWAP3 POP POP POP JUMP JUMPDEST PUSH0 DUP2 SWAP1 POP SWAP2 SWAP1 POP JUMP JUMPDEST PUSH0 DUP2 SWAP1 POP SWAP2 SWAP1 POP JUMP JUMPDEST PUSH0 PUSH2 0x2F0 PUSH2 0x2EB PUSH2 0x2E6 DUP5 PUSH2 0x2C4 JUMP JUMPDEST PUSH2 0x2CD JUMP JUMPDEST PUSH2 0x2C4 JUMP JUMPDEST SWAP1 POP SWAP2 SWAP1 POP JUMP JUMPDEST PUSH0 DUP2 SWAP1 POP SWAP2 SWAP1 POP JUMP JUMPDEST PUSH2 0x309 DUP4 PUSH2 0x2D6 JUMP JUMPDEST PUSH2 0x31D PUSH2 0x315 DUP3 PUSH2 0x2F7 JUMP JUMPDEST DUP5 DUP5 SLOAD PUSH2 0x273 JUMP JUMPDEST DUP3 SSTORE POP POP POP POP JUMP JUMPDEST PUSH0 PUSH0 SWAP1 POP SWAP1 JUMP JUMPDEST PUSH2 0x334 PUSH2 0x325 JUMP JUMPDEST PUSH2 0x33F DUP2 DUP5 DUP5 PUSH2 0x300 JUMP JUMPDEST POP POP POP JUMP JUMPDEST JUMPDEST DUP2 DUP2 LT ISZERO PUSH2 0x362 JUMPI PUSH2 0x357 PUSH0 DUP3 PUSH2 0x32C JUMP JUMPDEST PUSH1 0x1 DUP2 ADD SWAP1 POP PUSH2 0x345 JUMP JUMPDEST POP POP JUMP JUMPDEST PUSH1 0x1F DUP3 GT ISZERO PUSH2 0x3A7 JUMPI PUSH2 0x378 DUP2 PUSH2 0x246 JUMP JUMPDEST PUSH2 0x381 DUP5 PUSH2 0x258 JUMP JUMPDEST DUP2 ADD PUSH1 0x20 DUP6 LT ISZERO PUSH2 0x390 JUMPI DUP2 SWAP1 POP JUMPDEST PUSH2 0x3A4 PUSH2 0x39C DUP6 PUSH2 0x258 JUMP JUMPDEST DUP4 ADD DUP3 PUSH2 0x344 JUMP JUMPDEST POP POP JUMPDEST POP POP POP JUMP JUMPDEST PUSH0 DUP3 DUP3 SHR SWAP1 POP SWAP3 SWAP2 POP POP JUMP JUMPDEST PUSH0 PUSH2 0x3C7 PUSH0 NOT DUP5 PUSH1 0x8 MUL PUSH2 0x3AC JUMP JUMPDEST NOT DUP1 DUP4 AND SWAP2 POP POP SWAP3 SWAP2 POP POP JUMP JUMPDEST PUSH0 PUSH2 0x3DF DUP4 DUP4 PUSH2 0x3B8 JUMP JUMPDEST SWAP2 POP DUP3 PUSH1 0x2 MUL DUP3 OR SWAP1 POP SWAP3 SWAP2 POP POP JUMP JUMPDEST PUSH2 0x3F8 DUP3 PUSH2 0x1B2 JUMP JUMPDEST PUSH8 0xFFFFFFFFFFFFFFFF DUP2 GT ISZERO PUSH2 0x411 JUMPI PUSH2 0x410 PUSH2 0x1BC JUMP JUMPDEST JUMPDEST PUSH2 0x41B DUP3 SLOAD PUSH2 0x216 JUMP JUMPDEST PUSH2 0x426 DUP3 DUP3 DUP6 PUSH2 0x366 JUMP JUMPDEST PUSH0 PUSH1 0x20 SWAP1 POP PUSH1 0x1F DUP4 GT PUSH1 0x1 DUP2 EQ PUSH2 0x457 JUMPI PUSH0 DUP5 ISZERO PUSH2 0x445 JUMPI DUP3 DUP8 ADD MLOAD SWAP1 POP JUMPDEST PUSH2 0x44F DUP6 DUP3 PUSH2 0x3D4 JUMP JUMPDEST DUP7 SSTORE POP PUSH2 0x4B6 JUMP JUMPDEST PUSH1 0x1F NOT DUP5 AND PUSH2 0x465 DUP7 PUSH2 0x246 JUMP JUMPDEST PUSH0 JUMPDEST DUP3 DUP2 LT ISZERO PUSH2 0x48C JUMPI DUP5 DUP10 ADD MLOAD DUP3 SSTORE PUSH1 0x1 DUP3 ADD SWAP2 POP PUSH1 0x20 DUP6 ADD SWAP5 POP PUSH1 0x20 DUP2 ADD SWAP1 POP PUSH2 0x467 JUMP JUMPDEST DUP7 DUP4 LT ISZERO PUSH2 0x4A9 JUMPI DUP5 DUP10 ADD MLOAD PUSH2 0x4A5 PUSH1 0x1F DUP10 AND DUP3 PUSH2 0x3B8 JUMP JUMPDEST DUP4 SSTORE POP JUMPDEST PUSH1 0x1 PUSH1 0x2 DUP9 MUL ADD DUP9 SSTORE POP POP POP JUMPDEST POP POP POP POP POP POP JUMP JUMPDEST PUSH2 0x1A5A DUP1 PUSH2 0x4CB PUSH0 CODECOPY PUSH0 RETURN INVALID PUSH1 0x80 PUSH1 0x40 MSTORE CALLVALUE DUP1 ISZERO PUSH2 0xF JUMPI PUSH0 PUSH0 REVERT JUMPDEST POP PUSH1 0x4 CALLDATASIZE LT PUSH2 0xA7 JUMPI PUSH0 CALLDATALOAD PUSH1 0xE0 SHR DUP1 PUSH4 0x80EB3587 GT PUSH2 0x6F JUMPI DUP1 PUSH4 0x80EB3587 EQ PUSH2 0x163 JUMPI DUP1 PUSH4 0x83240F83 EQ PUSH2 0x193 JUMPI DUP1 PUSH4 0x9EF8633F EQ PUSH2 0x1C3 JUMPI DUP1 PUSH4 0xB6E76873 EQ PUSH2 0x1DF JUMPI DUP1 PUSH4 0xE78C65AA EQ PUSH2 0x20F JUMPI DUP1 PUSH4 0xFF5C520D EQ PUSH2 0x22D JUMPI PUSH2 0xA7 JUMP JUMPDEST DUP1 PUSH4 0x5A1B4A9 EQ PUSH2 0xAB JUMPI DUP1 PUSH4 0x112F54E3 EQ PUSH2 0xDF JUMPI DUP1 PUSH4 0x63378216 EQ PUSH2 0x10F JUMPI DUP1 PUSH4 0x78977BF4 EQ PUSH2 0x12B JUMPI DUP1 PUSH4 0x7C9CD2BC EQ PUSH2 0x147 JUMPI JUMPDEST PUSH0 PUSH0 REVERT JUMPDEST PUSH2 0xC5 PUSH1 0x4 DUP1 CALLDATASIZE SUB DUP2 ADD SWAP1 PUSH2 0xC0 SWAP2 SWAP1 PUSH2 0xF00 JUMP JUMPDEST PUSH2 0x25D JUMP JUMPDEST PUSH1 0x40 MLOAD PUSH2 0xD6 SWAP6 SWAP5 SWAP4 SWAP3 SWAP2 SWAP1 PUSH2 0xFCC JUMP JUMPDEST PUSH1 0x40 MLOAD DUP1 SWAP2 SUB SWAP1 RETURN JUMPDEST PUSH2 0xF9 PUSH1 0x4 DUP1 CALLDATASIZE SUB DUP2 ADD SWAP1 PUSH2 0xF4 SWAP2 SWAP1 PUSH2 0xF00 JUMP JUMPDEST PUSH2 0x34D JUMP JUMPDEST PUSH1 0x40 MLOAD PUSH2 0x106 SWAP2 SWAP1 PUSH2 0x1024 JUMP JUMPDEST PUSH1 0x40 MLOAD DUP1 SWAP2 SUB SWAP1 RETURN JUMPDEST PUSH2 0x129 PUSH1 0x4 DUP1 CALLDATASIZE SUB DUP2 ADD SWAP1 PUSH2 0x124 SWAP2 SWAP1 PUSH2 0xF00 JUMP JUMPDEST PUSH2 0x43B JUMP JUMPDEST STOP JUMPDEST PUSH2 0x145 PUSH1 0x4 DUP1 CALLDATASIZE SUB DUP2 ADD SWAP1 PUSH2 0x140 SWAP2 SWAP1 PUSH2 0x1170 JUMP JUMPDEST PUSH2 0x59D JUMP JUMPDEST STOP JUMPDEST PUSH2 0x161 PUSH1 0x4 DUP1 CALLDATASIZE SUB DUP2 ADD SWAP1 PUSH2 0x15C SWAP2 SWAP1 PUSH2 0x1170 JUMP JUMPDEST PUSH2 0x5D2 JUMP JUMPDEST STOP JUMPDEST PUSH2 0x17D PUSH1 0x4 DUP1 CALLDATASIZE SUB DUP2 ADD SWAP1 PUSH2 0x178 SWAP2 SWAP1 PUSH2 0xF00 JUMP JUMPDEST PUSH2 0x7AA JUMP JUMPDEST PUSH1 0x40 MLOAD PUSH2 0x18A SWAP2 SWAP1 PUSH2 0x11B7 JUMP JUMPDEST PUSH1 0x40 MLOAD DUP1 SWAP2 SUB SWAP1 RETURN JUMPDEST PUSH2 0x1AD PUSH1 0x4 DUP1 CALLDATASIZE SUB DUP2 ADD SWAP1 PUSH2 0x1A8 SWAP2 SWAP1 PUSH2 0x11D0 JUMP JUMPDEST PUSH2 0x8FB JUMP JUMPDEST PUSH1 0x40 MLOAD PUSH2 0x1BA SWAP2 SWAP1 PUSH2 0x1024 JUMP JUMPDEST PUSH1 0x40 MLOAD DUP1 SWAP2 SUB SWAP1 RETURN JUMPDEST PUSH2 0x1DD PUSH1 0x4 DUP1 CALLDATASIZE SUB DUP2 ADD SWAP1 PUSH2 0x1D8 SWAP2 SWAP1 PUSH2 0xF00 JUMP JUMPDEST PUSH2 0x9A1 JUMP JUMPDEST STOP JUMPDEST PUSH2 0x1F9 PUSH1 0x4 DUP1 CALLDATASIZE SUB DUP2 ADD SWAP1 PUSH2 0x1F4 SWAP2 SWAP1 PUSH2 0x11D0 JUMP JUMPDEST PUSH2 0xBA2 JUMP JUMPDEST PUSH1 0x40 MLOAD PUSH2 0x206 SWAP2 SWAP1 PUSH2 0x1024 JUMP JUMPDEST PUSH1 0x40 MLOAD DUP1 SWAP2 SUB SWAP1 RETURN JUMPDEST PUSH2 0x217 PUSH2 0xC4E JUMP JUMPDEST PUSH1 0x40 MLOAD PUSH2 0x224 SWAP2 SWAP1 PUSH2 0x11B7 JUMP JUMPDEST PUSH1 0x40 MLOAD DUP1 SWAP2 SUB SWAP1 RETURN JUMPDEST PUSH2 0x247 PUSH1 0x4 DUP1 CALLDATASIZE SUB DUP2 ADD SWAP1 PUSH2 0x242 SWAP2 SWAP1 PUSH2 0x11FB JUMP JUMPDEST PUSH2 0xC5A JUMP JUMPDEST PUSH1 0x40 MLOAD PUSH2 0x254 SWAP2 SWAP1 PUSH2 0x13BA JUMP JUMPDEST PUSH1 0x40 MLOAD DUP1 SWAP2 SUB SWAP1 RETURN JUMPDEST PUSH0 PUSH1 0x20 MSTORE DUP2 PUSH0 MSTORE PUSH1 0x40 PUSH0 KECCAK256 DUP2 DUP2 SLOAD DUP2 LT PUSH2 0x275 JUMPI PUSH0 DUP1 REVERT JUMPDEST SWAP1 PUSH0 MSTORE PUSH1 0x20 PUSH0 KECCAK256 SWAP1 PUSH1 0x5 MUL ADD PUSH0 SWAP2 POP SWAP2 POP POP DUP1 PUSH0 ADD SLOAD SWAP1 DUP1 PUSH1 0x1 ADD PUSH0 SWAP1 SLOAD SWAP1 PUSH2 0x100 EXP SWAP1 DIV PUSH20 0xFFFFFFFFFFFFFFFFFFFFFFFFFFFFFFFFFFFFFFFF AND SWAP1 DUP1 PUSH1 0x2 ADD DUP1 SLOAD PUSH2 0x2C0 SWAP1 PUSH2 0x1407 JUMP JUMPDEST DUP1 PUSH1 0x1F ADD PUSH1 0x20 DUP1 SWAP2 DIV MUL PUSH1 0x20 ADD PUSH1 0x40 MLOAD SWAP1 DUP2 ADD PUSH1 0x40 MSTORE DUP1 SWAP3 SWAP2 SWAP1 DUP2 DUP2 MSTORE PUSH1 0x20 ADD DUP3 DUP1 SLOAD PUSH2 0x2EC SWAP1 PUSH2 0x1407 JUMP JUMPDEST DUP1 ISZERO PUSH2 0x337 JUMPI DUP1 PUSH1 0x1F LT PUSH2 0x30E JUMPI PUSH2 0x100 DUP1 DUP4 SLOAD DIV MUL DUP4 MSTORE SWAP2 PUSH1 0x20 ADD SWAP2 PUSH2 0x337 JUMP JUMPDEST DUP3 ADD SWAP2 SWAP1 PUSH0 MSTORE PUSH1 0x20 PUSH0 KECCAK256 SWAP1 JUMPDEST DUP2 SLOAD DUP2 MSTORE SWAP1 PUSH1 0x1 ADD SWAP1 PUSH1 0x20 ADD DUP1 DUP4 GT PUSH2 0x31A JUMPI DUP3 SWAP1 SUB PUSH1 0x1F AND DUP3 ADD SWAP2 JUMPDEST POP POP POP POP POP SWAP1 DUP1 PUSH1 0x3 ADD SLOAD SWAP1 DUP1 PUSH1 0x4 ADD SLOAD SWAP1 POP DUP6 JUMP JUMPDEST PUSH1 0x60 PUSH0 PUSH0 DUP5 PUSH20 0xFFFFFFFFFFFFFFFFFFFFFFFFFFFFFFFFFFFFFFFF AND PUSH20 0xFFFFFFFFFFFFFFFFFFFFFFFFFFFFFFFFFFFFFFFF AND DUP2 MSTORE PUSH1 0x20 ADD SWAP1 DUP2 MSTORE PUSH1 0x20 ADD PUSH0 KECCAK256 DUP3 DUP2 SLOAD DUP2 LT PUSH2 0x39D JUMPI PUSH2 0x39C PUSH2 0x1437 JUMP JUMPDEST JUMPDEST SWAP1 PUSH0 MSTORE PUSH1 0x20 PUSH0 KECCAK256 SWAP1 PUSH1 0x5 MUL ADD PUSH1 0x2 ADD DUP1 SLOAD PUSH2 0x3B7 SWAP1 PUSH2 0x1407 JUMP JUMPDEST DUP1 PUSH1 0x1F ADD PUSH1 0x20 DUP1 SWAP2 DIV MUL PUSH1 0x20 ADD PUSH1 0x40 MLOAD SWAP1 DUP2 ADD PUSH1 0x40 MSTORE DUP1 SWAP3 SWAP2 SWAP1 DUP2 DUP2 MSTORE PUSH1 0x20 ADD DUP3 DUP1 SLOAD PUSH2 0x3E3 SWAP1 PUSH2 0x1407 JUMP JUMPDEST DUP1 ISZERO PUSH2 0x42E JUMPI DUP1 PUSH1 0x1F LT PUSH2 0x405 JUMPI PUSH2 0x100 DUP1 DUP4 SLOAD DIV MUL DUP4 MSTORE SWAP2 PUSH1 0x20 ADD SWAP2 PUSH2 0x42E JUMP JUMPDEST DUP3 ADD SWAP2 SWAP1 PUSH0 MSTORE PUSH1 0x20 PUSH0 KECCAK256 SWAP1 JUMPDEST DUP2 SLOAD DUP2 MSTORE SWAP1 PUSH1 0x1 ADD SWAP1 PUSH1 0x20 ADD DUP1 DUP4 GT PUSH2 0x411 JUMPI DUP3 SWAP1 SUB PUSH1 0x1F AND DUP3 ADD SWAP2 JUMPDEST POP POP POP POP POP SWAP1 POP SWAP3 SWAP2 POP POP JUMP JUMPDEST DUP2 PUSH20 0xFFFFFFFFFFFFFFFFFFFFFFFFFFFFFFFFFFFFFFFF AND PUSH0 PUSH0 DUP5 PUSH20 0xFFFFFFFFFFFFFFFFFFFFFFFFFFFFFFFFFFFFFFFF AND PUSH20 0xFFFFFFFFFFFFFFFFFFFFFFFFFFFFFFFFFFFFFFFF AND DUP2 MSTORE PUSH1 0x20 ADD SWAP1 DUP2 MSTORE PUSH1 0x20 ADD PUSH0 KECCAK256 DUP3 DUP2 SLOAD DUP2 LT PUSH2 0x4A0 JUMPI PUSH2 0x49F PUSH2 0x1437 JUMP JUMPDEST JUMPDEST SWAP1 PUSH0 MSTORE PUSH1 0x20 PUSH0 KECCAK256 SWAP1 PUSH1 0x5 MUL ADD PUSH1 0x1 ADD PUSH0 SWAP1 SLOAD SWAP1 PUSH2 0x100 EXP SWAP1 DIV PUSH20 0xFFFFFFFFFFFFFFFFFFFFFFFFFFFFFFFFFFFFFFFF AND PUSH20 0xFFFFFFFFFFFFFFFFFFFFFFFFFFFFFFFFFFFFFFFF AND EQ PUSH2 0x525 JUMPI PUSH1 0x40 MLOAD PUSH32 0x8C379A000000000000000000000000000000000000000000000000000000000 DUP2 MSTORE PUSH1 0x4 ADD PUSH2 0x51C SWAP1 PUSH2 0x14AE JUMP JUMPDEST PUSH1 0x40 MLOAD DUP1 SWAP2 SUB SWAP1 REVERT JUMPDEST PUSH1 0x1 PUSH0 PUSH0 DUP5 PUSH20 0xFFFFFFFFFFFFFFFFFFFFFFFFFFFFFFFFFFFFFFFF AND PUSH20 0xFFFFFFFFFFFFFFFFFFFFFFFFFFFFFFFFFFFFFFFF AND DUP2 MSTORE PUSH1 0x20 ADD SWAP1 DUP2 MSTORE PUSH1 0x20 ADD PUSH0 KECCAK256 DUP3 DUP2 SLOAD DUP2 LT PUSH2 0x575 JUMPI PUSH2 0x574 PUSH2 0x1437 JUMP JUMPDEST JUMPDEST SWAP1 PUSH0 MSTORE PUSH1 0x20 PUSH0 KECCAK256 SWAP1 PUSH1 0x5 MUL ADD PUSH1 0x4 ADD PUSH0 DUP3 DUP3 SLOAD PUSH2 0x592 SWAP2 SWAP1 PUSH2 0x14F9 JUMP JUMPDEST SWAP3 POP POP DUP2 SWAP1 SSTORE POP POP POP JUMP JUMPDEST PUSH1 0x1 DUP2 SWAP1 DUP1 PUSH1 0x1 DUP2 SLOAD ADD DUP1 DUP3 SSTORE DUP1 SWAP2 POP POP PUSH1 0x1 SWAP1 SUB SWAP1 PUSH0 MSTORE PUSH1 0x20 PUSH0 KECCAK256 ADD PUSH0 SWAP1 SWAP2 SWAP1 SWAP2 SWAP1 SWAP2 POP SWAP1 DUP2 PUSH2 0x5CE SWAP2 SWAP1 PUSH2 0x16CC JUMP JUMPDEST POP POP JUMP JUMPDEST PUSH0 DUP2 MLOAD GT PUSH2 0x615 JUMPI PUSH1 0x40 MLOAD PUSH32 0x8C379A000000000000000000000000000000000000000000000000000000000 DUP2 MSTORE PUSH1 0x4 ADD PUSH2 0x60C SWAP1 PUSH2 0x17E5 JUMP JUMPDEST PUSH1 0x40 MLOAD DUP1 SWAP2 SUB SWAP1 REVERT JUMPDEST PUSH2 0x118 PUSH2 0xFFFF AND DUP2 MLOAD GT ISZERO PUSH2 0x65F JUMPI PUSH1 0x40 MLOAD PUSH32 0x8C379A000000000000000000000000000000000000000000000000000000000 DUP2 MSTORE PUSH1 0x4 ADD PUSH2 0x656 SWAP1 PUSH2 0x1873 JUMP JUMPDEST PUSH1 0x40 MLOAD DUP1 SWAP2 SUB SWAP1 REVERT JUMPDEST PUSH0 PUSH1 0x40 MLOAD DUP1 PUSH1 0xA0 ADD PUSH1 0x40 MSTORE DUP1 TIMESTAMP CALLER PUSH1 0x40 MLOAD PUSH1 0x20 ADD PUSH2 0x67E SWAP3 SWAP2 SWAP1 PUSH2 0x18F6 JUMP JUMPDEST PUSH1 0x40 MLOAD PUSH1 0x20 DUP2 DUP4 SUB SUB DUP2 MSTORE SWAP1 PUSH1 0x40 MSTORE DUP1 MLOAD SWAP1 PUSH1 0x20 ADD KECCAK256 PUSH0 SHR DUP2 MSTORE PUSH1 0x20 ADD CALLER PUSH20 0xFFFFFFFFFFFFFFFFFFFFFFFFFFFFFFFFFFFFFFFF AND DUP2 MSTORE PUSH1 0x20 ADD DUP4 DUP2 MSTORE PUSH1 0x20 ADD TIMESTAMP DUP2 MSTORE PUSH1 0x20 ADD PUSH0 DUP2 MSTORE POP SWAP1 POP PUSH0 PUSH0 CALLER PUSH20 0xFFFFFFFFFFFFFFFFFFFFFFFFFFFFFFFFFFFFFFFF AND PUSH20 0xFFFFFFFFFFFFFFFFFFFFFFFFFFFFFFFFFFFFFFFF AND DUP2 MSTORE PUSH1 0x20 ADD SWAP1 DUP2 MSTORE PUSH1 0x20 ADD PUSH0 KECCAK256 DUP2 SWAP1 DUP1 PUSH1 0x1 DUP2 SLOAD ADD DUP1 DUP3 SSTORE DUP1 SWAP2 POP POP PUSH1 0x1 SWAP1 SUB SWAP1 PUSH0 MSTORE PUSH1 0x20 PUSH0 KECCAK256 SWAP1 PUSH1 0x5 MUL ADD PUSH0 SWAP1 SWAP2 SWAP1 SWAP2 SWAP1 SWAP2 POP PUSH0 DUP3 ADD MLOAD DUP2 PUSH0 ADD SSTORE PUSH1 0x20 DUP3 ADD MLOAD DUP2 PUSH1 0x1 ADD PUSH0 PUSH2 0x100 EXP DUP2 SLOAD DUP2 PUSH20 0xFFFFFFFFFFFFFFFFFFFFFFFFFFFFFFFFFFFFFFFF MUL NOT AND SWAP1 DUP4 PUSH20 0xFFFFFFFFFFFFFFFFFFFFFFFFFFFFFFFFFFFFFFFF AND MUL OR SWAP1 SSTORE POP PUSH1 0x40 DUP3 ADD MLOAD DUP2 PUSH1 0x2 ADD SWAP1 DUP2 PUSH2 0x78F SWAP2 SWAP1 PUSH2 0x16CC JUMP JUMPDEST POP PUSH1 0x60 DUP3 ADD MLOAD DUP2 PUSH1 0x3 ADD SSTORE PUSH1 0x80 DUP3 ADD MLOAD DUP2 PUSH1 0x4 ADD SSTORE POP POP POP POP JUMP JUMPDEST PUSH0 DUP3 PUSH20 0xFFFFFFFFFFFFFFFFFFFFFFFFFFFFFFFFFFFFFFFF AND PUSH0 PUSH0 DUP6 PUSH20 0xFFFFFFFFFFFFFFFFFFFFFFFFFFFFFFFFFFFFFFFF AND PUSH20 0xFFFFFFFFFFFFFFFFFFFFFFFFFFFFFFFFFFFFFFFF AND DUP2 MSTORE PUSH1 0x20 ADD SWAP1 DUP2 MSTORE PUSH1 0x20 ADD PUSH0 KECCAK256 DUP4 DUP2 SLOAD DUP2 LT PUSH2 0x810 JUMPI PUSH2 0x80F PUSH2 0x1437 JUMP JUMPDEST JUMPDEST SWAP1 PUSH0 MSTORE PUSH1 0x20 PUSH0 KECCAK256 SWAP1 PUSH1 0x5 MUL ADD PUSH1 0x1 ADD PUSH0 SWAP1 SLOAD SWAP1 PUSH2 0x100 EXP SWAP1 DIV PUSH20 0xFFFFFFFFFFFFFFFFFFFFFFFFFFFFFFFFFFFFFFFF AND PUSH20 0xFFFFFFFFFFFFFFFFFFFFFFFFFFFFFFFFFFFFFFFF AND EQ PUSH2 0x895 JUMPI PUSH1 0x40 MLOAD PUSH32 0x8C379A000000000000000000000000000000000000000000000000000000000 DUP2 MSTORE PUSH1 0x4 ADD PUSH2 0x88C SWAP1 PUSH2 0x14AE JUMP JUMPDEST PUSH1 0x40 MLOAD DUP1 SWAP2 SUB SWAP1 REVERT JUMPDEST PUSH0 PUSH0 DUP5 PUSH20 0xFFFFFFFFFFFFFFFFFFFFFFFFFFFFFFFFFFFFFFFF AND PUSH20 0xFFFFFFFFFFFFFFFFFFFFFFFFFFFFFFFFFFFFFFFF AND DUP2 MSTORE PUSH1 0x20 ADD SWAP1 DUP2 MSTORE PUSH1 0x20 ADD PUSH0 KECCAK256 DUP3 DUP2 SLOAD DUP2 LT PUSH2 0x8E3 JUMPI PUSH2 0x8E2 PUSH2 0x1437 JUMP JUMPDEST JUMPDEST SWAP1 PUSH0 MSTORE PUSH1 0x20 PUSH0 KECCAK256 SWAP1 PUSH1 0x5 MUL ADD PUSH1 0x4 ADD SLOAD SWAP1 POP SWAP3 SWAP2 POP POP JUMP JUMPDEST PUSH1 0x1 DUP2 DUP2 SLOAD DUP2 LT PUSH2 0x90A JUMPI PUSH0 DUP1 REVERT JUMPDEST SWAP1 PUSH0 MSTORE PUSH1 0x20 PUSH0 KECCAK256 ADD PUSH0 SWAP2 POP SWAP1 POP DUP1 SLOAD PUSH2 0x922 SWAP1 PUSH2 0x1407 JUMP JUMPDEST DUP1 PUSH1 0x1F ADD PUSH1 0x20 DUP1 SWAP2 DIV MUL PUSH1 0x20 ADD PUSH1 0x40 MLOAD SWAP1 DUP2 ADD PUSH1 0x40 MSTORE DUP1 SWAP3 SWAP2 SWAP1 DUP2 DUP2 MSTORE PUSH1 0x20 ADD DUP3 DUP1 SLOAD PUSH2 0x94E SWAP1 PUSH2 0x1407 JUMP JUMPDEST DUP1 ISZERO PUSH2 0x999 JUMPI DUP1 PUSH1 0x1F LT PUSH2 0x970 JUMPI PUSH2 0x100 DUP1 DUP4 SLOAD DIV MUL DUP4 MSTORE SWAP2 PUSH1 0x20 ADD SWAP2 PUSH2 0x999 JUMP JUMPDEST DUP3 ADD SWAP2 SWAP1 PUSH0 MSTORE PUSH1 0x20 PUSH0 KECCAK256 SWAP1 JUMPDEST DUP2 SLOAD DUP2 MSTORE SWAP1 PUSH1 0x1 ADD SWAP1 PUSH1 0x20 ADD DUP1 DUP4 GT PUSH2 0x97C JUMPI DUP3 SWAP1 SUB PUSH1 0x1F AND DUP3 ADD SWAP2 JUMPDEST POP POP POP POP POP DUP2 JUMP JUMPDEST DUP2 PUSH20 0xFFFFFFFFFFFFFFFFFFFFFFFFFFFFFFFFFFFFFFFF AND PUSH0 PUSH0 DUP5 PUSH20 0xFFFFFFFFFFFFFFFFFFFFFFFFFFFFFFFFFFFFFFFF AND PUSH20 0xFFFFFFFFFFFFFFFFFFFFFFFFFFFFFFFFFFFFFFFF AND DUP2 MSTORE PUSH1 0x20 ADD SWAP1 DUP2 MSTORE PUSH1 0x20 ADD PUSH0 KECCAK256 DUP3 DUP2 SLOAD DUP2 LT PUSH2 0xA06 JUMPI PUSH2 0xA05 PUSH2 0x1437 JUMP JUMPDEST JUMPDEST SWAP1 PUSH0 MSTORE PUSH1 0x20 PUSH0 KECCAK256 SWAP1 PUSH1 0x5 MUL ADD PUSH1 0x1 ADD PUSH0 SWAP1 SLOAD SWAP1 PUSH2 0x100 EXP SWAP1 DIV PUSH20 0xFFFFFFFFFFFFFFFFFFFFFFFFFFFFFFFFFFFFFFFF AND PUSH20 0xFFFFFFFFFFFFFFFFFFFFFFFFFFFFFFFFFFFFFFFF AND EQ PUSH2 0xA8B JUMPI PUSH1 0x40 MLOAD PUSH32 0x8C379A000000000000000000000000000000000000000000000000000000000 DUP2 MSTORE PUSH1 0x4 ADD PUSH2 0xA82 SWAP1 PUSH2 0x14AE JUMP JUMPDEST PUSH1 0x40 MLOAD DUP1 SWAP2 SUB SWAP1 REVERT JUMPDEST PUSH0 PUSH0 PUSH0 DUP5 PUSH20 0xFFFFFFFFFFFFFFFFFFFFFFFFFFFFFFFFFFFFFFFF AND PUSH20 0xFFFFFFFFFFFFFFFFFFFFFFFFFFFFFFFFFFFFFFFF AND DUP2 MSTORE PUSH1 0x20 ADD SWAP1 DUP2 MSTORE PUSH1 0x20 ADD PUSH0 KECCAK256 DUP3 DUP2 SLOAD DUP2 LT PUSH2 0xADA JUMPI PUSH2 0xAD9 PUSH2 0x1437 JUMP JUMPDEST JUMPDEST SWAP1 PUSH0 MSTORE PUSH1 0x20 PUSH0 KECCAK256 SWAP1 PUSH1 0x5 MUL ADD PUSH1 0x4 ADD SLOAD GT PUSH2 0xB2A JUMPI PUSH1 0x40 MLOAD PUSH32 0x8C379A000000000000000000000000000000000000000000000000000000000 DUP2 MSTORE PUSH1 0x4 ADD PUSH2 0xB21 SWAP1 PUSH2 0x196B JUMP JUMPDEST PUSH1 0x40 MLOAD DUP1 SWAP2 SUB SWAP1 REVERT JUMPDEST PUSH1 0x1 PUSH0 PUSH0 DUP5 PUSH20 0xFFFFFFFFFFFFFFFFFFFFFFFFFFFFFFFFFFFFFFFF AND PUSH20 0xFFFFFFFFFFFFFFFFFFFFFFFFFFFFFFFFFFFFFFFF AND DUP2 MSTORE PUSH1 0x20 ADD SWAP1 DUP2 MSTORE PUSH1 0x20 ADD PUSH0 KECCAK256 DUP3 DUP2 SLOAD DUP2 LT PUSH2 0xB7A JUMPI PUSH2 0xB79 PUSH2 0x1437 JUMP JUMPDEST JUMPDEST SWAP1 PUSH0 MSTORE PUSH1 0x20 PUSH0 KECCAK256 SWAP1 PUSH1 0x5 MUL ADD PUSH1 0x4 ADD PUSH0 DUP3 DUP3 SLOAD PUSH2 0xB97 SWAP2 SWAP1 PUSH2 0x1989 JUMP JUMPDEST SWAP3 POP POP DUP2 SWAP1 SSTORE POP POP POP JUMP JUMPDEST PUSH1 0x60 PUSH1 0x1 DUP3 DUP2 SLOAD DUP2 LT PUSH2 0xBB8 JUMPI PUSH2 0xBB7 PUSH2 0x1437 JUMP JUMPDEST JUMPDEST SWAP1 PUSH0 MSTORE PUSH1 0x20 PUSH0 KECCAK256 ADD DUP1 SLOAD PUSH2 0xBCB SWAP1 PUSH2 0x1407 JUMP JUMPDEST DUP1 PUSH1 0x1F ADD PUSH1 0x20 DUP1 SWAP2 DIV MUL PUSH1 0x20 ADD PUSH1 0x40 MLOAD SWAP1 DUP2 ADD PUSH1 0x40 MSTORE DUP1 SWAP3 SWAP2 SWAP1 DUP2 DUP2 MSTORE PUSH1 0x20 ADD DUP3 DUP1 SLOAD PUSH2 0xBF7 SWAP1 PUSH2 0x1407 JUMP JUMPDEST DUP1 ISZERO PUSH2 0xC42 JUMPI DUP1 PUSH1 0x1F LT PUSH2 0xC19 JUMPI PUSH2 0x100 DUP1 DUP4 SLOAD DIV MUL DUP4 MSTORE SWAP2 PUSH1 0x20 ADD SWAP2 PUSH2 0xC42 JUMP JUMPDEST DUP3 ADD SWAP2 SWAP1 PUSH0 MSTORE PUSH1 0x20 PUSH0 KECCAK256 SWAP1 JUMPDEST DUP2 SLOAD DUP2 MSTORE SWAP1 PUSH1 0x1 ADD SWAP1 PUSH1 0x20 ADD DUP1 DUP4 GT PUSH2 0xC25 JUMPI DUP3 SWAP1 SUB PUSH1 0x1F AND DUP3 ADD SWAP2 JUMPDEST POP POP POP POP POP SWAP1 POP SWAP2 SWAP1 POP JUMP JUMPDEST PUSH0 PUSH1 0x1 DUP1 SLOAD SWAP1 POP SWAP1 POP SWAP1 JUMP JUMPDEST PUSH1 0x60 DUP2 PUSH20 0xFFFFFFFFFFFFFFFFFFFFFFFFFFFFFFFFFFFFFFFF AND CALLER PUSH20 0xFFFFFFFFFFFFFFFFFFFFFFFFFFFFFFFFFFFFFFFF AND EQ PUSH2 0xCCA JUMPI PUSH1 0x40 MLOAD PUSH32 0x8C379A000000000000000000000000000000000000000000000000000000000 DUP2 MSTORE PUSH1 0x4 ADD PUSH2 0xCC1 SWAP1 PUSH2 0x1A06 JUMP JUMPDEST PUSH1 0x40 MLOAD DUP1 SWAP2 SUB SWAP1 REVERT JUMPDEST PUSH0 PUSH0 DUP4 PUSH20 0xFFFFFFFFFFFFFFFFFFFFFFFFFFFFFFFFFFFFFFFF AND PUSH20 0xFFFFFFFFFFFFFFFFFFFFFFFFFFFFFFFFFFFFFFFF AND DUP2 MSTORE PUSH1 0x20 ADD SWAP1 DUP2 MSTORE PUSH1 0x20 ADD PUSH0 KECCAK256 DUP1 SLOAD DUP1 PUSH1 0x20 MUL PUSH1 0x20 ADD PUSH1 0x40 MLOAD SWAP1 DUP2 ADD PUSH1 0x40 MSTORE DUP1 SWAP3 SWAP2 SWAP1 DUP2 DUP2 MSTORE PUSH1 0x20 ADD PUSH0 SWAP1 JUMPDEST DUP3 DUP3 LT ISZERO PUSH2 0xE57 JUMPI DUP4 DUP3 SWAP1 PUSH0 MSTORE PUSH1 0x20 PUSH0 KECCAK256 SWAP1 PUSH1 0x5 MUL ADD PUSH1 0x40 MLOAD DUP1 PUSH1 0xA0 ADD PUSH1 0x40 MSTORE SWAP1 DUP2 PUSH0 DUP3 ADD SLOAD DUP2 MSTORE PUSH1 0x20 ADD PUSH1 0x1 DUP3 ADD PUSH0 SWAP1 SLOAD SWAP1 PUSH2 0x100 EXP SWAP1 DIV PUSH20 0xFFFFFFFFFFFFFFFFFFFFFFFFFFFFFFFFFFFFFFFF AND PUSH20 0xFFFFFFFFFFFFFFFFFFFFFFFFFFFFFFFFFFFFFFFF AND PUSH20 0xFFFFFFFFFFFFFFFFFFFFFFFFFFFFFFFFFFFFFFFF AND DUP2 MSTORE PUSH1 0x20 ADD PUSH1 0x2 DUP3 ADD DUP1 SLOAD PUSH2 0xDB4 SWAP1 PUSH2 0x1407 JUMP JUMPDEST DUP1 PUSH1 0x1F ADD PUSH1 0x20 DUP1 SWAP2 DIV MUL PUSH1 0x20 ADD PUSH1 0x40 MLOAD SWAP1 DUP2 ADD PUSH1 0x40 MSTORE DUP1 SWAP3 SWAP2 SWAP1 DUP2 DUP2 MSTORE PUSH1 0x20 ADD DUP3 DUP1 SLOAD PUSH2 0xDE0 SWAP1 PUSH2 0x1407 JUMP JUMPDEST DUP1 ISZERO PUSH2 0xE2B JUMPI DUP1 PUSH1 0x1F LT PUSH2 0xE02 JUMPI PUSH2 0x100 DUP1 DUP4 SLOAD DIV MUL DUP4 MSTORE SWAP2 PUSH1 0x20 ADD SWAP2 PUSH2 0xE2B JUMP JUMPDEST DUP3 ADD SWAP2 SWAP1 PUSH0 MSTORE PUSH1 0x20 PUSH0 KECCAK256 SWAP1 JUMPDEST DUP2 SLOAD DUP2 MSTORE SWAP1 PUSH1 0x1 ADD SWAP1 PUSH1 0x20 ADD DUP1 DUP4 GT PUSH2 0xE0E JUMPI DUP3 SWAP1 SUB PUSH1 0x1F AND DUP3 ADD SWAP2 JUMPDEST POP POP POP POP POP DUP2 MSTORE PUSH1 0x20 ADD PUSH1 0x3 DUP3 ADD SLOAD DUP2 MSTORE PUSH1 0x20 ADD PUSH1 0x4 DUP3 ADD SLOAD DUP2 MSTORE POP POP DUP2 MSTORE PUSH1 0x20 ADD SWAP1 PUSH1 0x1 ADD SWAP1 PUSH2 0xD25 JUMP JUMPDEST POP POP POP POP SWAP1 POP SWAP2 SWAP1 POP JUMP JUMPDEST PUSH0 PUSH1 0x40 MLOAD SWAP1 POP SWAP1 JUMP JUMPDEST PUSH0 PUSH0 REVERT JUMPDEST PUSH0 PUSH0 REVERT JUMPDEST PUSH0 PUSH20 0xFFFFFFFFFFFFFFFFFFFFFFFFFFFFFFFFFFFFFFFF DUP3 AND SWAP1 POP SWAP2 SWAP1 POP JUMP JUMPDEST PUSH0 PUSH2 0xE9C DUP3 PUSH2 0xE73 JUMP JUMPDEST SWAP1 POP SWAP2 SWAP1 POP JUMP JUMPDEST PUSH2 0xEAC DUP2 PUSH2 0xE92 JUMP JUMPDEST DUP2 EQ PUSH2 0xEB6 JUMPI PUSH0 PUSH0 REVERT JUMPDEST POP JUMP JUMPDEST PUSH0 DUP2 CALLDATALOAD SWAP1 POP PUSH2 0xEC7 DUP2 PUSH2 0xEA3 JUMP JUMPDEST SWAP3 SWAP2 POP POP JUMP JUMPDEST PUSH0 DUP2 SWAP1 POP SWAP2 SWAP1 POP JUMP JUMPDEST PUSH2 0xEDF DUP2 PUSH2 0xECD JUMP JUMPDEST DUP2 EQ PUSH2 0xEE9 JUMPI PUSH0 PUSH0 REVERT JUMPDEST POP JUMP JUMPDEST PUSH0 DUP2 CALLDATALOAD SWAP1 POP PUSH2 0xEFA DUP2 PUSH2 0xED6 JUMP JUMPDEST SWAP3 SWAP2 POP POP JUMP JUMPDEST PUSH0 PUSH0 PUSH1 0x40 DUP4 DUP6 SUB SLT ISZERO PUSH2 0xF16 JUMPI PUSH2 0xF15 PUSH2 0xE6B JUMP JUMPDEST JUMPDEST PUSH0 PUSH2 0xF23 DUP6 DUP3 DUP7 ADD PUSH2 0xEB9 JUMP JUMPDEST SWAP3 POP POP PUSH1 0x20 PUSH2 0xF34 DUP6 DUP3 DUP7 ADD PUSH2 0xEEC JUMP JUMPDEST SWAP2 POP POP SWAP3 POP SWAP3 SWAP1 POP JUMP JUMPDEST PUSH2 0xF47 DUP2 PUSH2 0xECD JUMP JUMPDEST DUP3 MSTORE POP POP JUMP JUMPDEST PUSH2 0xF56 DUP2 PUSH2 0xE92 JUMP JUMPDEST DUP3 MSTORE POP POP JUMP JUMPDEST PUSH0 DUP2 MLOAD SWAP1 POP SWAP2 SWAP1 POP JUMP JUMPDEST PUSH0 DUP3 DUP3 MSTORE PUSH1 0x20 DUP3 ADD SWAP1 POP SWAP3 SWAP2 POP POP JUMP JUMPDEST DUP3 DUP2 DUP4 MCOPY PUSH0 DUP4 DUP4 ADD MSTORE POP POP POP JUMP JUMPDEST PUSH0 PUSH1 0x1F NOT PUSH1 0x1F DUP4 ADD AND SWAP1 POP SWAP2 SWAP1 POP JUMP JUMPDEST PUSH0 PUSH2 0xF9E DUP3 PUSH2 0xF5C JUMP JUMPDEST PUSH2 0xFA8 DUP2 DUP6 PUSH2 0xF66 JUMP JUMPDEST SWAP4 POP PUSH2 0xFB8 DUP2 DUP6 PUSH1 0x20 DUP7 ADD PUSH2 0xF76 JUMP JUMPDEST PUSH2 0xFC1 DUP2 PUSH2 0xF84 JUMP JUMPDEST DUP5 ADD SWAP2 POP POP SWAP3 SWAP2 POP POP JUMP JUMPDEST PUSH0 PUSH1 0xA0 DUP3 ADD SWAP1 POP PUSH2 0xFDF PUSH0 DUP4 ADD DUP9 PUSH2 0xF3E JUMP JUMPDEST PUSH2 0xFEC PUSH1 0x20 DUP4 ADD DUP8 PUSH2 0xF4D JUMP JUMPDEST DUP2 DUP2 SUB PUSH1 0x40 DUP4 ADD MSTORE PUSH2 0xFFE DUP2 DUP7 PUSH2 0xF94 JUMP JUMPDEST SWAP1 POP PUSH2 0x100D PUSH1 0x60 DUP4 ADD DUP6 PUSH2 0xF3E JUMP JUMPDEST PUSH2 0x101A PUSH1 0x80 DUP4 ADD DUP5 PUSH2 0xF3E JUMP JUMPDEST SWAP7 SWAP6 POP POP POP POP POP POP JUMP JUMPDEST PUSH0 PUSH1 0x20 DUP3 ADD SWAP1 POP DUP2 DUP2 SUB PUSH0 DUP4 ADD MSTORE PUSH2 0x103C DUP2 DUP5 PUSH2 0xF94 JUMP JUMPDEST SWAP1 POP SWAP3 SWAP2 POP POP JUMP JUMPDEST PUSH0 PUSH0 REVERT JUMPDEST PUSH0 PUSH0 REVERT JUMPDEST PUSH32 0x4E487B7100000000000000000000000000000000000000000000000000000000 PUSH0 MSTORE PUSH1 0x41 PUSH1 0x4 MSTORE PUSH1 0x24 PUSH0 REVERT JUMPDEST PUSH2 0x1082 DUP3 PUSH2 0xF84 JUMP JUMPDEST DUP2 ADD DUP2 DUP2 LT PUSH8 0xFFFFFFFFFFFFFFFF DUP3 GT OR ISZERO PUSH2 0x10A1 JUMPI PUSH2 0x10A0 PUSH2 0x104C JUMP JUMPDEST JUMPDEST DUP1 PUSH1 0x40 MSTORE POP POP POP JUMP JUMPDEST PUSH0 PUSH2 0x10B3 PUSH2 0xE62 JUMP JUMPDEST SWAP1 POP PUSH2 0x10BF DUP3 DUP3 PUSH2 0x1079 JUMP JUMPDEST SWAP2 SWAP1 POP JUMP JUMPDEST PUSH0 PUSH8 0xFFFFFFFFFFFFFFFF DUP3 GT ISZERO PUSH2 0x10DE JUMPI PUSH2 0x10DD PUSH2 0x104C JUMP JUMPDEST JUMPDEST PUSH2 0x10E7 DUP3 PUSH2 0xF84 JUMP JUMPDEST SWAP1 POP PUSH1 0x20 DUP2 ADD SWAP1 POP SWAP2 SWAP1 POP JUMP JUMPDEST DUP3 DUP2 DUP4 CALLDATACOPY PUSH0 DUP4 DUP4 ADD MSTORE POP POP POP JUMP JUMPDEST PUSH0 PUSH2 0x1114 PUSH2 0x110F DUP5 PUSH2 0x10C4 JUMP JUMPDEST PUSH2 0x10AA JUMP JUMPDEST SWAP1 POP DUP3 DUP2 MSTORE PUSH1 0x20 DUP2 ADD DUP5 DUP5 DUP5 ADD GT ISZERO PUSH2 0x1130 JUMPI PUSH2 0x112F PUSH2 0x1048 JUMP JUMPDEST JUMPDEST PUSH2 0x113B DUP5 DUP3 DUP6 PUSH2 0x10F4 JUMP JUMPDEST POP SWAP4 SWAP3 POP POP POP JUMP JUMPDEST PUSH0 DUP3 PUSH1 0x1F DUP4 ADD SLT PUSH2 0x1157 JUMPI PUSH2 0x1156 PUSH2 0x1044 JUMP JUMPDEST JUMPDEST DUP2 CALLDATALOAD PUSH2 0x1167 DUP5 DUP3 PUSH1 0x20 DUP7 ADD PUSH2 0x1102 JUMP JUMPDEST SWAP2 POP POP SWAP3 SWAP2 POP POP JUMP JUMPDEST PUSH0 PUSH1 0x20 DUP3 DUP5 SUB SLT ISZERO PUSH2 0x1185 JUMPI PUSH2 0x1184 PUSH2 0xE6B JUMP JUMPDEST JUMPDEST PUSH0 DUP3 ADD CALLDATALOAD PUSH8 0xFFFFFFFFFFFFFFFF DUP2 GT ISZERO PUSH2 0x11A2 JUMPI PUSH2 0x11A1 PUSH2 0xE6F JUMP JUMPDEST JUMPDEST PUSH2 0x11AE DUP5 DUP3 DUP6 ADD PUSH2 0x1143 JUMP JUMPDEST SWAP2 POP POP SWAP3 SWAP2 POP POP JUMP JUMPDEST PUSH0 PUSH1 0x20 DUP3 ADD SWAP1 POP PUSH2 0x11CA PUSH0 DUP4 ADD DUP5 PUSH2 0xF3E JUMP JUMPDEST SWAP3 SWAP2 POP POP JUMP JUMPDEST PUSH0 PUSH1 0x20 DUP3 DUP5 SUB SLT ISZERO PUSH2 0x11E5 JUMPI PUSH2 0x11E4 PUSH2 0xE6B JUMP JUMPDEST JUMPDEST PUSH0 PUSH2 0x11F2 DUP5 DUP3 DUP6 ADD PUSH2 0xEEC JUMP JUMPDEST SWAP2 POP POP SWAP3 SWAP2 POP POP JUMP JUMPDEST PUSH0 PUSH1 0x20 DUP3 DUP5 SUB SLT ISZERO PUSH2 0x1210 JUMPI PUSH2 0x120F PUSH2 0xE6B JUMP JUMPDEST JUMPDEST PUSH0 PUSH2 0x121D DUP5 DUP3 DUP6 ADD PUSH2 0xEB9 JUMP JUMPDEST SWAP2 POP POP SWAP3 SWAP2 POP POP JUMP JUMPDEST PUSH0 DUP2 MLOAD SWAP1 POP SWAP2 SWAP1 POP JUMP JUMPDEST PUSH0 DUP3 DUP3 MSTORE PUSH1 0x20 DUP3 ADD SWAP1 POP SWAP3 SWAP2 POP POP JUMP JUMPDEST PUSH0 DUP2 SWAP1 POP PUSH1 0x20 DUP3 ADD SWAP1 POP SWAP2 SWAP1 POP JUMP JUMPDEST PUSH2 0x1258 DUP2 PUSH2 0xECD JUMP JUMPDEST DUP3 MSTORE POP POP JUMP JUMPDEST PUSH2 0x1267 DUP2 PUSH2 0xE92 JUMP JUMPDEST DUP3 MSTORE POP POP JUMP JUMPDEST PUSH0 DUP3 DUP3 MSTORE PUSH1 0x20 DUP3 ADD SWAP1 POP SWAP3 SWAP2 POP POP JUMP JUMPDEST PUSH0 PUSH2 0x1287 DUP3 PUSH2 0xF5C JUMP JUMPDEST PUSH2 0x1291 DUP2 DUP6 PUSH2 0x126D JUMP JUMPDEST SWAP4 POP PUSH2 0x12A1 DUP2 DUP6 PUSH1 0x20 DUP7 ADD PUSH2 0xF76 JUMP JUMPDEST PUSH2 0x12AA DUP2 PUSH2 0xF84 JUMP JUMPDEST DUP5 ADD SWAP2 POP POP SWAP3 SWAP2 POP POP JUMP JUMPDEST PUSH0 PUSH1 0xA0 DUP4 ADD PUSH0 DUP4 ADD MLOAD PUSH2 0x12CA PUSH0 DUP7 ADD DUP3 PUSH2 0x124F JUMP JUMPDEST POP PUSH1 0x20 DUP4 ADD MLOAD PUSH2 0x12DD PUSH1 0x20 DUP7 ADD DUP3 PUSH2 0x125E JUMP JUMPDEST POP PUSH1 0x40 DUP4 ADD MLOAD DUP5 DUP3 SUB PUSH1 0x40 DUP7 ADD MSTORE PUSH2 0x12F5 DUP3 DUP3 PUSH2 0x127D JUMP JUMPDEST SWAP2 POP POP PUSH1 0x60 DUP4 ADD MLOAD PUSH2 0x130A PUSH1 0x60 DUP7 ADD DUP3 PUSH2 0x124F JUMP JUMPDEST POP PUSH1 0x80 DUP4 ADD MLOAD PUSH2 0x131D PUSH1 0x80 DUP7 ADD DUP3 PUSH2 0x124F JUMP JUMPDEST POP DUP1 SWAP2 POP POP SWAP3 SWAP2 POP POP JUMP JUMPDEST PUSH0 PUSH2 0x1333 DUP4 DUP4 PUSH2 0x12B5 JUMP JUMPDEST SWAP1 POP SWAP3 SWAP2 POP POP JUMP JUMPDEST PUSH0 PUSH1 0x20 DUP3 ADD SWAP1 POP SWAP2 SWAP1 POP JUMP JUMPDEST PUSH0 PUSH2 0x1351 DUP3 PUSH2 0x1226 JUMP JUMPDEST PUSH2 0x135B DUP2 DUP6 PUSH2 0x1230 JUMP JUMPDEST SWAP4 POP DUP4 PUSH1 0x20 DUP3 MUL DUP6 ADD PUSH2 0x136D DUP6 PUSH2 0x1240 JUMP JUMPDEST DUP1 PUSH0 JUMPDEST DUP6 DUP2 LT ISZERO PUSH2 0x13A8 JUMPI DUP5 DUP5 SUB DUP10 MSTORE DUP2 MLOAD PUSH2 0x1389 DUP6 DUP3 PUSH2 0x1328 JUMP JUMPDEST SWAP5 POP PUSH2 0x1394 DUP4 PUSH2 0x133B JUMP JUMPDEST SWAP3 POP PUSH1 0x20 DUP11 ADD SWAP10 POP POP PUSH1 0x1 DUP2 ADD SWAP1 POP PUSH2 0x1370 JUMP JUMPDEST POP DUP3 SWAP8 POP DUP8 SWAP6 POP POP POP POP POP POP SWAP3 SWAP2 POP POP JUMP JUMPDEST PUSH0 PUSH1 0x20 DUP3 ADD SWAP1 POP DUP2 DUP2 SUB PUSH0 DUP4 ADD MSTORE PUSH2 0x13D2 DUP2 DUP5 PUSH2 0x1347 JUMP JUMPDEST SWAP1 POP SWAP3 SWAP2 POP POP JUMP JUMPDEST PUSH32 0x4E487B7100000000000000000000000000000000000000000000000000000000 PUSH0 MSTORE PUSH1 0x22 PUSH1 0x4 MSTORE PUSH1 0x24 PUSH0 REVERT JUMPDEST PUSH0 PUSH1 0x2 DUP3 DIV SWAP1 POP PUSH1 0x1 DUP3 AND DUP1 PUSH2 0x141E JUMPI PUSH1 0x7F DUP3 AND SWAP2 POP JUMPDEST PUSH1 0x20 DUP3 LT DUP2 SUB PUSH2 0x1431 JUMPI PUSH2 0x1430 PUSH2 0x13DA JUMP JUMPDEST JUMPDEST POP SWAP2 SWAP1 POP JUMP JUMPDEST PUSH32 0x4E487B7100000000000000000000000000000000000000000000000000000000 PUSH0 MSTORE PUSH1 0x32 PUSH1 0x4 MSTORE PUSH1 0x24 PUSH0 REVERT JUMPDEST PUSH32 0x547765657420646F6573206E6F74206578697374000000000000000000000000 PUSH0 DUP3 ADD MSTORE POP JUMP JUMPDEST PUSH0 PUSH2 0x1498 PUSH1 0x14 DUP4 PUSH2 0xF66 JUMP JUMPDEST SWAP2 POP PUSH2 0x14A3 DUP3 PUSH2 0x1464 JUMP JUMPDEST PUSH1 0x20 DUP3 ADD SWAP1 POP SWAP2 SWAP1 POP JUMP JUMPDEST PUSH0 PUSH1 0x20 DUP3 ADD SWAP1 POP DUP2 DUP2 SUB PUSH0 DUP4 ADD MSTORE PUSH2 0x14C5 DUP2 PUSH2 0x148C JUMP JUMPDEST SWAP1 POP SWAP2 SWAP1 POP JUMP JUMPDEST PUSH32 0x4E487B7100000000000000000000000000000000000000000000000000000000 PUSH0 MSTORE PUSH1 0x11 PUSH1 0x4 MSTORE PUSH1 0x24 PUSH0 REVERT JUMPDEST PUSH0 PUSH2 0x1503 DUP3 PUSH2 0xECD JUMP JUMPDEST SWAP2 POP PUSH2 0x150E DUP4 PUSH2 0xECD JUMP JUMPDEST SWAP3 POP DUP3 DUP3 ADD SWAP1 POP DUP1 DUP3 GT ISZERO PUSH2 0x1526 JUMPI PUSH2 0x1525 PUSH2 0x14CC JUMP JUMPDEST JUMPDEST SWAP3 SWAP2 POP POP JUMP JUMPDEST PUSH0 DUP2 SWAP1 POP DUP2 PUSH0 MSTORE PUSH1 0x20 PUSH0 KECCAK256 SWAP1 POP SWAP2 SWAP1 POP JUMP JUMPDEST PUSH0 PUSH1 0x20 PUSH1 0x1F DUP4 ADD DIV SWAP1 POP SWAP2 SWAP1 POP JUMP JUMPDEST PUSH0 DUP3 DUP3 SHL SWAP1 POP SWAP3 SWAP2 POP POP JUMP JUMPDEST PUSH0 PUSH1 0x8 DUP4 MUL PUSH2 0x1588 PUSH32 0xFFFFFFFFFFFFFFFFFFFFFFFFFFFFFFFFFFFFFFFFFFFFFFFFFFFFFFFFFFFFFFFF DUP3 PUSH2 0x154D JUMP JUMPDEST PUSH2 0x1592 DUP7 DUP4 PUSH2 0x154D JUMP JUMPDEST SWAP6 POP DUP1 NOT DUP5 AND SWAP4 POP DUP1 DUP7 AND DUP5 OR SWAP3 POP POP POP SWAP4 SWAP3 POP POP POP JUMP JUMPDEST PUSH0 DUP2 SWAP1 POP SWAP2 SWAP1 POP JUMP JUMPDEST PUSH0 PUSH2 0x15CD PUSH2 0x15C8 PUSH2 0x15C3 DUP5 PUSH2 0xECD JUMP JUMPDEST PUSH2 0x15AA JUMP JUMPDEST PUSH2 0xECD JUMP JUMPDEST SWAP1 POP SWAP2 SWAP1 POP JUMP JUMPDEST PUSH0 DUP2 SWAP1 POP SWAP2 SWAP1 POP JUMP JUMPDEST PUSH2 0x15E6 DUP4 PUSH2 0x15B3 JUMP JUMPDEST PUSH2 0x15FA PUSH2 0x15F2 DUP3 PUSH2 0x15D4 JUMP JUMPDEST DUP5 DUP5 SLOAD PUSH2 0x1559 JUMP JUMPDEST DUP3 SSTORE POP POP POP POP JUMP JUMPDEST PUSH0 PUSH0 SWAP1 POP SWAP1 JUMP JUMPDEST PUSH2 0x1611 PUSH2 0x1602 JUMP JUMPDEST PUSH2 0x161C DUP2 DUP5 DUP5 PUSH2 0x15DD JUMP JUMPDEST POP POP POP JUMP JUMPDEST JUMPDEST DUP2 DUP2 LT ISZERO PUSH2 0x163F JUMPI PUSH2 0x1634 PUSH0 DUP3 PUSH2 0x1609 JUMP JUMPDEST PUSH1 0x1 DUP2 ADD SWAP1 POP PUSH2 0x1622 JUMP JUMPDEST POP POP JUMP JUMPDEST PUSH1 0x1F DUP3 GT ISZERO PUSH2 0x1684 JUMPI PUSH2 0x1655 DUP2 PUSH2 0x152C JUMP JUMPDEST PUSH2 0x165E DUP5 PUSH2 0x153E JUMP JUMPDEST DUP2 ADD PUSH1 0x20 DUP6 LT ISZERO PUSH2 0x166D JUMPI DUP2 SWAP1 POP JUMPDEST PUSH2 0x1681 PUSH2 0x1679 DUP6 PUSH2 0x153E JUMP JUMPDEST DUP4 ADD DUP3 PUSH2 0x1621 JUMP JUMPDEST POP POP JUMPDEST POP POP POP JUMP JUMPDEST PUSH0 DUP3 DUP3 SHR SWAP1 POP SWAP3 SWAP2 POP POP JUMP JUMPDEST PUSH0 PUSH2 0x16A4 PUSH0 NOT DUP5 PUSH1 0x8 MUL PUSH2 0x1689 JUMP JUMPDEST NOT DUP1 DUP4 AND SWAP2 POP POP SWAP3 SWAP2 POP POP JUMP JUMPDEST PUSH0 PUSH2 0x16BC DUP4 DUP4 PUSH2 0x1695 JUMP JUMPDEST SWAP2 POP DUP3 PUSH1 0x2 MUL DUP3 OR SWAP1 POP SWAP3 SWAP2 POP POP JUMP JUMPDEST PUSH2 0x16D5 DUP3 PUSH2 0xF5C JUMP JUMPDEST PUSH8 0xFFFFFFFFFFFFFFFF DUP2 GT ISZERO PUSH2 0x16EE JUMPI PUSH2 0x16ED PUSH2 0x104C JUMP JUMPDEST JUMPDEST PUSH2 0x16F8 DUP3 SLOAD PUSH2 0x1407 JUMP JUMPDEST PUSH2 0x1703 DUP3 DUP3 DUP6 PUSH2 0x1643 JUMP JUMPDEST PUSH0 PUSH1 0x20 SWAP1 POP PUSH1 0x1F DUP4 GT PUSH1 0x1 DUP2 EQ PUSH2 0x1734 JUMPI PUSH0 DUP5 ISZERO PUSH2 0x1722 JUMPI DUP3 DUP8 ADD MLOAD SWAP1 POP JUMPDEST PUSH2 0x172C DUP6 DUP3 PUSH2 0x16B1 JUMP JUMPDEST DUP7 SSTORE POP PUSH2 0x1793 JUMP JUMPDEST PUSH1 0x1F NOT DUP5 AND PUSH2 0x1742 DUP7 PUSH2 0x152C JUMP JUMPDEST PUSH0 JUMPDEST DUP3 DUP2 LT ISZERO PUSH2 0x1769 JUMPI DUP5 DUP10 ADD MLOAD DUP3 SSTORE PUSH1 0x1 DUP3 ADD SWAP2 POP PUSH1 0x20 DUP6 ADD SWAP5 POP PUSH1 0x20 DUP2 ADD SWAP1 POP PUSH2 0x1744 JUMP JUMPDEST DUP7 DUP4 LT ISZERO PUSH2 0x1786 JUMPI DUP5 DUP10 ADD MLOAD PUSH2 0x1782 PUSH1 0x1F DUP10 AND DUP3 PUSH2 0x1695 JUMP JUMPDEST DUP4 SSTORE POP JUMPDEST PUSH1 0x1 PUSH1 0x2 DUP9 MUL ADD DUP9 SSTORE POP POP POP JUMPDEST POP POP POP POP POP POP JUMP JUMPDEST PUSH32 0x54776565742063616E6E6F7420626520656D7074790000000000000000000000 PUSH0 DUP3 ADD MSTORE POP JUMP JUMPDEST PUSH0 PUSH2 0x17CF PUSH1 0x15 DUP4 PUSH2 0xF66 JUMP JUMPDEST SWAP2 POP PUSH2 0x17DA DUP3 PUSH2 0x179B JUMP JUMPDEST PUSH1 0x20 DUP3 ADD SWAP1 POP SWAP2 SWAP1 POP JUMP JUMPDEST PUSH0 PUSH1 0x20 DUP3 ADD SWAP1 POP DUP2 DUP2 SUB PUSH0 DUP4 ADD MSTORE PUSH2 0x17FC DUP2 PUSH2 0x17C3 JUMP JUMPDEST SWAP1 POP SWAP2 SWAP1 POP JUMP JUMPDEST PUSH32 0x54776565742063616E6E6F74206265206D6F7265207468616E20323830206368 PUSH0 DUP3 ADD MSTORE PUSH32 0x6172616374657273000000000000000000000000000000000000000000000000 PUSH1 0x20 DUP3 ADD MSTORE POP JUMP JUMPDEST PUSH0 PUSH2 0x185D PUSH1 0x28 DUP4 PUSH2 0xF66 JUMP JUMPDEST SWAP2 POP PUSH2 0x1868 DUP3 PUSH2 0x1803 JUMP JUMPDEST PUSH1 0x40 DUP3 ADD SWAP1 POP SWAP2 SWAP1 POP JUMP JUMPDEST PUSH0 PUSH1 0x20 DUP3 ADD SWAP1 POP DUP2 DUP2 SUB PUSH0 DUP4 ADD MSTORE PUSH2 0x188A DUP2 PUSH2 0x1851 JUMP JUMPDEST SWAP1 POP SWAP2 SWAP1 POP JUMP JUMPDEST PUSH0 DUP2 SWAP1 POP SWAP2 SWAP1 POP JUMP JUMPDEST PUSH2 0x18AB PUSH2 0x18A6 DUP3 PUSH2 0xECD JUMP JUMPDEST PUSH2 0x1891 JUMP JUMPDEST DUP3 MSTORE POP POP JUMP JUMPDEST PUSH0 DUP2 PUSH1 0x60 SHL SWAP1 POP SWAP2 SWAP1 POP JUMP JUMPDEST PUSH0 PUSH2 0x18C7 DUP3 PUSH2 0x18B1 JUMP JUMPDEST SWAP1 POP SWAP2 SWAP1 POP JUMP JUMPDEST PUSH0 PUSH2 0x18D8 DUP3 PUSH2 0x18BD JUMP JUMPDEST SWAP1 POP SWAP2 SWAP1 POP JUMP JUMPDEST PUSH2 0x18F0 PUSH2 0x18EB DUP3 PUSH2 0xE92 JUMP JUMPDEST PUSH2 0x18CE JUMP JUMPDEST DUP3 MSTORE POP POP JUMP JUMPDEST PUSH0 PUSH2 0x1901 DUP3 DUP6 PUSH2 0x189A JUMP JUMPDEST PUSH1 0x20 DUP3 ADD SWAP2 POP PUSH2 0x1911 DUP3 DUP5 PUSH2 0x18DF JUMP JUMPDEST PUSH1 0x14 DUP3 ADD SWAP2 POP DUP2 SWAP1 POP SWAP4 SWAP3 POP POP POP JUMP JUMPDEST PUSH32 0x547765657420646F6573206E6F74206861766520616E79206C696B6573000000 PUSH0 DUP3 ADD MSTORE POP JUMP JUMPDEST PUSH0 PUSH2 0x1955 PUSH1 0x1D DUP4 PUSH2 0xF66 JUMP JUMPDEST SWAP2 POP PUSH2 0x1960 DUP3 PUSH2 0x1921 JUMP JUMPDEST PUSH1 0x20 DUP3 ADD SWAP1 POP SWAP2 SWAP1 POP JUMP JUMPDEST PUSH0 PUSH1 0x20 DUP3 ADD SWAP1 POP DUP2 DUP2 SUB PUSH0 DUP4 ADD MSTORE PUSH2 0x1982 DUP2 PUSH2 0x1949 JUMP JUMPDEST SWAP1 POP SWAP2 SWAP1 POP JUMP JUMPDEST PUSH0 PUSH2 0x1993 DUP3 PUSH2 0xECD JUMP JUMPDEST SWAP2 POP PUSH2 0x199E DUP4 PUSH2 0xECD JUMP JUMPDEST SWAP3 POP DUP3 DUP3 SUB SWAP1 POP DUP2 DUP2 GT ISZERO PUSH2 0x19B6 JUMPI PUSH2 0x19B5 PUSH2 0x14CC JUMP JUMPDEST JUMPDEST SWAP3 SWAP2 POP POP JUMP JUMPDEST PUSH32 0x596F752063616E206F6E6C792067657420796F7572206F776E20747765657473 PUSH0 DUP3 ADD MSTORE POP JUMP JUMPDEST PUSH0 PUSH2 0x19F0 PUSH1 0x20 DUP4 PUSH2 0xF66 JUMP JUMPDEST SWAP2 POP PUSH2 0x19FB DUP3 PUSH2 0x19BC JUMP JUMPDEST PUSH1 0x20 DUP3 ADD SWAP1 POP SWAP2 SWAP1 POP JUMP JUMPDEST PUSH0 PUSH1 0x20 DUP3 ADD SWAP1 POP DUP2 DUP2 SUB PUSH0 DUP4 ADD MSTORE PUSH2 0x1A1D DUP2 PUSH2 0x19E4 JUMP JUMPDEST SWAP1 POP SWAP2 SWAP1 POP JUMP INVALID LOG2 PUSH5 0x6970667358 0x22 SLT KECCAK256 0xD5 DELEGATECALL STOP SELFBALANCE 0xD6 DELEGATECALL EXTCALL SWAP9 SWAP2 SWAP10 0xED CODECOPY 0xDB 0x4B 0x27 PUSH25 0xDF8B543401BAF8A6E10644FB1CC419C764736F6C634300081F STOP CALLER "
				},
				"gasEstimates": {
					"creation": {
						"codeDepositCost": "1349200",
						"executionCost": "infinite",
						"totalCost": "infinite"
					},
					"external": {
						"actions(uint256)": "infinite",
						"createTweet(string)": "infinite",
						"getAction(uint256)": "infinite",
						"getActionsLength()": "2528",
						"getAllOwnerTweets(address)": "infinite",
						"getTweet(address,uint256)": "infinite",
						"getTweetLikes(address,uint256)": "infinite",
						"likeTweet(address,uint256)": "infinite",
						"tweets(address,uint256)": "infinite",
						"unLikeTweet(address,uint256)": "infinite",
						"updateUserActionsOptions(string)": "infinite"
					}
				},
				"methodIdentifiers": {
					"actions(uint256)": "83240f83",
					"createTweet(string)": "7c9cd2bc",
					"getAction(uint256)": "b6e76873",
					"getActionsLength()": "e78c65aa",
					"getAllOwnerTweets(address)": "ff5c520d",
					"getTweet(address,uint256)": "112f54e3",
					"getTweetLikes(address,uint256)": "80eb3587",
					"likeTweet(address,uint256)": "63378216",
					"tweets(address,uint256)": "05a1b4a9",
					"unLikeTweet(address,uint256)": "9ef8633f",
					"updateUserActionsOptions(string)": "78977bf4"
				}
			},
			"storageLayout": {
				"storage": [
					{
						"astId": 21,
						"contract": "Solidity/Twitter.sol:Twitter",
						"label": "tweets",
						"offset": 0,
						"slot": "0",
						"type": "t_mapping(t_address,t_array(t_struct(Tweet)15_storage)dyn_storage)"
					},
					{
						"astId": 28,
						"contract": "Solidity/Twitter.sol:Twitter",
						"label": "actions",
						"offset": 0,
						"slot": "1",
						"type": "t_array(t_string_storage)dyn_storage"
					}
				],
				"types": {
					"t_address": {
						"encoding": "inplace",
						"label": "address",
						"numberOfBytes": "20"
					},
					"t_array(t_string_storage)dyn_storage": {
						"base": "t_string_storage",
						"encoding": "dynamic_array",
						"label": "string[]",
						"numberOfBytes": "32"
					},
					"t_array(t_struct(Tweet)15_storage)dyn_storage": {
						"base": "t_struct(Tweet)15_storage",
						"encoding": "dynamic_array",
						"label": "struct Twitter.Tweet[]",
						"numberOfBytes": "32"
					},
					"t_mapping(t_address,t_array(t_struct(Tweet)15_storage)dyn_storage)": {
						"encoding": "mapping",
						"key": "t_address",
						"label": "mapping(address => struct Twitter.Tweet[])",
						"numberOfBytes": "32",
						"value": "t_array(t_struct(Tweet)15_storage)dyn_storage"
					},
					"t_string_storage": {
						"encoding": "bytes",
						"label": "string",
						"numberOfBytes": "32"
					},
					"t_struct(Tweet)15_storage": {
						"encoding": "inplace",
						"label": "struct Twitter.Tweet",
						"members": [
							{
								"astId": 6,
								"contract": "Solidity/Twitter.sol:Twitter",
								"label": "id",
								"offset": 0,
								"slot": "0",
								"type": "t_uint256"
							},
							{
								"astId": 8,
								"contract": "Solidity/Twitter.sol:Twitter",
								"label": "author",
								"offset": 0,
								"slot": "1",
								"type": "t_address"
							},
							{
								"astId": 10,
								"contract": "Solidity/Twitter.sol:Twitter",
								"label": "content",
								"offset": 0,
								"slot": "2",
								"type": "t_string_storage"
							},
							{
								"astId": 12,
								"contract": "Solidity/Twitter.sol:Twitter",
								"label": "timestamp",
								"offset": 0,
								"slot": "3",
								"type": "t_uint256"
							},
							{
								"astId": 14,
								"contract": "Solidity/Twitter.sol:Twitter",
								"label": "likes",
								"offset": 0,
								"slot": "4",
								"type": "t_uint256"
							}
						],
						"numberOfBytes": "160"
					},
					"t_uint256": {
						"encoding": "inplace",
						"label": "uint256",
						"numberOfBytes": "32"
					}
				}
			},
			"userdoc": {
				"kind": "user",
				"methods": {},
				"version": 1
			}
		}
	}
}