{
	"Solidity/Twitter.sol": {
		"Twitter": {
			"abi": [
				{
					"anonymous": false,
					"inputs": [
						{
							"indexed": true,
							"internalType": "uint256",
							"name": "id",
							"type": "uint256"
						},
						{
							"indexed": false,
							"internalType": "uint256",
							"name": "timestamp",
							"type": "uint256"
						},
						{
							"indexed": false,
							"internalType": "address",
							"name": "author",
							"type": "address"
						}
					],
					"name": "TweetCreated",
					"type": "event"
				},
				{
					"anonymous": false,
					"inputs": [
						{
							"indexed": false,
							"internalType": "address",
							"name": "liker",
							"type": "address"
						},
						{
							"indexed": false,
							"internalType": "address",
							"name": "tweetAuthor",
							"type": "address"
						},
						{
							"indexed": false,
							"internalType": "uint256",
							"name": "id",
							"type": "uint256"
						},
						{
							"indexed": false,
							"internalType": "uint256",
							"name": "newLikesCount",
							"type": "uint256"
						}
					],
					"name": "TweetLiked",
					"type": "event"
				},
				{
					"anonymous": false,
					"inputs": [
						{
							"indexed": false,
							"internalType": "address",
							"name": "unliker",
							"type": "address"
						},
						{
							"indexed": false,
							"internalType": "address",
							"name": "tweetAuthor",
							"type": "address"
						},
						{
							"indexed": false,
							"internalType": "uint256",
							"name": "id",
							"type": "uint256"
						},
						{
							"indexed": false,
							"internalType": "uint256",
							"name": "newLikesCount",
							"type": "uint256"
						}
					],
					"name": "TweetUnLiked",
					"type": "event"
				},
				{
					"inputs": [
						{
							"internalType": "uint256",
							"name": "",
							"type": "uint256"
						}
					],
					"name": "actions",
					"outputs": [
						{
							"internalType": "string",
							"name": "",
							"type": "string"
						}
					],
					"stateMutability": "view",
					"type": "function"
				},
				{
					"inputs": [
						{
							"internalType": "string",
							"name": "_tweet",
							"type": "string"
						}
					],
					"name": "createTweet",
					"outputs": [],
					"stateMutability": "nonpayable",
					"type": "function"
				},
				{
					"inputs": [
						{
							"internalType": "uint256",
							"name": "_index",
							"type": "uint256"
						}
					],
					"name": "getAction",
					"outputs": [
						{
							"internalType": "string",
							"name": "",
							"type": "string"
						}
					],
					"stateMutability": "view",
					"type": "function"
				},
				{
					"inputs": [],
					"name": "getActionsLength",
					"outputs": [
						{
							"internalType": "uint256",
							"name": "",
							"type": "uint256"
						}
					],
					"stateMutability": "view",
					"type": "function"
				},
				{
					"inputs": [
						{
							"internalType": "address",
							"name": "_owner",
							"type": "address"
						}
					],
					"name": "getAllOwnerTweets",
					"outputs": [
						{
							"components": [
								{
									"internalType": "uint256",
									"name": "id",
									"type": "uint256"
								},
								{
									"internalType": "address",
									"name": "author",
									"type": "address"
								},
								{
									"internalType": "string",
									"name": "content",
									"type": "string"
								},
								{
									"internalType": "uint256",
									"name": "timestamp",
									"type": "uint256"
								},
								{
									"internalType": "uint256",
									"name": "likes",
									"type": "uint256"
								}
							],
							"internalType": "struct Twitter.Tweet[]",
							"name": "",
							"type": "tuple[]"
						}
					],
					"stateMutability": "view",
					"type": "function"
				},
				{
					"inputs": [
						{
							"internalType": "address",
							"name": "_owner",
							"type": "address"
						},
						{
							"internalType": "uint256",
							"name": "_index",
							"type": "uint256"
						}
					],
					"name": "getTweet",
					"outputs": [
						{
							"internalType": "string",
							"name": "",
							"type": "string"
						}
					],
					"stateMutability": "view",
					"type": "function"
				},
				{
					"inputs": [
						{
							"internalType": "address",
							"name": "_author",
							"type": "address"
						},
						{
							"internalType": "uint256",
							"name": "tweetIndex",
							"type": "uint256"
						}
					],
					"name": "getTweetLikes",
					"outputs": [
						{
							"internalType": "uint256",
							"name": "",
							"type": "uint256"
						}
					],
					"stateMutability": "view",
					"type": "function"
				},
				{
					"inputs": [
						{
							"internalType": "address",
							"name": "_author",
							"type": "address"
						},
						{
							"internalType": "uint256",
							"name": "tweetIndex",
							"type": "uint256"
						}
					],
					"name": "likeTweet",
					"outputs": [],
					"stateMutability": "nonpayable",
					"type": "function"
				},
				{
					"inputs": [
						{
							"internalType": "address",
							"name": "",
							"type": "address"
						},
						{
							"internalType": "uint256",
							"name": "",
							"type": "uint256"
						}
					],
					"name": "tweets",
					"outputs": [
						{
							"internalType": "uint256",
							"name": "id",
							"type": "uint256"
						},
						{
							"internalType": "address",
							"name": "author",
							"type": "address"
						},
						{
							"internalType": "string",
							"name": "content",
							"type": "string"
						},
						{
							"internalType": "uint256",
							"name": "timestamp",
							"type": "uint256"
						},
						{
							"internalType": "uint256",
							"name": "likes",
							"type": "uint256"
						}
					],
					"stateMutability": "view",
					"type": "function"
				},
				{
					"inputs": [
						{
							"internalType": "address",
							"name": "_author",
							"type": "address"
						},
						{
							"internalType": "uint256",
							"name": "tweetIndex",
							"type": "uint256"
						}
					],
					"name": "unLikeTweet",
					"outputs": [],
					"stateMutability": "nonpayable",
					"type": "function"
				},
				{
					"inputs": [
						{
							"internalType": "string",
							"name": "_action",
							"type": "string"
						}
					],
					"name": "updateUserActionsOptions",
					"outputs": [],
					"stateMutability": "nonpayable",
					"type": "function"
				}
			],
			"devdoc": {
				"kind": "dev",
				"methods": {},
				"version": 1
			},
			"evm": {
				"assembly": "    /* \"Solidity/Twitter.sol\":57:2973  contract Twitter {... */\n  mstore(0x40, 0x80)\n    /* \"Solidity/Twitter.sol\":366:420  string[] public actions = [\"like\", \"reply\", \"reshare\"] */\n  mload(0x40)\n  dup1\n  0x60\n  add\n  0x40\n  mstore\n  dup1\n  mload(0x40)\n  dup1\n  0x40\n  add\n  0x40\n  mstore\n  dup1\n  0x04\n  dup2\n  mstore\n  0x20\n  add\n  0x6c696b6500000000000000000000000000000000000000000000000000000000\n  dup2\n  mstore\n  pop\n  dup2\n  mstore\n  0x20\n  add\n  mload(0x40)\n  dup1\n  0x40\n  add\n  0x40\n  mstore\n  dup1\n  0x05\n  dup2\n  mstore\n  0x20\n  add\n  0x7265706c79000000000000000000000000000000000000000000000000000000\n  dup2\n  mstore\n  pop\n  dup2\n  mstore\n  0x20\n  add\n  mload(0x40)\n  dup1\n  0x40\n  add\n  0x40\n  mstore\n  dup1\n  0x07\n  dup2\n  mstore\n  0x20\n  add\n  0x7265736861726500000000000000000000000000000000000000000000000000\n  dup2\n  mstore\n  pop\n  dup2\n  mstore\n  pop\n  0x01\n  swap1\n  0x03\n  tag_1\n  swap3\n  swap2\n  swap1\n  tag_2\n  jump\t// in\ntag_1:\n  pop\n    /* \"Solidity/Twitter.sol\":57:2973  contract Twitter {... */\n  callvalue\n  dup1\n  iszero\n  tag_3\n  jumpi\n  revert(0x00, 0x00)\ntag_3:\n  pop\n  jump(tag_4)\ntag_2:\n  dup3\n  dup1\n  sload\n  dup3\n  dup3\n  sstore\n  swap1\n  0x00\n  mstore\n  keccak256(0x00, 0x20)\n  swap1\n  dup2\n  add\n  swap3\n  dup3\n  iszero\n  tag_5\n  jumpi\n  swap2\n  0x20\n  mul\n  dup3\n  add\ntag_6:\n  dup3\n  dup2\n  gt\n  iszero\n  tag_7\n  jumpi\n  dup3\n  mload\n  dup3\n  swap1\n  dup2\n  tag_8\n  swap2\n  swap1\n  tag_9\n  jump\t// in\ntag_8:\n  pop\n  swap2\n  0x20\n  add\n  swap2\n  swap1\n  0x01\n  add\n  swap1\n  jump(tag_6)\ntag_7:\ntag_5:\n  pop\n  swap1\n  pop\n  tag_10\n  swap2\n  swap1\n  tag_11\n  jump\t// in\ntag_10:\n  pop\n  swap1\n  jump\t// out\ntag_11:\ntag_12:\n  dup1\n  dup3\n  gt\n  iszero\n  tag_13\n  jumpi\n  0x00\n  dup2\n  dup2\n  tag_14\n  swap2\n  swap1\n  tag_15\n  jump\t// in\ntag_14:\n  pop\n  0x01\n  add\n  jump(tag_12)\ntag_13:\n  pop\n  swap1\n  jump\t// out\ntag_15:\n  pop\n  dup1\n  sload\n  tag_16\n  swap1\n  tag_17\n  jump\t// in\ntag_16:\n  0x00\n  dup3\n  sstore\n  dup1\n  0x1f\n  lt\n  tag_19\n  jumpi\n  pop\n  jump(tag_18)\ntag_19:\n  0x1f\n  add\n  0x20\n  swap1\n  div\n  swap1\n  0x00\n  mstore\n  keccak256(0x00, 0x20)\n  swap1\n  dup2\n  add\n  swap1\n  tag_20\n  swap2\n  swap1\n  tag_21\n  jump\t// in\ntag_20:\ntag_18:\n  pop\n  jump\t// out\ntag_21:\ntag_22:\n  dup1\n  dup3\n  gt\n  iszero\n  tag_23\n  jumpi\n  0x00\n  dup2\n  0x00\n  swap1\n  sstore\n  pop\n  0x01\n  add\n  jump(tag_22)\ntag_23:\n  pop\n  swap1\n  jump\t// out\n    /* \"#utility.yul\":7:106   */\ntag_24:\n    /* \"#utility.yul\":59:65   */\n  0x00\n    /* \"#utility.yul\":93:98   */\n  dup2\n    /* \"#utility.yul\":87:99   */\n  mload\n    /* \"#utility.yul\":77:99   */\n  swap1\n  pop\n    /* \"#utility.yul\":7:106   */\n  swap2\n  swap1\n  pop\n  jump\t// out\n    /* \"#utility.yul\":112:292   */\ntag_25:\n    /* \"#utility.yul\":160:237   */\n  0x4e487b7100000000000000000000000000000000000000000000000000000000\n    /* \"#utility.yul\":157:158   */\n  0x00\n    /* \"#utility.yul\":150:238   */\n  mstore\n    /* \"#utility.yul\":257:261   */\n  0x41\n    /* \"#utility.yul\":254:255   */\n  0x04\n    /* \"#utility.yul\":247:262   */\n  mstore\n    /* \"#utility.yul\":281:285   */\n  0x24\n    /* \"#utility.yul\":278:279   */\n  0x00\n    /* \"#utility.yul\":271:286   */\n  revert\n    /* \"#utility.yul\":298:478   */\ntag_26:\n    /* \"#utility.yul\":346:423   */\n  0x4e487b7100000000000000000000000000000000000000000000000000000000\n    /* \"#utility.yul\":343:344   */\n  0x00\n    /* \"#utility.yul\":336:424   */\n  mstore\n    /* \"#utility.yul\":443:447   */\n  0x22\n    /* \"#utility.yul\":440:441   */\n  0x04\n    /* \"#utility.yul\":433:448   */\n  mstore\n    /* \"#utility.yul\":467:471   */\n  0x24\n    /* \"#utility.yul\":464:465   */\n  0x00\n    /* \"#utility.yul\":457:472   */\n  revert\n    /* \"#utility.yul\":484:804   */\ntag_17:\n    /* \"#utility.yul\":528:534   */\n  0x00\n    /* \"#utility.yul\":565:566   */\n  0x02\n    /* \"#utility.yul\":559:563   */\n  dup3\n    /* \"#utility.yul\":555:567   */\n  div\n    /* \"#utility.yul\":545:567   */\n  swap1\n  pop\n    /* \"#utility.yul\":612:613   */\n  0x01\n    /* \"#utility.yul\":606:610   */\n  dup3\n    /* \"#utility.yul\":602:614   */\n  and\n    /* \"#utility.yul\":633:651   */\n  dup1\n    /* \"#utility.yul\":623:704   */\n  tag_48\n  jumpi\n    /* \"#utility.yul\":689:693   */\n  0x7f\n    /* \"#utility.yul\":681:687   */\n  dup3\n    /* \"#utility.yul\":677:694   */\n  and\n    /* \"#utility.yul\":667:694   */\n  swap2\n  pop\n    /* \"#utility.yul\":623:704   */\ntag_48:\n    /* \"#utility.yul\":751:753   */\n  0x20\n    /* \"#utility.yul\":743:749   */\n  dup3\n    /* \"#utility.yul\":740:754   */\n  lt\n    /* \"#utility.yul\":720:738   */\n  dup2\n    /* \"#utility.yul\":717:755   */\n  sub\n    /* \"#utility.yul\":714:798   */\n  tag_49\n  jumpi\n    /* \"#utility.yul\":770:788   */\n  tag_50\n  tag_26\n  jump\t// in\ntag_50:\n    /* \"#utility.yul\":714:798   */\ntag_49:\n    /* \"#utility.yul\":535:804   */\n  pop\n    /* \"#utility.yul\":484:804   */\n  swap2\n  swap1\n  pop\n  jump\t// out\n    /* \"#utility.yul\":810:951   */\ntag_27:\n    /* \"#utility.yul\":859:863   */\n  0x00\n    /* \"#utility.yul\":882:885   */\n  dup2\n    /* \"#utility.yul\":874:885   */\n  swap1\n  pop\n    /* \"#utility.yul\":905:908   */\n  dup2\n    /* \"#utility.yul\":902:903   */\n  0x00\n    /* \"#utility.yul\":895:909   */\n  mstore\n    /* \"#utility.yul\":939:943   */\n  0x20\n    /* \"#utility.yul\":936:937   */\n  0x00\n    /* \"#utility.yul\":926:944   */\n  keccak256\n    /* \"#utility.yul\":918:944   */\n  swap1\n  pop\n    /* \"#utility.yul\":810:951   */\n  swap2\n  swap1\n  pop\n  jump\t// out\n    /* \"#utility.yul\":957:1050   */\ntag_28:\n    /* \"#utility.yul\":994:1000   */\n  0x00\n    /* \"#utility.yul\":1041:1043   */\n  0x20\n    /* \"#utility.yul\":1036:1038   */\n  0x1f\n    /* \"#utility.yul\":1029:1034   */\n  dup4\n    /* \"#utility.yul\":1025:1039   */\n  add\n    /* \"#utility.yul\":1021:1044   */\n  div\n    /* \"#utility.yul\":1011:1044   */\n  swap1\n  pop\n    /* \"#utility.yul\":957:1050   */\n  swap2\n  swap1\n  pop\n  jump\t// out\n    /* \"#utility.yul\":1056:1163   */\ntag_29:\n    /* \"#utility.yul\":1100:1108   */\n  0x00\n    /* \"#utility.yul\":1150:1155   */\n  dup3\n    /* \"#utility.yul\":1144:1148   */\n  dup3\n    /* \"#utility.yul\":1140:1156   */\n  shl\n    /* \"#utility.yul\":1119:1156   */\n  swap1\n  pop\n    /* \"#utility.yul\":1056:1163   */\n  swap3\n  swap2\n  pop\n  pop\n  jump\t// out\n    /* \"#utility.yul\":1169:1562   */\ntag_30:\n    /* \"#utility.yul\":1238:1244   */\n  0x00\n    /* \"#utility.yul\":1288:1289   */\n  0x08\n    /* \"#utility.yul\":1276:1286   */\n  dup4\n    /* \"#utility.yul\":1272:1290   */\n  mul\n    /* \"#utility.yul\":1311:1408   */\n  tag_55\n    /* \"#utility.yul\":1341:1407   */\n  0xffffffffffffffffffffffffffffffffffffffffffffffffffffffffffffffff\n    /* \"#utility.yul\":1330:1339   */\n  dup3\n    /* \"#utility.yul\":1311:1408   */\n  tag_29\n  jump\t// in\ntag_55:\n    /* \"#utility.yul\":1429:1468   */\n  tag_56\n    /* \"#utility.yul\":1459:1467   */\n  dup7\n    /* \"#utility.yul\":1448:1457   */\n  dup4\n    /* \"#utility.yul\":1429:1468   */\n  tag_29\n  jump\t// in\ntag_56:\n    /* \"#utility.yul\":1417:1468   */\n  swap6\n  pop\n    /* \"#utility.yul\":1501:1505   */\n  dup1\n    /* \"#utility.yul\":1497:1506   */\n  not\n    /* \"#utility.yul\":1490:1495   */\n  dup5\n    /* \"#utility.yul\":1486:1507   */\n  and\n    /* \"#utility.yul\":1477:1507   */\n  swap4\n  pop\n    /* \"#utility.yul\":1550:1554   */\n  dup1\n    /* \"#utility.yul\":1540:1548   */\n  dup7\n    /* \"#utility.yul\":1536:1555   */\n  and\n    /* \"#utility.yul\":1529:1534   */\n  dup5\n    /* \"#utility.yul\":1526:1556   */\n  or\n    /* \"#utility.yul\":1516:1556   */\n  swap3\n  pop\n    /* \"#utility.yul\":1245:1562   */\n  pop\n  pop\n    /* \"#utility.yul\":1169:1562   */\n  swap4\n  swap3\n  pop\n  pop\n  pop\n  jump\t// out\n    /* \"#utility.yul\":1568:1645   */\ntag_31:\n    /* \"#utility.yul\":1605:1612   */\n  0x00\n    /* \"#utility.yul\":1634:1639   */\n  dup2\n    /* \"#utility.yul\":1623:1639   */\n  swap1\n  pop\n    /* \"#utility.yul\":1568:1645   */\n  swap2\n  swap1\n  pop\n  jump\t// out\n    /* \"#utility.yul\":1651:1711   */\ntag_32:\n    /* \"#utility.yul\":1679:1682   */\n  0x00\n    /* \"#utility.yul\":1700:1705   */\n  dup2\n    /* \"#utility.yul\":1693:1705   */\n  swap1\n  pop\n    /* \"#utility.yul\":1651:1711   */\n  swap2\n  swap1\n  pop\n  jump\t// out\n    /* \"#utility.yul\":1717:1859   */\ntag_33:\n    /* \"#utility.yul\":1767:1776   */\n  0x00\n    /* \"#utility.yul\":1800:1853   */\n  tag_60\n    /* \"#utility.yul\":1818:1852   */\n  tag_61\n    /* \"#utility.yul\":1827:1851   */\n  tag_62\n    /* \"#utility.yul\":1845:1850   */\n  dup5\n    /* \"#utility.yul\":1827:1851   */\n  tag_31\n  jump\t// in\ntag_62:\n    /* \"#utility.yul\":1818:1852   */\n  tag_32\n  jump\t// in\ntag_61:\n    /* \"#utility.yul\":1800:1853   */\n  tag_31\n  jump\t// in\ntag_60:\n    /* \"#utility.yul\":1787:1853   */\n  swap1\n  pop\n    /* \"#utility.yul\":1717:1859   */\n  swap2\n  swap1\n  pop\n  jump\t// out\n    /* \"#utility.yul\":1865:1940   */\ntag_34:\n    /* \"#utility.yul\":1908:1911   */\n  0x00\n    /* \"#utility.yul\":1929:1934   */\n  dup2\n    /* \"#utility.yul\":1922:1934   */\n  swap1\n  pop\n    /* \"#utility.yul\":1865:1940   */\n  swap2\n  swap1\n  pop\n  jump\t// out\n    /* \"#utility.yul\":1946:2215   */\ntag_35:\n    /* \"#utility.yul\":2056:2095   */\n  tag_65\n    /* \"#utility.yul\":2087:2094   */\n  dup4\n    /* \"#utility.yul\":2056:2095   */\n  tag_33\n  jump\t// in\ntag_65:\n    /* \"#utility.yul\":2117:2208   */\n  tag_66\n    /* \"#utility.yul\":2166:2207   */\n  tag_67\n    /* \"#utility.yul\":2190:2206   */\n  dup3\n    /* \"#utility.yul\":2166:2207   */\n  tag_34\n  jump\t// in\ntag_67:\n    /* \"#utility.yul\":2158:2164   */\n  dup5\n    /* \"#utility.yul\":2151:2155   */\n  dup5\n    /* \"#utility.yul\":2145:2156   */\n  sload\n    /* \"#utility.yul\":2117:2208   */\n  tag_30\n  jump\t// in\ntag_66:\n    /* \"#utility.yul\":2111:2115   */\n  dup3\n    /* \"#utility.yul\":2104:2209   */\n  sstore\n    /* \"#utility.yul\":2022:2215   */\n  pop\n    /* \"#utility.yul\":1946:2215   */\n  pop\n  pop\n  pop\n  jump\t// out\n    /* \"#utility.yul\":2221:2294   */\ntag_36:\n    /* \"#utility.yul\":2266:2269   */\n  0x00\n    /* \"#utility.yul\":2287:2288   */\n  0x00\n    /* \"#utility.yul\":2280:2288   */\n  swap1\n  pop\n    /* \"#utility.yul\":2221:2294   */\n  swap1\n  jump\t// out\n    /* \"#utility.yul\":2300:2489   */\ntag_37:\n    /* \"#utility.yul\":2377:2409   */\n  tag_70\n  tag_36\n  jump\t// in\ntag_70:\n    /* \"#utility.yul\":2418:2483   */\n  tag_71\n    /* \"#utility.yul\":2476:2482   */\n  dup2\n    /* \"#utility.yul\":2468:2474   */\n  dup5\n    /* \"#utility.yul\":2462:2466   */\n  dup5\n    /* \"#utility.yul\":2418:2483   */\n  tag_35\n  jump\t// in\ntag_71:\n    /* \"#utility.yul\":2353:2489   */\n  pop\n    /* \"#utility.yul\":2300:2489   */\n  pop\n  pop\n  jump\t// out\n    /* \"#utility.yul\":2495:2681   */\ntag_38:\n    /* \"#utility.yul\":2555:2675   */\ntag_73:\n    /* \"#utility.yul\":2572:2575   */\n  dup2\n    /* \"#utility.yul\":2565:2570   */\n  dup2\n    /* \"#utility.yul\":2562:2576   */\n  lt\n    /* \"#utility.yul\":2555:2675   */\n  iszero\n  tag_75\n  jumpi\n    /* \"#utility.yul\":2626:2665   */\n  tag_76\n    /* \"#utility.yul\":2663:2664   */\n  0x00\n    /* \"#utility.yul\":2656:2661   */\n  dup3\n    /* \"#utility.yul\":2626:2665   */\n  tag_37\n  jump\t// in\ntag_76:\n    /* \"#utility.yul\":2599:2600   */\n  0x01\n    /* \"#utility.yul\":2592:2597   */\n  dup2\n    /* \"#utility.yul\":2588:2601   */\n  add\n    /* \"#utility.yul\":2579:2601   */\n  swap1\n  pop\n    /* \"#utility.yul\":2555:2675   */\n  jump(tag_73)\ntag_75:\n    /* \"#utility.yul\":2495:2681   */\n  pop\n  pop\n  jump\t// out\n    /* \"#utility.yul\":2687:3230   */\ntag_39:\n    /* \"#utility.yul\":2788:2790   */\n  0x1f\n    /* \"#utility.yul\":2783:2786   */\n  dup3\n    /* \"#utility.yul\":2780:2791   */\n  gt\n    /* \"#utility.yul\":2777:3223   */\n  iszero\n  tag_78\n  jumpi\n    /* \"#utility.yul\":2822:2860   */\n  tag_79\n    /* \"#utility.yul\":2854:2859   */\n  dup2\n    /* \"#utility.yul\":2822:2860   */\n  tag_27\n  jump\t// in\ntag_79:\n    /* \"#utility.yul\":2906:2935   */\n  tag_80\n    /* \"#utility.yul\":2924:2934   */\n  dup5\n    /* \"#utility.yul\":2906:2935   */\n  tag_28\n  jump\t// in\ntag_80:\n    /* \"#utility.yul\":2896:2904   */\n  dup2\n    /* \"#utility.yul\":2892:2936   */\n  add\n    /* \"#utility.yul\":3089:3091   */\n  0x20\n    /* \"#utility.yul\":3077:3087   */\n  dup6\n    /* \"#utility.yul\":3074:3092   */\n  lt\n    /* \"#utility.yul\":3071:3120   */\n  iszero\n  tag_81\n  jumpi\n    /* \"#utility.yul\":3110:3118   */\n  dup2\n    /* \"#utility.yul\":3095:3118   */\n  swap1\n  pop\n    /* \"#utility.yul\":3071:3120   */\ntag_81:\n    /* \"#utility.yul\":3133:3213   */\n  tag_82\n    /* \"#utility.yul\":3189:3211   */\n  tag_83\n    /* \"#utility.yul\":3207:3210   */\n  dup6\n    /* \"#utility.yul\":3189:3211   */\n  tag_28\n  jump\t// in\ntag_83:\n    /* \"#utility.yul\":3179:3187   */\n  dup4\n    /* \"#utility.yul\":3175:3212   */\n  add\n    /* \"#utility.yul\":3162:3173   */\n  dup3\n    /* \"#utility.yul\":3133:3213   */\n  tag_38\n  jump\t// in\ntag_82:\n    /* \"#utility.yul\":2792:3223   */\n  pop\n  pop\n    /* \"#utility.yul\":2777:3223   */\ntag_78:\n    /* \"#utility.yul\":2687:3230   */\n  pop\n  pop\n  pop\n  jump\t// out\n    /* \"#utility.yul\":3236:3353   */\ntag_40:\n    /* \"#utility.yul\":3290:3298   */\n  0x00\n    /* \"#utility.yul\":3340:3345   */\n  dup3\n    /* \"#utility.yul\":3334:3338   */\n  dup3\n    /* \"#utility.yul\":3330:3346   */\n  shr\n    /* \"#utility.yul\":3309:3346   */\n  swap1\n  pop\n    /* \"#utility.yul\":3236:3353   */\n  swap3\n  swap2\n  pop\n  pop\n  jump\t// out\n    /* \"#utility.yul\":3359:3528   */\ntag_41:\n    /* \"#utility.yul\":3403:3409   */\n  0x00\n    /* \"#utility.yul\":3436:3487   */\n  tag_86\n    /* \"#utility.yul\":3484:3485   */\n  0x00\n    /* \"#utility.yul\":3480:3486   */\n  not\n    /* \"#utility.yul\":3472:3477   */\n  dup5\n    /* \"#utility.yul\":3469:3470   */\n  0x08\n    /* \"#utility.yul\":3465:3478   */\n  mul\n    /* \"#utility.yul\":3436:3487   */\n  tag_40\n  jump\t// in\ntag_86:\n    /* \"#utility.yul\":3432:3488   */\n  not\n    /* \"#utility.yul\":3517:3521   */\n  dup1\n    /* \"#utility.yul\":3511:3515   */\n  dup4\n    /* \"#utility.yul\":3507:3522   */\n  and\n    /* \"#utility.yul\":3497:3522   */\n  swap2\n  pop\n    /* \"#utility.yul\":3410:3528   */\n  pop\n    /* \"#utility.yul\":3359:3528   */\n  swap3\n  swap2\n  pop\n  pop\n  jump\t// out\n    /* \"#utility.yul\":3533:3828   */\ntag_42:\n    /* \"#utility.yul\":3609:3613   */\n  0x00\n    /* \"#utility.yul\":3755:3784   */\n  tag_88\n    /* \"#utility.yul\":3780:3783   */\n  dup4\n    /* \"#utility.yul\":3774:3778   */\n  dup4\n    /* \"#utility.yul\":3755:3784   */\n  tag_41\n  jump\t// in\ntag_88:\n    /* \"#utility.yul\":3747:3784   */\n  swap2\n  pop\n    /* \"#utility.yul\":3817:3820   */\n  dup3\n    /* \"#utility.yul\":3814:3815   */\n  0x02\n    /* \"#utility.yul\":3810:3821   */\n  mul\n    /* \"#utility.yul\":3804:3808   */\n  dup3\n    /* \"#utility.yul\":3801:3822   */\n  or\n    /* \"#utility.yul\":3793:3822   */\n  swap1\n  pop\n    /* \"#utility.yul\":3533:3828   */\n  swap3\n  swap2\n  pop\n  pop\n  jump\t// out\n    /* \"#utility.yul\":3833:5228   */\ntag_9:\n    /* \"#utility.yul\":3950:3987   */\n  tag_90\n    /* \"#utility.yul\":3983:3986   */\n  dup3\n    /* \"#utility.yul\":3950:3987   */\n  tag_24\n  jump\t// in\ntag_90:\n    /* \"#utility.yul\":4052:4070   */\n  0xffffffffffffffff\n    /* \"#utility.yul\":4044:4050   */\n  dup2\n    /* \"#utility.yul\":4041:4071   */\n  gt\n    /* \"#utility.yul\":4038:4094   */\n  iszero\n  tag_91\n  jumpi\n    /* \"#utility.yul\":4074:4092   */\n  tag_92\n  tag_25\n  jump\t// in\ntag_92:\n    /* \"#utility.yul\":4038:4094   */\ntag_91:\n    /* \"#utility.yul\":4118:4156   */\n  tag_93\n    /* \"#utility.yul\":4150:4154   */\n  dup3\n    /* \"#utility.yul\":4144:4155   */\n  sload\n    /* \"#utility.yul\":4118:4156   */\n  tag_17\n  jump\t// in\ntag_93:\n    /* \"#utility.yul\":4203:4270   */\n  tag_94\n    /* \"#utility.yul\":4263:4269   */\n  dup3\n    /* \"#utility.yul\":4255:4261   */\n  dup3\n    /* \"#utility.yul\":4249:4253   */\n  dup6\n    /* \"#utility.yul\":4203:4270   */\n  tag_39\n  jump\t// in\ntag_94:\n    /* \"#utility.yul\":4297:4298   */\n  0x00\n    /* \"#utility.yul\":4321:4325   */\n  0x20\n    /* \"#utility.yul\":4308:4325   */\n  swap1\n  pop\n    /* \"#utility.yul\":4353:4355   */\n  0x1f\n    /* \"#utility.yul\":4345:4351   */\n  dup4\n    /* \"#utility.yul\":4342:4356   */\n  gt\n    /* \"#utility.yul\":4370:4371   */\n  0x01\n    /* \"#utility.yul\":4365:4983   */\n  dup2\n  eq\n  tag_96\n  jumpi\n    /* \"#utility.yul\":5027:5028   */\n  0x00\n    /* \"#utility.yul\":5044:5050   */\n  dup5\n    /* \"#utility.yul\":5041:5118   */\n  iszero\n  tag_97\n  jumpi\n    /* \"#utility.yul\":5093:5102   */\n  dup3\n    /* \"#utility.yul\":5088:5091   */\n  dup8\n    /* \"#utility.yul\":5084:5103   */\n  add\n    /* \"#utility.yul\":5078:5104   */\n  mload\n    /* \"#utility.yul\":5069:5104   */\n  swap1\n  pop\n    /* \"#utility.yul\":5041:5118   */\ntag_97:\n    /* \"#utility.yul\":5144:5211   */\n  tag_98\n    /* \"#utility.yul\":5204:5210   */\n  dup6\n    /* \"#utility.yul\":5197:5202   */\n  dup3\n    /* \"#utility.yul\":5144:5211   */\n  tag_42\n  jump\t// in\ntag_98:\n    /* \"#utility.yul\":5138:5142   */\n  dup7\n    /* \"#utility.yul\":5131:5212   */\n  sstore\n    /* \"#utility.yul\":5000:5222   */\n  pop\n    /* \"#utility.yul\":4335:5222   */\n  jump(tag_95)\n    /* \"#utility.yul\":4365:4983   */\ntag_96:\n    /* \"#utility.yul\":4417:4421   */\n  0x1f\n    /* \"#utility.yul\":4413:4422   */\n  not\n    /* \"#utility.yul\":4405:4411   */\n  dup5\n    /* \"#utility.yul\":4401:4423   */\n  and\n    /* \"#utility.yul\":4451:4488   */\n  tag_99\n    /* \"#utility.yul\":4483:4487   */\n  dup7\n    /* \"#utility.yul\":4451:4488   */\n  tag_27\n  jump\t// in\ntag_99:\n    /* \"#utility.yul\":4510:4511   */\n  0x00\n    /* \"#utility.yul\":4524:4732   */\ntag_100:\n    /* \"#utility.yul\":4538:4545   */\n  dup3\n    /* \"#utility.yul\":4535:4536   */\n  dup2\n    /* \"#utility.yul\":4532:4546   */\n  lt\n    /* \"#utility.yul\":4524:4732   */\n  iszero\n  tag_102\n  jumpi\n    /* \"#utility.yul\":4617:4626   */\n  dup5\n    /* \"#utility.yul\":4612:4615   */\n  dup10\n    /* \"#utility.yul\":4608:4627   */\n  add\n    /* \"#utility.yul\":4602:4628   */\n  mload\n    /* \"#utility.yul\":4594:4600   */\n  dup3\n    /* \"#utility.yul\":4587:4629   */\n  sstore\n    /* \"#utility.yul\":4668:4669   */\n  0x01\n    /* \"#utility.yul\":4660:4666   */\n  dup3\n    /* \"#utility.yul\":4656:4670   */\n  add\n    /* \"#utility.yul\":4646:4670   */\n  swap2\n  pop\n    /* \"#utility.yul\":4715:4717   */\n  0x20\n    /* \"#utility.yul\":4704:4713   */\n  dup6\n    /* \"#utility.yul\":4700:4718   */\n  add\n    /* \"#utility.yul\":4687:4718   */\n  swap5\n  pop\n    /* \"#utility.yul\":4561:4565   */\n  0x20\n    /* \"#utility.yul\":4558:4559   */\n  dup2\n    /* \"#utility.yul\":4554:4566   */\n  add\n    /* \"#utility.yul\":4549:4566   */\n  swap1\n  pop\n    /* \"#utility.yul\":4524:4732   */\n  jump(tag_100)\ntag_102:\n    /* \"#utility.yul\":4760:4766   */\n  dup7\n    /* \"#utility.yul\":4751:4758   */\n  dup4\n    /* \"#utility.yul\":4748:4767   */\n  lt\n    /* \"#utility.yul\":4745:4924   */\n  iszero\n  tag_103\n  jumpi\n    /* \"#utility.yul\":4818:4827   */\n  dup5\n    /* \"#utility.yul\":4813:4816   */\n  dup10\n    /* \"#utility.yul\":4809:4828   */\n  add\n    /* \"#utility.yul\":4803:4829   */\n  mload\n    /* \"#utility.yul\":4861:4909   */\n  tag_104\n    /* \"#utility.yul\":4903:4907   */\n  0x1f\n    /* \"#utility.yul\":4895:4901   */\n  dup10\n    /* \"#utility.yul\":4891:4908   */\n  and\n    /* \"#utility.yul\":4880:4889   */\n  dup3\n    /* \"#utility.yul\":4861:4909   */\n  tag_41\n  jump\t// in\ntag_104:\n    /* \"#utility.yul\":4853:4859   */\n  dup4\n    /* \"#utility.yul\":4846:4910   */\n  sstore\n    /* \"#utility.yul\":4768:4924   */\n  pop\n    /* \"#utility.yul\":4745:4924   */\ntag_103:\n    /* \"#utility.yul\":4970:4971   */\n  0x01\n    /* \"#utility.yul\":4966:4967   */\n  0x02\n    /* \"#utility.yul\":4958:4964   */\n  dup9\n    /* \"#utility.yul\":4954:4968   */\n  mul\n    /* \"#utility.yul\":4950:4972   */\n  add\n    /* \"#utility.yul\":4944:4948   */\n  dup9\n    /* \"#utility.yul\":4937:4973   */\n  sstore\n    /* \"#utility.yul\":4372:4983   */\n  pop\n  pop\n  pop\n    /* \"#utility.yul\":4335:5222   */\ntag_95:\n  pop\n    /* \"#utility.yul\":3925:5228   */\n  pop\n  pop\n  pop\n    /* \"#utility.yul\":3833:5228   */\n  pop\n  pop\n  jump\t// out\n    /* \"Solidity/Twitter.sol\":57:2973  contract Twitter {... */\ntag_4:\n  dataSize(sub_0)\n  dup1\n  dataOffset(sub_0)\n  0x00\n  codecopy\n  0x00\n  return\nstop\n\nsub_0: assembly {\n        /* \"Solidity/Twitter.sol\":57:2973  contract Twitter {... */\n      mstore(0x40, 0x80)\n      callvalue\n      dup1\n      iszero\n      tag_1\n      jumpi\n      revert(0x00, 0x00)\n    tag_1:\n      pop\n      jumpi(tag_2, lt(calldatasize, 0x04))\n      shr(0xe0, calldataload(0x00))\n      dup1\n      0x80eb3587\n      gt\n      tag_14\n      jumpi\n      dup1\n      0x80eb3587\n      eq\n      tag_8\n      jumpi\n      dup1\n      0x83240f83\n      eq\n      tag_9\n      jumpi\n      dup1\n      0x9ef8633f\n      eq\n      tag_10\n      jumpi\n      dup1\n      0xb6e76873\n      eq\n      tag_11\n      jumpi\n      dup1\n      0xe78c65aa\n      eq\n      tag_12\n      jumpi\n      dup1\n      0xff5c520d\n      eq\n      tag_13\n      jumpi\n      jump(tag_2)\n    tag_14:\n      dup1\n      0x05a1b4a9\n      eq\n      tag_3\n      jumpi\n      dup1\n      0x112f54e3\n      eq\n      tag_4\n      jumpi\n      dup1\n      0x63378216\n      eq\n      tag_5\n      jumpi\n      dup1\n      0x78977bf4\n      eq\n      tag_6\n      jumpi\n      dup1\n      0x7c9cd2bc\n      eq\n      tag_7\n      jumpi\n    tag_2:\n      revert(0x00, 0x00)\n        /* \"Solidity/Twitter.sol\":317:359  mapping (address => Tweet[]) public tweets */\n    tag_3:\n      tag_15\n      0x04\n      dup1\n      calldatasize\n      sub\n      dup2\n      add\n      swap1\n      tag_16\n      swap2\n      swap1\n      tag_17\n      jump\t// in\n    tag_16:\n      tag_18\n      jump\t// in\n    tag_15:\n      mload(0x40)\n      tag_19\n      swap6\n      swap5\n      swap4\n      swap3\n      swap2\n      swap1\n      tag_20\n      jump\t// in\n    tag_19:\n      mload(0x40)\n      dup1\n      swap2\n      sub\n      swap1\n      return\n        /* \"Solidity/Twitter.sol\":1313:1450  function getTweet(address _owner, uint _index) public view returns (string memory) {... */\n    tag_4:\n      tag_21\n      0x04\n      dup1\n      calldatasize\n      sub\n      dup2\n      add\n      swap1\n      tag_22\n      swap2\n      swap1\n      tag_17\n      jump\t// in\n    tag_22:\n      tag_23\n      jump\t// in\n    tag_21:\n      mload(0x40)\n      tag_24\n      swap2\n      swap1\n      tag_25\n      jump\t// in\n    tag_24:\n      mload(0x40)\n      dup1\n      swap2\n      sub\n      swap1\n      return\n        /* \"Solidity/Twitter.sol\":1655:1983  function likeTweet(address _author, uint tweetIndex) external {... */\n    tag_5:\n      tag_26\n      0x04\n      dup1\n      calldatasize\n      sub\n      dup2\n      add\n      swap1\n      tag_27\n      swap2\n      swap1\n      tag_17\n      jump\t// in\n    tag_27:\n      tag_28\n      jump\t// in\n    tag_26:\n      stop\n        /* \"Solidity/Twitter.sol\":2653:2755  function updateUserActionsOptions(string memory _action) public {... */\n    tag_6:\n      tag_29\n      0x04\n      dup1\n      calldatasize\n      sub\n      dup2\n      add\n      swap1\n      tag_30\n      swap2\n      swap1\n      tag_31\n      jump\t// in\n    tag_30:\n      tag_32\n      jump\t// in\n    tag_29:\n      stop\n        /* \"Solidity/Twitter.sol\":697:1307  function createTweet(string memory _tweet) public {... */\n    tag_7:\n      tag_33\n      0x04\n      dup1\n      calldatasize\n      sub\n      dup2\n      add\n      swap1\n      tag_34\n      swap2\n      swap1\n      tag_31\n      jump\t// in\n    tag_34:\n      tag_35\n      jump\t// in\n    tag_33:\n      stop\n        /* \"Solidity/Twitter.sol\":2416:2647  function getTweetLikes(address _author, uint tweetIndex) external view returns(uint) {... */\n    tag_8:\n      tag_36\n      0x04\n      dup1\n      calldatasize\n      sub\n      dup2\n      add\n      swap1\n      tag_37\n      swap2\n      swap1\n      tag_17\n      jump\t// in\n    tag_37:\n      tag_38\n      jump\t// in\n    tag_36:\n      mload(0x40)\n      tag_39\n      swap2\n      swap1\n      tag_40\n      jump\t// in\n    tag_39:\n      mload(0x40)\n      dup1\n      swap2\n      sub\n      swap1\n      return\n        /* \"Solidity/Twitter.sol\":366:420  string[] public actions = [\"like\", \"reply\", \"reshare\"] */\n    tag_9:\n      tag_41\n      0x04\n      dup1\n      calldatasize\n      sub\n      dup2\n      add\n      swap1\n      tag_42\n      swap2\n      swap1\n      tag_43\n      jump\t// in\n    tag_42:\n      tag_44\n      jump\t// in\n    tag_41:\n      mload(0x40)\n      tag_45\n      swap2\n      swap1\n      tag_25\n      jump\t// in\n    tag_45:\n      mload(0x40)\n      dup1\n      swap2\n      sub\n      swap1\n      return\n        /* \"Solidity/Twitter.sol\":1989:2410  function unLikeTweet(address _author, uint tweetIndex) external {... */\n    tag_10:\n      tag_46\n      0x04\n      dup1\n      calldatasize\n      sub\n      dup2\n      add\n      swap1\n      tag_47\n      swap2\n      swap1\n      tag_17\n      jump\t// in\n    tag_47:\n      tag_48\n      jump\t// in\n    tag_46:\n      stop\n        /* \"Solidity/Twitter.sol\":2864:2971  function getAction(uint _index) public view returns (string memory) {... */\n    tag_11:\n      tag_49\n      0x04\n      dup1\n      calldatasize\n      sub\n      dup2\n      add\n      swap1\n      tag_50\n      swap2\n      swap1\n      tag_43\n      jump\t// in\n    tag_50:\n      tag_51\n      jump\t// in\n    tag_49:\n      mload(0x40)\n      tag_52\n      swap2\n      swap1\n      tag_25\n      jump\t// in\n    tag_52:\n      mload(0x40)\n      dup1\n      swap2\n      sub\n      swap1\n      return\n        /* \"Solidity/Twitter.sol\":2765:2858  function getActionsLength() public view returns (uint) {... */\n    tag_12:\n      tag_53\n      tag_54\n      jump\t// in\n    tag_53:\n      mload(0x40)\n      tag_55\n      swap2\n      swap1\n      tag_40\n      jump\t// in\n    tag_55:\n      mload(0x40)\n      dup1\n      swap2\n      sub\n      swap1\n      return\n        /* \"Solidity/Twitter.sol\":1456:1649  function getAllOwnerTweets(address _owner) public view returns (Tweet[] memory) {... */\n    tag_13:\n      tag_56\n      0x04\n      dup1\n      calldatasize\n      sub\n      dup2\n      add\n      swap1\n      tag_57\n      swap2\n      swap1\n      tag_58\n      jump\t// in\n    tag_57:\n      tag_59\n      jump\t// in\n    tag_56:\n      mload(0x40)\n      tag_60\n      swap2\n      swap1\n      tag_61\n      jump\t// in\n    tag_60:\n      mload(0x40)\n      dup1\n      swap2\n      sub\n      swap1\n      return\n        /* \"Solidity/Twitter.sol\":317:359  mapping (address => Tweet[]) public tweets */\n    tag_18:\n      mstore(0x20, 0x00)\n      dup2\n      0x00\n      mstore\n      keccak256(0x00, 0x40)\n      dup2\n      dup2\n      sload\n      dup2\n      lt\n      tag_62\n      jumpi\n      0x00\n      dup1\n      revert\n    tag_62:\n      swap1\n      0x00\n      mstore\n      keccak256(0x00, 0x20)\n      swap1\n      0x05\n      mul\n      add\n      0x00\n      swap2\n      pop\n      swap2\n      pop\n      pop\n      dup1\n      0x00\n      add\n      sload\n      swap1\n      dup1\n      0x01\n      add\n      0x00\n      swap1\n      sload\n      swap1\n      0x0100\n      exp\n      swap1\n      div\n      0xffffffffffffffffffffffffffffffffffffffff\n      and\n      swap1\n      dup1\n      0x02\n      add\n      dup1\n      sload\n      tag_64\n      swap1\n      tag_65\n      jump\t// in\n    tag_64:\n      dup1\n      0x1f\n      add\n      0x20\n      dup1\n      swap2\n      div\n      mul\n      0x20\n      add\n      mload(0x40)\n      swap1\n      dup2\n      add\n      0x40\n      mstore\n      dup1\n      swap3\n      swap2\n      swap1\n      dup2\n      dup2\n      mstore\n      0x20\n      add\n      dup3\n      dup1\n      sload\n      tag_66\n      swap1\n      tag_65\n      jump\t// in\n    tag_66:\n      dup1\n      iszero\n      tag_67\n      jumpi\n      dup1\n      0x1f\n      lt\n      tag_68\n      jumpi\n      0x0100\n      dup1\n      dup4\n      sload\n      div\n      mul\n      dup4\n      mstore\n      swap2\n      0x20\n      add\n      swap2\n      jump(tag_67)\n    tag_68:\n      dup3\n      add\n      swap2\n      swap1\n      0x00\n      mstore\n      keccak256(0x00, 0x20)\n      swap1\n    tag_69:\n      dup2\n      sload\n      dup2\n      mstore\n      swap1\n      0x01\n      add\n      swap1\n      0x20\n      add\n      dup1\n      dup4\n      gt\n      tag_69\n      jumpi\n      dup3\n      swap1\n      sub\n      0x1f\n      and\n      dup3\n      add\n      swap2\n    tag_67:\n      pop\n      pop\n      pop\n      pop\n      pop\n      swap1\n      dup1\n      0x03\n      add\n      sload\n      swap1\n      dup1\n      0x04\n      add\n      sload\n      swap1\n      pop\n      dup6\n      jump\t// out\n        /* \"Solidity/Twitter.sol\":1313:1450  function getTweet(address _owner, uint _index) public view returns (string memory) {... */\n    tag_23:\n        /* \"Solidity/Twitter.sol\":1381:1394  string memory */\n      0x60\n        /* \"Solidity/Twitter.sol\":1413:1419  tweets */\n      0x00\n        /* \"Solidity/Twitter.sol\":1413:1427  tweets[_owner] */\n      0x00\n        /* \"Solidity/Twitter.sol\":1420:1426  _owner */\n      dup5\n        /* \"Solidity/Twitter.sol\":1413:1427  tweets[_owner] */\n      0xffffffffffffffffffffffffffffffffffffffff\n      and\n      0xffffffffffffffffffffffffffffffffffffffff\n      and\n      dup2\n      mstore\n      0x20\n      add\n      swap1\n      dup2\n      mstore\n      0x20\n      add\n      0x00\n      keccak256\n        /* \"Solidity/Twitter.sol\":1428:1434  _index */\n      dup3\n        /* \"Solidity/Twitter.sol\":1413:1435  tweets[_owner][_index] */\n      dup2\n      sload\n      dup2\n      lt\n      tag_71\n      jumpi\n      tag_72\n      tag_73\n      jump\t// in\n    tag_72:\n    tag_71:\n      swap1\n      0x00\n      mstore\n      keccak256(0x00, 0x20)\n      swap1\n      0x05\n      mul\n      add\n        /* \"Solidity/Twitter.sol\":1413:1443  tweets[_owner][_index].content */\n      0x02\n      add\n        /* \"Solidity/Twitter.sol\":1406:1443  return tweets[_owner][_index].content */\n      dup1\n      sload\n      tag_75\n      swap1\n      tag_65\n      jump\t// in\n    tag_75:\n      dup1\n      0x1f\n      add\n      0x20\n      dup1\n      swap2\n      div\n      mul\n      0x20\n      add\n      mload(0x40)\n      swap1\n      dup2\n      add\n      0x40\n      mstore\n      dup1\n      swap3\n      swap2\n      swap1\n      dup2\n      dup2\n      mstore\n      0x20\n      add\n      dup3\n      dup1\n      sload\n      tag_76\n      swap1\n      tag_65\n      jump\t// in\n    tag_76:\n      dup1\n      iszero\n      tag_77\n      jumpi\n      dup1\n      0x1f\n      lt\n      tag_78\n      jumpi\n      0x0100\n      dup1\n      dup4\n      sload\n      div\n      mul\n      dup4\n      mstore\n      swap2\n      0x20\n      add\n      swap2\n      jump(tag_77)\n    tag_78:\n      dup3\n      add\n      swap2\n      swap1\n      0x00\n      mstore\n      keccak256(0x00, 0x20)\n      swap1\n    tag_79:\n      dup2\n      sload\n      dup2\n      mstore\n      swap1\n      0x01\n      add\n      swap1\n      0x20\n      add\n      dup1\n      dup4\n      gt\n      tag_79\n      jumpi\n      dup3\n      swap1\n      sub\n      0x1f\n      and\n      dup3\n      add\n      swap2\n    tag_77:\n      pop\n      pop\n      pop\n      pop\n      pop\n      swap1\n      pop\n        /* \"Solidity/Twitter.sol\":1313:1450  function getTweet(address _owner, uint _index) public view returns (string memory) {... */\n      swap3\n      swap2\n      pop\n      pop\n      jump\t// out\n        /* \"Solidity/Twitter.sol\":1655:1983  function likeTweet(address _author, uint tweetIndex) external {... */\n    tag_28:\n        /* \"Solidity/Twitter.sol\":1773:1780  _author */\n      dup2\n        /* \"Solidity/Twitter.sol\":1735:1780  tweets[_author][tweetIndex].author == _author */\n      0xffffffffffffffffffffffffffffffffffffffff\n      and\n        /* \"Solidity/Twitter.sol\":1735:1741  tweets */\n      0x00\n        /* \"Solidity/Twitter.sol\":1735:1750  tweets[_author] */\n      0x00\n        /* \"Solidity/Twitter.sol\":1742:1749  _author */\n      dup5\n        /* \"Solidity/Twitter.sol\":1735:1750  tweets[_author] */\n      0xffffffffffffffffffffffffffffffffffffffff\n      and\n      0xffffffffffffffffffffffffffffffffffffffff\n      and\n      dup2\n      mstore\n      0x20\n      add\n      swap1\n      dup2\n      mstore\n      0x20\n      add\n      0x00\n      keccak256\n        /* \"Solidity/Twitter.sol\":1751:1761  tweetIndex */\n      dup3\n        /* \"Solidity/Twitter.sol\":1735:1762  tweets[_author][tweetIndex] */\n      dup2\n      sload\n      dup2\n      lt\n      tag_81\n      jumpi\n      tag_82\n      tag_73\n      jump\t// in\n    tag_82:\n    tag_81:\n      swap1\n      0x00\n      mstore\n      keccak256(0x00, 0x20)\n      swap1\n      0x05\n      mul\n      add\n        /* \"Solidity/Twitter.sol\":1735:1769  tweets[_author][tweetIndex].author */\n      0x01\n      add\n      0x00\n      swap1\n      sload\n      swap1\n      0x0100\n      exp\n      swap1\n      div\n      0xffffffffffffffffffffffffffffffffffffffff\n      and\n        /* \"Solidity/Twitter.sol\":1735:1780  tweets[_author][tweetIndex].author == _author */\n      0xffffffffffffffffffffffffffffffffffffffff\n      and\n      eq\n        /* \"Solidity/Twitter.sol\":1727:1805  require(tweets[_author][tweetIndex].author == _author, \"Tweet does not exist\") */\n      tag_84\n      jumpi\n      mload(0x40)\n      0x08c379a000000000000000000000000000000000000000000000000000000000\n      dup2\n      mstore\n      0x04\n      add\n      tag_85\n      swap1\n      tag_86\n      jump\t// in\n    tag_85:\n      mload(0x40)\n      dup1\n      swap2\n      sub\n      swap1\n      revert\n    tag_84:\n        /* \"Solidity/Twitter.sol\":1861:1862  1 */\n      0x01\n        /* \"Solidity/Twitter.sol\":1824:1830  tweets */\n      0x00\n        /* \"Solidity/Twitter.sol\":1824:1839  tweets[_author] */\n      0x00\n        /* \"Solidity/Twitter.sol\":1831:1838  _author */\n      dup5\n        /* \"Solidity/Twitter.sol\":1824:1839  tweets[_author] */\n      0xffffffffffffffffffffffffffffffffffffffff\n      and\n      0xffffffffffffffffffffffffffffffffffffffff\n      and\n      dup2\n      mstore\n      0x20\n      add\n      swap1\n      dup2\n      mstore\n      0x20\n      add\n      0x00\n      keccak256\n        /* \"Solidity/Twitter.sol\":1840:1850  tweetIndex */\n      dup3\n        /* \"Solidity/Twitter.sol\":1824:1851  tweets[_author][tweetIndex] */\n      dup2\n      sload\n      dup2\n      lt\n      tag_87\n      jumpi\n      tag_88\n      tag_73\n      jump\t// in\n    tag_88:\n    tag_87:\n      swap1\n      0x00\n      mstore\n      keccak256(0x00, 0x20)\n      swap1\n      0x05\n      mul\n      add\n        /* \"Solidity/Twitter.sol\":1824:1857  tweets[_author][tweetIndex].likes */\n      0x04\n      add\n      0x00\n        /* \"Solidity/Twitter.sol\":1824:1862  tweets[_author][tweetIndex].likes += 1 */\n      dup3\n      dup3\n      sload\n      tag_90\n      swap2\n      swap1\n      tag_91\n      jump\t// in\n    tag_90:\n      swap3\n      pop\n      pop\n      dup2\n      swap1\n      sstore\n      pop\n        /* \"Solidity/Twitter.sol\":1878:1976  TweetLiked(msg.sender, _author, tweets[_author][tweetIndex].id, tweets[_author][tweetIndex].likes) */\n      0xe8a76fc0f16d11a00d1e93b689b63d76cf60af914dd3d915375dc41d01a0c3c8\n        /* \"Solidity/Twitter.sol\":1889:1899  msg.sender */\n      caller\n        /* \"Solidity/Twitter.sol\":1901:1908  _author */\n      dup4\n        /* \"Solidity/Twitter.sol\":1910:1916  tweets */\n      0x00\n        /* \"Solidity/Twitter.sol\":1910:1925  tweets[_author] */\n      0x00\n        /* \"Solidity/Twitter.sol\":1917:1924  _author */\n      dup7\n        /* \"Solidity/Twitter.sol\":1910:1925  tweets[_author] */\n      0xffffffffffffffffffffffffffffffffffffffff\n      and\n      0xffffffffffffffffffffffffffffffffffffffff\n      and\n      dup2\n      mstore\n      0x20\n      add\n      swap1\n      dup2\n      mstore\n      0x20\n      add\n      0x00\n      keccak256\n        /* \"Solidity/Twitter.sol\":1926:1936  tweetIndex */\n      dup5\n        /* \"Solidity/Twitter.sol\":1910:1937  tweets[_author][tweetIndex] */\n      dup2\n      sload\n      dup2\n      lt\n      tag_92\n      jumpi\n      tag_93\n      tag_73\n      jump\t// in\n    tag_93:\n    tag_92:\n      swap1\n      0x00\n      mstore\n      keccak256(0x00, 0x20)\n      swap1\n      0x05\n      mul\n      add\n        /* \"Solidity/Twitter.sol\":1910:1940  tweets[_author][tweetIndex].id */\n      0x00\n      add\n      sload\n        /* \"Solidity/Twitter.sol\":1942:1948  tweets */\n      0x00\n        /* \"Solidity/Twitter.sol\":1942:1957  tweets[_author] */\n      0x00\n        /* \"Solidity/Twitter.sol\":1949:1956  _author */\n      dup8\n        /* \"Solidity/Twitter.sol\":1942:1957  tweets[_author] */\n      0xffffffffffffffffffffffffffffffffffffffff\n      and\n      0xffffffffffffffffffffffffffffffffffffffff\n      and\n      dup2\n      mstore\n      0x20\n      add\n      swap1\n      dup2\n      mstore\n      0x20\n      add\n      0x00\n      keccak256\n        /* \"Solidity/Twitter.sol\":1958:1968  tweetIndex */\n      dup6\n        /* \"Solidity/Twitter.sol\":1942:1969  tweets[_author][tweetIndex] */\n      dup2\n      sload\n      dup2\n      lt\n      tag_95\n      jumpi\n      tag_96\n      tag_73\n      jump\t// in\n    tag_96:\n    tag_95:\n      swap1\n      0x00\n      mstore\n      keccak256(0x00, 0x20)\n      swap1\n      0x05\n      mul\n      add\n        /* \"Solidity/Twitter.sol\":1942:1975  tweets[_author][tweetIndex].likes */\n      0x04\n      add\n      sload\n        /* \"Solidity/Twitter.sol\":1878:1976  TweetLiked(msg.sender, _author, tweets[_author][tweetIndex].id, tweets[_author][tweetIndex].likes) */\n      mload(0x40)\n      tag_98\n      swap5\n      swap4\n      swap3\n      swap2\n      swap1\n      tag_99\n      jump\t// in\n    tag_98:\n      mload(0x40)\n      dup1\n      swap2\n      sub\n      swap1\n      log1\n        /* \"Solidity/Twitter.sol\":1655:1983  function likeTweet(address _author, uint tweetIndex) external {... */\n      pop\n      pop\n      jump\t// out\n        /* \"Solidity/Twitter.sol\":2653:2755  function updateUserActionsOptions(string memory _action) public {... */\n    tag_32:\n        /* \"Solidity/Twitter.sol\":2727:2734  actions */\n      0x01\n        /* \"Solidity/Twitter.sol\":2740:2747  _action */\n      dup2\n        /* \"Solidity/Twitter.sol\":2727:2748  actions.push(_action) */\n      swap1\n      dup1\n      0x01\n      dup2\n      sload\n      add\n      dup1\n      dup3\n      sstore\n      dup1\n      swap2\n      pop\n      pop\n      0x01\n      swap1\n      sub\n      swap1\n      0x00\n      mstore\n      keccak256(0x00, 0x20)\n      add\n      0x00\n      swap1\n      swap2\n      swap1\n      swap2\n      swap1\n      swap2\n      pop\n      swap1\n      dup2\n      tag_102\n      swap2\n      swap1\n      tag_103\n      jump\t// in\n    tag_102:\n      pop\n        /* \"Solidity/Twitter.sol\":2653:2755  function updateUserActionsOptions(string memory _action) public {... */\n      pop\n      jump\t// out\n        /* \"Solidity/Twitter.sol\":697:1307  function createTweet(string memory _tweet) public {... */\n    tag_35:\n        /* \"Solidity/Twitter.sol\":788:789  0 */\n      0x00\n        /* \"Solidity/Twitter.sol\":771:777  _tweet */\n      dup2\n        /* \"Solidity/Twitter.sol\":765:785  bytes(_tweet).length */\n      mload\n        /* \"Solidity/Twitter.sol\":765:789  bytes(_tweet).length > 0 */\n      gt\n        /* \"Solidity/Twitter.sol\":757:815  require(bytes(_tweet).length > 0, \"Tweet cannot be empty\") */\n      tag_105\n      jumpi\n      mload(0x40)\n      0x08c379a000000000000000000000000000000000000000000000000000000000\n      dup2\n      mstore\n      0x04\n      add\n      tag_106\n      swap1\n      tag_107\n      jump\t// in\n    tag_106:\n      mload(0x40)\n      dup1\n      swap2\n      sub\n      swap1\n      revert\n    tag_105:\n        /* \"Solidity/Twitter.sol\":116:119  280 */\n      0x0118\n        /* \"Solidity/Twitter.sol\":833:873  bytes(_tweet).length <= MAX_TWEET_LENGTH */\n      0xffff\n      and\n        /* \"Solidity/Twitter.sol\":839:845  _tweet */\n      dup2\n        /* \"Solidity/Twitter.sol\":833:853  bytes(_tweet).length */\n      mload\n        /* \"Solidity/Twitter.sol\":833:873  bytes(_tweet).length <= MAX_TWEET_LENGTH */\n      gt\n      iszero\n        /* \"Solidity/Twitter.sol\":825:918  require(bytes(_tweet).length <= MAX_TWEET_LENGTH, \"Tweet cannot be more than 280 characters\") */\n      tag_108\n      jumpi\n      mload(0x40)\n      0x08c379a000000000000000000000000000000000000000000000000000000000\n      dup2\n      mstore\n      0x04\n      add\n      tag_109\n      swap1\n      tag_110\n      jump\t// in\n    tag_109:\n      mload(0x40)\n      dup1\n      swap2\n      sub\n      swap1\n      revert\n    tag_108:\n        /* \"Solidity/Twitter.sol\":929:950  Tweet memory newTweet */\n      0x00\n        /* \"Solidity/Twitter.sol\":953:1179  Tweet({... */\n      mload(0x40)\n      dup1\n      0xa0\n      add\n      0x40\n      mstore\n      dup1\n        /* \"Solidity/Twitter.sol\":1012:1027  block.timestamp */\n      timestamp\n        /* \"Solidity/Twitter.sol\":1029:1039  msg.sender */\n      caller\n        /* \"Solidity/Twitter.sol\":995:1040  abi.encodePacked(block.timestamp, msg.sender) */\n      add(0x20, mload(0x40))\n      tag_111\n      swap3\n      swap2\n      swap1\n      tag_112\n      jump\t// in\n    tag_111:\n      mload(0x40)\n      0x20\n      dup2\n      dup4\n      sub\n      sub\n      dup2\n      mstore\n      swap1\n      0x40\n      mstore\n        /* \"Solidity/Twitter.sol\":985:1041  keccak256(abi.encodePacked(block.timestamp, msg.sender)) */\n      dup1\n      mload\n      swap1\n      0x20\n      add\n      keccak256\n        /* \"Solidity/Twitter.sol\":977:1042  uint256(keccak256(abi.encodePacked(block.timestamp, msg.sender))) */\n      0x00\n      shr\n        /* \"Solidity/Twitter.sol\":953:1179  Tweet({... */\n      dup2\n      mstore\n      0x20\n      add\n        /* \"Solidity/Twitter.sol\":1136:1146  msg.sender */\n      caller\n        /* \"Solidity/Twitter.sol\":953:1179  Tweet({... */\n      0xffffffffffffffffffffffffffffffffffffffff\n      and\n      dup2\n      mstore\n      0x20\n      add\n        /* \"Solidity/Twitter.sol\":1066:1072  _tweet */\n      dup4\n        /* \"Solidity/Twitter.sol\":953:1179  Tweet({... */\n      dup2\n      mstore\n      0x20\n      add\n        /* \"Solidity/Twitter.sol\":1098:1113  block.timestamp */\n      timestamp\n        /* \"Solidity/Twitter.sol\":953:1179  Tweet({... */\n      dup2\n      mstore\n      0x20\n      add\n        /* \"Solidity/Twitter.sol\":1167:1168  0 */\n      0x00\n        /* \"Solidity/Twitter.sol\":953:1179  Tweet({... */\n      dup2\n      mstore\n      pop\n        /* \"Solidity/Twitter.sol\":929:1179  Tweet memory newTweet = Tweet({... */\n      swap1\n      pop\n        /* \"Solidity/Twitter.sol\":1189:1195  tweets */\n      0x00\n        /* \"Solidity/Twitter.sol\":1189:1207  tweets[msg.sender] */\n      0x00\n        /* \"Solidity/Twitter.sol\":1196:1206  msg.sender */\n      caller\n        /* \"Solidity/Twitter.sol\":1189:1207  tweets[msg.sender] */\n      0xffffffffffffffffffffffffffffffffffffffff\n      and\n      0xffffffffffffffffffffffffffffffffffffffff\n      and\n      dup2\n      mstore\n      0x20\n      add\n      swap1\n      dup2\n      mstore\n      0x20\n      add\n      0x00\n      keccak256\n        /* \"Solidity/Twitter.sol\":1213:1221  newTweet */\n      dup2\n        /* \"Solidity/Twitter.sol\":1189:1222  tweets[msg.sender].push(newTweet) */\n      swap1\n      dup1\n      0x01\n      dup2\n      sload\n      add\n      dup1\n      dup3\n      sstore\n      dup1\n      swap2\n      pop\n      pop\n      0x01\n      swap1\n      sub\n      swap1\n      0x00\n      mstore\n      keccak256(0x00, 0x20)\n      swap1\n      0x05\n      mul\n      add\n      0x00\n      swap1\n      swap2\n      swap1\n      swap2\n      swap1\n      swap2\n      pop\n      0x00\n      dup3\n      add\n      mload\n      dup2\n      0x00\n      add\n      sstore\n      0x20\n      dup3\n      add\n      mload\n      dup2\n      0x01\n      add\n      exp(0x0100, 0x00)\n      dup2\n      sload\n      dup2\n      0xffffffffffffffffffffffffffffffffffffffff\n      mul\n      not\n      and\n      swap1\n      dup4\n      0xffffffffffffffffffffffffffffffffffffffff\n      and\n      mul\n      or\n      swap1\n      sstore\n      pop\n      0x40\n      dup3\n      add\n      mload\n      dup2\n      0x02\n      add\n      swap1\n      dup2\n      tag_114\n      swap2\n      swap1\n      tag_103\n      jump\t// in\n    tag_114:\n      pop\n      0x60\n      dup3\n      add\n      mload\n      dup2\n      0x03\n      add\n      sstore\n      0x80\n      dup3\n      add\n      mload\n      dup2\n      0x04\n      add\n      sstore\n      pop\n      pop\n        /* \"Solidity/Twitter.sol\":1251:1259  newTweet */\n      dup1\n        /* \"Solidity/Twitter.sol\":1251:1262  newTweet.id */\n      0x00\n      add\n      mload\n        /* \"Solidity/Twitter.sol\":1238:1300  TweetCreated(newTweet.id, newTweet.timestamp, newTweet.author) */\n      0x3bff7e3357a32e81fdc286a0c2c739081876634bc54aaf360252b91650df42c6\n        /* \"Solidity/Twitter.sol\":1264:1272  newTweet */\n      dup3\n        /* \"Solidity/Twitter.sol\":1264:1282  newTweet.timestamp */\n      0x60\n      add\n      mload\n        /* \"Solidity/Twitter.sol\":1284:1292  newTweet */\n      dup4\n        /* \"Solidity/Twitter.sol\":1284:1299  newTweet.author */\n      0x20\n      add\n      mload\n        /* \"Solidity/Twitter.sol\":1238:1300  TweetCreated(newTweet.id, newTweet.timestamp, newTweet.author) */\n      mload(0x40)\n      tag_115\n      swap3\n      swap2\n      swap1\n      tag_116\n      jump\t// in\n    tag_115:\n      mload(0x40)\n      dup1\n      swap2\n      sub\n      swap1\n      log2\n        /* \"Solidity/Twitter.sol\":747:1307  {... */\n      pop\n        /* \"Solidity/Twitter.sol\":697:1307  function createTweet(string memory _tweet) public {... */\n      pop\n      jump\t// out\n        /* \"Solidity/Twitter.sol\":2416:2647  function getTweetLikes(address _author, uint tweetIndex) external view returns(uint) {... */\n    tag_38:\n        /* \"Solidity/Twitter.sol\":2495:2499  uint */\n      0x00\n        /* \"Solidity/Twitter.sol\":2557:2564  _author */\n      dup3\n        /* \"Solidity/Twitter.sol\":2519:2564  tweets[_author][tweetIndex].author == _author */\n      0xffffffffffffffffffffffffffffffffffffffff\n      and\n        /* \"Solidity/Twitter.sol\":2519:2525  tweets */\n      0x00\n        /* \"Solidity/Twitter.sol\":2519:2534  tweets[_author] */\n      0x00\n        /* \"Solidity/Twitter.sol\":2526:2533  _author */\n      dup6\n        /* \"Solidity/Twitter.sol\":2519:2534  tweets[_author] */\n      0xffffffffffffffffffffffffffffffffffffffff\n      and\n      0xffffffffffffffffffffffffffffffffffffffff\n      and\n      dup2\n      mstore\n      0x20\n      add\n      swap1\n      dup2\n      mstore\n      0x20\n      add\n      0x00\n      keccak256\n        /* \"Solidity/Twitter.sol\":2535:2545  tweetIndex */\n      dup4\n        /* \"Solidity/Twitter.sol\":2519:2546  tweets[_author][tweetIndex] */\n      dup2\n      sload\n      dup2\n      lt\n      tag_118\n      jumpi\n      tag_119\n      tag_73\n      jump\t// in\n    tag_119:\n    tag_118:\n      swap1\n      0x00\n      mstore\n      keccak256(0x00, 0x20)\n      swap1\n      0x05\n      mul\n      add\n        /* \"Solidity/Twitter.sol\":2519:2553  tweets[_author][tweetIndex].author */\n      0x01\n      add\n      0x00\n      swap1\n      sload\n      swap1\n      0x0100\n      exp\n      swap1\n      div\n      0xffffffffffffffffffffffffffffffffffffffff\n      and\n        /* \"Solidity/Twitter.sol\":2519:2564  tweets[_author][tweetIndex].author == _author */\n      0xffffffffffffffffffffffffffffffffffffffff\n      and\n      eq\n        /* \"Solidity/Twitter.sol\":2511:2589  require(tweets[_author][tweetIndex].author == _author, \"Tweet does not exist\") */\n      tag_121\n      jumpi\n      mload(0x40)\n      0x08c379a000000000000000000000000000000000000000000000000000000000\n      dup2\n      mstore\n      0x04\n      add\n      tag_122\n      swap1\n      tag_86\n      jump\t// in\n    tag_122:\n      mload(0x40)\n      dup1\n      swap2\n      sub\n      swap1\n      revert\n    tag_121:\n        /* \"Solidity/Twitter.sol\":2607:2613  tweets */\n      0x00\n        /* \"Solidity/Twitter.sol\":2607:2622  tweets[_author] */\n      0x00\n        /* \"Solidity/Twitter.sol\":2614:2621  _author */\n      dup5\n        /* \"Solidity/Twitter.sol\":2607:2622  tweets[_author] */\n      0xffffffffffffffffffffffffffffffffffffffff\n      and\n      0xffffffffffffffffffffffffffffffffffffffff\n      and\n      dup2\n      mstore\n      0x20\n      add\n      swap1\n      dup2\n      mstore\n      0x20\n      add\n      0x00\n      keccak256\n        /* \"Solidity/Twitter.sol\":2623:2633  tweetIndex */\n      dup3\n        /* \"Solidity/Twitter.sol\":2607:2634  tweets[_author][tweetIndex] */\n      dup2\n      sload\n      dup2\n      lt\n      tag_123\n      jumpi\n      tag_124\n      tag_73\n      jump\t// in\n    tag_124:\n    tag_123:\n      swap1\n      0x00\n      mstore\n      keccak256(0x00, 0x20)\n      swap1\n      0x05\n      mul\n      add\n        /* \"Solidity/Twitter.sol\":2607:2640  tweets[_author][tweetIndex].likes */\n      0x04\n      add\n      sload\n        /* \"Solidity/Twitter.sol\":2600:2640  return tweets[_author][tweetIndex].likes */\n      swap1\n      pop\n        /* \"Solidity/Twitter.sol\":2416:2647  function getTweetLikes(address _author, uint tweetIndex) external view returns(uint) {... */\n      swap3\n      swap2\n      pop\n      pop\n      jump\t// out\n        /* \"Solidity/Twitter.sol\":366:420  string[] public actions = [\"like\", \"reply\", \"reshare\"] */\n    tag_44:\n      0x01\n      dup2\n      dup2\n      sload\n      dup2\n      lt\n      tag_126\n      jumpi\n      0x00\n      dup1\n      revert\n    tag_126:\n      swap1\n      0x00\n      mstore\n      keccak256(0x00, 0x20)\n      add\n      0x00\n      swap2\n      pop\n      swap1\n      pop\n      dup1\n      sload\n      tag_128\n      swap1\n      tag_65\n      jump\t// in\n    tag_128:\n      dup1\n      0x1f\n      add\n      0x20\n      dup1\n      swap2\n      div\n      mul\n      0x20\n      add\n      mload(0x40)\n      swap1\n      dup2\n      add\n      0x40\n      mstore\n      dup1\n      swap3\n      swap2\n      swap1\n      dup2\n      dup2\n      mstore\n      0x20\n      add\n      dup3\n      dup1\n      sload\n      tag_129\n      swap1\n      tag_65\n      jump\t// in\n    tag_129:\n      dup1\n      iszero\n      tag_130\n      jumpi\n      dup1\n      0x1f\n      lt\n      tag_131\n      jumpi\n      0x0100\n      dup1\n      dup4\n      sload\n      div\n      mul\n      dup4\n      mstore\n      swap2\n      0x20\n      add\n      swap2\n      jump(tag_130)\n    tag_131:\n      dup3\n      add\n      swap2\n      swap1\n      0x00\n      mstore\n      keccak256(0x00, 0x20)\n      swap1\n    tag_132:\n      dup2\n      sload\n      dup2\n      mstore\n      swap1\n      0x01\n      add\n      swap1\n      0x20\n      add\n      dup1\n      dup4\n      gt\n      tag_132\n      jumpi\n      dup3\n      swap1\n      sub\n      0x1f\n      and\n      dup3\n      add\n      swap2\n    tag_130:\n      pop\n      pop\n      pop\n      pop\n      pop\n      dup2\n      jump\t// out\n        /* \"Solidity/Twitter.sol\":1989:2410  function unLikeTweet(address _author, uint tweetIndex) external {... */\n    tag_48:\n        /* \"Solidity/Twitter.sol\":2109:2116  _author */\n      dup2\n        /* \"Solidity/Twitter.sol\":2071:2116  tweets[_author][tweetIndex].author == _author */\n      0xffffffffffffffffffffffffffffffffffffffff\n      and\n        /* \"Solidity/Twitter.sol\":2071:2077  tweets */\n      0x00\n        /* \"Solidity/Twitter.sol\":2071:2086  tweets[_author] */\n      0x00\n        /* \"Solidity/Twitter.sol\":2078:2085  _author */\n      dup5\n        /* \"Solidity/Twitter.sol\":2071:2086  tweets[_author] */\n      0xffffffffffffffffffffffffffffffffffffffff\n      and\n      0xffffffffffffffffffffffffffffffffffffffff\n      and\n      dup2\n      mstore\n      0x20\n      add\n      swap1\n      dup2\n      mstore\n      0x20\n      add\n      0x00\n      keccak256\n        /* \"Solidity/Twitter.sol\":2087:2097  tweetIndex */\n      dup3\n        /* \"Solidity/Twitter.sol\":2071:2098  tweets[_author][tweetIndex] */\n      dup2\n      sload\n      dup2\n      lt\n      tag_134\n      jumpi\n      tag_135\n      tag_73\n      jump\t// in\n    tag_135:\n    tag_134:\n      swap1\n      0x00\n      mstore\n      keccak256(0x00, 0x20)\n      swap1\n      0x05\n      mul\n      add\n        /* \"Solidity/Twitter.sol\":2071:2105  tweets[_author][tweetIndex].author */\n      0x01\n      add\n      0x00\n      swap1\n      sload\n      swap1\n      0x0100\n      exp\n      swap1\n      div\n      0xffffffffffffffffffffffffffffffffffffffff\n      and\n        /* \"Solidity/Twitter.sol\":2071:2116  tweets[_author][tweetIndex].author == _author */\n      0xffffffffffffffffffffffffffffffffffffffff\n      and\n      eq\n        /* \"Solidity/Twitter.sol\":2063:2141  require(tweets[_author][tweetIndex].author == _author, \"Tweet does not exist\") */\n      tag_137\n      jumpi\n      mload(0x40)\n      0x08c379a000000000000000000000000000000000000000000000000000000000\n      dup2\n      mstore\n      0x04\n      add\n      tag_138\n      swap1\n      tag_86\n      jump\t// in\n    tag_138:\n      mload(0x40)\n      dup1\n      swap2\n      sub\n      swap1\n      revert\n    tag_137:\n        /* \"Solidity/Twitter.sol\":2195:2196  0 */\n      0x00\n        /* \"Solidity/Twitter.sol\":2159:2165  tweets */\n      0x00\n        /* \"Solidity/Twitter.sol\":2159:2174  tweets[_author] */\n      0x00\n        /* \"Solidity/Twitter.sol\":2166:2173  _author */\n      dup5\n        /* \"Solidity/Twitter.sol\":2159:2174  tweets[_author] */\n      0xffffffffffffffffffffffffffffffffffffffff\n      and\n      0xffffffffffffffffffffffffffffffffffffffff\n      and\n      dup2\n      mstore\n      0x20\n      add\n      swap1\n      dup2\n      mstore\n      0x20\n      add\n      0x00\n      keccak256\n        /* \"Solidity/Twitter.sol\":2175:2185  tweetIndex */\n      dup3\n        /* \"Solidity/Twitter.sol\":2159:2186  tweets[_author][tweetIndex] */\n      dup2\n      sload\n      dup2\n      lt\n      tag_139\n      jumpi\n      tag_140\n      tag_73\n      jump\t// in\n    tag_140:\n    tag_139:\n      swap1\n      0x00\n      mstore\n      keccak256(0x00, 0x20)\n      swap1\n      0x05\n      mul\n      add\n        /* \"Solidity/Twitter.sol\":2159:2192  tweets[_author][tweetIndex].likes */\n      0x04\n      add\n      sload\n        /* \"Solidity/Twitter.sol\":2159:2196  tweets[_author][tweetIndex].likes > 0 */\n      gt\n        /* \"Solidity/Twitter.sol\":2151:2230  require(tweets[_author][tweetIndex].likes > 0, \"Tweet does not have any likes\") */\n      tag_142\n      jumpi\n      mload(0x40)\n      0x08c379a000000000000000000000000000000000000000000000000000000000\n      dup2\n      mstore\n      0x04\n      add\n      tag_143\n      swap1\n      tag_144\n      jump\t// in\n    tag_143:\n      mload(0x40)\n      dup1\n      swap2\n      sub\n      swap1\n      revert\n    tag_142:\n        /* \"Solidity/Twitter.sol\":2286:2287  1 */\n      0x01\n        /* \"Solidity/Twitter.sol\":2249:2255  tweets */\n      0x00\n        /* \"Solidity/Twitter.sol\":2249:2264  tweets[_author] */\n      0x00\n        /* \"Solidity/Twitter.sol\":2256:2263  _author */\n      dup5\n        /* \"Solidity/Twitter.sol\":2249:2264  tweets[_author] */\n      0xffffffffffffffffffffffffffffffffffffffff\n      and\n      0xffffffffffffffffffffffffffffffffffffffff\n      and\n      dup2\n      mstore\n      0x20\n      add\n      swap1\n      dup2\n      mstore\n      0x20\n      add\n      0x00\n      keccak256\n        /* \"Solidity/Twitter.sol\":2265:2275  tweetIndex */\n      dup3\n        /* \"Solidity/Twitter.sol\":2249:2276  tweets[_author][tweetIndex] */\n      dup2\n      sload\n      dup2\n      lt\n      tag_145\n      jumpi\n      tag_146\n      tag_73\n      jump\t// in\n    tag_146:\n    tag_145:\n      swap1\n      0x00\n      mstore\n      keccak256(0x00, 0x20)\n      swap1\n      0x05\n      mul\n      add\n        /* \"Solidity/Twitter.sol\":2249:2282  tweets[_author][tweetIndex].likes */\n      0x04\n      add\n      0x00\n        /* \"Solidity/Twitter.sol\":2249:2287  tweets[_author][tweetIndex].likes -= 1 */\n      dup3\n      dup3\n      sload\n      tag_148\n      swap2\n      swap1\n      tag_149\n      jump\t// in\n    tag_148:\n      swap3\n      pop\n      pop\n      dup2\n      swap1\n      sstore\n      pop\n        /* \"Solidity/Twitter.sol\":2303:2403  TweetUnLiked(msg.sender, _author, tweets[_author][tweetIndex].id, tweets[_author][tweetIndex].likes) */\n      0x273883c252143c4abce776697615e41ca9bc1aac5968c585d1c8ba8ffaa8b3c1\n        /* \"Solidity/Twitter.sol\":2316:2326  msg.sender */\n      caller\n        /* \"Solidity/Twitter.sol\":2328:2335  _author */\n      dup4\n        /* \"Solidity/Twitter.sol\":2337:2343  tweets */\n      0x00\n        /* \"Solidity/Twitter.sol\":2337:2352  tweets[_author] */\n      0x00\n        /* \"Solidity/Twitter.sol\":2344:2351  _author */\n      dup7\n        /* \"Solidity/Twitter.sol\":2337:2352  tweets[_author] */\n      0xffffffffffffffffffffffffffffffffffffffff\n      and\n      0xffffffffffffffffffffffffffffffffffffffff\n      and\n      dup2\n      mstore\n      0x20\n      add\n      swap1\n      dup2\n      mstore\n      0x20\n      add\n      0x00\n      keccak256\n        /* \"Solidity/Twitter.sol\":2353:2363  tweetIndex */\n      dup5\n        /* \"Solidity/Twitter.sol\":2337:2364  tweets[_author][tweetIndex] */\n      dup2\n      sload\n      dup2\n      lt\n      tag_150\n      jumpi\n      tag_151\n      tag_73\n      jump\t// in\n    tag_151:\n    tag_150:\n      swap1\n      0x00\n      mstore\n      keccak256(0x00, 0x20)\n      swap1\n      0x05\n      mul\n      add\n        /* \"Solidity/Twitter.sol\":2337:2367  tweets[_author][tweetIndex].id */\n      0x00\n      add\n      sload\n        /* \"Solidity/Twitter.sol\":2369:2375  tweets */\n      0x00\n        /* \"Solidity/Twitter.sol\":2369:2384  tweets[_author] */\n      0x00\n        /* \"Solidity/Twitter.sol\":2376:2383  _author */\n      dup8\n        /* \"Solidity/Twitter.sol\":2369:2384  tweets[_author] */\n      0xffffffffffffffffffffffffffffffffffffffff\n      and\n      0xffffffffffffffffffffffffffffffffffffffff\n      and\n      dup2\n      mstore\n      0x20\n      add\n      swap1\n      dup2\n      mstore\n      0x20\n      add\n      0x00\n      keccak256\n        /* \"Solidity/Twitter.sol\":2385:2395  tweetIndex */\n      dup6\n        /* \"Solidity/Twitter.sol\":2369:2396  tweets[_author][tweetIndex] */\n      dup2\n      sload\n      dup2\n      lt\n      tag_153\n      jumpi\n      tag_154\n      tag_73\n      jump\t// in\n    tag_154:\n    tag_153:\n      swap1\n      0x00\n      mstore\n      keccak256(0x00, 0x20)\n      swap1\n      0x05\n      mul\n      add\n        /* \"Solidity/Twitter.sol\":2369:2402  tweets[_author][tweetIndex].likes */\n      0x04\n      add\n      sload\n        /* \"Solidity/Twitter.sol\":2303:2403  TweetUnLiked(msg.sender, _author, tweets[_author][tweetIndex].id, tweets[_author][tweetIndex].likes) */\n      mload(0x40)\n      tag_156\n      swap5\n      swap4\n      swap3\n      swap2\n      swap1\n      tag_99\n      jump\t// in\n    tag_156:\n      mload(0x40)\n      dup1\n      swap2\n      sub\n      swap1\n      log1\n        /* \"Solidity/Twitter.sol\":1989:2410  function unLikeTweet(address _author, uint tweetIndex) external {... */\n      pop\n      pop\n      jump\t// out\n        /* \"Solidity/Twitter.sol\":2864:2971  function getAction(uint _index) public view returns (string memory) {... */\n    tag_51:\n        /* \"Solidity/Twitter.sol\":2917:2930  string memory */\n      0x60\n        /* \"Solidity/Twitter.sol\":2949:2956  actions */\n      0x01\n        /* \"Solidity/Twitter.sol\":2957:2963  _index */\n      dup3\n        /* \"Solidity/Twitter.sol\":2949:2964  actions[_index] */\n      dup2\n      sload\n      dup2\n      lt\n      tag_158\n      jumpi\n      tag_159\n      tag_73\n      jump\t// in\n    tag_159:\n    tag_158:\n      swap1\n      0x00\n      mstore\n      keccak256(0x00, 0x20)\n      add\n        /* \"Solidity/Twitter.sol\":2942:2964  return actions[_index] */\n      dup1\n      sload\n      tag_161\n      swap1\n      tag_65\n      jump\t// in\n    tag_161:\n      dup1\n      0x1f\n      add\n      0x20\n      dup1\n      swap2\n      div\n      mul\n      0x20\n      add\n      mload(0x40)\n      swap1\n      dup2\n      add\n      0x40\n      mstore\n      dup1\n      swap3\n      swap2\n      swap1\n      dup2\n      dup2\n      mstore\n      0x20\n      add\n      dup3\n      dup1\n      sload\n      tag_162\n      swap1\n      tag_65\n      jump\t// in\n    tag_162:\n      dup1\n      iszero\n      tag_163\n      jumpi\n      dup1\n      0x1f\n      lt\n      tag_164\n      jumpi\n      0x0100\n      dup1\n      dup4\n      sload\n      div\n      mul\n      dup4\n      mstore\n      swap2\n      0x20\n      add\n      swap2\n      jump(tag_163)\n    tag_164:\n      dup3\n      add\n      swap2\n      swap1\n      0x00\n      mstore\n      keccak256(0x00, 0x20)\n      swap1\n    tag_165:\n      dup2\n      sload\n      dup2\n      mstore\n      swap1\n      0x01\n      add\n      swap1\n      0x20\n      add\n      dup1\n      dup4\n      gt\n      tag_165\n      jumpi\n      dup3\n      swap1\n      sub\n      0x1f\n      and\n      dup3\n      add\n      swap2\n    tag_163:\n      pop\n      pop\n      pop\n      pop\n      pop\n      swap1\n      pop\n        /* \"Solidity/Twitter.sol\":2864:2971  function getAction(uint _index) public view returns (string memory) {... */\n      swap2\n      swap1\n      pop\n      jump\t// out\n        /* \"Solidity/Twitter.sol\":2765:2858  function getActionsLength() public view returns (uint) {... */\n    tag_54:\n        /* \"Solidity/Twitter.sol\":2814:2818  uint */\n      0x00\n        /* \"Solidity/Twitter.sol\":2837:2844  actions */\n      0x01\n        /* \"Solidity/Twitter.sol\":2837:2851  actions.length */\n      dup1\n      sload\n      swap1\n      pop\n        /* \"Solidity/Twitter.sol\":2830:2851  return actions.length */\n      swap1\n      pop\n        /* \"Solidity/Twitter.sol\":2765:2858  function getActionsLength() public view returns (uint) {... */\n      swap1\n      jump\t// out\n        /* \"Solidity/Twitter.sol\":1456:1649  function getAllOwnerTweets(address _owner) public view returns (Tweet[] memory) {... */\n    tag_59:\n        /* \"Solidity/Twitter.sol\":1520:1534  Tweet[] memory */\n      0x60\n        /* \"Solidity/Twitter.sol\":1568:1574  _owner */\n      dup2\n        /* \"Solidity/Twitter.sol\":1554:1574  msg.sender == _owner */\n      0xffffffffffffffffffffffffffffffffffffffff\n      and\n        /* \"Solidity/Twitter.sol\":1554:1564  msg.sender */\n      caller\n        /* \"Solidity/Twitter.sol\":1554:1574  msg.sender == _owner */\n      0xffffffffffffffffffffffffffffffffffffffff\n      and\n      eq\n        /* \"Solidity/Twitter.sol\":1546:1611  require(msg.sender == _owner, \"You can only get your own tweets\") */\n      tag_168\n      jumpi\n      mload(0x40)\n      0x08c379a000000000000000000000000000000000000000000000000000000000\n      dup2\n      mstore\n      0x04\n      add\n      tag_169\n      swap1\n      tag_170\n      jump\t// in\n    tag_169:\n      mload(0x40)\n      dup1\n      swap2\n      sub\n      swap1\n      revert\n    tag_168:\n        /* \"Solidity/Twitter.sol\":1628:1634  tweets */\n      0x00\n        /* \"Solidity/Twitter.sol\":1628:1642  tweets[_owner] */\n      0x00\n        /* \"Solidity/Twitter.sol\":1635:1641  _owner */\n      dup4\n        /* \"Solidity/Twitter.sol\":1628:1642  tweets[_owner] */\n      0xffffffffffffffffffffffffffffffffffffffff\n      and\n      0xffffffffffffffffffffffffffffffffffffffff\n      and\n      dup2\n      mstore\n      0x20\n      add\n      swap1\n      dup2\n      mstore\n      0x20\n      add\n      0x00\n      keccak256\n        /* \"Solidity/Twitter.sol\":1621:1642  return tweets[_owner] */\n      dup1\n      sload\n      dup1\n      0x20\n      mul\n      0x20\n      add\n      mload(0x40)\n      swap1\n      dup2\n      add\n      0x40\n      mstore\n      dup1\n      swap3\n      swap2\n      swap1\n      dup2\n      dup2\n      mstore\n      0x20\n      add\n      0x00\n      swap1\n    tag_171:\n      dup3\n      dup3\n      lt\n      iszero\n      tag_172\n      jumpi\n      dup4\n      dup3\n      swap1\n      0x00\n      mstore\n      keccak256(0x00, 0x20)\n      swap1\n      0x05\n      mul\n      add\n      mload(0x40)\n      dup1\n      0xa0\n      add\n      0x40\n      mstore\n      swap1\n      dup2\n      0x00\n      dup3\n      add\n      sload\n      dup2\n      mstore\n      0x20\n      add\n      0x01\n      dup3\n      add\n      0x00\n      swap1\n      sload\n      swap1\n      0x0100\n      exp\n      swap1\n      div\n      0xffffffffffffffffffffffffffffffffffffffff\n      and\n      0xffffffffffffffffffffffffffffffffffffffff\n      and\n      0xffffffffffffffffffffffffffffffffffffffff\n      and\n      dup2\n      mstore\n      0x20\n      add\n      0x02\n      dup3\n      add\n      dup1\n      sload\n      tag_174\n      swap1\n      tag_65\n      jump\t// in\n    tag_174:\n      dup1\n      0x1f\n      add\n      0x20\n      dup1\n      swap2\n      div\n      mul\n      0x20\n      add\n      mload(0x40)\n      swap1\n      dup2\n      add\n      0x40\n      mstore\n      dup1\n      swap3\n      swap2\n      swap1\n      dup2\n      dup2\n      mstore\n      0x20\n      add\n      dup3\n      dup1\n      sload\n      tag_175\n      swap1\n      tag_65\n      jump\t// in\n    tag_175:\n      dup1\n      iszero\n      tag_176\n      jumpi\n      dup1\n      0x1f\n      lt\n      tag_177\n      jumpi\n      0x0100\n      dup1\n      dup4\n      sload\n      div\n      mul\n      dup4\n      mstore\n      swap2\n      0x20\n      add\n      swap2\n      jump(tag_176)\n    tag_177:\n      dup3\n      add\n      swap2\n      swap1\n      0x00\n      mstore\n      keccak256(0x00, 0x20)\n      swap1\n    tag_178:\n      dup2\n      sload\n      dup2\n      mstore\n      swap1\n      0x01\n      add\n      swap1\n      0x20\n      add\n      dup1\n      dup4\n      gt\n      tag_178\n      jumpi\n      dup3\n      swap1\n      sub\n      0x1f\n      and\n      dup3\n      add\n      swap2\n    tag_176:\n      pop\n      pop\n      pop\n      pop\n      pop\n      dup2\n      mstore\n      0x20\n      add\n      0x03\n      dup3\n      add\n      sload\n      dup2\n      mstore\n      0x20\n      add\n      0x04\n      dup3\n      add\n      sload\n      dup2\n      mstore\n      pop\n      pop\n      dup2\n      mstore\n      0x20\n      add\n      swap1\n      0x01\n      add\n      swap1\n      jump(tag_171)\n    tag_172:\n      pop\n      pop\n      pop\n      pop\n      swap1\n      pop\n        /* \"Solidity/Twitter.sol\":1456:1649  function getAllOwnerTweets(address _owner) public view returns (Tweet[] memory) {... */\n      swap2\n      swap1\n      pop\n      jump\t// out\n        /* \"#utility.yul\":7:82   */\n    tag_179:\n        /* \"#utility.yul\":40:46   */\n      0x00\n        /* \"#utility.yul\":73:75   */\n      0x40\n        /* \"#utility.yul\":67:76   */\n      mload\n        /* \"#utility.yul\":57:76   */\n      swap1\n      pop\n        /* \"#utility.yul\":7:82   */\n      swap1\n      jump\t// out\n        /* \"#utility.yul\":88:205   */\n    tag_180:\n        /* \"#utility.yul\":197:198   */\n      0x00\n        /* \"#utility.yul\":194:195   */\n      0x00\n        /* \"#utility.yul\":187:199   */\n      revert\n        /* \"#utility.yul\":211:328   */\n    tag_181:\n        /* \"#utility.yul\":320:321   */\n      0x00\n        /* \"#utility.yul\":317:318   */\n      0x00\n        /* \"#utility.yul\":310:322   */\n      revert\n        /* \"#utility.yul\":334:460   */\n    tag_182:\n        /* \"#utility.yul\":371:378   */\n      0x00\n        /* \"#utility.yul\":411:453   */\n      0xffffffffffffffffffffffffffffffffffffffff\n        /* \"#utility.yul\":404:409   */\n      dup3\n        /* \"#utility.yul\":400:454   */\n      and\n        /* \"#utility.yul\":389:454   */\n      swap1\n      pop\n        /* \"#utility.yul\":334:460   */\n      swap2\n      swap1\n      pop\n      jump\t// out\n        /* \"#utility.yul\":466:562   */\n    tag_183:\n        /* \"#utility.yul\":503:510   */\n      0x00\n        /* \"#utility.yul\":532:556   */\n      tag_255\n        /* \"#utility.yul\":550:555   */\n      dup3\n        /* \"#utility.yul\":532:556   */\n      tag_182\n      jump\t// in\n    tag_255:\n        /* \"#utility.yul\":521:556   */\n      swap1\n      pop\n        /* \"#utility.yul\":466:562   */\n      swap2\n      swap1\n      pop\n      jump\t// out\n        /* \"#utility.yul\":568:690   */\n    tag_184:\n        /* \"#utility.yul\":641:665   */\n      tag_257\n        /* \"#utility.yul\":659:664   */\n      dup2\n        /* \"#utility.yul\":641:665   */\n      tag_183\n      jump\t// in\n    tag_257:\n        /* \"#utility.yul\":634:639   */\n      dup2\n        /* \"#utility.yul\":631:666   */\n      eq\n        /* \"#utility.yul\":621:684   */\n      tag_258\n      jumpi\n        /* \"#utility.yul\":680:681   */\n      0x00\n        /* \"#utility.yul\":677:678   */\n      0x00\n        /* \"#utility.yul\":670:682   */\n      revert\n        /* \"#utility.yul\":621:684   */\n    tag_258:\n        /* \"#utility.yul\":568:690   */\n      pop\n      jump\t// out\n        /* \"#utility.yul\":696:835   */\n    tag_185:\n        /* \"#utility.yul\":742:747   */\n      0x00\n        /* \"#utility.yul\":780:786   */\n      dup2\n        /* \"#utility.yul\":767:787   */\n      calldataload\n        /* \"#utility.yul\":758:787   */\n      swap1\n      pop\n        /* \"#utility.yul\":796:829   */\n      tag_260\n        /* \"#utility.yul\":823:828   */\n      dup2\n        /* \"#utility.yul\":796:829   */\n      tag_184\n      jump\t// in\n    tag_260:\n        /* \"#utility.yul\":696:835   */\n      swap3\n      swap2\n      pop\n      pop\n      jump\t// out\n        /* \"#utility.yul\":841:918   */\n    tag_186:\n        /* \"#utility.yul\":878:885   */\n      0x00\n        /* \"#utility.yul\":907:912   */\n      dup2\n        /* \"#utility.yul\":896:912   */\n      swap1\n      pop\n        /* \"#utility.yul\":841:918   */\n      swap2\n      swap1\n      pop\n      jump\t// out\n        /* \"#utility.yul\":924:1046   */\n    tag_187:\n        /* \"#utility.yul\":997:1021   */\n      tag_263\n        /* \"#utility.yul\":1015:1020   */\n      dup2\n        /* \"#utility.yul\":997:1021   */\n      tag_186\n      jump\t// in\n    tag_263:\n        /* \"#utility.yul\":990:995   */\n      dup2\n        /* \"#utility.yul\":987:1022   */\n      eq\n        /* \"#utility.yul\":977:1040   */\n      tag_264\n      jumpi\n        /* \"#utility.yul\":1036:1037   */\n      0x00\n        /* \"#utility.yul\":1033:1034   */\n      0x00\n        /* \"#utility.yul\":1026:1038   */\n      revert\n        /* \"#utility.yul\":977:1040   */\n    tag_264:\n        /* \"#utility.yul\":924:1046   */\n      pop\n      jump\t// out\n        /* \"#utility.yul\":1052:1191   */\n    tag_188:\n        /* \"#utility.yul\":1098:1103   */\n      0x00\n        /* \"#utility.yul\":1136:1142   */\n      dup2\n        /* \"#utility.yul\":1123:1143   */\n      calldataload\n        /* \"#utility.yul\":1114:1143   */\n      swap1\n      pop\n        /* \"#utility.yul\":1152:1185   */\n      tag_266\n        /* \"#utility.yul\":1179:1184   */\n      dup2\n        /* \"#utility.yul\":1152:1185   */\n      tag_187\n      jump\t// in\n    tag_266:\n        /* \"#utility.yul\":1052:1191   */\n      swap3\n      swap2\n      pop\n      pop\n      jump\t// out\n        /* \"#utility.yul\":1197:1671   */\n    tag_17:\n        /* \"#utility.yul\":1265:1271   */\n      0x00\n        /* \"#utility.yul\":1273:1279   */\n      0x00\n        /* \"#utility.yul\":1322:1324   */\n      0x40\n        /* \"#utility.yul\":1310:1319   */\n      dup4\n        /* \"#utility.yul\":1301:1308   */\n      dup6\n        /* \"#utility.yul\":1297:1320   */\n      sub\n        /* \"#utility.yul\":1293:1325   */\n      slt\n        /* \"#utility.yul\":1290:1409   */\n      iszero\n      tag_268\n      jumpi\n        /* \"#utility.yul\":1328:1407   */\n      tag_269\n      tag_180\n      jump\t// in\n    tag_269:\n        /* \"#utility.yul\":1290:1409   */\n    tag_268:\n        /* \"#utility.yul\":1448:1449   */\n      0x00\n        /* \"#utility.yul\":1473:1526   */\n      tag_270\n        /* \"#utility.yul\":1518:1525   */\n      dup6\n        /* \"#utility.yul\":1509:1515   */\n      dup3\n        /* \"#utility.yul\":1498:1507   */\n      dup7\n        /* \"#utility.yul\":1494:1516   */\n      add\n        /* \"#utility.yul\":1473:1526   */\n      tag_185\n      jump\t// in\n    tag_270:\n        /* \"#utility.yul\":1463:1526   */\n      swap3\n      pop\n        /* \"#utility.yul\":1419:1536   */\n      pop\n        /* \"#utility.yul\":1575:1577   */\n      0x20\n        /* \"#utility.yul\":1601:1654   */\n      tag_271\n        /* \"#utility.yul\":1646:1653   */\n      dup6\n        /* \"#utility.yul\":1637:1643   */\n      dup3\n        /* \"#utility.yul\":1626:1635   */\n      dup7\n        /* \"#utility.yul\":1622:1644   */\n      add\n        /* \"#utility.yul\":1601:1654   */\n      tag_188\n      jump\t// in\n    tag_271:\n        /* \"#utility.yul\":1591:1654   */\n      swap2\n      pop\n        /* \"#utility.yul\":1546:1664   */\n      pop\n        /* \"#utility.yul\":1197:1671   */\n      swap3\n      pop\n      swap3\n      swap1\n      pop\n      jump\t// out\n        /* \"#utility.yul\":1677:1795   */\n    tag_189:\n        /* \"#utility.yul\":1764:1788   */\n      tag_273\n        /* \"#utility.yul\":1782:1787   */\n      dup2\n        /* \"#utility.yul\":1764:1788   */\n      tag_186\n      jump\t// in\n    tag_273:\n        /* \"#utility.yul\":1759:1762   */\n      dup3\n        /* \"#utility.yul\":1752:1789   */\n      mstore\n        /* \"#utility.yul\":1677:1795   */\n      pop\n      pop\n      jump\t// out\n        /* \"#utility.yul\":1801:1919   */\n    tag_190:\n        /* \"#utility.yul\":1888:1912   */\n      tag_275\n        /* \"#utility.yul\":1906:1911   */\n      dup2\n        /* \"#utility.yul\":1888:1912   */\n      tag_183\n      jump\t// in\n    tag_275:\n        /* \"#utility.yul\":1883:1886   */\n      dup3\n        /* \"#utility.yul\":1876:1913   */\n      mstore\n        /* \"#utility.yul\":1801:1919   */\n      pop\n      pop\n      jump\t// out\n        /* \"#utility.yul\":1925:2024   */\n    tag_191:\n        /* \"#utility.yul\":1977:1983   */\n      0x00\n        /* \"#utility.yul\":2011:2016   */\n      dup2\n        /* \"#utility.yul\":2005:2017   */\n      mload\n        /* \"#utility.yul\":1995:2017   */\n      swap1\n      pop\n        /* \"#utility.yul\":1925:2024   */\n      swap2\n      swap1\n      pop\n      jump\t// out\n        /* \"#utility.yul\":2030:2199   */\n    tag_192:\n        /* \"#utility.yul\":2114:2125   */\n      0x00\n        /* \"#utility.yul\":2148:2154   */\n      dup3\n        /* \"#utility.yul\":2143:2146   */\n      dup3\n        /* \"#utility.yul\":2136:2155   */\n      mstore\n        /* \"#utility.yul\":2188:2192   */\n      0x20\n        /* \"#utility.yul\":2183:2186   */\n      dup3\n        /* \"#utility.yul\":2179:2193   */\n      add\n        /* \"#utility.yul\":2164:2193   */\n      swap1\n      pop\n        /* \"#utility.yul\":2030:2199   */\n      swap3\n      swap2\n      pop\n      pop\n      jump\t// out\n        /* \"#utility.yul\":2205:2344   */\n    tag_193:\n        /* \"#utility.yul\":2294:2300   */\n      dup3\n        /* \"#utility.yul\":2289:2292   */\n      dup2\n        /* \"#utility.yul\":2284:2287   */\n      dup4\n        /* \"#utility.yul\":2278:2301   */\n      mcopy\n        /* \"#utility.yul\":2335:2336   */\n      0x00\n        /* \"#utility.yul\":2326:2332   */\n      dup4\n        /* \"#utility.yul\":2321:2324   */\n      dup4\n        /* \"#utility.yul\":2317:2333   */\n      add\n        /* \"#utility.yul\":2310:2337   */\n      mstore\n        /* \"#utility.yul\":2205:2344   */\n      pop\n      pop\n      pop\n      jump\t// out\n        /* \"#utility.yul\":2350:2452   */\n    tag_194:\n        /* \"#utility.yul\":2391:2397   */\n      0x00\n        /* \"#utility.yul\":2442:2444   */\n      0x1f\n        /* \"#utility.yul\":2438:2445   */\n      not\n        /* \"#utility.yul\":2433:2435   */\n      0x1f\n        /* \"#utility.yul\":2426:2431   */\n      dup4\n        /* \"#utility.yul\":2422:2436   */\n      add\n        /* \"#utility.yul\":2418:2446   */\n      and\n        /* \"#utility.yul\":2408:2446   */\n      swap1\n      pop\n        /* \"#utility.yul\":2350:2452   */\n      swap2\n      swap1\n      pop\n      jump\t// out\n        /* \"#utility.yul\":2458:2835   */\n    tag_195:\n        /* \"#utility.yul\":2546:2549   */\n      0x00\n        /* \"#utility.yul\":2574:2613   */\n      tag_281\n        /* \"#utility.yul\":2607:2612   */\n      dup3\n        /* \"#utility.yul\":2574:2613   */\n      tag_191\n      jump\t// in\n    tag_281:\n        /* \"#utility.yul\":2629:2700   */\n      tag_282\n        /* \"#utility.yul\":2693:2699   */\n      dup2\n        /* \"#utility.yul\":2688:2691   */\n      dup6\n        /* \"#utility.yul\":2629:2700   */\n      tag_192\n      jump\t// in\n    tag_282:\n        /* \"#utility.yul\":2622:2700   */\n      swap4\n      pop\n        /* \"#utility.yul\":2709:2774   */\n      tag_283\n        /* \"#utility.yul\":2767:2773   */\n      dup2\n        /* \"#utility.yul\":2762:2765   */\n      dup6\n        /* \"#utility.yul\":2755:2759   */\n      0x20\n        /* \"#utility.yul\":2748:2753   */\n      dup7\n        /* \"#utility.yul\":2744:2760   */\n      add\n        /* \"#utility.yul\":2709:2774   */\n      tag_193\n      jump\t// in\n    tag_283:\n        /* \"#utility.yul\":2799:2828   */\n      tag_284\n        /* \"#utility.yul\":2821:2827   */\n      dup2\n        /* \"#utility.yul\":2799:2828   */\n      tag_194\n      jump\t// in\n    tag_284:\n        /* \"#utility.yul\":2794:2797   */\n      dup5\n        /* \"#utility.yul\":2790:2829   */\n      add\n        /* \"#utility.yul\":2783:2829   */\n      swap2\n      pop\n        /* \"#utility.yul\":2550:2835   */\n      pop\n        /* \"#utility.yul\":2458:2835   */\n      swap3\n      swap2\n      pop\n      pop\n      jump\t// out\n        /* \"#utility.yul\":2841:3596   */\n    tag_20:\n        /* \"#utility.yul\":3066:3070   */\n      0x00\n        /* \"#utility.yul\":3104:3107   */\n      0xa0\n        /* \"#utility.yul\":3093:3102   */\n      dup3\n        /* \"#utility.yul\":3089:3108   */\n      add\n        /* \"#utility.yul\":3081:3108   */\n      swap1\n      pop\n        /* \"#utility.yul\":3118:3189   */\n      tag_286\n        /* \"#utility.yul\":3186:3187   */\n      0x00\n        /* \"#utility.yul\":3175:3184   */\n      dup4\n        /* \"#utility.yul\":3171:3188   */\n      add\n        /* \"#utility.yul\":3162:3168   */\n      dup9\n        /* \"#utility.yul\":3118:3189   */\n      tag_189\n      jump\t// in\n    tag_286:\n        /* \"#utility.yul\":3199:3271   */\n      tag_287\n        /* \"#utility.yul\":3267:3269   */\n      0x20\n        /* \"#utility.yul\":3256:3265   */\n      dup4\n        /* \"#utility.yul\":3252:3270   */\n      add\n        /* \"#utility.yul\":3243:3249   */\n      dup8\n        /* \"#utility.yul\":3199:3271   */\n      tag_190\n      jump\t// in\n    tag_287:\n        /* \"#utility.yul\":3318:3327   */\n      dup2\n        /* \"#utility.yul\":3312:3316   */\n      dup2\n        /* \"#utility.yul\":3308:3328   */\n      sub\n        /* \"#utility.yul\":3303:3305   */\n      0x40\n        /* \"#utility.yul\":3292:3301   */\n      dup4\n        /* \"#utility.yul\":3288:3306   */\n      add\n        /* \"#utility.yul\":3281:3329   */\n      mstore\n        /* \"#utility.yul\":3346:3424   */\n      tag_288\n        /* \"#utility.yul\":3419:3423   */\n      dup2\n        /* \"#utility.yul\":3410:3416   */\n      dup7\n        /* \"#utility.yul\":3346:3424   */\n      tag_195\n      jump\t// in\n    tag_288:\n        /* \"#utility.yul\":3338:3424   */\n      swap1\n      pop\n        /* \"#utility.yul\":3434:3506   */\n      tag_289\n        /* \"#utility.yul\":3502:3504   */\n      0x60\n        /* \"#utility.yul\":3491:3500   */\n      dup4\n        /* \"#utility.yul\":3487:3505   */\n      add\n        /* \"#utility.yul\":3478:3484   */\n      dup6\n        /* \"#utility.yul\":3434:3506   */\n      tag_189\n      jump\t// in\n    tag_289:\n        /* \"#utility.yul\":3516:3589   */\n      tag_290\n        /* \"#utility.yul\":3584:3587   */\n      0x80\n        /* \"#utility.yul\":3573:3582   */\n      dup4\n        /* \"#utility.yul\":3569:3588   */\n      add\n        /* \"#utility.yul\":3560:3566   */\n      dup5\n        /* \"#utility.yul\":3516:3589   */\n      tag_189\n      jump\t// in\n    tag_290:\n        /* \"#utility.yul\":2841:3596   */\n      swap7\n      swap6\n      pop\n      pop\n      pop\n      pop\n      pop\n      pop\n      jump\t// out\n        /* \"#utility.yul\":3602:3915   */\n    tag_25:\n        /* \"#utility.yul\":3715:3719   */\n      0x00\n        /* \"#utility.yul\":3753:3755   */\n      0x20\n        /* \"#utility.yul\":3742:3751   */\n      dup3\n        /* \"#utility.yul\":3738:3756   */\n      add\n        /* \"#utility.yul\":3730:3756   */\n      swap1\n      pop\n        /* \"#utility.yul\":3802:3811   */\n      dup2\n        /* \"#utility.yul\":3796:3800   */\n      dup2\n        /* \"#utility.yul\":3792:3812   */\n      sub\n        /* \"#utility.yul\":3788:3789   */\n      0x00\n        /* \"#utility.yul\":3777:3786   */\n      dup4\n        /* \"#utility.yul\":3773:3790   */\n      add\n        /* \"#utility.yul\":3766:3813   */\n      mstore\n        /* \"#utility.yul\":3830:3908   */\n      tag_292\n        /* \"#utility.yul\":3903:3907   */\n      dup2\n        /* \"#utility.yul\":3894:3900   */\n      dup5\n        /* \"#utility.yul\":3830:3908   */\n      tag_195\n      jump\t// in\n    tag_292:\n        /* \"#utility.yul\":3822:3908   */\n      swap1\n      pop\n        /* \"#utility.yul\":3602:3915   */\n      swap3\n      swap2\n      pop\n      pop\n      jump\t// out\n        /* \"#utility.yul\":3921:4038   */\n    tag_196:\n        /* \"#utility.yul\":4030:4031   */\n      0x00\n        /* \"#utility.yul\":4027:4028   */\n      0x00\n        /* \"#utility.yul\":4020:4032   */\n      revert\n        /* \"#utility.yul\":4044:4161   */\n    tag_197:\n        /* \"#utility.yul\":4153:4154   */\n      0x00\n        /* \"#utility.yul\":4150:4151   */\n      0x00\n        /* \"#utility.yul\":4143:4155   */\n      revert\n        /* \"#utility.yul\":4167:4347   */\n    tag_198:\n        /* \"#utility.yul\":4215:4292   */\n      0x4e487b7100000000000000000000000000000000000000000000000000000000\n        /* \"#utility.yul\":4212:4213   */\n      0x00\n        /* \"#utility.yul\":4205:4293   */\n      mstore\n        /* \"#utility.yul\":4312:4316   */\n      0x41\n        /* \"#utility.yul\":4309:4310   */\n      0x04\n        /* \"#utility.yul\":4302:4317   */\n      mstore\n        /* \"#utility.yul\":4336:4340   */\n      0x24\n        /* \"#utility.yul\":4333:4334   */\n      0x00\n        /* \"#utility.yul\":4326:4341   */\n      revert\n        /* \"#utility.yul\":4353:4634   */\n    tag_199:\n        /* \"#utility.yul\":4436:4463   */\n      tag_297\n        /* \"#utility.yul\":4458:4462   */\n      dup3\n        /* \"#utility.yul\":4436:4463   */\n      tag_194\n      jump\t// in\n    tag_297:\n        /* \"#utility.yul\":4428:4434   */\n      dup2\n        /* \"#utility.yul\":4424:4464   */\n      add\n        /* \"#utility.yul\":4566:4572   */\n      dup2\n        /* \"#utility.yul\":4554:4564   */\n      dup2\n        /* \"#utility.yul\":4551:4573   */\n      lt\n        /* \"#utility.yul\":4530:4548   */\n      0xffffffffffffffff\n        /* \"#utility.yul\":4518:4528   */\n      dup3\n        /* \"#utility.yul\":4515:4549   */\n      gt\n        /* \"#utility.yul\":4512:4574   */\n      or\n        /* \"#utility.yul\":4509:4597   */\n      iszero\n      tag_298\n      jumpi\n        /* \"#utility.yul\":4577:4595   */\n      tag_299\n      tag_198\n      jump\t// in\n    tag_299:\n        /* \"#utility.yul\":4509:4597   */\n    tag_298:\n        /* \"#utility.yul\":4617:4627   */\n      dup1\n        /* \"#utility.yul\":4613:4615   */\n      0x40\n        /* \"#utility.yul\":4606:4628   */\n      mstore\n        /* \"#utility.yul\":4396:4634   */\n      pop\n        /* \"#utility.yul\":4353:4634   */\n      pop\n      pop\n      jump\t// out\n        /* \"#utility.yul\":4640:4769   */\n    tag_200:\n        /* \"#utility.yul\":4674:4680   */\n      0x00\n        /* \"#utility.yul\":4701:4721   */\n      tag_301\n      tag_179\n      jump\t// in\n    tag_301:\n        /* \"#utility.yul\":4691:4721   */\n      swap1\n      pop\n        /* \"#utility.yul\":4730:4763   */\n      tag_302\n        /* \"#utility.yul\":4758:4762   */\n      dup3\n        /* \"#utility.yul\":4750:4756   */\n      dup3\n        /* \"#utility.yul\":4730:4763   */\n      tag_199\n      jump\t// in\n    tag_302:\n        /* \"#utility.yul\":4640:4769   */\n      swap2\n      swap1\n      pop\n      jump\t// out\n        /* \"#utility.yul\":4775:5083   */\n    tag_201:\n        /* \"#utility.yul\":4837:4841   */\n      0x00\n        /* \"#utility.yul\":4927:4945   */\n      0xffffffffffffffff\n        /* \"#utility.yul\":4919:4925   */\n      dup3\n        /* \"#utility.yul\":4916:4946   */\n      gt\n        /* \"#utility.yul\":4913:4969   */\n      iszero\n      tag_304\n      jumpi\n        /* \"#utility.yul\":4949:4967   */\n      tag_305\n      tag_198\n      jump\t// in\n    tag_305:\n        /* \"#utility.yul\":4913:4969   */\n    tag_304:\n        /* \"#utility.yul\":4987:5016   */\n      tag_306\n        /* \"#utility.yul\":5009:5015   */\n      dup3\n        /* \"#utility.yul\":4987:5016   */\n      tag_194\n      jump\t// in\n    tag_306:\n        /* \"#utility.yul\":4979:5016   */\n      swap1\n      pop\n        /* \"#utility.yul\":5071:5075   */\n      0x20\n        /* \"#utility.yul\":5065:5069   */\n      dup2\n        /* \"#utility.yul\":5061:5076   */\n      add\n        /* \"#utility.yul\":5053:5076   */\n      swap1\n      pop\n        /* \"#utility.yul\":4775:5083   */\n      swap2\n      swap1\n      pop\n      jump\t// out\n        /* \"#utility.yul\":5089:5237   */\n    tag_202:\n        /* \"#utility.yul\":5187:5193   */\n      dup3\n        /* \"#utility.yul\":5182:5185   */\n      dup2\n        /* \"#utility.yul\":5177:5180   */\n      dup4\n        /* \"#utility.yul\":5164:5194   */\n      calldatacopy\n        /* \"#utility.yul\":5228:5229   */\n      0x00\n        /* \"#utility.yul\":5219:5225   */\n      dup4\n        /* \"#utility.yul\":5214:5217   */\n      dup4\n        /* \"#utility.yul\":5210:5226   */\n      add\n        /* \"#utility.yul\":5203:5230   */\n      mstore\n        /* \"#utility.yul\":5089:5237   */\n      pop\n      pop\n      pop\n      jump\t// out\n        /* \"#utility.yul\":5243:5668   */\n    tag_203:\n        /* \"#utility.yul\":5321:5326   */\n      0x00\n        /* \"#utility.yul\":5346:5412   */\n      tag_309\n        /* \"#utility.yul\":5362:5411   */\n      tag_310\n        /* \"#utility.yul\":5404:5410   */\n      dup5\n        /* \"#utility.yul\":5362:5411   */\n      tag_201\n      jump\t// in\n    tag_310:\n        /* \"#utility.yul\":5346:5412   */\n      tag_200\n      jump\t// in\n    tag_309:\n        /* \"#utility.yul\":5337:5412   */\n      swap1\n      pop\n        /* \"#utility.yul\":5435:5441   */\n      dup3\n        /* \"#utility.yul\":5428:5433   */\n      dup2\n        /* \"#utility.yul\":5421:5442   */\n      mstore\n        /* \"#utility.yul\":5473:5477   */\n      0x20\n        /* \"#utility.yul\":5466:5471   */\n      dup2\n        /* \"#utility.yul\":5462:5478   */\n      add\n        /* \"#utility.yul\":5511:5514   */\n      dup5\n        /* \"#utility.yul\":5502:5508   */\n      dup5\n        /* \"#utility.yul\":5497:5500   */\n      dup5\n        /* \"#utility.yul\":5493:5509   */\n      add\n        /* \"#utility.yul\":5490:5515   */\n      gt\n        /* \"#utility.yul\":5487:5599   */\n      iszero\n      tag_311\n      jumpi\n        /* \"#utility.yul\":5518:5597   */\n      tag_312\n      tag_197\n      jump\t// in\n    tag_312:\n        /* \"#utility.yul\":5487:5599   */\n    tag_311:\n        /* \"#utility.yul\":5608:5662   */\n      tag_313\n        /* \"#utility.yul\":5655:5661   */\n      dup5\n        /* \"#utility.yul\":5650:5653   */\n      dup3\n        /* \"#utility.yul\":5645:5648   */\n      dup6\n        /* \"#utility.yul\":5608:5662   */\n      tag_202\n      jump\t// in\n    tag_313:\n        /* \"#utility.yul\":5327:5668   */\n      pop\n        /* \"#utility.yul\":5243:5668   */\n      swap4\n      swap3\n      pop\n      pop\n      pop\n      jump\t// out\n        /* \"#utility.yul\":5688:6028   */\n    tag_204:\n        /* \"#utility.yul\":5744:5749   */\n      0x00\n        /* \"#utility.yul\":5793:5796   */\n      dup3\n        /* \"#utility.yul\":5786:5790   */\n      0x1f\n        /* \"#utility.yul\":5778:5784   */\n      dup4\n        /* \"#utility.yul\":5774:5791   */\n      add\n        /* \"#utility.yul\":5770:5797   */\n      slt\n        /* \"#utility.yul\":5760:5882   */\n      tag_315\n      jumpi\n        /* \"#utility.yul\":5801:5880   */\n      tag_316\n      tag_196\n      jump\t// in\n    tag_316:\n        /* \"#utility.yul\":5760:5882   */\n    tag_315:\n        /* \"#utility.yul\":5918:5924   */\n      dup2\n        /* \"#utility.yul\":5905:5925   */\n      calldataload\n        /* \"#utility.yul\":5943:6022   */\n      tag_317\n        /* \"#utility.yul\":6018:6021   */\n      dup5\n        /* \"#utility.yul\":6010:6016   */\n      dup3\n        /* \"#utility.yul\":6003:6007   */\n      0x20\n        /* \"#utility.yul\":5995:6001   */\n      dup7\n        /* \"#utility.yul\":5991:6008   */\n      add\n        /* \"#utility.yul\":5943:6022   */\n      tag_203\n      jump\t// in\n    tag_317:\n        /* \"#utility.yul\":5934:6022   */\n      swap2\n      pop\n        /* \"#utility.yul\":5750:6028   */\n      pop\n        /* \"#utility.yul\":5688:6028   */\n      swap3\n      swap2\n      pop\n      pop\n      jump\t// out\n        /* \"#utility.yul\":6034:6543   */\n    tag_31:\n        /* \"#utility.yul\":6103:6109   */\n      0x00\n        /* \"#utility.yul\":6152:6154   */\n      0x20\n        /* \"#utility.yul\":6140:6149   */\n      dup3\n        /* \"#utility.yul\":6131:6138   */\n      dup5\n        /* \"#utility.yul\":6127:6150   */\n      sub\n        /* \"#utility.yul\":6123:6155   */\n      slt\n        /* \"#utility.yul\":6120:6239   */\n      iszero\n      tag_319\n      jumpi\n        /* \"#utility.yul\":6158:6237   */\n      tag_320\n      tag_180\n      jump\t// in\n    tag_320:\n        /* \"#utility.yul\":6120:6239   */\n    tag_319:\n        /* \"#utility.yul\":6306:6307   */\n      0x00\n        /* \"#utility.yul\":6295:6304   */\n      dup3\n        /* \"#utility.yul\":6291:6308   */\n      add\n        /* \"#utility.yul\":6278:6309   */\n      calldataload\n        /* \"#utility.yul\":6336:6354   */\n      0xffffffffffffffff\n        /* \"#utility.yul\":6328:6334   */\n      dup2\n        /* \"#utility.yul\":6325:6355   */\n      gt\n        /* \"#utility.yul\":6322:6439   */\n      iszero\n      tag_321\n      jumpi\n        /* \"#utility.yul\":6358:6437   */\n      tag_322\n      tag_181\n      jump\t// in\n    tag_322:\n        /* \"#utility.yul\":6322:6439   */\n    tag_321:\n        /* \"#utility.yul\":6463:6526   */\n      tag_323\n        /* \"#utility.yul\":6518:6525   */\n      dup5\n        /* \"#utility.yul\":6509:6515   */\n      dup3\n        /* \"#utility.yul\":6498:6507   */\n      dup6\n        /* \"#utility.yul\":6494:6516   */\n      add\n        /* \"#utility.yul\":6463:6526   */\n      tag_204\n      jump\t// in\n    tag_323:\n        /* \"#utility.yul\":6453:6526   */\n      swap2\n      pop\n        /* \"#utility.yul\":6249:6536   */\n      pop\n        /* \"#utility.yul\":6034:6543   */\n      swap3\n      swap2\n      pop\n      pop\n      jump\t// out\n        /* \"#utility.yul\":6549:6771   */\n    tag_40:\n        /* \"#utility.yul\":6642:6646   */\n      0x00\n        /* \"#utility.yul\":6680:6682   */\n      0x20\n        /* \"#utility.yul\":6669:6678   */\n      dup3\n        /* \"#utility.yul\":6665:6683   */\n      add\n        /* \"#utility.yul\":6657:6683   */\n      swap1\n      pop\n        /* \"#utility.yul\":6693:6764   */\n      tag_325\n        /* \"#utility.yul\":6761:6762   */\n      0x00\n        /* \"#utility.yul\":6750:6759   */\n      dup4\n        /* \"#utility.yul\":6746:6763   */\n      add\n        /* \"#utility.yul\":6737:6743   */\n      dup5\n        /* \"#utility.yul\":6693:6764   */\n      tag_189\n      jump\t// in\n    tag_325:\n        /* \"#utility.yul\":6549:6771   */\n      swap3\n      swap2\n      pop\n      pop\n      jump\t// out\n        /* \"#utility.yul\":6777:7106   */\n    tag_43:\n        /* \"#utility.yul\":6836:6842   */\n      0x00\n        /* \"#utility.yul\":6885:6887   */\n      0x20\n        /* \"#utility.yul\":6873:6882   */\n      dup3\n        /* \"#utility.yul\":6864:6871   */\n      dup5\n        /* \"#utility.yul\":6860:6883   */\n      sub\n        /* \"#utility.yul\":6856:6888   */\n      slt\n        /* \"#utility.yul\":6853:6972   */\n      iszero\n      tag_327\n      jumpi\n        /* \"#utility.yul\":6891:6970   */\n      tag_328\n      tag_180\n      jump\t// in\n    tag_328:\n        /* \"#utility.yul\":6853:6972   */\n    tag_327:\n        /* \"#utility.yul\":7011:7012   */\n      0x00\n        /* \"#utility.yul\":7036:7089   */\n      tag_329\n        /* \"#utility.yul\":7081:7088   */\n      dup5\n        /* \"#utility.yul\":7072:7078   */\n      dup3\n        /* \"#utility.yul\":7061:7070   */\n      dup6\n        /* \"#utility.yul\":7057:7079   */\n      add\n        /* \"#utility.yul\":7036:7089   */\n      tag_188\n      jump\t// in\n    tag_329:\n        /* \"#utility.yul\":7026:7089   */\n      swap2\n      pop\n        /* \"#utility.yul\":6982:7099   */\n      pop\n        /* \"#utility.yul\":6777:7106   */\n      swap3\n      swap2\n      pop\n      pop\n      jump\t// out\n        /* \"#utility.yul\":7112:7441   */\n    tag_58:\n        /* \"#utility.yul\":7171:7177   */\n      0x00\n        /* \"#utility.yul\":7220:7222   */\n      0x20\n        /* \"#utility.yul\":7208:7217   */\n      dup3\n        /* \"#utility.yul\":7199:7206   */\n      dup5\n        /* \"#utility.yul\":7195:7218   */\n      sub\n        /* \"#utility.yul\":7191:7223   */\n      slt\n        /* \"#utility.yul\":7188:7307   */\n      iszero\n      tag_331\n      jumpi\n        /* \"#utility.yul\":7226:7305   */\n      tag_332\n      tag_180\n      jump\t// in\n    tag_332:\n        /* \"#utility.yul\":7188:7307   */\n    tag_331:\n        /* \"#utility.yul\":7346:7347   */\n      0x00\n        /* \"#utility.yul\":7371:7424   */\n      tag_333\n        /* \"#utility.yul\":7416:7423   */\n      dup5\n        /* \"#utility.yul\":7407:7413   */\n      dup3\n        /* \"#utility.yul\":7396:7405   */\n      dup6\n        /* \"#utility.yul\":7392:7414   */\n      add\n        /* \"#utility.yul\":7371:7424   */\n      tag_185\n      jump\t// in\n    tag_333:\n        /* \"#utility.yul\":7361:7424   */\n      swap2\n      pop\n        /* \"#utility.yul\":7317:7434   */\n      pop\n        /* \"#utility.yul\":7112:7441   */\n      swap3\n      swap2\n      pop\n      pop\n      jump\t// out\n        /* \"#utility.yul\":7447:7582   */\n    tag_205:\n        /* \"#utility.yul\":7535:7541   */\n      0x00\n        /* \"#utility.yul\":7569:7574   */\n      dup2\n        /* \"#utility.yul\":7563:7575   */\n      mload\n        /* \"#utility.yul\":7553:7575   */\n      swap1\n      pop\n        /* \"#utility.yul\":7447:7582   */\n      swap2\n      swap1\n      pop\n      jump\t// out\n        /* \"#utility.yul\":7588:7793   */\n    tag_206:\n        /* \"#utility.yul\":7708:7719   */\n      0x00\n        /* \"#utility.yul\":7742:7748   */\n      dup3\n        /* \"#utility.yul\":7737:7740   */\n      dup3\n        /* \"#utility.yul\":7730:7749   */\n      mstore\n        /* \"#utility.yul\":7782:7786   */\n      0x20\n        /* \"#utility.yul\":7777:7780   */\n      dup3\n        /* \"#utility.yul\":7773:7787   */\n      add\n        /* \"#utility.yul\":7758:7787   */\n      swap1\n      pop\n        /* \"#utility.yul\":7588:7793   */\n      swap3\n      swap2\n      pop\n      pop\n      jump\t// out\n        /* \"#utility.yul\":7799:7952   */\n    tag_207:\n        /* \"#utility.yul\":7887:7891   */\n      0x00\n        /* \"#utility.yul\":7910:7913   */\n      dup2\n        /* \"#utility.yul\":7902:7913   */\n      swap1\n      pop\n        /* \"#utility.yul\":7940:7944   */\n      0x20\n        /* \"#utility.yul\":7935:7938   */\n      dup3\n        /* \"#utility.yul\":7931:7945   */\n      add\n        /* \"#utility.yul\":7923:7945   */\n      swap1\n      pop\n        /* \"#utility.yul\":7799:7952   */\n      swap2\n      swap1\n      pop\n      jump\t// out\n        /* \"#utility.yul\":7958:8066   */\n    tag_208:\n        /* \"#utility.yul\":8035:8059   */\n      tag_338\n        /* \"#utility.yul\":8053:8058   */\n      dup2\n        /* \"#utility.yul\":8035:8059   */\n      tag_186\n      jump\t// in\n    tag_338:\n        /* \"#utility.yul\":8030:8033   */\n      dup3\n        /* \"#utility.yul\":8023:8060   */\n      mstore\n        /* \"#utility.yul\":7958:8066   */\n      pop\n      pop\n      jump\t// out\n        /* \"#utility.yul\":8072:8180   */\n    tag_209:\n        /* \"#utility.yul\":8149:8173   */\n      tag_340\n        /* \"#utility.yul\":8167:8172   */\n      dup2\n        /* \"#utility.yul\":8149:8173   */\n      tag_183\n      jump\t// in\n    tag_340:\n        /* \"#utility.yul\":8144:8147   */\n      dup3\n        /* \"#utility.yul\":8137:8174   */\n      mstore\n        /* \"#utility.yul\":8072:8180   */\n      pop\n      pop\n      jump\t// out\n        /* \"#utility.yul\":8186:8345   */\n    tag_210:\n        /* \"#utility.yul\":8260:8271   */\n      0x00\n        /* \"#utility.yul\":8294:8300   */\n      dup3\n        /* \"#utility.yul\":8289:8292   */\n      dup3\n        /* \"#utility.yul\":8282:8301   */\n      mstore\n        /* \"#utility.yul\":8334:8338   */\n      0x20\n        /* \"#utility.yul\":8329:8332   */\n      dup3\n        /* \"#utility.yul\":8325:8339   */\n      add\n        /* \"#utility.yul\":8310:8339   */\n      swap1\n      pop\n        /* \"#utility.yul\":8186:8345   */\n      swap3\n      swap2\n      pop\n      pop\n      jump\t// out\n        /* \"#utility.yul\":8351:8708   */\n    tag_211:\n        /* \"#utility.yul\":8429:8432   */\n      0x00\n        /* \"#utility.yul\":8457:8496   */\n      tag_343\n        /* \"#utility.yul\":8490:8495   */\n      dup3\n        /* \"#utility.yul\":8457:8496   */\n      tag_191\n      jump\t// in\n    tag_343:\n        /* \"#utility.yul\":8512:8573   */\n      tag_344\n        /* \"#utility.yul\":8566:8572   */\n      dup2\n        /* \"#utility.yul\":8561:8564   */\n      dup6\n        /* \"#utility.yul\":8512:8573   */\n      tag_210\n      jump\t// in\n    tag_344:\n        /* \"#utility.yul\":8505:8573   */\n      swap4\n      pop\n        /* \"#utility.yul\":8582:8647   */\n      tag_345\n        /* \"#utility.yul\":8640:8646   */\n      dup2\n        /* \"#utility.yul\":8635:8638   */\n      dup6\n        /* \"#utility.yul\":8628:8632   */\n      0x20\n        /* \"#utility.yul\":8621:8626   */\n      dup7\n        /* \"#utility.yul\":8617:8633   */\n      add\n        /* \"#utility.yul\":8582:8647   */\n      tag_193\n      jump\t// in\n    tag_345:\n        /* \"#utility.yul\":8672:8701   */\n      tag_346\n        /* \"#utility.yul\":8694:8700   */\n      dup2\n        /* \"#utility.yul\":8672:8701   */\n      tag_194\n      jump\t// in\n    tag_346:\n        /* \"#utility.yul\":8667:8670   */\n      dup5\n        /* \"#utility.yul\":8663:8702   */\n      add\n        /* \"#utility.yul\":8656:8702   */\n      swap2\n      pop\n        /* \"#utility.yul\":8433:8708   */\n      pop\n        /* \"#utility.yul\":8351:8708   */\n      swap3\n      swap2\n      pop\n      pop\n      jump\t// out\n        /* \"#utility.yul\":8766:9885   */\n    tag_212:\n        /* \"#utility.yul\":8867:8870   */\n      0x00\n        /* \"#utility.yul\":8903:8907   */\n      0xa0\n        /* \"#utility.yul\":8898:8901   */\n      dup4\n        /* \"#utility.yul\":8894:8908   */\n      add\n        /* \"#utility.yul\":8988:8992   */\n      0x00\n        /* \"#utility.yul\":8981:8986   */\n      dup4\n        /* \"#utility.yul\":8977:8993   */\n      add\n        /* \"#utility.yul\":8971:8994   */\n      mload\n        /* \"#utility.yul\":9007:9070   */\n      tag_348\n        /* \"#utility.yul\":9064:9068   */\n      0x00\n        /* \"#utility.yul\":9059:9062   */\n      dup7\n        /* \"#utility.yul\":9055:9069   */\n      add\n        /* \"#utility.yul\":9041:9053   */\n      dup3\n        /* \"#utility.yul\":9007:9070   */\n      tag_208\n      jump\t// in\n    tag_348:\n        /* \"#utility.yul\":8918:9080   */\n      pop\n        /* \"#utility.yul\":9164:9168   */\n      0x20\n        /* \"#utility.yul\":9157:9162   */\n      dup4\n        /* \"#utility.yul\":9153:9169   */\n      add\n        /* \"#utility.yul\":9147:9170   */\n      mload\n        /* \"#utility.yul\":9183:9246   */\n      tag_349\n        /* \"#utility.yul\":9240:9244   */\n      0x20\n        /* \"#utility.yul\":9235:9238   */\n      dup7\n        /* \"#utility.yul\":9231:9245   */\n      add\n        /* \"#utility.yul\":9217:9229   */\n      dup3\n        /* \"#utility.yul\":9183:9246   */\n      tag_209\n      jump\t// in\n    tag_349:\n        /* \"#utility.yul\":9090:9256   */\n      pop\n        /* \"#utility.yul\":9341:9345   */\n      0x40\n        /* \"#utility.yul\":9334:9339   */\n      dup4\n        /* \"#utility.yul\":9330:9346   */\n      add\n        /* \"#utility.yul\":9324:9347   */\n      mload\n        /* \"#utility.yul\":9394:9397   */\n      dup5\n        /* \"#utility.yul\":9388:9392   */\n      dup3\n        /* \"#utility.yul\":9384:9398   */\n      sub\n        /* \"#utility.yul\":9377:9381   */\n      0x40\n        /* \"#utility.yul\":9372:9375   */\n      dup7\n        /* \"#utility.yul\":9368:9382   */\n      add\n        /* \"#utility.yul\":9361:9399   */\n      mstore\n        /* \"#utility.yul\":9420:9493   */\n      tag_350\n        /* \"#utility.yul\":9488:9492   */\n      dup3\n        /* \"#utility.yul\":9474:9486   */\n      dup3\n        /* \"#utility.yul\":9420:9493   */\n      tag_211\n      jump\t// in\n    tag_350:\n        /* \"#utility.yul\":9412:9493   */\n      swap2\n      pop\n        /* \"#utility.yul\":9266:9504   */\n      pop\n        /* \"#utility.yul\":9591:9595   */\n      0x60\n        /* \"#utility.yul\":9584:9589   */\n      dup4\n        /* \"#utility.yul\":9580:9596   */\n      add\n        /* \"#utility.yul\":9574:9597   */\n      mload\n        /* \"#utility.yul\":9610:9673   */\n      tag_351\n        /* \"#utility.yul\":9667:9671   */\n      0x60\n        /* \"#utility.yul\":9662:9665   */\n      dup7\n        /* \"#utility.yul\":9658:9672   */\n      add\n        /* \"#utility.yul\":9644:9656   */\n      dup3\n        /* \"#utility.yul\":9610:9673   */\n      tag_208\n      jump\t// in\n    tag_351:\n        /* \"#utility.yul\":9514:9683   */\n      pop\n        /* \"#utility.yul\":9766:9770   */\n      0x80\n        /* \"#utility.yul\":9759:9764   */\n      dup4\n        /* \"#utility.yul\":9755:9771   */\n      add\n        /* \"#utility.yul\":9749:9772   */\n      mload\n        /* \"#utility.yul\":9785:9848   */\n      tag_352\n        /* \"#utility.yul\":9842:9846   */\n      0x80\n        /* \"#utility.yul\":9837:9840   */\n      dup7\n        /* \"#utility.yul\":9833:9847   */\n      add\n        /* \"#utility.yul\":9819:9831   */\n      dup3\n        /* \"#utility.yul\":9785:9848   */\n      tag_208\n      jump\t// in\n    tag_352:\n        /* \"#utility.yul\":9693:9858   */\n      pop\n        /* \"#utility.yul\":9875:9879   */\n      dup1\n        /* \"#utility.yul\":9868:9879   */\n      swap2\n      pop\n        /* \"#utility.yul\":8872:9885   */\n      pop\n        /* \"#utility.yul\":8766:9885   */\n      swap3\n      swap2\n      pop\n      pop\n      jump\t// out\n        /* \"#utility.yul\":9891:10131   */\n    tag_213:\n        /* \"#utility.yul\":10002:10012   */\n      0x00\n        /* \"#utility.yul\":10037:10125   */\n      tag_354\n        /* \"#utility.yul\":10121:10124   */\n      dup4\n        /* \"#utility.yul\":10113:10119   */\n      dup4\n        /* \"#utility.yul\":10037:10125   */\n      tag_212\n      jump\t// in\n    tag_354:\n        /* \"#utility.yul\":10023:10125   */\n      swap1\n      pop\n        /* \"#utility.yul\":9891:10131   */\n      swap3\n      swap2\n      pop\n      pop\n      jump\t// out\n        /* \"#utility.yul\":10137:10271   */\n    tag_214:\n        /* \"#utility.yul\":10228:10232   */\n      0x00\n        /* \"#utility.yul\":10260:10264   */\n      0x20\n        /* \"#utility.yul\":10255:10258   */\n      dup3\n        /* \"#utility.yul\":10251:10265   */\n      add\n        /* \"#utility.yul\":10243:10265   */\n      swap1\n      pop\n        /* \"#utility.yul\":10137:10271   */\n      swap2\n      swap1\n      pop\n      jump\t// out\n        /* \"#utility.yul\":10333:11412   */\n    tag_215:\n        /* \"#utility.yul\":10494:10497   */\n      0x00\n        /* \"#utility.yul\":10523:10598   */\n      tag_357\n        /* \"#utility.yul\":10592:10597   */\n      dup3\n        /* \"#utility.yul\":10523:10598   */\n      tag_205\n      jump\t// in\n    tag_357:\n        /* \"#utility.yul\":10614:10721   */\n      tag_358\n        /* \"#utility.yul\":10714:10720   */\n      dup2\n        /* \"#utility.yul\":10709:10712   */\n      dup6\n        /* \"#utility.yul\":10614:10721   */\n      tag_206\n      jump\t// in\n    tag_358:\n        /* \"#utility.yul\":10607:10721   */\n      swap4\n      pop\n        /* \"#utility.yul\":10747:10750   */\n      dup4\n        /* \"#utility.yul\":10792:10796   */\n      0x20\n        /* \"#utility.yul\":10784:10790   */\n      dup3\n        /* \"#utility.yul\":10780:10797   */\n      mul\n        /* \"#utility.yul\":10775:10778   */\n      dup6\n        /* \"#utility.yul\":10771:10798   */\n      add\n        /* \"#utility.yul\":10822:10899   */\n      tag_359\n        /* \"#utility.yul\":10893:10898   */\n      dup6\n        /* \"#utility.yul\":10822:10899   */\n      tag_207\n      jump\t// in\n    tag_359:\n        /* \"#utility.yul\":10922:10929   */\n      dup1\n        /* \"#utility.yul\":10953:10954   */\n      0x00\n        /* \"#utility.yul\":10938:11367   */\n    tag_360:\n        /* \"#utility.yul\":10963:10969   */\n      dup6\n        /* \"#utility.yul\":10960:10961   */\n      dup2\n        /* \"#utility.yul\":10957:10970   */\n      lt\n        /* \"#utility.yul\":10938:11367   */\n      iszero\n      tag_362\n      jumpi\n        /* \"#utility.yul\":11034:11043   */\n      dup5\n        /* \"#utility.yul\":11028:11032   */\n      dup5\n        /* \"#utility.yul\":11024:11044   */\n      sub\n        /* \"#utility.yul\":11019:11022   */\n      dup10\n        /* \"#utility.yul\":11012:11045   */\n      mstore\n        /* \"#utility.yul\":11085:11091   */\n      dup2\n        /* \"#utility.yul\":11079:11092   */\n      mload\n        /* \"#utility.yul\":11113:11219   */\n      tag_363\n        /* \"#utility.yul\":11214:11218   */\n      dup6\n        /* \"#utility.yul\":11199:11212   */\n      dup3\n        /* \"#utility.yul\":11113:11219   */\n      tag_213\n      jump\t// in\n    tag_363:\n        /* \"#utility.yul\":11105:11219   */\n      swap5\n      pop\n        /* \"#utility.yul\":11242:11323   */\n      tag_364\n        /* \"#utility.yul\":11316:11322   */\n      dup4\n        /* \"#utility.yul\":11242:11323   */\n      tag_214\n      jump\t// in\n    tag_364:\n        /* \"#utility.yul\":11232:11323   */\n      swap3\n      pop\n        /* \"#utility.yul\":11352:11356   */\n      0x20\n        /* \"#utility.yul\":11347:11350   */\n      dup11\n        /* \"#utility.yul\":11343:11357   */\n      add\n        /* \"#utility.yul\":11336:11357   */\n      swap10\n      pop\n        /* \"#utility.yul\":10998:11367   */\n      pop\n        /* \"#utility.yul\":10985:10986   */\n      0x01\n        /* \"#utility.yul\":10982:10983   */\n      dup2\n        /* \"#utility.yul\":10978:10987   */\n      add\n        /* \"#utility.yul\":10973:10987   */\n      swap1\n      pop\n        /* \"#utility.yul\":10938:11367   */\n      jump(tag_360)\n    tag_362:\n        /* \"#utility.yul\":10942:10956   */\n      pop\n        /* \"#utility.yul\":11383:11387   */\n      dup3\n        /* \"#utility.yul\":11376:11387   */\n      swap8\n      pop\n        /* \"#utility.yul\":11403:11406   */\n      dup8\n        /* \"#utility.yul\":11396:11406   */\n      swap6\n      pop\n        /* \"#utility.yul\":10499:11412   */\n      pop\n      pop\n      pop\n      pop\n      pop\n        /* \"#utility.yul\":10333:11412   */\n      swap3\n      swap2\n      pop\n      pop\n      jump\t// out\n        /* \"#utility.yul\":11418:11875   */\n    tag_61:\n        /* \"#utility.yul\":11603:11607   */\n      0x00\n        /* \"#utility.yul\":11641:11643   */\n      0x20\n        /* \"#utility.yul\":11630:11639   */\n      dup3\n        /* \"#utility.yul\":11626:11644   */\n      add\n        /* \"#utility.yul\":11618:11644   */\n      swap1\n      pop\n        /* \"#utility.yul\":11690:11699   */\n      dup2\n        /* \"#utility.yul\":11684:11688   */\n      dup2\n        /* \"#utility.yul\":11680:11700   */\n      sub\n        /* \"#utility.yul\":11676:11677   */\n      0x00\n        /* \"#utility.yul\":11665:11674   */\n      dup4\n        /* \"#utility.yul\":11661:11678   */\n      add\n        /* \"#utility.yul\":11654:11701   */\n      mstore\n        /* \"#utility.yul\":11718:11868   */\n      tag_366\n        /* \"#utility.yul\":11863:11867   */\n      dup2\n        /* \"#utility.yul\":11854:11860   */\n      dup5\n        /* \"#utility.yul\":11718:11868   */\n      tag_215\n      jump\t// in\n    tag_366:\n        /* \"#utility.yul\":11710:11868   */\n      swap1\n      pop\n        /* \"#utility.yul\":11418:11875   */\n      swap3\n      swap2\n      pop\n      pop\n      jump\t// out\n        /* \"#utility.yul\":11881:12061   */\n    tag_216:\n        /* \"#utility.yul\":11929:12006   */\n      0x4e487b7100000000000000000000000000000000000000000000000000000000\n        /* \"#utility.yul\":11926:11927   */\n      0x00\n        /* \"#utility.yul\":11919:12007   */\n      mstore\n        /* \"#utility.yul\":12026:12030   */\n      0x22\n        /* \"#utility.yul\":12023:12024   */\n      0x04\n        /* \"#utility.yul\":12016:12031   */\n      mstore\n        /* \"#utility.yul\":12050:12054   */\n      0x24\n        /* \"#utility.yul\":12047:12048   */\n      0x00\n        /* \"#utility.yul\":12040:12055   */\n      revert\n        /* \"#utility.yul\":12067:12387   */\n    tag_65:\n        /* \"#utility.yul\":12111:12117   */\n      0x00\n        /* \"#utility.yul\":12148:12149   */\n      0x02\n        /* \"#utility.yul\":12142:12146   */\n      dup3\n        /* \"#utility.yul\":12138:12150   */\n      div\n        /* \"#utility.yul\":12128:12150   */\n      swap1\n      pop\n        /* \"#utility.yul\":12195:12196   */\n      0x01\n        /* \"#utility.yul\":12189:12193   */\n      dup3\n        /* \"#utility.yul\":12185:12197   */\n      and\n        /* \"#utility.yul\":12216:12234   */\n      dup1\n        /* \"#utility.yul\":12206:12287   */\n      tag_369\n      jumpi\n        /* \"#utility.yul\":12272:12276   */\n      0x7f\n        /* \"#utility.yul\":12264:12270   */\n      dup3\n        /* \"#utility.yul\":12260:12277   */\n      and\n        /* \"#utility.yul\":12250:12277   */\n      swap2\n      pop\n        /* \"#utility.yul\":12206:12287   */\n    tag_369:\n        /* \"#utility.yul\":12334:12336   */\n      0x20\n        /* \"#utility.yul\":12326:12332   */\n      dup3\n        /* \"#utility.yul\":12323:12337   */\n      lt\n        /* \"#utility.yul\":12303:12321   */\n      dup2\n        /* \"#utility.yul\":12300:12338   */\n      sub\n        /* \"#utility.yul\":12297:12381   */\n      tag_370\n      jumpi\n        /* \"#utility.yul\":12353:12371   */\n      tag_371\n      tag_216\n      jump\t// in\n    tag_371:\n        /* \"#utility.yul\":12297:12381   */\n    tag_370:\n        /* \"#utility.yul\":12118:12387   */\n      pop\n        /* \"#utility.yul\":12067:12387   */\n      swap2\n      swap1\n      pop\n      jump\t// out\n        /* \"#utility.yul\":12393:12573   */\n    tag_73:\n        /* \"#utility.yul\":12441:12518   */\n      0x4e487b7100000000000000000000000000000000000000000000000000000000\n        /* \"#utility.yul\":12438:12439   */\n      0x00\n        /* \"#utility.yul\":12431:12519   */\n      mstore\n        /* \"#utility.yul\":12538:12542   */\n      0x32\n        /* \"#utility.yul\":12535:12536   */\n      0x04\n        /* \"#utility.yul\":12528:12543   */\n      mstore\n        /* \"#utility.yul\":12562:12566   */\n      0x24\n        /* \"#utility.yul\":12559:12560   */\n      0x00\n        /* \"#utility.yul\":12552:12567   */\n      revert\n        /* \"#utility.yul\":12579:12749   */\n    tag_217:\n        /* \"#utility.yul\":12719:12741   */\n      0x547765657420646f6573206e6f74206578697374000000000000000000000000\n        /* \"#utility.yul\":12715:12716   */\n      0x00\n        /* \"#utility.yul\":12707:12713   */\n      dup3\n        /* \"#utility.yul\":12703:12717   */\n      add\n        /* \"#utility.yul\":12696:12742   */\n      mstore\n        /* \"#utility.yul\":12579:12749   */\n      pop\n      jump\t// out\n        /* \"#utility.yul\":12755:13121   */\n    tag_218:\n        /* \"#utility.yul\":12897:12900   */\n      0x00\n        /* \"#utility.yul\":12918:12985   */\n      tag_375\n        /* \"#utility.yul\":12982:12984   */\n      0x14\n        /* \"#utility.yul\":12977:12980   */\n      dup4\n        /* \"#utility.yul\":12918:12985   */\n      tag_192\n      jump\t// in\n    tag_375:\n        /* \"#utility.yul\":12911:12985   */\n      swap2\n      pop\n        /* \"#utility.yul\":12994:13087   */\n      tag_376\n        /* \"#utility.yul\":13083:13086   */\n      dup3\n        /* \"#utility.yul\":12994:13087   */\n      tag_217\n      jump\t// in\n    tag_376:\n        /* \"#utility.yul\":13112:13114   */\n      0x20\n        /* \"#utility.yul\":13107:13110   */\n      dup3\n        /* \"#utility.yul\":13103:13115   */\n      add\n        /* \"#utility.yul\":13096:13115   */\n      swap1\n      pop\n        /* \"#utility.yul\":12755:13121   */\n      swap2\n      swap1\n      pop\n      jump\t// out\n        /* \"#utility.yul\":13127:13546   */\n    tag_86:\n        /* \"#utility.yul\":13293:13297   */\n      0x00\n        /* \"#utility.yul\":13331:13333   */\n      0x20\n        /* \"#utility.yul\":13320:13329   */\n      dup3\n        /* \"#utility.yul\":13316:13334   */\n      add\n        /* \"#utility.yul\":13308:13334   */\n      swap1\n      pop\n        /* \"#utility.yul\":13380:13389   */\n      dup2\n        /* \"#utility.yul\":13374:13378   */\n      dup2\n        /* \"#utility.yul\":13370:13390   */\n      sub\n        /* \"#utility.yul\":13366:13367   */\n      0x00\n        /* \"#utility.yul\":13355:13364   */\n      dup4\n        /* \"#utility.yul\":13351:13368   */\n      add\n        /* \"#utility.yul\":13344:13391   */\n      mstore\n        /* \"#utility.yul\":13408:13539   */\n      tag_378\n        /* \"#utility.yul\":13534:13538   */\n      dup2\n        /* \"#utility.yul\":13408:13539   */\n      tag_218\n      jump\t// in\n    tag_378:\n        /* \"#utility.yul\":13400:13539   */\n      swap1\n      pop\n        /* \"#utility.yul\":13127:13546   */\n      swap2\n      swap1\n      pop\n      jump\t// out\n        /* \"#utility.yul\":13552:13732   */\n    tag_219:\n        /* \"#utility.yul\":13600:13677   */\n      0x4e487b7100000000000000000000000000000000000000000000000000000000\n        /* \"#utility.yul\":13597:13598   */\n      0x00\n        /* \"#utility.yul\":13590:13678   */\n      mstore\n        /* \"#utility.yul\":13697:13701   */\n      0x11\n        /* \"#utility.yul\":13694:13695   */\n      0x04\n        /* \"#utility.yul\":13687:13702   */\n      mstore\n        /* \"#utility.yul\":13721:13725   */\n      0x24\n        /* \"#utility.yul\":13718:13719   */\n      0x00\n        /* \"#utility.yul\":13711:13726   */\n      revert\n        /* \"#utility.yul\":13738:13929   */\n    tag_91:\n        /* \"#utility.yul\":13778:13781   */\n      0x00\n        /* \"#utility.yul\":13797:13817   */\n      tag_381\n        /* \"#utility.yul\":13815:13816   */\n      dup3\n        /* \"#utility.yul\":13797:13817   */\n      tag_186\n      jump\t// in\n    tag_381:\n        /* \"#utility.yul\":13792:13817   */\n      swap2\n      pop\n        /* \"#utility.yul\":13831:13851   */\n      tag_382\n        /* \"#utility.yul\":13849:13850   */\n      dup4\n        /* \"#utility.yul\":13831:13851   */\n      tag_186\n      jump\t// in\n    tag_382:\n        /* \"#utility.yul\":13826:13851   */\n      swap3\n      pop\n        /* \"#utility.yul\":13874:13875   */\n      dup3\n        /* \"#utility.yul\":13871:13872   */\n      dup3\n        /* \"#utility.yul\":13867:13876   */\n      add\n        /* \"#utility.yul\":13860:13876   */\n      swap1\n      pop\n        /* \"#utility.yul\":13895:13898   */\n      dup1\n        /* \"#utility.yul\":13892:13893   */\n      dup3\n        /* \"#utility.yul\":13889:13899   */\n      gt\n        /* \"#utility.yul\":13886:13922   */\n      iszero\n      tag_383\n      jumpi\n        /* \"#utility.yul\":13902:13920   */\n      tag_384\n      tag_219\n      jump\t// in\n    tag_384:\n        /* \"#utility.yul\":13886:13922   */\n    tag_383:\n        /* \"#utility.yul\":13738:13929   */\n      swap3\n      swap2\n      pop\n      pop\n      jump\t// out\n        /* \"#utility.yul\":13935:14488   */\n    tag_99:\n        /* \"#utility.yul\":14112:14116   */\n      0x00\n        /* \"#utility.yul\":14150:14153   */\n      0x80\n        /* \"#utility.yul\":14139:14148   */\n      dup3\n        /* \"#utility.yul\":14135:14154   */\n      add\n        /* \"#utility.yul\":14127:14154   */\n      swap1\n      pop\n        /* \"#utility.yul\":14164:14235   */\n      tag_386\n        /* \"#utility.yul\":14232:14233   */\n      0x00\n        /* \"#utility.yul\":14221:14230   */\n      dup4\n        /* \"#utility.yul\":14217:14234   */\n      add\n        /* \"#utility.yul\":14208:14214   */\n      dup8\n        /* \"#utility.yul\":14164:14235   */\n      tag_190\n      jump\t// in\n    tag_386:\n        /* \"#utility.yul\":14245:14317   */\n      tag_387\n        /* \"#utility.yul\":14313:14315   */\n      0x20\n        /* \"#utility.yul\":14302:14311   */\n      dup4\n        /* \"#utility.yul\":14298:14316   */\n      add\n        /* \"#utility.yul\":14289:14295   */\n      dup7\n        /* \"#utility.yul\":14245:14317   */\n      tag_190\n      jump\t// in\n    tag_387:\n        /* \"#utility.yul\":14327:14399   */\n      tag_388\n        /* \"#utility.yul\":14395:14397   */\n      0x40\n        /* \"#utility.yul\":14384:14393   */\n      dup4\n        /* \"#utility.yul\":14380:14398   */\n      add\n        /* \"#utility.yul\":14371:14377   */\n      dup6\n        /* \"#utility.yul\":14327:14399   */\n      tag_189\n      jump\t// in\n    tag_388:\n        /* \"#utility.yul\":14409:14481   */\n      tag_389\n        /* \"#utility.yul\":14477:14479   */\n      0x60\n        /* \"#utility.yul\":14466:14475   */\n      dup4\n        /* \"#utility.yul\":14462:14480   */\n      add\n        /* \"#utility.yul\":14453:14459   */\n      dup5\n        /* \"#utility.yul\":14409:14481   */\n      tag_189\n      jump\t// in\n    tag_389:\n        /* \"#utility.yul\":13935:14488   */\n      swap6\n      swap5\n      pop\n      pop\n      pop\n      pop\n      pop\n      jump\t// out\n        /* \"#utility.yul\":14494:14635   */\n    tag_220:\n        /* \"#utility.yul\":14543:14547   */\n      0x00\n        /* \"#utility.yul\":14566:14569   */\n      dup2\n        /* \"#utility.yul\":14558:14569   */\n      swap1\n      pop\n        /* \"#utility.yul\":14589:14592   */\n      dup2\n        /* \"#utility.yul\":14586:14587   */\n      0x00\n        /* \"#utility.yul\":14579:14593   */\n      mstore\n        /* \"#utility.yul\":14623:14627   */\n      0x20\n        /* \"#utility.yul\":14620:14621   */\n      0x00\n        /* \"#utility.yul\":14610:14628   */\n      keccak256\n        /* \"#utility.yul\":14602:14628   */\n      swap1\n      pop\n        /* \"#utility.yul\":14494:14635   */\n      swap2\n      swap1\n      pop\n      jump\t// out\n        /* \"#utility.yul\":14641:14734   */\n    tag_221:\n        /* \"#utility.yul\":14678:14684   */\n      0x00\n        /* \"#utility.yul\":14725:14727   */\n      0x20\n        /* \"#utility.yul\":14720:14722   */\n      0x1f\n        /* \"#utility.yul\":14713:14718   */\n      dup4\n        /* \"#utility.yul\":14709:14723   */\n      add\n        /* \"#utility.yul\":14705:14728   */\n      div\n        /* \"#utility.yul\":14695:14728   */\n      swap1\n      pop\n        /* \"#utility.yul\":14641:14734   */\n      swap2\n      swap1\n      pop\n      jump\t// out\n        /* \"#utility.yul\":14740:14847   */\n    tag_222:\n        /* \"#utility.yul\":14784:14792   */\n      0x00\n        /* \"#utility.yul\":14834:14839   */\n      dup3\n        /* \"#utility.yul\":14828:14832   */\n      dup3\n        /* \"#utility.yul\":14824:14840   */\n      shl\n        /* \"#utility.yul\":14803:14840   */\n      swap1\n      pop\n        /* \"#utility.yul\":14740:14847   */\n      swap3\n      swap2\n      pop\n      pop\n      jump\t// out\n        /* \"#utility.yul\":14853:15246   */\n    tag_223:\n        /* \"#utility.yul\":14922:14928   */\n      0x00\n        /* \"#utility.yul\":14972:14973   */\n      0x08\n        /* \"#utility.yul\":14960:14970   */\n      dup4\n        /* \"#utility.yul\":14956:14974   */\n      mul\n        /* \"#utility.yul\":14995:15092   */\n      tag_394\n        /* \"#utility.yul\":15025:15091   */\n      0xffffffffffffffffffffffffffffffffffffffffffffffffffffffffffffffff\n        /* \"#utility.yul\":15014:15023   */\n      dup3\n        /* \"#utility.yul\":14995:15092   */\n      tag_222\n      jump\t// in\n    tag_394:\n        /* \"#utility.yul\":15113:15152   */\n      tag_395\n        /* \"#utility.yul\":15143:15151   */\n      dup7\n        /* \"#utility.yul\":15132:15141   */\n      dup4\n        /* \"#utility.yul\":15113:15152   */\n      tag_222\n      jump\t// in\n    tag_395:\n        /* \"#utility.yul\":15101:15152   */\n      swap6\n      pop\n        /* \"#utility.yul\":15185:15189   */\n      dup1\n        /* \"#utility.yul\":15181:15190   */\n      not\n        /* \"#utility.yul\":15174:15179   */\n      dup5\n        /* \"#utility.yul\":15170:15191   */\n      and\n        /* \"#utility.yul\":15161:15191   */\n      swap4\n      pop\n        /* \"#utility.yul\":15234:15238   */\n      dup1\n        /* \"#utility.yul\":15224:15232   */\n      dup7\n        /* \"#utility.yul\":15220:15239   */\n      and\n        /* \"#utility.yul\":15213:15218   */\n      dup5\n        /* \"#utility.yul\":15210:15240   */\n      or\n        /* \"#utility.yul\":15200:15240   */\n      swap3\n      pop\n        /* \"#utility.yul\":14929:15246   */\n      pop\n      pop\n        /* \"#utility.yul\":14853:15246   */\n      swap4\n      swap3\n      pop\n      pop\n      pop\n      jump\t// out\n        /* \"#utility.yul\":15252:15312   */\n    tag_224:\n        /* \"#utility.yul\":15280:15283   */\n      0x00\n        /* \"#utility.yul\":15301:15306   */\n      dup2\n        /* \"#utility.yul\":15294:15306   */\n      swap1\n      pop\n        /* \"#utility.yul\":15252:15312   */\n      swap2\n      swap1\n      pop\n      jump\t// out\n        /* \"#utility.yul\":15318:15460   */\n    tag_225:\n        /* \"#utility.yul\":15368:15377   */\n      0x00\n        /* \"#utility.yul\":15401:15454   */\n      tag_398\n        /* \"#utility.yul\":15419:15453   */\n      tag_399\n        /* \"#utility.yul\":15428:15452   */\n      tag_400\n        /* \"#utility.yul\":15446:15451   */\n      dup5\n        /* \"#utility.yul\":15428:15452   */\n      tag_186\n      jump\t// in\n    tag_400:\n        /* \"#utility.yul\":15419:15453   */\n      tag_224\n      jump\t// in\n    tag_399:\n        /* \"#utility.yul\":15401:15454   */\n      tag_186\n      jump\t// in\n    tag_398:\n        /* \"#utility.yul\":15388:15454   */\n      swap1\n      pop\n        /* \"#utility.yul\":15318:15460   */\n      swap2\n      swap1\n      pop\n      jump\t// out\n        /* \"#utility.yul\":15466:15541   */\n    tag_226:\n        /* \"#utility.yul\":15509:15512   */\n      0x00\n        /* \"#utility.yul\":15530:15535   */\n      dup2\n        /* \"#utility.yul\":15523:15535   */\n      swap1\n      pop\n        /* \"#utility.yul\":15466:15541   */\n      swap2\n      swap1\n      pop\n      jump\t// out\n        /* \"#utility.yul\":15547:15816   */\n    tag_227:\n        /* \"#utility.yul\":15657:15696   */\n      tag_403\n        /* \"#utility.yul\":15688:15695   */\n      dup4\n        /* \"#utility.yul\":15657:15696   */\n      tag_225\n      jump\t// in\n    tag_403:\n        /* \"#utility.yul\":15718:15809   */\n      tag_404\n        /* \"#utility.yul\":15767:15808   */\n      tag_405\n        /* \"#utility.yul\":15791:15807   */\n      dup3\n        /* \"#utility.yul\":15767:15808   */\n      tag_226\n      jump\t// in\n    tag_405:\n        /* \"#utility.yul\":15759:15765   */\n      dup5\n        /* \"#utility.yul\":15752:15756   */\n      dup5\n        /* \"#utility.yul\":15746:15757   */\n      sload\n        /* \"#utility.yul\":15718:15809   */\n      tag_223\n      jump\t// in\n    tag_404:\n        /* \"#utility.yul\":15712:15716   */\n      dup3\n        /* \"#utility.yul\":15705:15810   */\n      sstore\n        /* \"#utility.yul\":15623:15816   */\n      pop\n        /* \"#utility.yul\":15547:15816   */\n      pop\n      pop\n      pop\n      jump\t// out\n        /* \"#utility.yul\":15822:15895   */\n    tag_228:\n        /* \"#utility.yul\":15867:15870   */\n      0x00\n        /* \"#utility.yul\":15888:15889   */\n      0x00\n        /* \"#utility.yul\":15881:15889   */\n      swap1\n      pop\n        /* \"#utility.yul\":15822:15895   */\n      swap1\n      jump\t// out\n        /* \"#utility.yul\":15901:16090   */\n    tag_229:\n        /* \"#utility.yul\":15978:16010   */\n      tag_408\n      tag_228\n      jump\t// in\n    tag_408:\n        /* \"#utility.yul\":16019:16084   */\n      tag_409\n        /* \"#utility.yul\":16077:16083   */\n      dup2\n        /* \"#utility.yul\":16069:16075   */\n      dup5\n        /* \"#utility.yul\":16063:16067   */\n      dup5\n        /* \"#utility.yul\":16019:16084   */\n      tag_227\n      jump\t// in\n    tag_409:\n        /* \"#utility.yul\":15954:16090   */\n      pop\n        /* \"#utility.yul\":15901:16090   */\n      pop\n      pop\n      jump\t// out\n        /* \"#utility.yul\":16096:16282   */\n    tag_230:\n        /* \"#utility.yul\":16156:16276   */\n    tag_411:\n        /* \"#utility.yul\":16173:16176   */\n      dup2\n        /* \"#utility.yul\":16166:16171   */\n      dup2\n        /* \"#utility.yul\":16163:16177   */\n      lt\n        /* \"#utility.yul\":16156:16276   */\n      iszero\n      tag_413\n      jumpi\n        /* \"#utility.yul\":16227:16266   */\n      tag_414\n        /* \"#utility.yul\":16264:16265   */\n      0x00\n        /* \"#utility.yul\":16257:16262   */\n      dup3\n        /* \"#utility.yul\":16227:16266   */\n      tag_229\n      jump\t// in\n    tag_414:\n        /* \"#utility.yul\":16200:16201   */\n      0x01\n        /* \"#utility.yul\":16193:16198   */\n      dup2\n        /* \"#utility.yul\":16189:16202   */\n      add\n        /* \"#utility.yul\":16180:16202   */\n      swap1\n      pop\n        /* \"#utility.yul\":16156:16276   */\n      jump(tag_411)\n    tag_413:\n        /* \"#utility.yul\":16096:16282   */\n      pop\n      pop\n      jump\t// out\n        /* \"#utility.yul\":16288:16831   */\n    tag_231:\n        /* \"#utility.yul\":16389:16391   */\n      0x1f\n        /* \"#utility.yul\":16384:16387   */\n      dup3\n        /* \"#utility.yul\":16381:16392   */\n      gt\n        /* \"#utility.yul\":16378:16824   */\n      iszero\n      tag_416\n      jumpi\n        /* \"#utility.yul\":16423:16461   */\n      tag_417\n        /* \"#utility.yul\":16455:16460   */\n      dup2\n        /* \"#utility.yul\":16423:16461   */\n      tag_220\n      jump\t// in\n    tag_417:\n        /* \"#utility.yul\":16507:16536   */\n      tag_418\n        /* \"#utility.yul\":16525:16535   */\n      dup5\n        /* \"#utility.yul\":16507:16536   */\n      tag_221\n      jump\t// in\n    tag_418:\n        /* \"#utility.yul\":16497:16505   */\n      dup2\n        /* \"#utility.yul\":16493:16537   */\n      add\n        /* \"#utility.yul\":16690:16692   */\n      0x20\n        /* \"#utility.yul\":16678:16688   */\n      dup6\n        /* \"#utility.yul\":16675:16693   */\n      lt\n        /* \"#utility.yul\":16672:16721   */\n      iszero\n      tag_419\n      jumpi\n        /* \"#utility.yul\":16711:16719   */\n      dup2\n        /* \"#utility.yul\":16696:16719   */\n      swap1\n      pop\n        /* \"#utility.yul\":16672:16721   */\n    tag_419:\n        /* \"#utility.yul\":16734:16814   */\n      tag_420\n        /* \"#utility.yul\":16790:16812   */\n      tag_421\n        /* \"#utility.yul\":16808:16811   */\n      dup6\n        /* \"#utility.yul\":16790:16812   */\n      tag_221\n      jump\t// in\n    tag_421:\n        /* \"#utility.yul\":16780:16788   */\n      dup4\n        /* \"#utility.yul\":16776:16813   */\n      add\n        /* \"#utility.yul\":16763:16774   */\n      dup3\n        /* \"#utility.yul\":16734:16814   */\n      tag_230\n      jump\t// in\n    tag_420:\n        /* \"#utility.yul\":16393:16824   */\n      pop\n      pop\n        /* \"#utility.yul\":16378:16824   */\n    tag_416:\n        /* \"#utility.yul\":16288:16831   */\n      pop\n      pop\n      pop\n      jump\t// out\n        /* \"#utility.yul\":16837:16954   */\n    tag_232:\n        /* \"#utility.yul\":16891:16899   */\n      0x00\n        /* \"#utility.yul\":16941:16946   */\n      dup3\n        /* \"#utility.yul\":16935:16939   */\n      dup3\n        /* \"#utility.yul\":16931:16947   */\n      shr\n        /* \"#utility.yul\":16910:16947   */\n      swap1\n      pop\n        /* \"#utility.yul\":16837:16954   */\n      swap3\n      swap2\n      pop\n      pop\n      jump\t// out\n        /* \"#utility.yul\":16960:17129   */\n    tag_233:\n        /* \"#utility.yul\":17004:17010   */\n      0x00\n        /* \"#utility.yul\":17037:17088   */\n      tag_424\n        /* \"#utility.yul\":17085:17086   */\n      0x00\n        /* \"#utility.yul\":17081:17087   */\n      not\n        /* \"#utility.yul\":17073:17078   */\n      dup5\n        /* \"#utility.yul\":17070:17071   */\n      0x08\n        /* \"#utility.yul\":17066:17079   */\n      mul\n        /* \"#utility.yul\":17037:17088   */\n      tag_232\n      jump\t// in\n    tag_424:\n        /* \"#utility.yul\":17033:17089   */\n      not\n        /* \"#utility.yul\":17118:17122   */\n      dup1\n        /* \"#utility.yul\":17112:17116   */\n      dup4\n        /* \"#utility.yul\":17108:17123   */\n      and\n        /* \"#utility.yul\":17098:17123   */\n      swap2\n      pop\n        /* \"#utility.yul\":17011:17129   */\n      pop\n        /* \"#utility.yul\":16960:17129   */\n      swap3\n      swap2\n      pop\n      pop\n      jump\t// out\n        /* \"#utility.yul\":17134:17429   */\n    tag_234:\n        /* \"#utility.yul\":17210:17214   */\n      0x00\n        /* \"#utility.yul\":17356:17385   */\n      tag_426\n        /* \"#utility.yul\":17381:17384   */\n      dup4\n        /* \"#utility.yul\":17375:17379   */\n      dup4\n        /* \"#utility.yul\":17356:17385   */\n      tag_233\n      jump\t// in\n    tag_426:\n        /* \"#utility.yul\":17348:17385   */\n      swap2\n      pop\n        /* \"#utility.yul\":17418:17421   */\n      dup3\n        /* \"#utility.yul\":17415:17416   */\n      0x02\n        /* \"#utility.yul\":17411:17422   */\n      mul\n        /* \"#utility.yul\":17405:17409   */\n      dup3\n        /* \"#utility.yul\":17402:17423   */\n      or\n        /* \"#utility.yul\":17394:17423   */\n      swap1\n      pop\n        /* \"#utility.yul\":17134:17429   */\n      swap3\n      swap2\n      pop\n      pop\n      jump\t// out\n        /* \"#utility.yul\":17434:18829   */\n    tag_103:\n        /* \"#utility.yul\":17551:17588   */\n      tag_428\n        /* \"#utility.yul\":17584:17587   */\n      dup3\n        /* \"#utility.yul\":17551:17588   */\n      tag_191\n      jump\t// in\n    tag_428:\n        /* \"#utility.yul\":17653:17671   */\n      0xffffffffffffffff\n        /* \"#utility.yul\":17645:17651   */\n      dup2\n        /* \"#utility.yul\":17642:17672   */\n      gt\n        /* \"#utility.yul\":17639:17695   */\n      iszero\n      tag_429\n      jumpi\n        /* \"#utility.yul\":17675:17693   */\n      tag_430\n      tag_198\n      jump\t// in\n    tag_430:\n        /* \"#utility.yul\":17639:17695   */\n    tag_429:\n        /* \"#utility.yul\":17719:17757   */\n      tag_431\n        /* \"#utility.yul\":17751:17755   */\n      dup3\n        /* \"#utility.yul\":17745:17756   */\n      sload\n        /* \"#utility.yul\":17719:17757   */\n      tag_65\n      jump\t// in\n    tag_431:\n        /* \"#utility.yul\":17804:17871   */\n      tag_432\n        /* \"#utility.yul\":17864:17870   */\n      dup3\n        /* \"#utility.yul\":17856:17862   */\n      dup3\n        /* \"#utility.yul\":17850:17854   */\n      dup6\n        /* \"#utility.yul\":17804:17871   */\n      tag_231\n      jump\t// in\n    tag_432:\n        /* \"#utility.yul\":17898:17899   */\n      0x00\n        /* \"#utility.yul\":17922:17926   */\n      0x20\n        /* \"#utility.yul\":17909:17926   */\n      swap1\n      pop\n        /* \"#utility.yul\":17954:17956   */\n      0x1f\n        /* \"#utility.yul\":17946:17952   */\n      dup4\n        /* \"#utility.yul\":17943:17957   */\n      gt\n        /* \"#utility.yul\":17971:17972   */\n      0x01\n        /* \"#utility.yul\":17966:18584   */\n      dup2\n      eq\n      tag_434\n      jumpi\n        /* \"#utility.yul\":18628:18629   */\n      0x00\n        /* \"#utility.yul\":18645:18651   */\n      dup5\n        /* \"#utility.yul\":18642:18719   */\n      iszero\n      tag_435\n      jumpi\n        /* \"#utility.yul\":18694:18703   */\n      dup3\n        /* \"#utility.yul\":18689:18692   */\n      dup8\n        /* \"#utility.yul\":18685:18704   */\n      add\n        /* \"#utility.yul\":18679:18705   */\n      mload\n        /* \"#utility.yul\":18670:18705   */\n      swap1\n      pop\n        /* \"#utility.yul\":18642:18719   */\n    tag_435:\n        /* \"#utility.yul\":18745:18812   */\n      tag_436\n        /* \"#utility.yul\":18805:18811   */\n      dup6\n        /* \"#utility.yul\":18798:18803   */\n      dup3\n        /* \"#utility.yul\":18745:18812   */\n      tag_234\n      jump\t// in\n    tag_436:\n        /* \"#utility.yul\":18739:18743   */\n      dup7\n        /* \"#utility.yul\":18732:18813   */\n      sstore\n        /* \"#utility.yul\":18601:18823   */\n      pop\n        /* \"#utility.yul\":17936:18823   */\n      jump(tag_433)\n        /* \"#utility.yul\":17966:18584   */\n    tag_434:\n        /* \"#utility.yul\":18018:18022   */\n      0x1f\n        /* \"#utility.yul\":18014:18023   */\n      not\n        /* \"#utility.yul\":18006:18012   */\n      dup5\n        /* \"#utility.yul\":18002:18024   */\n      and\n        /* \"#utility.yul\":18052:18089   */\n      tag_437\n        /* \"#utility.yul\":18084:18088   */\n      dup7\n        /* \"#utility.yul\":18052:18089   */\n      tag_220\n      jump\t// in\n    tag_437:\n        /* \"#utility.yul\":18111:18112   */\n      0x00\n        /* \"#utility.yul\":18125:18333   */\n    tag_438:\n        /* \"#utility.yul\":18139:18146   */\n      dup3\n        /* \"#utility.yul\":18136:18137   */\n      dup2\n        /* \"#utility.yul\":18133:18147   */\n      lt\n        /* \"#utility.yul\":18125:18333   */\n      iszero\n      tag_440\n      jumpi\n        /* \"#utility.yul\":18218:18227   */\n      dup5\n        /* \"#utility.yul\":18213:18216   */\n      dup10\n        /* \"#utility.yul\":18209:18228   */\n      add\n        /* \"#utility.yul\":18203:18229   */\n      mload\n        /* \"#utility.yul\":18195:18201   */\n      dup3\n        /* \"#utility.yul\":18188:18230   */\n      sstore\n        /* \"#utility.yul\":18269:18270   */\n      0x01\n        /* \"#utility.yul\":18261:18267   */\n      dup3\n        /* \"#utility.yul\":18257:18271   */\n      add\n        /* \"#utility.yul\":18247:18271   */\n      swap2\n      pop\n        /* \"#utility.yul\":18316:18318   */\n      0x20\n        /* \"#utility.yul\":18305:18314   */\n      dup6\n        /* \"#utility.yul\":18301:18319   */\n      add\n        /* \"#utility.yul\":18288:18319   */\n      swap5\n      pop\n        /* \"#utility.yul\":18162:18166   */\n      0x20\n        /* \"#utility.yul\":18159:18160   */\n      dup2\n        /* \"#utility.yul\":18155:18167   */\n      add\n        /* \"#utility.yul\":18150:18167   */\n      swap1\n      pop\n        /* \"#utility.yul\":18125:18333   */\n      jump(tag_438)\n    tag_440:\n        /* \"#utility.yul\":18361:18367   */\n      dup7\n        /* \"#utility.yul\":18352:18359   */\n      dup4\n        /* \"#utility.yul\":18349:18368   */\n      lt\n        /* \"#utility.yul\":18346:18525   */\n      iszero\n      tag_441\n      jumpi\n        /* \"#utility.yul\":18419:18428   */\n      dup5\n        /* \"#utility.yul\":18414:18417   */\n      dup10\n        /* \"#utility.yul\":18410:18429   */\n      add\n        /* \"#utility.yul\":18404:18430   */\n      mload\n        /* \"#utility.yul\":18462:18510   */\n      tag_442\n        /* \"#utility.yul\":18504:18508   */\n      0x1f\n        /* \"#utility.yul\":18496:18502   */\n      dup10\n        /* \"#utility.yul\":18492:18509   */\n      and\n        /* \"#utility.yul\":18481:18490   */\n      dup3\n        /* \"#utility.yul\":18462:18510   */\n      tag_233\n      jump\t// in\n    tag_442:\n        /* \"#utility.yul\":18454:18460   */\n      dup4\n        /* \"#utility.yul\":18447:18511   */\n      sstore\n        /* \"#utility.yul\":18369:18525   */\n      pop\n        /* \"#utility.yul\":18346:18525   */\n    tag_441:\n        /* \"#utility.yul\":18571:18572   */\n      0x01\n        /* \"#utility.yul\":18567:18568   */\n      0x02\n        /* \"#utility.yul\":18559:18565   */\n      dup9\n        /* \"#utility.yul\":18555:18569   */\n      mul\n        /* \"#utility.yul\":18551:18573   */\n      add\n        /* \"#utility.yul\":18545:18549   */\n      dup9\n        /* \"#utility.yul\":18538:18574   */\n      sstore\n        /* \"#utility.yul\":17973:18584   */\n      pop\n      pop\n      pop\n        /* \"#utility.yul\":17936:18823   */\n    tag_433:\n      pop\n        /* \"#utility.yul\":17526:18829   */\n      pop\n      pop\n      pop\n        /* \"#utility.yul\":17434:18829   */\n      pop\n      pop\n      jump\t// out\n        /* \"#utility.yul\":18835:19006   */\n    tag_235:\n        /* \"#utility.yul\":18975:18998   */\n      0x54776565742063616e6e6f7420626520656d7074790000000000000000000000\n        /* \"#utility.yul\":18971:18972   */\n      0x00\n        /* \"#utility.yul\":18963:18969   */\n      dup3\n        /* \"#utility.yul\":18959:18973   */\n      add\n        /* \"#utility.yul\":18952:18999   */\n      mstore\n        /* \"#utility.yul\":18835:19006   */\n      pop\n      jump\t// out\n        /* \"#utility.yul\":19012:19378   */\n    tag_236:\n        /* \"#utility.yul\":19154:19157   */\n      0x00\n        /* \"#utility.yul\":19175:19242   */\n      tag_445\n        /* \"#utility.yul\":19239:19241   */\n      0x15\n        /* \"#utility.yul\":19234:19237   */\n      dup4\n        /* \"#utility.yul\":19175:19242   */\n      tag_192\n      jump\t// in\n    tag_445:\n        /* \"#utility.yul\":19168:19242   */\n      swap2\n      pop\n        /* \"#utility.yul\":19251:19344   */\n      tag_446\n        /* \"#utility.yul\":19340:19343   */\n      dup3\n        /* \"#utility.yul\":19251:19344   */\n      tag_235\n      jump\t// in\n    tag_446:\n        /* \"#utility.yul\":19369:19371   */\n      0x20\n        /* \"#utility.yul\":19364:19367   */\n      dup3\n        /* \"#utility.yul\":19360:19372   */\n      add\n        /* \"#utility.yul\":19353:19372   */\n      swap1\n      pop\n        /* \"#utility.yul\":19012:19378   */\n      swap2\n      swap1\n      pop\n      jump\t// out\n        /* \"#utility.yul\":19384:19803   */\n    tag_107:\n        /* \"#utility.yul\":19550:19554   */\n      0x00\n        /* \"#utility.yul\":19588:19590   */\n      0x20\n        /* \"#utility.yul\":19577:19586   */\n      dup3\n        /* \"#utility.yul\":19573:19591   */\n      add\n        /* \"#utility.yul\":19565:19591   */\n      swap1\n      pop\n        /* \"#utility.yul\":19637:19646   */\n      dup2\n        /* \"#utility.yul\":19631:19635   */\n      dup2\n        /* \"#utility.yul\":19627:19647   */\n      sub\n        /* \"#utility.yul\":19623:19624   */\n      0x00\n        /* \"#utility.yul\":19612:19621   */\n      dup4\n        /* \"#utility.yul\":19608:19625   */\n      add\n        /* \"#utility.yul\":19601:19648   */\n      mstore\n        /* \"#utility.yul\":19665:19796   */\n      tag_448\n        /* \"#utility.yul\":19791:19795   */\n      dup2\n        /* \"#utility.yul\":19665:19796   */\n      tag_236\n      jump\t// in\n    tag_448:\n        /* \"#utility.yul\":19657:19796   */\n      swap1\n      pop\n        /* \"#utility.yul\":19384:19803   */\n      swap2\n      swap1\n      pop\n      jump\t// out\n        /* \"#utility.yul\":19809:20036   */\n    tag_237:\n        /* \"#utility.yul\":19949:19983   */\n      0x54776565742063616e6e6f74206265206d6f7265207468616e20323830206368\n        /* \"#utility.yul\":19945:19946   */\n      0x00\n        /* \"#utility.yul\":19937:19943   */\n      dup3\n        /* \"#utility.yul\":19933:19947   */\n      add\n        /* \"#utility.yul\":19926:19984   */\n      mstore\n        /* \"#utility.yul\":20018:20028   */\n      0x6172616374657273000000000000000000000000000000000000000000000000\n        /* \"#utility.yul\":20013:20015   */\n      0x20\n        /* \"#utility.yul\":20005:20011   */\n      dup3\n        /* \"#utility.yul\":20001:20016   */\n      add\n        /* \"#utility.yul\":19994:20029   */\n      mstore\n        /* \"#utility.yul\":19809:20036   */\n      pop\n      jump\t// out\n        /* \"#utility.yul\":20042:20408   */\n    tag_238:\n        /* \"#utility.yul\":20184:20187   */\n      0x00\n        /* \"#utility.yul\":20205:20272   */\n      tag_451\n        /* \"#utility.yul\":20269:20271   */\n      0x28\n        /* \"#utility.yul\":20264:20267   */\n      dup4\n        /* \"#utility.yul\":20205:20272   */\n      tag_192\n      jump\t// in\n    tag_451:\n        /* \"#utility.yul\":20198:20272   */\n      swap2\n      pop\n        /* \"#utility.yul\":20281:20374   */\n      tag_452\n        /* \"#utility.yul\":20370:20373   */\n      dup3\n        /* \"#utility.yul\":20281:20374   */\n      tag_237\n      jump\t// in\n    tag_452:\n        /* \"#utility.yul\":20399:20401   */\n      0x40\n        /* \"#utility.yul\":20394:20397   */\n      dup3\n        /* \"#utility.yul\":20390:20402   */\n      add\n        /* \"#utility.yul\":20383:20402   */\n      swap1\n      pop\n        /* \"#utility.yul\":20042:20408   */\n      swap2\n      swap1\n      pop\n      jump\t// out\n        /* \"#utility.yul\":20414:20833   */\n    tag_110:\n        /* \"#utility.yul\":20580:20584   */\n      0x00\n        /* \"#utility.yul\":20618:20620   */\n      0x20\n        /* \"#utility.yul\":20607:20616   */\n      dup3\n        /* \"#utility.yul\":20603:20621   */\n      add\n        /* \"#utility.yul\":20595:20621   */\n      swap1\n      pop\n        /* \"#utility.yul\":20667:20676   */\n      dup2\n        /* \"#utility.yul\":20661:20665   */\n      dup2\n        /* \"#utility.yul\":20657:20677   */\n      sub\n        /* \"#utility.yul\":20653:20654   */\n      0x00\n        /* \"#utility.yul\":20642:20651   */\n      dup4\n        /* \"#utility.yul\":20638:20655   */\n      add\n        /* \"#utility.yul\":20631:20678   */\n      mstore\n        /* \"#utility.yul\":20695:20826   */\n      tag_454\n        /* \"#utility.yul\":20821:20825   */\n      dup2\n        /* \"#utility.yul\":20695:20826   */\n      tag_238\n      jump\t// in\n    tag_454:\n        /* \"#utility.yul\":20687:20826   */\n      swap1\n      pop\n        /* \"#utility.yul\":20414:20833   */\n      swap2\n      swap1\n      pop\n      jump\t// out\n        /* \"#utility.yul\":20839:20918   */\n    tag_239:\n        /* \"#utility.yul\":20878:20885   */\n      0x00\n        /* \"#utility.yul\":20907:20912   */\n      dup2\n        /* \"#utility.yul\":20896:20912   */\n      swap1\n      pop\n        /* \"#utility.yul\":20839:20918   */\n      swap2\n      swap1\n      pop\n      jump\t// out\n        /* \"#utility.yul\":20924:21081   */\n    tag_240:\n        /* \"#utility.yul\":21029:21074   */\n      tag_457\n        /* \"#utility.yul\":21049:21073   */\n      tag_458\n        /* \"#utility.yul\":21067:21072   */\n      dup3\n        /* \"#utility.yul\":21049:21073   */\n      tag_186\n      jump\t// in\n    tag_458:\n        /* \"#utility.yul\":21029:21074   */\n      tag_239\n      jump\t// in\n    tag_457:\n        /* \"#utility.yul\":21024:21027   */\n      dup3\n        /* \"#utility.yul\":21017:21075   */\n      mstore\n        /* \"#utility.yul\":20924:21081   */\n      pop\n      pop\n      jump\t// out\n        /* \"#utility.yul\":21087:21181   */\n    tag_241:\n        /* \"#utility.yul\":21120:21128   */\n      0x00\n        /* \"#utility.yul\":21168:21173   */\n      dup2\n        /* \"#utility.yul\":21164:21166   */\n      0x60\n        /* \"#utility.yul\":21160:21174   */\n      shl\n        /* \"#utility.yul\":21139:21174   */\n      swap1\n      pop\n        /* \"#utility.yul\":21087:21181   */\n      swap2\n      swap1\n      pop\n      jump\t// out\n        /* \"#utility.yul\":21187:21281   */\n    tag_242:\n        /* \"#utility.yul\":21226:21233   */\n      0x00\n        /* \"#utility.yul\":21255:21275   */\n      tag_461\n        /* \"#utility.yul\":21269:21274   */\n      dup3\n        /* \"#utility.yul\":21255:21275   */\n      tag_241\n      jump\t// in\n    tag_461:\n        /* \"#utility.yul\":21244:21275   */\n      swap1\n      pop\n        /* \"#utility.yul\":21187:21281   */\n      swap2\n      swap1\n      pop\n      jump\t// out\n        /* \"#utility.yul\":21287:21387   */\n    tag_243:\n        /* \"#utility.yul\":21326:21333   */\n      0x00\n        /* \"#utility.yul\":21355:21381   */\n      tag_463\n        /* \"#utility.yul\":21375:21380   */\n      dup3\n        /* \"#utility.yul\":21355:21381   */\n      tag_242\n      jump\t// in\n    tag_463:\n        /* \"#utility.yul\":21344:21381   */\n      swap1\n      pop\n        /* \"#utility.yul\":21287:21387   */\n      swap2\n      swap1\n      pop\n      jump\t// out\n        /* \"#utility.yul\":21393:21550   */\n    tag_244:\n        /* \"#utility.yul\":21498:21543   */\n      tag_465\n        /* \"#utility.yul\":21518:21542   */\n      tag_466\n        /* \"#utility.yul\":21536:21541   */\n      dup3\n        /* \"#utility.yul\":21518:21542   */\n      tag_183\n      jump\t// in\n    tag_466:\n        /* \"#utility.yul\":21498:21543   */\n      tag_243\n      jump\t// in\n    tag_465:\n        /* \"#utility.yul\":21493:21496   */\n      dup3\n        /* \"#utility.yul\":21486:21544   */\n      mstore\n        /* \"#utility.yul\":21393:21550   */\n      pop\n      pop\n      jump\t// out\n        /* \"#utility.yul\":21556:21953   */\n    tag_112:\n        /* \"#utility.yul\":21696:21699   */\n      0x00\n        /* \"#utility.yul\":21711:21786   */\n      tag_468\n        /* \"#utility.yul\":21782:21785   */\n      dup3\n        /* \"#utility.yul\":21773:21779   */\n      dup6\n        /* \"#utility.yul\":21711:21786   */\n      tag_240\n      jump\t// in\n    tag_468:\n        /* \"#utility.yul\":21811:21813   */\n      0x20\n        /* \"#utility.yul\":21806:21809   */\n      dup3\n        /* \"#utility.yul\":21802:21814   */\n      add\n        /* \"#utility.yul\":21795:21814   */\n      swap2\n      pop\n        /* \"#utility.yul\":21824:21899   */\n      tag_469\n        /* \"#utility.yul\":21895:21898   */\n      dup3\n        /* \"#utility.yul\":21886:21892   */\n      dup5\n        /* \"#utility.yul\":21824:21899   */\n      tag_244\n      jump\t// in\n    tag_469:\n        /* \"#utility.yul\":21924:21926   */\n      0x14\n        /* \"#utility.yul\":21919:21922   */\n      dup3\n        /* \"#utility.yul\":21915:21927   */\n      add\n        /* \"#utility.yul\":21908:21927   */\n      swap2\n      pop\n        /* \"#utility.yul\":21944:21947   */\n      dup2\n        /* \"#utility.yul\":21937:21947   */\n      swap1\n      pop\n        /* \"#utility.yul\":21556:21953   */\n      swap4\n      swap3\n      pop\n      pop\n      pop\n      jump\t// out\n        /* \"#utility.yul\":21959:22291   */\n    tag_116:\n        /* \"#utility.yul\":22080:22084   */\n      0x00\n        /* \"#utility.yul\":22118:22120   */\n      0x40\n        /* \"#utility.yul\":22107:22116   */\n      dup3\n        /* \"#utility.yul\":22103:22121   */\n      add\n        /* \"#utility.yul\":22095:22121   */\n      swap1\n      pop\n        /* \"#utility.yul\":22131:22202   */\n      tag_471\n        /* \"#utility.yul\":22199:22200   */\n      0x00\n        /* \"#utility.yul\":22188:22197   */\n      dup4\n        /* \"#utility.yul\":22184:22201   */\n      add\n        /* \"#utility.yul\":22175:22181   */\n      dup6\n        /* \"#utility.yul\":22131:22202   */\n      tag_189\n      jump\t// in\n    tag_471:\n        /* \"#utility.yul\":22212:22284   */\n      tag_472\n        /* \"#utility.yul\":22280:22282   */\n      0x20\n        /* \"#utility.yul\":22269:22278   */\n      dup4\n        /* \"#utility.yul\":22265:22283   */\n      add\n        /* \"#utility.yul\":22256:22262   */\n      dup5\n        /* \"#utility.yul\":22212:22284   */\n      tag_190\n      jump\t// in\n    tag_472:\n        /* \"#utility.yul\":21959:22291   */\n      swap4\n      swap3\n      pop\n      pop\n      pop\n      jump\t// out\n        /* \"#utility.yul\":22297:22476   */\n    tag_245:\n        /* \"#utility.yul\":22437:22468   */\n      0x547765657420646f6573206e6f74206861766520616e79206c696b6573000000\n        /* \"#utility.yul\":22433:22434   */\n      0x00\n        /* \"#utility.yul\":22425:22431   */\n      dup3\n        /* \"#utility.yul\":22421:22435   */\n      add\n        /* \"#utility.yul\":22414:22469   */\n      mstore\n        /* \"#utility.yul\":22297:22476   */\n      pop\n      jump\t// out\n        /* \"#utility.yul\":22482:22848   */\n    tag_246:\n        /* \"#utility.yul\":22624:22627   */\n      0x00\n        /* \"#utility.yul\":22645:22712   */\n      tag_475\n        /* \"#utility.yul\":22709:22711   */\n      0x1d\n        /* \"#utility.yul\":22704:22707   */\n      dup4\n        /* \"#utility.yul\":22645:22712   */\n      tag_192\n      jump\t// in\n    tag_475:\n        /* \"#utility.yul\":22638:22712   */\n      swap2\n      pop\n        /* \"#utility.yul\":22721:22814   */\n      tag_476\n        /* \"#utility.yul\":22810:22813   */\n      dup3\n        /* \"#utility.yul\":22721:22814   */\n      tag_245\n      jump\t// in\n    tag_476:\n        /* \"#utility.yul\":22839:22841   */\n      0x20\n        /* \"#utility.yul\":22834:22837   */\n      dup3\n        /* \"#utility.yul\":22830:22842   */\n      add\n        /* \"#utility.yul\":22823:22842   */\n      swap1\n      pop\n        /* \"#utility.yul\":22482:22848   */\n      swap2\n      swap1\n      pop\n      jump\t// out\n        /* \"#utility.yul\":22854:23273   */\n    tag_144:\n        /* \"#utility.yul\":23020:23024   */\n      0x00\n        /* \"#utility.yul\":23058:23060   */\n      0x20\n        /* \"#utility.yul\":23047:23056   */\n      dup3\n        /* \"#utility.yul\":23043:23061   */\n      add\n        /* \"#utility.yul\":23035:23061   */\n      swap1\n      pop\n        /* \"#utility.yul\":23107:23116   */\n      dup2\n        /* \"#utility.yul\":23101:23105   */\n      dup2\n        /* \"#utility.yul\":23097:23117   */\n      sub\n        /* \"#utility.yul\":23093:23094   */\n      0x00\n        /* \"#utility.yul\":23082:23091   */\n      dup4\n        /* \"#utility.yul\":23078:23095   */\n      add\n        /* \"#utility.yul\":23071:23118   */\n      mstore\n        /* \"#utility.yul\":23135:23266   */\n      tag_478\n        /* \"#utility.yul\":23261:23265   */\n      dup2\n        /* \"#utility.yul\":23135:23266   */\n      tag_246\n      jump\t// in\n    tag_478:\n        /* \"#utility.yul\":23127:23266   */\n      swap1\n      pop\n        /* \"#utility.yul\":22854:23273   */\n      swap2\n      swap1\n      pop\n      jump\t// out\n        /* \"#utility.yul\":23279:23473   */\n    tag_149:\n        /* \"#utility.yul\":23319:23323   */\n      0x00\n        /* \"#utility.yul\":23339:23359   */\n      tag_480\n        /* \"#utility.yul\":23357:23358   */\n      dup3\n        /* \"#utility.yul\":23339:23359   */\n      tag_186\n      jump\t// in\n    tag_480:\n        /* \"#utility.yul\":23334:23359   */\n      swap2\n      pop\n        /* \"#utility.yul\":23373:23393   */\n      tag_481\n        /* \"#utility.yul\":23391:23392   */\n      dup4\n        /* \"#utility.yul\":23373:23393   */\n      tag_186\n      jump\t// in\n    tag_481:\n        /* \"#utility.yul\":23368:23393   */\n      swap3\n      pop\n        /* \"#utility.yul\":23417:23418   */\n      dup3\n        /* \"#utility.yul\":23414:23415   */\n      dup3\n        /* \"#utility.yul\":23410:23419   */\n      sub\n        /* \"#utility.yul\":23402:23419   */\n      swap1\n      pop\n        /* \"#utility.yul\":23441:23442   */\n      dup2\n        /* \"#utility.yul\":23435:23439   */\n      dup2\n        /* \"#utility.yul\":23432:23443   */\n      gt\n        /* \"#utility.yul\":23429:23466   */\n      iszero\n      tag_482\n      jumpi\n        /* \"#utility.yul\":23446:23464   */\n      tag_483\n      tag_219\n      jump\t// in\n    tag_483:\n        /* \"#utility.yul\":23429:23466   */\n    tag_482:\n        /* \"#utility.yul\":23279:23473   */\n      swap3\n      swap2\n      pop\n      pop\n      jump\t// out\n        /* \"#utility.yul\":23479:23661   */\n    tag_247:\n        /* \"#utility.yul\":23619:23653   */\n      0x596f752063616e206f6e6c792067657420796f7572206f776e20747765657473\n        /* \"#utility.yul\":23615:23616   */\n      0x00\n        /* \"#utility.yul\":23607:23613   */\n      dup3\n        /* \"#utility.yul\":23603:23617   */\n      add\n        /* \"#utility.yul\":23596:23654   */\n      mstore\n        /* \"#utility.yul\":23479:23661   */\n      pop\n      jump\t// out\n        /* \"#utility.yul\":23667:24033   */\n    tag_248:\n        /* \"#utility.yul\":23809:23812   */\n      0x00\n        /* \"#utility.yul\":23830:23897   */\n      tag_486\n        /* \"#utility.yul\":23894:23896   */\n      0x20\n        /* \"#utility.yul\":23889:23892   */\n      dup4\n        /* \"#utility.yul\":23830:23897   */\n      tag_192\n      jump\t// in\n    tag_486:\n        /* \"#utility.yul\":23823:23897   */\n      swap2\n      pop\n        /* \"#utility.yul\":23906:23999   */\n      tag_487\n        /* \"#utility.yul\":23995:23998   */\n      dup3\n        /* \"#utility.yul\":23906:23999   */\n      tag_247\n      jump\t// in\n    tag_487:\n        /* \"#utility.yul\":24024:24026   */\n      0x20\n        /* \"#utility.yul\":24019:24022   */\n      dup3\n        /* \"#utility.yul\":24015:24027   */\n      add\n        /* \"#utility.yul\":24008:24027   */\n      swap1\n      pop\n        /* \"#utility.yul\":23667:24033   */\n      swap2\n      swap1\n      pop\n      jump\t// out\n        /* \"#utility.yul\":24039:24458   */\n    tag_170:\n        /* \"#utility.yul\":24205:24209   */\n      0x00\n        /* \"#utility.yul\":24243:24245   */\n      0x20\n        /* \"#utility.yul\":24232:24241   */\n      dup3\n        /* \"#utility.yul\":24228:24246   */\n      add\n        /* \"#utility.yul\":24220:24246   */\n      swap1\n      pop\n        /* \"#utility.yul\":24292:24301   */\n      dup2\n        /* \"#utility.yul\":24286:24290   */\n      dup2\n        /* \"#utility.yul\":24282:24302   */\n      sub\n        /* \"#utility.yul\":24278:24279   */\n      0x00\n        /* \"#utility.yul\":24267:24276   */\n      dup4\n        /* \"#utility.yul\":24263:24280   */\n      add\n        /* \"#utility.yul\":24256:24303   */\n      mstore\n        /* \"#utility.yul\":24320:24451   */\n      tag_489\n        /* \"#utility.yul\":24446:24450   */\n      dup2\n        /* \"#utility.yul\":24320:24451   */\n      tag_248\n      jump\t// in\n    tag_489:\n        /* \"#utility.yul\":24312:24451   */\n      swap1\n      pop\n        /* \"#utility.yul\":24039:24458   */\n      swap2\n      swap1\n      pop\n      jump\t// out\n\n    auxdata: 0xa2646970667358221220b93d8f21b407ec2cbee6285fca3408a67a41afee18f96561eafc9905e1c1dc6364736f6c634300081f0033\n}\n",
				"bytecode": {
					"linkReferences": {},
					"object": "608060405260405180606001604052806040518060400160405280600481526020017f6c696b650000000000000000000000000000000000000000000000000000000081525081526020016040518060400160405280600581526020017f7265706c7900000000000000000000000000000000000000000000000000000081525081526020016040518060400160405280600781526020017f726573686172650000000000000000000000000000000000000000000000000081525081525060019060036100ce9291906100e0565b503480156100da575f5ffd5b506104be565b828054828255905f5260205f20908101928215610126579160200282015b8281111561012557825182908161011591906103ef565b50916020019190600101906100fe565b5b5090506101339190610137565b5090565b5b80821115610156575f818161014d919061015a565b50600101610138565b5090565b50805461016690610216565b5f825580601f106101775750610194565b601f0160209004905f5260205f20908101906101939190610197565b5b50565b5b808211156101ae575f815f905550600101610198565b5090565b5f81519050919050565b7f4e487b71000000000000000000000000000000000000000000000000000000005f52604160045260245ffd5b7f4e487b71000000000000000000000000000000000000000000000000000000005f52602260045260245ffd5b5f600282049050600182168061022d57607f821691505b6020821081036102405761023f6101e9565b5b50919050565b5f819050815f5260205f209050919050565b5f6020601f8301049050919050565b5f82821b905092915050565b5f600883026102a27fffffffffffffffffffffffffffffffffffffffffffffffffffffffffffffffff82610267565b6102ac8683610267565b95508019841693508086168417925050509392505050565b5f819050919050565b5f819050919050565b5f6102f06102eb6102e6846102c4565b6102cd565b6102c4565b9050919050565b5f819050919050565b610309836102d6565b61031d610315826102f7565b848454610273565b825550505050565b5f5f905090565b610334610325565b61033f818484610300565b505050565b5b81811015610362576103575f8261032c565b600181019050610345565b5050565b601f8211156103a75761037881610246565b61038184610258565b81016020851015610390578190505b6103a461039c85610258565b830182610344565b50505b505050565b5f82821c905092915050565b5f6103c75f19846008026103ac565b1980831691505092915050565b5f6103df83836103b8565b9150826002028217905092915050565b6103f8826101b2565b67ffffffffffffffff811115610411576104106101bc565b5b61041b8254610216565b610426828285610366565b5f60209050601f831160018114610457575f8415610445578287015190505b61044f85826103d4565b8655506104b6565b601f19841661046586610246565b5f5b8281101561048c57848901518255600182019150602085019450602081019050610467565b868310156104a957848901516104a5601f8916826103b8565b8355505b6001600288020188555050505b505050505050565b611cf5806104cb5f395ff3fe608060405234801561000f575f5ffd5b50600436106100a7575f3560e01c806380eb35871161006f57806380eb35871461016357806383240f83146101935780639ef8633f146101c3578063b6e76873146101df578063e78c65aa1461020f578063ff5c520d1461022d576100a7565b806305a1b4a9146100ab578063112f54e3146100df578063633782161461010f57806378977bf41461012b5780637c9cd2bc14610147575b5f5ffd5b6100c560048036038101906100c09190611131565b61025d565b6040516100d69594939291906111fd565b60405180910390f35b6100f960048036038101906100f49190611131565b61034d565b6040516101069190611255565b60405180910390f35b61012960048036038101906101249190611131565b61043b565b005b610145600480360381019061014091906113a1565b610693565b005b610161600480360381019061015c91906113a1565b6106c8565b005b61017d60048036038101906101789190611131565b6108e5565b60405161018a91906113e8565b60405180910390f35b6101ad60048036038101906101a89190611401565b610a36565b6040516101ba9190611255565b60405180910390f35b6101dd60048036038101906101d89190611131565b610adc565b005b6101f960048036038101906101f49190611401565b610dd3565b6040516102069190611255565b60405180910390f35b610217610e7f565b60405161022491906113e8565b60405180910390f35b6102476004803603810190610242919061142c565b610e8b565b60405161025491906115eb565b60405180910390f35b5f602052815f5260405f208181548110610275575f80fd5b905f5260205f2090600502015f9150915050805f015490806001015f9054906101000a900473ffffffffffffffffffffffffffffffffffffffff16908060020180546102c090611638565b80601f01602080910402602001604051908101604052809291908181526020018280546102ec90611638565b80156103375780601f1061030e57610100808354040283529160200191610337565b820191905f5260205f20905b81548152906001019060200180831161031a57829003601f168201915b5050505050908060030154908060040154905085565b60605f5f8473ffffffffffffffffffffffffffffffffffffffff1673ffffffffffffffffffffffffffffffffffffffff1681526020019081526020015f20828154811061039d5761039c611668565b5b905f5260205f20906005020160020180546103b790611638565b80601f01602080910402602001604051908101604052809291908181526020018280546103e390611638565b801561042e5780601f106104055761010080835404028352916020019161042e565b820191905f5260205f20905b81548152906001019060200180831161041157829003601f168201915b5050505050905092915050565b8173ffffffffffffffffffffffffffffffffffffffff165f5f8473ffffffffffffffffffffffffffffffffffffffff1673ffffffffffffffffffffffffffffffffffffffff1681526020019081526020015f2082815481106104a05761049f611668565b5b905f5260205f2090600502016001015f9054906101000a900473ffffffffffffffffffffffffffffffffffffffff1673ffffffffffffffffffffffffffffffffffffffff1614610525576040517f08c379a000000000000000000000000000000000000000000000000000000000815260040161051c906116df565b60405180910390fd5b60015f5f8473ffffffffffffffffffffffffffffffffffffffff1673ffffffffffffffffffffffffffffffffffffffff1681526020019081526020015f20828154811061057557610574611668565b5b905f5260205f2090600502016004015f828254610592919061172a565b925050819055507fe8a76fc0f16d11a00d1e93b689b63d76cf60af914dd3d915375dc41d01a0c3c833835f5f8673ffffffffffffffffffffffffffffffffffffffff1673ffffffffffffffffffffffffffffffffffffffff1681526020019081526020015f20848154811061060a57610609611668565b5b905f5260205f2090600502015f01545f5f8773ffffffffffffffffffffffffffffffffffffffff1673ffffffffffffffffffffffffffffffffffffffff1681526020019081526020015f20858154811061066757610666611668565b5b905f5260205f20906005020160040154604051610687949392919061175d565b60405180910390a15050565b600181908060018154018082558091505060019003905f5260205f20015f9091909190915090816106c49190611940565b5050565b5f81511161070b576040517f08c379a000000000000000000000000000000000000000000000000000000000815260040161070290611a59565b60405180910390fd5b61011861ffff1681511115610755576040517f08c379a000000000000000000000000000000000000000000000000000000000815260040161074c90611ae7565b60405180910390fd5b5f6040518060a001604052804233604051602001610774929190611b6a565b604051602081830303815290604052805190602001205f1c81526020013373ffffffffffffffffffffffffffffffffffffffff1681526020018381526020014281526020015f81525090505f5f3373ffffffffffffffffffffffffffffffffffffffff1673ffffffffffffffffffffffffffffffffffffffff1681526020019081526020015f2081908060018154018082558091505060019003905f5260205f2090600502015f909190919091505f820151815f01556020820151816001015f6101000a81548173ffffffffffffffffffffffffffffffffffffffff021916908373ffffffffffffffffffffffffffffffffffffffff16021790555060408201518160020190816108859190611940565b5060608201518160030155608082015181600401555050805f01517f3bff7e3357a32e81fdc286a0c2c739081876634bc54aaf360252b91650df42c6826060015183602001516040516108d9929190611b95565b60405180910390a25050565b5f8273ffffffffffffffffffffffffffffffffffffffff165f5f8573ffffffffffffffffffffffffffffffffffffffff1673ffffffffffffffffffffffffffffffffffffffff1681526020019081526020015f20838154811061094b5761094a611668565b5b905f5260205f2090600502016001015f9054906101000a900473ffffffffffffffffffffffffffffffffffffffff1673ffffffffffffffffffffffffffffffffffffffff16146109d0576040517f08c379a00000000000000000000000000000000000000000000000000000000081526004016109c7906116df565b60405180910390fd5b5f5f8473ffffffffffffffffffffffffffffffffffffffff1673ffffffffffffffffffffffffffffffffffffffff1681526020019081526020015f208281548110610a1e57610a1d611668565b5b905f5260205f20906005020160040154905092915050565b60018181548110610a45575f80fd5b905f5260205f20015f915090508054610a5d90611638565b80601f0160208091040260200160405190810160405280929190818152602001828054610a8990611638565b8015610ad45780601f10610aab57610100808354040283529160200191610ad4565b820191905f5260205f20905b815481529060010190602001808311610ab757829003601f168201915b505050505081565b8173ffffffffffffffffffffffffffffffffffffffff165f5f8473ffffffffffffffffffffffffffffffffffffffff1673ffffffffffffffffffffffffffffffffffffffff1681526020019081526020015f208281548110610b4157610b40611668565b5b905f5260205f2090600502016001015f9054906101000a900473ffffffffffffffffffffffffffffffffffffffff1673ffffffffffffffffffffffffffffffffffffffff1614610bc6576040517f08c379a0000000000000000000000000000000000000000000000000000000008152600401610bbd906116df565b60405180910390fd5b5f5f5f8473ffffffffffffffffffffffffffffffffffffffff1673ffffffffffffffffffffffffffffffffffffffff1681526020019081526020015f208281548110610c1557610c14611668565b5b905f5260205f2090600502016004015411610c65576040517f08c379a0000000000000000000000000000000000000000000000000000000008152600401610c5c90611c06565b60405180910390fd5b60015f5f8473ffffffffffffffffffffffffffffffffffffffff1673ffffffffffffffffffffffffffffffffffffffff1681526020019081526020015f208281548110610cb557610cb4611668565b5b905f5260205f2090600502016004015f828254610cd29190611c24565b925050819055507f273883c252143c4abce776697615e41ca9bc1aac5968c585d1c8ba8ffaa8b3c133835f5f8673ffffffffffffffffffffffffffffffffffffffff1673ffffffffffffffffffffffffffffffffffffffff1681526020019081526020015f208481548110610d4a57610d49611668565b5b905f5260205f2090600502015f01545f5f8773ffffffffffffffffffffffffffffffffffffffff1673ffffffffffffffffffffffffffffffffffffffff1681526020019081526020015f208581548110610da757610da6611668565b5b905f5260205f20906005020160040154604051610dc7949392919061175d565b60405180910390a15050565b606060018281548110610de957610de8611668565b5b905f5260205f20018054610dfc90611638565b80601f0160208091040260200160405190810160405280929190818152602001828054610e2890611638565b8015610e735780601f10610e4a57610100808354040283529160200191610e73565b820191905f5260205f20905b815481529060010190602001808311610e5657829003601f168201915b50505050509050919050565b5f600180549050905090565b60608173ffffffffffffffffffffffffffffffffffffffff163373ffffffffffffffffffffffffffffffffffffffff1614610efb576040517f08c379a0000000000000000000000000000000000000000000000000000000008152600401610ef290611ca1565b60405180910390fd5b5f5f8373ffffffffffffffffffffffffffffffffffffffff1673ffffffffffffffffffffffffffffffffffffffff1681526020019081526020015f20805480602002602001604051908101604052809291908181526020015f905b82821015611088578382905f5260205f2090600502016040518060a00160405290815f8201548152602001600182015f9054906101000a900473ffffffffffffffffffffffffffffffffffffffff1673ffffffffffffffffffffffffffffffffffffffff1673ffffffffffffffffffffffffffffffffffffffff168152602001600282018054610fe590611638565b80601f016020809104026020016040519081016040528092919081815260200182805461101190611638565b801561105c5780601f106110335761010080835404028352916020019161105c565b820191905f5260205f20905b81548152906001019060200180831161103f57829003601f168201915b505050505081526020016003820154815260200160048201548152505081526020019060010190610f56565b505050509050919050565b5f604051905090565b5f5ffd5b5f5ffd5b5f73ffffffffffffffffffffffffffffffffffffffff82169050919050565b5f6110cd826110a4565b9050919050565b6110dd816110c3565b81146110e7575f5ffd5b50565b5f813590506110f8816110d4565b92915050565b5f819050919050565b611110816110fe565b811461111a575f5ffd5b50565b5f8135905061112b81611107565b92915050565b5f5f604083850312156111475761114661109c565b5b5f611154858286016110ea565b92505060206111658582860161111d565b9150509250929050565b611178816110fe565b82525050565b611187816110c3565b82525050565b5f81519050919050565b5f82825260208201905092915050565b8281835e5f83830152505050565b5f601f19601f8301169050919050565b5f6111cf8261118d565b6111d98185611197565b93506111e98185602086016111a7565b6111f2816111b5565b840191505092915050565b5f60a0820190506112105f83018861116f565b61121d602083018761117e565b818103604083015261122f81866111c5565b905061123e606083018561116f565b61124b608083018461116f565b9695505050505050565b5f6020820190508181035f83015261126d81846111c5565b905092915050565b5f5ffd5b5f5ffd5b7f4e487b71000000000000000000000000000000000000000000000000000000005f52604160045260245ffd5b6112b3826111b5565b810181811067ffffffffffffffff821117156112d2576112d161127d565b5b80604052505050565b5f6112e4611093565b90506112f082826112aa565b919050565b5f67ffffffffffffffff82111561130f5761130e61127d565b5b611318826111b5565b9050602081019050919050565b828183375f83830152505050565b5f611345611340846112f5565b6112db565b90508281526020810184848401111561136157611360611279565b5b61136c848285611325565b509392505050565b5f82601f83011261138857611387611275565b5b8135611398848260208601611333565b91505092915050565b5f602082840312156113b6576113b561109c565b5b5f82013567ffffffffffffffff8111156113d3576113d26110a0565b5b6113df84828501611374565b91505092915050565b5f6020820190506113fb5f83018461116f565b92915050565b5f602082840312156114165761141561109c565b5b5f6114238482850161111d565b91505092915050565b5f602082840312156114415761144061109c565b5b5f61144e848285016110ea565b91505092915050565b5f81519050919050565b5f82825260208201905092915050565b5f819050602082019050919050565b611489816110fe565b82525050565b611498816110c3565b82525050565b5f82825260208201905092915050565b5f6114b88261118d565b6114c2818561149e565b93506114d28185602086016111a7565b6114db816111b5565b840191505092915050565b5f60a083015f8301516114fb5f860182611480565b50602083015161150e602086018261148f565b506040830151848203604086015261152682826114ae565b915050606083015161153b6060860182611480565b50608083015161154e6080860182611480565b508091505092915050565b5f61156483836114e6565b905092915050565b5f602082019050919050565b5f61158282611457565b61158c8185611461565b93508360208202850161159e85611471565b805f5b858110156115d957848403895281516115ba8582611559565b94506115c58361156c565b925060208a019950506001810190506115a1565b50829750879550505050505092915050565b5f6020820190508181035f8301526116038184611578565b905092915050565b7f4e487b71000000000000000000000000000000000000000000000000000000005f52602260045260245ffd5b5f600282049050600182168061164f57607f821691505b6020821081036116625761166161160b565b5b50919050565b7f4e487b71000000000000000000000000000000000000000000000000000000005f52603260045260245ffd5b7f547765657420646f6573206e6f742065786973740000000000000000000000005f82015250565b5f6116c9601483611197565b91506116d482611695565b602082019050919050565b5f6020820190508181035f8301526116f6816116bd565b9050919050565b7f4e487b71000000000000000000000000000000000000000000000000000000005f52601160045260245ffd5b5f611734826110fe565b915061173f836110fe565b9250828201905080821115611757576117566116fd565b5b92915050565b5f6080820190506117705f83018761117e565b61177d602083018661117e565b61178a604083018561116f565b611797606083018461116f565b95945050505050565b5f819050815f5260205f209050919050565b5f6020601f8301049050919050565b5f82821b905092915050565b5f600883026117fc7fffffffffffffffffffffffffffffffffffffffffffffffffffffffffffffffff826117c1565b61180686836117c1565b95508019841693508086168417925050509392505050565b5f819050919050565b5f61184161183c611837846110fe565b61181e565b6110fe565b9050919050565b5f819050919050565b61185a83611827565b61186e61186682611848565b8484546117cd565b825550505050565b5f5f905090565b611885611876565b611890818484611851565b505050565b5b818110156118b3576118a85f8261187d565b600181019050611896565b5050565b601f8211156118f8576118c9816117a0565b6118d2846117b2565b810160208510156118e1578190505b6118f56118ed856117b2565b830182611895565b50505b505050565b5f82821c905092915050565b5f6119185f19846008026118fd565b1980831691505092915050565b5f6119308383611909565b9150826002028217905092915050565b6119498261118d565b67ffffffffffffffff8111156119625761196161127d565b5b61196c8254611638565b6119778282856118b7565b5f60209050601f8311600181146119a8575f8415611996578287015190505b6119a08582611925565b865550611a07565b601f1984166119b6866117a0565b5f5b828110156119dd578489015182556001820191506020850194506020810190506119b8565b868310156119fa57848901516119f6601f891682611909565b8355505b6001600288020188555050505b505050505050565b7f54776565742063616e6e6f7420626520656d70747900000000000000000000005f82015250565b5f611a43601583611197565b9150611a4e82611a0f565b602082019050919050565b5f6020820190508181035f830152611a7081611a37565b9050919050565b7f54776565742063616e6e6f74206265206d6f7265207468616e203238302063685f8201527f6172616374657273000000000000000000000000000000000000000000000000602082015250565b5f611ad1602883611197565b9150611adc82611a77565b604082019050919050565b5f6020820190508181035f830152611afe81611ac5565b9050919050565b5f819050919050565b611b1f611b1a826110fe565b611b05565b82525050565b5f8160601b9050919050565b5f611b3b82611b25565b9050919050565b5f611b4c82611b31565b9050919050565b611b64611b5f826110c3565b611b42565b82525050565b5f611b758285611b0e565b602082019150611b858284611b53565b6014820191508190509392505050565b5f604082019050611ba85f83018561116f565b611bb5602083018461117e565b9392505050565b7f547765657420646f6573206e6f74206861766520616e79206c696b65730000005f82015250565b5f611bf0601d83611197565b9150611bfb82611bbc565b602082019050919050565b5f6020820190508181035f830152611c1d81611be4565b9050919050565b5f611c2e826110fe565b9150611c39836110fe565b9250828203905081811115611c5157611c506116fd565b5b92915050565b7f596f752063616e206f6e6c792067657420796f7572206f776e207477656574735f82015250565b5f611c8b602083611197565b9150611c9682611c57565b602082019050919050565b5f6020820190508181035f830152611cb881611c7f565b905091905056fea2646970667358221220b93d8f21b407ec2cbee6285fca3408a67a41afee18f96561eafc9905e1c1dc6364736f6c634300081f0033",
					"opcodes": "PUSH1 0x80 PUSH1 0x40 MSTORE PUSH1 0x40 MLOAD DUP1 PUSH1 0x60 ADD PUSH1 0x40 MSTORE DUP1 PUSH1 0x40 MLOAD DUP1 PUSH1 0x40 ADD PUSH1 0x40 MSTORE DUP1 PUSH1 0x4 DUP2 MSTORE PUSH1 0x20 ADD PUSH32 0x6C696B6500000000000000000000000000000000000000000000000000000000 DUP2 MSTORE POP DUP2 MSTORE PUSH1 0x20 ADD PUSH1 0x40 MLOAD DUP1 PUSH1 0x40 ADD PUSH1 0x40 MSTORE DUP1 PUSH1 0x5 DUP2 MSTORE PUSH1 0x20 ADD PUSH32 0x7265706C79000000000000000000000000000000000000000000000000000000 DUP2 MSTORE POP DUP2 MSTORE PUSH1 0x20 ADD PUSH1 0x40 MLOAD DUP1 PUSH1 0x40 ADD PUSH1 0x40 MSTORE DUP1 PUSH1 0x7 DUP2 MSTORE PUSH1 0x20 ADD PUSH32 0x7265736861726500000000000000000000000000000000000000000000000000 DUP2 MSTORE POP DUP2 MSTORE POP PUSH1 0x1 SWAP1 PUSH1 0x3 PUSH2 0xCE SWAP3 SWAP2 SWAP1 PUSH2 0xE0 JUMP JUMPDEST POP CALLVALUE DUP1 ISZERO PUSH2 0xDA JUMPI PUSH0 PUSH0 REVERT JUMPDEST POP PUSH2 0x4BE JUMP JUMPDEST DUP3 DUP1 SLOAD DUP3 DUP3 SSTORE SWAP1 PUSH0 MSTORE PUSH1 0x20 PUSH0 KECCAK256 SWAP1 DUP2 ADD SWAP3 DUP3 ISZERO PUSH2 0x126 JUMPI SWAP2 PUSH1 0x20 MUL DUP3 ADD JUMPDEST DUP3 DUP2 GT ISZERO PUSH2 0x125 JUMPI DUP3 MLOAD DUP3 SWAP1 DUP2 PUSH2 0x115 SWAP2 SWAP1 PUSH2 0x3EF JUMP JUMPDEST POP SWAP2 PUSH1 0x20 ADD SWAP2 SWAP1 PUSH1 0x1 ADD SWAP1 PUSH2 0xFE JUMP JUMPDEST JUMPDEST POP SWAP1 POP PUSH2 0x133 SWAP2 SWAP1 PUSH2 0x137 JUMP JUMPDEST POP SWAP1 JUMP JUMPDEST JUMPDEST DUP1 DUP3 GT ISZERO PUSH2 0x156 JUMPI PUSH0 DUP2 DUP2 PUSH2 0x14D SWAP2 SWAP1 PUSH2 0x15A JUMP JUMPDEST POP PUSH1 0x1 ADD PUSH2 0x138 JUMP JUMPDEST POP SWAP1 JUMP JUMPDEST POP DUP1 SLOAD PUSH2 0x166 SWAP1 PUSH2 0x216 JUMP JUMPDEST PUSH0 DUP3 SSTORE DUP1 PUSH1 0x1F LT PUSH2 0x177 JUMPI POP PUSH2 0x194 JUMP JUMPDEST PUSH1 0x1F ADD PUSH1 0x20 SWAP1 DIV SWAP1 PUSH0 MSTORE PUSH1 0x20 PUSH0 KECCAK256 SWAP1 DUP2 ADD SWAP1 PUSH2 0x193 SWAP2 SWAP1 PUSH2 0x197 JUMP JUMPDEST JUMPDEST POP JUMP JUMPDEST JUMPDEST DUP1 DUP3 GT ISZERO PUSH2 0x1AE JUMPI PUSH0 DUP2 PUSH0 SWAP1 SSTORE POP PUSH1 0x1 ADD PUSH2 0x198 JUMP JUMPDEST POP SWAP1 JUMP JUMPDEST PUSH0 DUP2 MLOAD SWAP1 POP SWAP2 SWAP1 POP JUMP JUMPDEST PUSH32 0x4E487B7100000000000000000000000000000000000000000000000000000000 PUSH0 MSTORE PUSH1 0x41 PUSH1 0x4 MSTORE PUSH1 0x24 PUSH0 REVERT JUMPDEST PUSH32 0x4E487B7100000000000000000000000000000000000000000000000000000000 PUSH0 MSTORE PUSH1 0x22 PUSH1 0x4 MSTORE PUSH1 0x24 PUSH0 REVERT JUMPDEST PUSH0 PUSH1 0x2 DUP3 DIV SWAP1 POP PUSH1 0x1 DUP3 AND DUP1 PUSH2 0x22D JUMPI PUSH1 0x7F DUP3 AND SWAP2 POP JUMPDEST PUSH1 0x20 DUP3 LT DUP2 SUB PUSH2 0x240 JUMPI PUSH2 0x23F PUSH2 0x1E9 JUMP JUMPDEST JUMPDEST POP SWAP2 SWAP1 POP JUMP JUMPDEST PUSH0 DUP2 SWAP1 POP DUP2 PUSH0 MSTORE PUSH1 0x20 PUSH0 KECCAK256 SWAP1 POP SWAP2 SWAP1 POP JUMP JUMPDEST PUSH0 PUSH1 0x20 PUSH1 0x1F DUP4 ADD DIV SWAP1 POP SWAP2 SWAP1 POP JUMP JUMPDEST PUSH0 DUP3 DUP3 SHL SWAP1 POP SWAP3 SWAP2 POP POP JUMP JUMPDEST PUSH0 PUSH1 0x8 DUP4 MUL PUSH2 0x2A2 PUSH32 0xFFFFFFFFFFFFFFFFFFFFFFFFFFFFFFFFFFFFFFFFFFFFFFFFFFFFFFFFFFFFFFFF DUP3 PUSH2 0x267 JUMP JUMPDEST PUSH2 0x2AC DUP7 DUP4 PUSH2 0x267 JUMP JUMPDEST SWAP6 POP DUP1 NOT DUP5 AND SWAP4 POP DUP1 DUP7 AND DUP5 OR SWAP3 POP POP POP SWAP4 SWAP3 POP POP POP JUMP JUMPDEST PUSH0 DUP2 SWAP1 POP SWAP2 SWAP1 POP JUMP JUMPDEST PUSH0 DUP2 SWAP1 POP SWAP2 SWAP1 POP JUMP JUMPDEST PUSH0 PUSH2 0x2F0 PUSH2 0x2EB PUSH2 0x2E6 DUP5 PUSH2 0x2C4 JUMP JUMPDEST PUSH2 0x2CD JUMP JUMPDEST PUSH2 0x2C4 JUMP JUMPDEST SWAP1 POP SWAP2 SWAP1 POP JUMP JUMPDEST PUSH0 DUP2 SWAP1 POP SWAP2 SWAP1 POP JUMP JUMPDEST PUSH2 0x309 DUP4 PUSH2 0x2D6 JUMP JUMPDEST PUSH2 0x31D PUSH2 0x315 DUP3 PUSH2 0x2F7 JUMP JUMPDEST DUP5 DUP5 SLOAD PUSH2 0x273 JUMP JUMPDEST DUP3 SSTORE POP POP POP POP JUMP JUMPDEST PUSH0 PUSH0 SWAP1 POP SWAP1 JUMP JUMPDEST PUSH2 0x334 PUSH2 0x325 JUMP JUMPDEST PUSH2 0x33F DUP2 DUP5 DUP5 PUSH2 0x300 JUMP JUMPDEST POP POP POP JUMP JUMPDEST JUMPDEST DUP2 DUP2 LT ISZERO PUSH2 0x362 JUMPI PUSH2 0x357 PUSH0 DUP3 PUSH2 0x32C JUMP JUMPDEST PUSH1 0x1 DUP2 ADD SWAP1 POP PUSH2 0x345 JUMP JUMPDEST POP POP JUMP JUMPDEST PUSH1 0x1F DUP3 GT ISZERO PUSH2 0x3A7 JUMPI PUSH2 0x378 DUP2 PUSH2 0x246 JUMP JUMPDEST PUSH2 0x381 DUP5 PUSH2 0x258 JUMP JUMPDEST DUP2 ADD PUSH1 0x20 DUP6 LT ISZERO PUSH2 0x390 JUMPI DUP2 SWAP1 POP JUMPDEST PUSH2 0x3A4 PUSH2 0x39C DUP6 PUSH2 0x258 JUMP JUMPDEST DUP4 ADD DUP3 PUSH2 0x344 JUMP JUMPDEST POP POP JUMPDEST POP POP POP JUMP JUMPDEST PUSH0 DUP3 DUP3 SHR SWAP1 POP SWAP3 SWAP2 POP POP JUMP JUMPDEST PUSH0 PUSH2 0x3C7 PUSH0 NOT DUP5 PUSH1 0x8 MUL PUSH2 0x3AC JUMP JUMPDEST NOT DUP1 DUP4 AND SWAP2 POP POP SWAP3 SWAP2 POP POP JUMP JUMPDEST PUSH0 PUSH2 0x3DF DUP4 DUP4 PUSH2 0x3B8 JUMP JUMPDEST SWAP2 POP DUP3 PUSH1 0x2 MUL DUP3 OR SWAP1 POP SWAP3 SWAP2 POP POP JUMP JUMPDEST PUSH2 0x3F8 DUP3 PUSH2 0x1B2 JUMP JUMPDEST PUSH8 0xFFFFFFFFFFFFFFFF DUP2 GT ISZERO PUSH2 0x411 JUMPI PUSH2 0x410 PUSH2 0x1BC JUMP JUMPDEST JUMPDEST PUSH2 0x41B DUP3 SLOAD PUSH2 0x216 JUMP JUMPDEST PUSH2 0x426 DUP3 DUP3 DUP6 PUSH2 0x366 JUMP JUMPDEST PUSH0 PUSH1 0x20 SWAP1 POP PUSH1 0x1F DUP4 GT PUSH1 0x1 DUP2 EQ PUSH2 0x457 JUMPI PUSH0 DUP5 ISZERO PUSH2 0x445 JUMPI DUP3 DUP8 ADD MLOAD SWAP1 POP JUMPDEST PUSH2 0x44F DUP6 DUP3 PUSH2 0x3D4 JUMP JUMPDEST DUP7 SSTORE POP PUSH2 0x4B6 JUMP JUMPDEST PUSH1 0x1F NOT DUP5 AND PUSH2 0x465 DUP7 PUSH2 0x246 JUMP JUMPDEST PUSH0 JUMPDEST DUP3 DUP2 LT ISZERO PUSH2 0x48C JUMPI DUP5 DUP10 ADD MLOAD DUP3 SSTORE PUSH1 0x1 DUP3 ADD SWAP2 POP PUSH1 0x20 DUP6 ADD SWAP5 POP PUSH1 0x20 DUP2 ADD SWAP1 POP PUSH2 0x467 JUMP JUMPDEST DUP7 DUP4 LT ISZERO PUSH2 0x4A9 JUMPI DUP5 DUP10 ADD MLOAD PUSH2 0x4A5 PUSH1 0x1F DUP10 AND DUP3 PUSH2 0x3B8 JUMP JUMPDEST DUP4 SSTORE POP JUMPDEST PUSH1 0x1 PUSH1 0x2 DUP9 MUL ADD DUP9 SSTORE POP POP POP JUMPDEST POP POP POP POP POP POP JUMP JUMPDEST PUSH2 0x1CF5 DUP1 PUSH2 0x4CB PUSH0 CODECOPY PUSH0 RETURN INVALID PUSH1 0x80 PUSH1 0x40 MSTORE CALLVALUE DUP1 ISZERO PUSH2 0xF JUMPI PUSH0 PUSH0 REVERT JUMPDEST POP PUSH1 0x4 CALLDATASIZE LT PUSH2 0xA7 JUMPI PUSH0 CALLDATALOAD PUSH1 0xE0 SHR DUP1 PUSH4 0x80EB3587 GT PUSH2 0x6F JUMPI DUP1 PUSH4 0x80EB3587 EQ PUSH2 0x163 JUMPI DUP1 PUSH4 0x83240F83 EQ PUSH2 0x193 JUMPI DUP1 PUSH4 0x9EF8633F EQ PUSH2 0x1C3 JUMPI DUP1 PUSH4 0xB6E76873 EQ PUSH2 0x1DF JUMPI DUP1 PUSH4 0xE78C65AA EQ PUSH2 0x20F JUMPI DUP1 PUSH4 0xFF5C520D EQ PUSH2 0x22D JUMPI PUSH2 0xA7 JUMP JUMPDEST DUP1 PUSH4 0x5A1B4A9 EQ PUSH2 0xAB JUMPI DUP1 PUSH4 0x112F54E3 EQ PUSH2 0xDF JUMPI DUP1 PUSH4 0x63378216 EQ PUSH2 0x10F JUMPI DUP1 PUSH4 0x78977BF4 EQ PUSH2 0x12B JUMPI DUP1 PUSH4 0x7C9CD2BC EQ PUSH2 0x147 JUMPI JUMPDEST PUSH0 PUSH0 REVERT JUMPDEST PUSH2 0xC5 PUSH1 0x4 DUP1 CALLDATASIZE SUB DUP2 ADD SWAP1 PUSH2 0xC0 SWAP2 SWAP1 PUSH2 0x1131 JUMP JUMPDEST PUSH2 0x25D JUMP JUMPDEST PUSH1 0x40 MLOAD PUSH2 0xD6 SWAP6 SWAP5 SWAP4 SWAP3 SWAP2 SWAP1 PUSH2 0x11FD JUMP JUMPDEST PUSH1 0x40 MLOAD DUP1 SWAP2 SUB SWAP1 RETURN JUMPDEST PUSH2 0xF9 PUSH1 0x4 DUP1 CALLDATASIZE SUB DUP2 ADD SWAP1 PUSH2 0xF4 SWAP2 SWAP1 PUSH2 0x1131 JUMP JUMPDEST PUSH2 0x34D JUMP JUMPDEST PUSH1 0x40 MLOAD PUSH2 0x106 SWAP2 SWAP1 PUSH2 0x1255 JUMP JUMPDEST PUSH1 0x40 MLOAD DUP1 SWAP2 SUB SWAP1 RETURN JUMPDEST PUSH2 0x129 PUSH1 0x4 DUP1 CALLDATASIZE SUB DUP2 ADD SWAP1 PUSH2 0x124 SWAP2 SWAP1 PUSH2 0x1131 JUMP JUMPDEST PUSH2 0x43B JUMP JUMPDEST STOP JUMPDEST PUSH2 0x145 PUSH1 0x4 DUP1 CALLDATASIZE SUB DUP2 ADD SWAP1 PUSH2 0x140 SWAP2 SWAP1 PUSH2 0x13A1 JUMP JUMPDEST PUSH2 0x693 JUMP JUMPDEST STOP JUMPDEST PUSH2 0x161 PUSH1 0x4 DUP1 CALLDATASIZE SUB DUP2 ADD SWAP1 PUSH2 0x15C SWAP2 SWAP1 PUSH2 0x13A1 JUMP JUMPDEST PUSH2 0x6C8 JUMP JUMPDEST STOP JUMPDEST PUSH2 0x17D PUSH1 0x4 DUP1 CALLDATASIZE SUB DUP2 ADD SWAP1 PUSH2 0x178 SWAP2 SWAP1 PUSH2 0x1131 JUMP JUMPDEST PUSH2 0x8E5 JUMP JUMPDEST PUSH1 0x40 MLOAD PUSH2 0x18A SWAP2 SWAP1 PUSH2 0x13E8 JUMP JUMPDEST PUSH1 0x40 MLOAD DUP1 SWAP2 SUB SWAP1 RETURN JUMPDEST PUSH2 0x1AD PUSH1 0x4 DUP1 CALLDATASIZE SUB DUP2 ADD SWAP1 PUSH2 0x1A8 SWAP2 SWAP1 PUSH2 0x1401 JUMP JUMPDEST PUSH2 0xA36 JUMP JUMPDEST PUSH1 0x40 MLOAD PUSH2 0x1BA SWAP2 SWAP1 PUSH2 0x1255 JUMP JUMPDEST PUSH1 0x40 MLOAD DUP1 SWAP2 SUB SWAP1 RETURN JUMPDEST PUSH2 0x1DD PUSH1 0x4 DUP1 CALLDATASIZE SUB DUP2 ADD SWAP1 PUSH2 0x1D8 SWAP2 SWAP1 PUSH2 0x1131 JUMP JUMPDEST PUSH2 0xADC JUMP JUMPDEST STOP JUMPDEST PUSH2 0x1F9 PUSH1 0x4 DUP1 CALLDATASIZE SUB DUP2 ADD SWAP1 PUSH2 0x1F4 SWAP2 SWAP1 PUSH2 0x1401 JUMP JUMPDEST PUSH2 0xDD3 JUMP JUMPDEST PUSH1 0x40 MLOAD PUSH2 0x206 SWAP2 SWAP1 PUSH2 0x1255 JUMP JUMPDEST PUSH1 0x40 MLOAD DUP1 SWAP2 SUB SWAP1 RETURN JUMPDEST PUSH2 0x217 PUSH2 0xE7F JUMP JUMPDEST PUSH1 0x40 MLOAD PUSH2 0x224 SWAP2 SWAP1 PUSH2 0x13E8 JUMP JUMPDEST PUSH1 0x40 MLOAD DUP1 SWAP2 SUB SWAP1 RETURN JUMPDEST PUSH2 0x247 PUSH1 0x4 DUP1 CALLDATASIZE SUB DUP2 ADD SWAP1 PUSH2 0x242 SWAP2 SWAP1 PUSH2 0x142C JUMP JUMPDEST PUSH2 0xE8B JUMP JUMPDEST PUSH1 0x40 MLOAD PUSH2 0x254 SWAP2 SWAP1 PUSH2 0x15EB JUMP JUMPDEST PUSH1 0x40 MLOAD DUP1 SWAP2 SUB SWAP1 RETURN JUMPDEST PUSH0 PUSH1 0x20 MSTORE DUP2 PUSH0 MSTORE PUSH1 0x40 PUSH0 KECCAK256 DUP2 DUP2 SLOAD DUP2 LT PUSH2 0x275 JUMPI PUSH0 DUP1 REVERT JUMPDEST SWAP1 PUSH0 MSTORE PUSH1 0x20 PUSH0 KECCAK256 SWAP1 PUSH1 0x5 MUL ADD PUSH0 SWAP2 POP SWAP2 POP POP DUP1 PUSH0 ADD SLOAD SWAP1 DUP1 PUSH1 0x1 ADD PUSH0 SWAP1 SLOAD SWAP1 PUSH2 0x100 EXP SWAP1 DIV PUSH20 0xFFFFFFFFFFFFFFFFFFFFFFFFFFFFFFFFFFFFFFFF AND SWAP1 DUP1 PUSH1 0x2 ADD DUP1 SLOAD PUSH2 0x2C0 SWAP1 PUSH2 0x1638 JUMP JUMPDEST DUP1 PUSH1 0x1F ADD PUSH1 0x20 DUP1 SWAP2 DIV MUL PUSH1 0x20 ADD PUSH1 0x40 MLOAD SWAP1 DUP2 ADD PUSH1 0x40 MSTORE DUP1 SWAP3 SWAP2 SWAP1 DUP2 DUP2 MSTORE PUSH1 0x20 ADD DUP3 DUP1 SLOAD PUSH2 0x2EC SWAP1 PUSH2 0x1638 JUMP JUMPDEST DUP1 ISZERO PUSH2 0x337 JUMPI DUP1 PUSH1 0x1F LT PUSH2 0x30E JUMPI PUSH2 0x100 DUP1 DUP4 SLOAD DIV MUL DUP4 MSTORE SWAP2 PUSH1 0x20 ADD SWAP2 PUSH2 0x337 JUMP JUMPDEST DUP3 ADD SWAP2 SWAP1 PUSH0 MSTORE PUSH1 0x20 PUSH0 KECCAK256 SWAP1 JUMPDEST DUP2 SLOAD DUP2 MSTORE SWAP1 PUSH1 0x1 ADD SWAP1 PUSH1 0x20 ADD DUP1 DUP4 GT PUSH2 0x31A JUMPI DUP3 SWAP1 SUB PUSH1 0x1F AND DUP3 ADD SWAP2 JUMPDEST POP POP POP POP POP SWAP1 DUP1 PUSH1 0x3 ADD SLOAD SWAP1 DUP1 PUSH1 0x4 ADD SLOAD SWAP1 POP DUP6 JUMP JUMPDEST PUSH1 0x60 PUSH0 PUSH0 DUP5 PUSH20 0xFFFFFFFFFFFFFFFFFFFFFFFFFFFFFFFFFFFFFFFF AND PUSH20 0xFFFFFFFFFFFFFFFFFFFFFFFFFFFFFFFFFFFFFFFF AND DUP2 MSTORE PUSH1 0x20 ADD SWAP1 DUP2 MSTORE PUSH1 0x20 ADD PUSH0 KECCAK256 DUP3 DUP2 SLOAD DUP2 LT PUSH2 0x39D JUMPI PUSH2 0x39C PUSH2 0x1668 JUMP JUMPDEST JUMPDEST SWAP1 PUSH0 MSTORE PUSH1 0x20 PUSH0 KECCAK256 SWAP1 PUSH1 0x5 MUL ADD PUSH1 0x2 ADD DUP1 SLOAD PUSH2 0x3B7 SWAP1 PUSH2 0x1638 JUMP JUMPDEST DUP1 PUSH1 0x1F ADD PUSH1 0x20 DUP1 SWAP2 DIV MUL PUSH1 0x20 ADD PUSH1 0x40 MLOAD SWAP1 DUP2 ADD PUSH1 0x40 MSTORE DUP1 SWAP3 SWAP2 SWAP1 DUP2 DUP2 MSTORE PUSH1 0x20 ADD DUP3 DUP1 SLOAD PUSH2 0x3E3 SWAP1 PUSH2 0x1638 JUMP JUMPDEST DUP1 ISZERO PUSH2 0x42E JUMPI DUP1 PUSH1 0x1F LT PUSH2 0x405 JUMPI PUSH2 0x100 DUP1 DUP4 SLOAD DIV MUL DUP4 MSTORE SWAP2 PUSH1 0x20 ADD SWAP2 PUSH2 0x42E JUMP JUMPDEST DUP3 ADD SWAP2 SWAP1 PUSH0 MSTORE PUSH1 0x20 PUSH0 KECCAK256 SWAP1 JUMPDEST DUP2 SLOAD DUP2 MSTORE SWAP1 PUSH1 0x1 ADD SWAP1 PUSH1 0x20 ADD DUP1 DUP4 GT PUSH2 0x411 JUMPI DUP3 SWAP1 SUB PUSH1 0x1F AND DUP3 ADD SWAP2 JUMPDEST POP POP POP POP POP SWAP1 POP SWAP3 SWAP2 POP POP JUMP JUMPDEST DUP2 PUSH20 0xFFFFFFFFFFFFFFFFFFFFFFFFFFFFFFFFFFFFFFFF AND PUSH0 PUSH0 DUP5 PUSH20 0xFFFFFFFFFFFFFFFFFFFFFFFFFFFFFFFFFFFFFFFF AND PUSH20 0xFFFFFFFFFFFFFFFFFFFFFFFFFFFFFFFFFFFFFFFF AND DUP2 MSTORE PUSH1 0x20 ADD SWAP1 DUP2 MSTORE PUSH1 0x20 ADD PUSH0 KECCAK256 DUP3 DUP2 SLOAD DUP2 LT PUSH2 0x4A0 JUMPI PUSH2 0x49F PUSH2 0x1668 JUMP JUMPDEST JUMPDEST SWAP1 PUSH0 MSTORE PUSH1 0x20 PUSH0 KECCAK256 SWAP1 PUSH1 0x5 MUL ADD PUSH1 0x1 ADD PUSH0 SWAP1 SLOAD SWAP1 PUSH2 0x100 EXP SWAP1 DIV PUSH20 0xFFFFFFFFFFFFFFFFFFFFFFFFFFFFFFFFFFFFFFFF AND PUSH20 0xFFFFFFFFFFFFFFFFFFFFFFFFFFFFFFFFFFFFFFFF AND EQ PUSH2 0x525 JUMPI PUSH1 0x40 MLOAD PUSH32 0x8C379A000000000000000000000000000000000000000000000000000000000 DUP2 MSTORE PUSH1 0x4 ADD PUSH2 0x51C SWAP1 PUSH2 0x16DF JUMP JUMPDEST PUSH1 0x40 MLOAD DUP1 SWAP2 SUB SWAP1 REVERT JUMPDEST PUSH1 0x1 PUSH0 PUSH0 DUP5 PUSH20 0xFFFFFFFFFFFFFFFFFFFFFFFFFFFFFFFFFFFFFFFF AND PUSH20 0xFFFFFFFFFFFFFFFFFFFFFFFFFFFFFFFFFFFFFFFF AND DUP2 MSTORE PUSH1 0x20 ADD SWAP1 DUP2 MSTORE PUSH1 0x20 ADD PUSH0 KECCAK256 DUP3 DUP2 SLOAD DUP2 LT PUSH2 0x575 JUMPI PUSH2 0x574 PUSH2 0x1668 JUMP JUMPDEST JUMPDEST SWAP1 PUSH0 MSTORE PUSH1 0x20 PUSH0 KECCAK256 SWAP1 PUSH1 0x5 MUL ADD PUSH1 0x4 ADD PUSH0 DUP3 DUP3 SLOAD PUSH2 0x592 SWAP2 SWAP1 PUSH2 0x172A JUMP JUMPDEST SWAP3 POP POP DUP2 SWAP1 SSTORE POP PUSH32 0xE8A76FC0F16D11A00D1E93B689B63D76CF60AF914DD3D915375DC41D01A0C3C8 CALLER DUP4 PUSH0 PUSH0 DUP7 PUSH20 0xFFFFFFFFFFFFFFFFFFFFFFFFFFFFFFFFFFFFFFFF AND PUSH20 0xFFFFFFFFFFFFFFFFFFFFFFFFFFFFFFFFFFFFFFFF AND DUP2 MSTORE PUSH1 0x20 ADD SWAP1 DUP2 MSTORE PUSH1 0x20 ADD PUSH0 KECCAK256 DUP5 DUP2 SLOAD DUP2 LT PUSH2 0x60A JUMPI PUSH2 0x609 PUSH2 0x1668 JUMP JUMPDEST JUMPDEST SWAP1 PUSH0 MSTORE PUSH1 0x20 PUSH0 KECCAK256 SWAP1 PUSH1 0x5 MUL ADD PUSH0 ADD SLOAD PUSH0 PUSH0 DUP8 PUSH20 0xFFFFFFFFFFFFFFFFFFFFFFFFFFFFFFFFFFFFFFFF AND PUSH20 0xFFFFFFFFFFFFFFFFFFFFFFFFFFFFFFFFFFFFFFFF AND DUP2 MSTORE PUSH1 0x20 ADD SWAP1 DUP2 MSTORE PUSH1 0x20 ADD PUSH0 KECCAK256 DUP6 DUP2 SLOAD DUP2 LT PUSH2 0x667 JUMPI PUSH2 0x666 PUSH2 0x1668 JUMP JUMPDEST JUMPDEST SWAP1 PUSH0 MSTORE PUSH1 0x20 PUSH0 KECCAK256 SWAP1 PUSH1 0x5 MUL ADD PUSH1 0x4 ADD SLOAD PUSH1 0x40 MLOAD PUSH2 0x687 SWAP5 SWAP4 SWAP3 SWAP2 SWAP1 PUSH2 0x175D JUMP JUMPDEST PUSH1 0x40 MLOAD DUP1 SWAP2 SUB SWAP1 LOG1 POP POP JUMP JUMPDEST PUSH1 0x1 DUP2 SWAP1 DUP1 PUSH1 0x1 DUP2 SLOAD ADD DUP1 DUP3 SSTORE DUP1 SWAP2 POP POP PUSH1 0x1 SWAP1 SUB SWAP1 PUSH0 MSTORE PUSH1 0x20 PUSH0 KECCAK256 ADD PUSH0 SWAP1 SWAP2 SWAP1 SWAP2 SWAP1 SWAP2 POP SWAP1 DUP2 PUSH2 0x6C4 SWAP2 SWAP1 PUSH2 0x1940 JUMP JUMPDEST POP POP JUMP JUMPDEST PUSH0 DUP2 MLOAD GT PUSH2 0x70B JUMPI PUSH1 0x40 MLOAD PUSH32 0x8C379A000000000000000000000000000000000000000000000000000000000 DUP2 MSTORE PUSH1 0x4 ADD PUSH2 0x702 SWAP1 PUSH2 0x1A59 JUMP JUMPDEST PUSH1 0x40 MLOAD DUP1 SWAP2 SUB SWAP1 REVERT JUMPDEST PUSH2 0x118 PUSH2 0xFFFF AND DUP2 MLOAD GT ISZERO PUSH2 0x755 JUMPI PUSH1 0x40 MLOAD PUSH32 0x8C379A000000000000000000000000000000000000000000000000000000000 DUP2 MSTORE PUSH1 0x4 ADD PUSH2 0x74C SWAP1 PUSH2 0x1AE7 JUMP JUMPDEST PUSH1 0x40 MLOAD DUP1 SWAP2 SUB SWAP1 REVERT JUMPDEST PUSH0 PUSH1 0x40 MLOAD DUP1 PUSH1 0xA0 ADD PUSH1 0x40 MSTORE DUP1 TIMESTAMP CALLER PUSH1 0x40 MLOAD PUSH1 0x20 ADD PUSH2 0x774 SWAP3 SWAP2 SWAP1 PUSH2 0x1B6A JUMP JUMPDEST PUSH1 0x40 MLOAD PUSH1 0x20 DUP2 DUP4 SUB SUB DUP2 MSTORE SWAP1 PUSH1 0x40 MSTORE DUP1 MLOAD SWAP1 PUSH1 0x20 ADD KECCAK256 PUSH0 SHR DUP2 MSTORE PUSH1 0x20 ADD CALLER PUSH20 0xFFFFFFFFFFFFFFFFFFFFFFFFFFFFFFFFFFFFFFFF AND DUP2 MSTORE PUSH1 0x20 ADD DUP4 DUP2 MSTORE PUSH1 0x20 ADD TIMESTAMP DUP2 MSTORE PUSH1 0x20 ADD PUSH0 DUP2 MSTORE POP SWAP1 POP PUSH0 PUSH0 CALLER PUSH20 0xFFFFFFFFFFFFFFFFFFFFFFFFFFFFFFFFFFFFFFFF AND PUSH20 0xFFFFFFFFFFFFFFFFFFFFFFFFFFFFFFFFFFFFFFFF AND DUP2 MSTORE PUSH1 0x20 ADD SWAP1 DUP2 MSTORE PUSH1 0x20 ADD PUSH0 KECCAK256 DUP2 SWAP1 DUP1 PUSH1 0x1 DUP2 SLOAD ADD DUP1 DUP3 SSTORE DUP1 SWAP2 POP POP PUSH1 0x1 SWAP1 SUB SWAP1 PUSH0 MSTORE PUSH1 0x20 PUSH0 KECCAK256 SWAP1 PUSH1 0x5 MUL ADD PUSH0 SWAP1 SWAP2 SWAP1 SWAP2 SWAP1 SWAP2 POP PUSH0 DUP3 ADD MLOAD DUP2 PUSH0 ADD SSTORE PUSH1 0x20 DUP3 ADD MLOAD DUP2 PUSH1 0x1 ADD PUSH0 PUSH2 0x100 EXP DUP2 SLOAD DUP2 PUSH20 0xFFFFFFFFFFFFFFFFFFFFFFFFFFFFFFFFFFFFFFFF MUL NOT AND SWAP1 DUP4 PUSH20 0xFFFFFFFFFFFFFFFFFFFFFFFFFFFFFFFFFFFFFFFF AND MUL OR SWAP1 SSTORE POP PUSH1 0x40 DUP3 ADD MLOAD DUP2 PUSH1 0x2 ADD SWAP1 DUP2 PUSH2 0x885 SWAP2 SWAP1 PUSH2 0x1940 JUMP JUMPDEST POP PUSH1 0x60 DUP3 ADD MLOAD DUP2 PUSH1 0x3 ADD SSTORE PUSH1 0x80 DUP3 ADD MLOAD DUP2 PUSH1 0x4 ADD SSTORE POP POP DUP1 PUSH0 ADD MLOAD PUSH32 0x3BFF7E3357A32E81FDC286A0C2C739081876634BC54AAF360252B91650DF42C6 DUP3 PUSH1 0x60 ADD MLOAD DUP4 PUSH1 0x20 ADD MLOAD PUSH1 0x40 MLOAD PUSH2 0x8D9 SWAP3 SWAP2 SWAP1 PUSH2 0x1B95 JUMP JUMPDEST PUSH1 0x40 MLOAD DUP1 SWAP2 SUB SWAP1 LOG2 POP POP JUMP JUMPDEST PUSH0 DUP3 PUSH20 0xFFFFFFFFFFFFFFFFFFFFFFFFFFFFFFFFFFFFFFFF AND PUSH0 PUSH0 DUP6 PUSH20 0xFFFFFFFFFFFFFFFFFFFFFFFFFFFFFFFFFFFFFFFF AND PUSH20 0xFFFFFFFFFFFFFFFFFFFFFFFFFFFFFFFFFFFFFFFF AND DUP2 MSTORE PUSH1 0x20 ADD SWAP1 DUP2 MSTORE PUSH1 0x20 ADD PUSH0 KECCAK256 DUP4 DUP2 SLOAD DUP2 LT PUSH2 0x94B JUMPI PUSH2 0x94A PUSH2 0x1668 JUMP JUMPDEST JUMPDEST SWAP1 PUSH0 MSTORE PUSH1 0x20 PUSH0 KECCAK256 SWAP1 PUSH1 0x5 MUL ADD PUSH1 0x1 ADD PUSH0 SWAP1 SLOAD SWAP1 PUSH2 0x100 EXP SWAP1 DIV PUSH20 0xFFFFFFFFFFFFFFFFFFFFFFFFFFFFFFFFFFFFFFFF AND PUSH20 0xFFFFFFFFFFFFFFFFFFFFFFFFFFFFFFFFFFFFFFFF AND EQ PUSH2 0x9D0 JUMPI PUSH1 0x40 MLOAD PUSH32 0x8C379A000000000000000000000000000000000000000000000000000000000 DUP2 MSTORE PUSH1 0x4 ADD PUSH2 0x9C7 SWAP1 PUSH2 0x16DF JUMP JUMPDEST PUSH1 0x40 MLOAD DUP1 SWAP2 SUB SWAP1 REVERT JUMPDEST PUSH0 PUSH0 DUP5 PUSH20 0xFFFFFFFFFFFFFFFFFFFFFFFFFFFFFFFFFFFFFFFF AND PUSH20 0xFFFFFFFFFFFFFFFFFFFFFFFFFFFFFFFFFFFFFFFF AND DUP2 MSTORE PUSH1 0x20 ADD SWAP1 DUP2 MSTORE PUSH1 0x20 ADD PUSH0 KECCAK256 DUP3 DUP2 SLOAD DUP2 LT PUSH2 0xA1E JUMPI PUSH2 0xA1D PUSH2 0x1668 JUMP JUMPDEST JUMPDEST SWAP1 PUSH0 MSTORE PUSH1 0x20 PUSH0 KECCAK256 SWAP1 PUSH1 0x5 MUL ADD PUSH1 0x4 ADD SLOAD SWAP1 POP SWAP3 SWAP2 POP POP JUMP JUMPDEST PUSH1 0x1 DUP2 DUP2 SLOAD DUP2 LT PUSH2 0xA45 JUMPI PUSH0 DUP1 REVERT JUMPDEST SWAP1 PUSH0 MSTORE PUSH1 0x20 PUSH0 KECCAK256 ADD PUSH0 SWAP2 POP SWAP1 POP DUP1 SLOAD PUSH2 0xA5D SWAP1 PUSH2 0x1638 JUMP JUMPDEST DUP1 PUSH1 0x1F ADD PUSH1 0x20 DUP1 SWAP2 DIV MUL PUSH1 0x20 ADD PUSH1 0x40 MLOAD SWAP1 DUP2 ADD PUSH1 0x40 MSTORE DUP1 SWAP3 SWAP2 SWAP1 DUP2 DUP2 MSTORE PUSH1 0x20 ADD DUP3 DUP1 SLOAD PUSH2 0xA89 SWAP1 PUSH2 0x1638 JUMP JUMPDEST DUP1 ISZERO PUSH2 0xAD4 JUMPI DUP1 PUSH1 0x1F LT PUSH2 0xAAB JUMPI PUSH2 0x100 DUP1 DUP4 SLOAD DIV MUL DUP4 MSTORE SWAP2 PUSH1 0x20 ADD SWAP2 PUSH2 0xAD4 JUMP JUMPDEST DUP3 ADD SWAP2 SWAP1 PUSH0 MSTORE PUSH1 0x20 PUSH0 KECCAK256 SWAP1 JUMPDEST DUP2 SLOAD DUP2 MSTORE SWAP1 PUSH1 0x1 ADD SWAP1 PUSH1 0x20 ADD DUP1 DUP4 GT PUSH2 0xAB7 JUMPI DUP3 SWAP1 SUB PUSH1 0x1F AND DUP3 ADD SWAP2 JUMPDEST POP POP POP POP POP DUP2 JUMP JUMPDEST DUP2 PUSH20 0xFFFFFFFFFFFFFFFFFFFFFFFFFFFFFFFFFFFFFFFF AND PUSH0 PUSH0 DUP5 PUSH20 0xFFFFFFFFFFFFFFFFFFFFFFFFFFFFFFFFFFFFFFFF AND PUSH20 0xFFFFFFFFFFFFFFFFFFFFFFFFFFFFFFFFFFFFFFFF AND DUP2 MSTORE PUSH1 0x20 ADD SWAP1 DUP2 MSTORE PUSH1 0x20 ADD PUSH0 KECCAK256 DUP3 DUP2 SLOAD DUP2 LT PUSH2 0xB41 JUMPI PUSH2 0xB40 PUSH2 0x1668 JUMP JUMPDEST JUMPDEST SWAP1 PUSH0 MSTORE PUSH1 0x20 PUSH0 KECCAK256 SWAP1 PUSH1 0x5 MUL ADD PUSH1 0x1 ADD PUSH0 SWAP1 SLOAD SWAP1 PUSH2 0x100 EXP SWAP1 DIV PUSH20 0xFFFFFFFFFFFFFFFFFFFFFFFFFFFFFFFFFFFFFFFF AND PUSH20 0xFFFFFFFFFFFFFFFFFFFFFFFFFFFFFFFFFFFFFFFF AND EQ PUSH2 0xBC6 JUMPI PUSH1 0x40 MLOAD PUSH32 0x8C379A000000000000000000000000000000000000000000000000000000000 DUP2 MSTORE PUSH1 0x4 ADD PUSH2 0xBBD SWAP1 PUSH2 0x16DF JUMP JUMPDEST PUSH1 0x40 MLOAD DUP1 SWAP2 SUB SWAP1 REVERT JUMPDEST PUSH0 PUSH0 PUSH0 DUP5 PUSH20 0xFFFFFFFFFFFFFFFFFFFFFFFFFFFFFFFFFFFFFFFF AND PUSH20 0xFFFFFFFFFFFFFFFFFFFFFFFFFFFFFFFFFFFFFFFF AND DUP2 MSTORE PUSH1 0x20 ADD SWAP1 DUP2 MSTORE PUSH1 0x20 ADD PUSH0 KECCAK256 DUP3 DUP2 SLOAD DUP2 LT PUSH2 0xC15 JUMPI PUSH2 0xC14 PUSH2 0x1668 JUMP JUMPDEST JUMPDEST SWAP1 PUSH0 MSTORE PUSH1 0x20 PUSH0 KECCAK256 SWAP1 PUSH1 0x5 MUL ADD PUSH1 0x4 ADD SLOAD GT PUSH2 0xC65 JUMPI PUSH1 0x40 MLOAD PUSH32 0x8C379A000000000000000000000000000000000000000000000000000000000 DUP2 MSTORE PUSH1 0x4 ADD PUSH2 0xC5C SWAP1 PUSH2 0x1C06 JUMP JUMPDEST PUSH1 0x40 MLOAD DUP1 SWAP2 SUB SWAP1 REVERT JUMPDEST PUSH1 0x1 PUSH0 PUSH0 DUP5 PUSH20 0xFFFFFFFFFFFFFFFFFFFFFFFFFFFFFFFFFFFFFFFF AND PUSH20 0xFFFFFFFFFFFFFFFFFFFFFFFFFFFFFFFFFFFFFFFF AND DUP2 MSTORE PUSH1 0x20 ADD SWAP1 DUP2 MSTORE PUSH1 0x20 ADD PUSH0 KECCAK256 DUP3 DUP2 SLOAD DUP2 LT PUSH2 0xCB5 JUMPI PUSH2 0xCB4 PUSH2 0x1668 JUMP JUMPDEST JUMPDEST SWAP1 PUSH0 MSTORE PUSH1 0x20 PUSH0 KECCAK256 SWAP1 PUSH1 0x5 MUL ADD PUSH1 0x4 ADD PUSH0 DUP3 DUP3 SLOAD PUSH2 0xCD2 SWAP2 SWAP1 PUSH2 0x1C24 JUMP JUMPDEST SWAP3 POP POP DUP2 SWAP1 SSTORE POP PUSH32 0x273883C252143C4ABCE776697615E41CA9BC1AAC5968C585D1C8BA8FFAA8B3C1 CALLER DUP4 PUSH0 PUSH0 DUP7 PUSH20 0xFFFFFFFFFFFFFFFFFFFFFFFFFFFFFFFFFFFFFFFF AND PUSH20 0xFFFFFFFFFFFFFFFFFFFFFFFFFFFFFFFFFFFFFFFF AND DUP2 MSTORE PUSH1 0x20 ADD SWAP1 DUP2 MSTORE PUSH1 0x20 ADD PUSH0 KECCAK256 DUP5 DUP2 SLOAD DUP2 LT PUSH2 0xD4A JUMPI PUSH2 0xD49 PUSH2 0x1668 JUMP JUMPDEST JUMPDEST SWAP1 PUSH0 MSTORE PUSH1 0x20 PUSH0 KECCAK256 SWAP1 PUSH1 0x5 MUL ADD PUSH0 ADD SLOAD PUSH0 PUSH0 DUP8 PUSH20 0xFFFFFFFFFFFFFFFFFFFFFFFFFFFFFFFFFFFFFFFF AND PUSH20 0xFFFFFFFFFFFFFFFFFFFFFFFFFFFFFFFFFFFFFFFF AND DUP2 MSTORE PUSH1 0x20 ADD SWAP1 DUP2 MSTORE PUSH1 0x20 ADD PUSH0 KECCAK256 DUP6 DUP2 SLOAD DUP2 LT PUSH2 0xDA7 JUMPI PUSH2 0xDA6 PUSH2 0x1668 JUMP JUMPDEST JUMPDEST SWAP1 PUSH0 MSTORE PUSH1 0x20 PUSH0 KECCAK256 SWAP1 PUSH1 0x5 MUL ADD PUSH1 0x4 ADD SLOAD PUSH1 0x40 MLOAD PUSH2 0xDC7 SWAP5 SWAP4 SWAP3 SWAP2 SWAP1 PUSH2 0x175D JUMP JUMPDEST PUSH1 0x40 MLOAD DUP1 SWAP2 SUB SWAP1 LOG1 POP POP JUMP JUMPDEST PUSH1 0x60 PUSH1 0x1 DUP3 DUP2 SLOAD DUP2 LT PUSH2 0xDE9 JUMPI PUSH2 0xDE8 PUSH2 0x1668 JUMP JUMPDEST JUMPDEST SWAP1 PUSH0 MSTORE PUSH1 0x20 PUSH0 KECCAK256 ADD DUP1 SLOAD PUSH2 0xDFC SWAP1 PUSH2 0x1638 JUMP JUMPDEST DUP1 PUSH1 0x1F ADD PUSH1 0x20 DUP1 SWAP2 DIV MUL PUSH1 0x20 ADD PUSH1 0x40 MLOAD SWAP1 DUP2 ADD PUSH1 0x40 MSTORE DUP1 SWAP3 SWAP2 SWAP1 DUP2 DUP2 MSTORE PUSH1 0x20 ADD DUP3 DUP1 SLOAD PUSH2 0xE28 SWAP1 PUSH2 0x1638 JUMP JUMPDEST DUP1 ISZERO PUSH2 0xE73 JUMPI DUP1 PUSH1 0x1F LT PUSH2 0xE4A JUMPI PUSH2 0x100 DUP1 DUP4 SLOAD DIV MUL DUP4 MSTORE SWAP2 PUSH1 0x20 ADD SWAP2 PUSH2 0xE73 JUMP JUMPDEST DUP3 ADD SWAP2 SWAP1 PUSH0 MSTORE PUSH1 0x20 PUSH0 KECCAK256 SWAP1 JUMPDEST DUP2 SLOAD DUP2 MSTORE SWAP1 PUSH1 0x1 ADD SWAP1 PUSH1 0x20 ADD DUP1 DUP4 GT PUSH2 0xE56 JUMPI DUP3 SWAP1 SUB PUSH1 0x1F AND DUP3 ADD SWAP2 JUMPDEST POP POP POP POP POP SWAP1 POP SWAP2 SWAP1 POP JUMP JUMPDEST PUSH0 PUSH1 0x1 DUP1 SLOAD SWAP1 POP SWAP1 POP SWAP1 JUMP JUMPDEST PUSH1 0x60 DUP2 PUSH20 0xFFFFFFFFFFFFFFFFFFFFFFFFFFFFFFFFFFFFFFFF AND CALLER PUSH20 0xFFFFFFFFFFFFFFFFFFFFFFFFFFFFFFFFFFFFFFFF AND EQ PUSH2 0xEFB JUMPI PUSH1 0x40 MLOAD PUSH32 0x8C379A000000000000000000000000000000000000000000000000000000000 DUP2 MSTORE PUSH1 0x4 ADD PUSH2 0xEF2 SWAP1 PUSH2 0x1CA1 JUMP JUMPDEST PUSH1 0x40 MLOAD DUP1 SWAP2 SUB SWAP1 REVERT JUMPDEST PUSH0 PUSH0 DUP4 PUSH20 0xFFFFFFFFFFFFFFFFFFFFFFFFFFFFFFFFFFFFFFFF AND PUSH20 0xFFFFFFFFFFFFFFFFFFFFFFFFFFFFFFFFFFFFFFFF AND DUP2 MSTORE PUSH1 0x20 ADD SWAP1 DUP2 MSTORE PUSH1 0x20 ADD PUSH0 KECCAK256 DUP1 SLOAD DUP1 PUSH1 0x20 MUL PUSH1 0x20 ADD PUSH1 0x40 MLOAD SWAP1 DUP2 ADD PUSH1 0x40 MSTORE DUP1 SWAP3 SWAP2 SWAP1 DUP2 DUP2 MSTORE PUSH1 0x20 ADD PUSH0 SWAP1 JUMPDEST DUP3 DUP3 LT ISZERO PUSH2 0x1088 JUMPI DUP4 DUP3 SWAP1 PUSH0 MSTORE PUSH1 0x20 PUSH0 KECCAK256 SWAP1 PUSH1 0x5 MUL ADD PUSH1 0x40 MLOAD DUP1 PUSH1 0xA0 ADD PUSH1 0x40 MSTORE SWAP1 DUP2 PUSH0 DUP3 ADD SLOAD DUP2 MSTORE PUSH1 0x20 ADD PUSH1 0x1 DUP3 ADD PUSH0 SWAP1 SLOAD SWAP1 PUSH2 0x100 EXP SWAP1 DIV PUSH20 0xFFFFFFFFFFFFFFFFFFFFFFFFFFFFFFFFFFFFFFFF AND PUSH20 0xFFFFFFFFFFFFFFFFFFFFFFFFFFFFFFFFFFFFFFFF AND PUSH20 0xFFFFFFFFFFFFFFFFFFFFFFFFFFFFFFFFFFFFFFFF AND DUP2 MSTORE PUSH1 0x20 ADD PUSH1 0x2 DUP3 ADD DUP1 SLOAD PUSH2 0xFE5 SWAP1 PUSH2 0x1638 JUMP JUMPDEST DUP1 PUSH1 0x1F ADD PUSH1 0x20 DUP1 SWAP2 DIV MUL PUSH1 0x20 ADD PUSH1 0x40 MLOAD SWAP1 DUP2 ADD PUSH1 0x40 MSTORE DUP1 SWAP3 SWAP2 SWAP1 DUP2 DUP2 MSTORE PUSH1 0x20 ADD DUP3 DUP1 SLOAD PUSH2 0x1011 SWAP1 PUSH2 0x1638 JUMP JUMPDEST DUP1 ISZERO PUSH2 0x105C JUMPI DUP1 PUSH1 0x1F LT PUSH2 0x1033 JUMPI PUSH2 0x100 DUP1 DUP4 SLOAD DIV MUL DUP4 MSTORE SWAP2 PUSH1 0x20 ADD SWAP2 PUSH2 0x105C JUMP JUMPDEST DUP3 ADD SWAP2 SWAP1 PUSH0 MSTORE PUSH1 0x20 PUSH0 KECCAK256 SWAP1 JUMPDEST DUP2 SLOAD DUP2 MSTORE SWAP1 PUSH1 0x1 ADD SWAP1 PUSH1 0x20 ADD DUP1 DUP4 GT PUSH2 0x103F JUMPI DUP3 SWAP1 SUB PUSH1 0x1F AND DUP3 ADD SWAP2 JUMPDEST POP POP POP POP POP DUP2 MSTORE PUSH1 0x20 ADD PUSH1 0x3 DUP3 ADD SLOAD DUP2 MSTORE PUSH1 0x20 ADD PUSH1 0x4 DUP3 ADD SLOAD DUP2 MSTORE POP POP DUP2 MSTORE PUSH1 0x20 ADD SWAP1 PUSH1 0x1 ADD SWAP1 PUSH2 0xF56 JUMP JUMPDEST POP POP POP POP SWAP1 POP SWAP2 SWAP1 POP JUMP JUMPDEST PUSH0 PUSH1 0x40 MLOAD SWAP1 POP SWAP1 JUMP JUMPDEST PUSH0 PUSH0 REVERT JUMPDEST PUSH0 PUSH0 REVERT JUMPDEST PUSH0 PUSH20 0xFFFFFFFFFFFFFFFFFFFFFFFFFFFFFFFFFFFFFFFF DUP3 AND SWAP1 POP SWAP2 SWAP1 POP JUMP JUMPDEST PUSH0 PUSH2 0x10CD DUP3 PUSH2 0x10A4 JUMP JUMPDEST SWAP1 POP SWAP2 SWAP1 POP JUMP JUMPDEST PUSH2 0x10DD DUP2 PUSH2 0x10C3 JUMP JUMPDEST DUP2 EQ PUSH2 0x10E7 JUMPI PUSH0 PUSH0 REVERT JUMPDEST POP JUMP JUMPDEST PUSH0 DUP2 CALLDATALOAD SWAP1 POP PUSH2 0x10F8 DUP2 PUSH2 0x10D4 JUMP JUMPDEST SWAP3 SWAP2 POP POP JUMP JUMPDEST PUSH0 DUP2 SWAP1 POP SWAP2 SWAP1 POP JUMP JUMPDEST PUSH2 0x1110 DUP2 PUSH2 0x10FE JUMP JUMPDEST DUP2 EQ PUSH2 0x111A JUMPI PUSH0 PUSH0 REVERT JUMPDEST POP JUMP JUMPDEST PUSH0 DUP2 CALLDATALOAD SWAP1 POP PUSH2 0x112B DUP2 PUSH2 0x1107 JUMP JUMPDEST SWAP3 SWAP2 POP POP JUMP JUMPDEST PUSH0 PUSH0 PUSH1 0x40 DUP4 DUP6 SUB SLT ISZERO PUSH2 0x1147 JUMPI PUSH2 0x1146 PUSH2 0x109C JUMP JUMPDEST JUMPDEST PUSH0 PUSH2 0x1154 DUP6 DUP3 DUP7 ADD PUSH2 0x10EA JUMP JUMPDEST SWAP3 POP POP PUSH1 0x20 PUSH2 0x1165 DUP6 DUP3 DUP7 ADD PUSH2 0x111D JUMP JUMPDEST SWAP2 POP POP SWAP3 POP SWAP3 SWAP1 POP JUMP JUMPDEST PUSH2 0x1178 DUP2 PUSH2 0x10FE JUMP JUMPDEST DUP3 MSTORE POP POP JUMP JUMPDEST PUSH2 0x1187 DUP2 PUSH2 0x10C3 JUMP JUMPDEST DUP3 MSTORE POP POP JUMP JUMPDEST PUSH0 DUP2 MLOAD SWAP1 POP SWAP2 SWAP1 POP JUMP JUMPDEST PUSH0 DUP3 DUP3 MSTORE PUSH1 0x20 DUP3 ADD SWAP1 POP SWAP3 SWAP2 POP POP JUMP JUMPDEST DUP3 DUP2 DUP4 MCOPY PUSH0 DUP4 DUP4 ADD MSTORE POP POP POP JUMP JUMPDEST PUSH0 PUSH1 0x1F NOT PUSH1 0x1F DUP4 ADD AND SWAP1 POP SWAP2 SWAP1 POP JUMP JUMPDEST PUSH0 PUSH2 0x11CF DUP3 PUSH2 0x118D JUMP JUMPDEST PUSH2 0x11D9 DUP2 DUP6 PUSH2 0x1197 JUMP JUMPDEST SWAP4 POP PUSH2 0x11E9 DUP2 DUP6 PUSH1 0x20 DUP7 ADD PUSH2 0x11A7 JUMP JUMPDEST PUSH2 0x11F2 DUP2 PUSH2 0x11B5 JUMP JUMPDEST DUP5 ADD SWAP2 POP POP SWAP3 SWAP2 POP POP JUMP JUMPDEST PUSH0 PUSH1 0xA0 DUP3 ADD SWAP1 POP PUSH2 0x1210 PUSH0 DUP4 ADD DUP9 PUSH2 0x116F JUMP JUMPDEST PUSH2 0x121D PUSH1 0x20 DUP4 ADD DUP8 PUSH2 0x117E JUMP JUMPDEST DUP2 DUP2 SUB PUSH1 0x40 DUP4 ADD MSTORE PUSH2 0x122F DUP2 DUP7 PUSH2 0x11C5 JUMP JUMPDEST SWAP1 POP PUSH2 0x123E PUSH1 0x60 DUP4 ADD DUP6 PUSH2 0x116F JUMP JUMPDEST PUSH2 0x124B PUSH1 0x80 DUP4 ADD DUP5 PUSH2 0x116F JUMP JUMPDEST SWAP7 SWAP6 POP POP POP POP POP POP JUMP JUMPDEST PUSH0 PUSH1 0x20 DUP3 ADD SWAP1 POP DUP2 DUP2 SUB PUSH0 DUP4 ADD MSTORE PUSH2 0x126D DUP2 DUP5 PUSH2 0x11C5 JUMP JUMPDEST SWAP1 POP SWAP3 SWAP2 POP POP JUMP JUMPDEST PUSH0 PUSH0 REVERT JUMPDEST PUSH0 PUSH0 REVERT JUMPDEST PUSH32 0x4E487B7100000000000000000000000000000000000000000000000000000000 PUSH0 MSTORE PUSH1 0x41 PUSH1 0x4 MSTORE PUSH1 0x24 PUSH0 REVERT JUMPDEST PUSH2 0x12B3 DUP3 PUSH2 0x11B5 JUMP JUMPDEST DUP2 ADD DUP2 DUP2 LT PUSH8 0xFFFFFFFFFFFFFFFF DUP3 GT OR ISZERO PUSH2 0x12D2 JUMPI PUSH2 0x12D1 PUSH2 0x127D JUMP JUMPDEST JUMPDEST DUP1 PUSH1 0x40 MSTORE POP POP POP JUMP JUMPDEST PUSH0 PUSH2 0x12E4 PUSH2 0x1093 JUMP JUMPDEST SWAP1 POP PUSH2 0x12F0 DUP3 DUP3 PUSH2 0x12AA JUMP JUMPDEST SWAP2 SWAP1 POP JUMP JUMPDEST PUSH0 PUSH8 0xFFFFFFFFFFFFFFFF DUP3 GT ISZERO PUSH2 0x130F JUMPI PUSH2 0x130E PUSH2 0x127D JUMP JUMPDEST JUMPDEST PUSH2 0x1318 DUP3 PUSH2 0x11B5 JUMP JUMPDEST SWAP1 POP PUSH1 0x20 DUP2 ADD SWAP1 POP SWAP2 SWAP1 POP JUMP JUMPDEST DUP3 DUP2 DUP4 CALLDATACOPY PUSH0 DUP4 DUP4 ADD MSTORE POP POP POP JUMP JUMPDEST PUSH0 PUSH2 0x1345 PUSH2 0x1340 DUP5 PUSH2 0x12F5 JUMP JUMPDEST PUSH2 0x12DB JUMP JUMPDEST SWAP1 POP DUP3 DUP2 MSTORE PUSH1 0x20 DUP2 ADD DUP5 DUP5 DUP5 ADD GT ISZERO PUSH2 0x1361 JUMPI PUSH2 0x1360 PUSH2 0x1279 JUMP JUMPDEST JUMPDEST PUSH2 0x136C DUP5 DUP3 DUP6 PUSH2 0x1325 JUMP JUMPDEST POP SWAP4 SWAP3 POP POP POP JUMP JUMPDEST PUSH0 DUP3 PUSH1 0x1F DUP4 ADD SLT PUSH2 0x1388 JUMPI PUSH2 0x1387 PUSH2 0x1275 JUMP JUMPDEST JUMPDEST DUP2 CALLDATALOAD PUSH2 0x1398 DUP5 DUP3 PUSH1 0x20 DUP7 ADD PUSH2 0x1333 JUMP JUMPDEST SWAP2 POP POP SWAP3 SWAP2 POP POP JUMP JUMPDEST PUSH0 PUSH1 0x20 DUP3 DUP5 SUB SLT ISZERO PUSH2 0x13B6 JUMPI PUSH2 0x13B5 PUSH2 0x109C JUMP JUMPDEST JUMPDEST PUSH0 DUP3 ADD CALLDATALOAD PUSH8 0xFFFFFFFFFFFFFFFF DUP2 GT ISZERO PUSH2 0x13D3 JUMPI PUSH2 0x13D2 PUSH2 0x10A0 JUMP JUMPDEST JUMPDEST PUSH2 0x13DF DUP5 DUP3 DUP6 ADD PUSH2 0x1374 JUMP JUMPDEST SWAP2 POP POP SWAP3 SWAP2 POP POP JUMP JUMPDEST PUSH0 PUSH1 0x20 DUP3 ADD SWAP1 POP PUSH2 0x13FB PUSH0 DUP4 ADD DUP5 PUSH2 0x116F JUMP JUMPDEST SWAP3 SWAP2 POP POP JUMP JUMPDEST PUSH0 PUSH1 0x20 DUP3 DUP5 SUB SLT ISZERO PUSH2 0x1416 JUMPI PUSH2 0x1415 PUSH2 0x109C JUMP JUMPDEST JUMPDEST PUSH0 PUSH2 0x1423 DUP5 DUP3 DUP6 ADD PUSH2 0x111D JUMP JUMPDEST SWAP2 POP POP SWAP3 SWAP2 POP POP JUMP JUMPDEST PUSH0 PUSH1 0x20 DUP3 DUP5 SUB SLT ISZERO PUSH2 0x1441 JUMPI PUSH2 0x1440 PUSH2 0x109C JUMP JUMPDEST JUMPDEST PUSH0 PUSH2 0x144E DUP5 DUP3 DUP6 ADD PUSH2 0x10EA JUMP JUMPDEST SWAP2 POP POP SWAP3 SWAP2 POP POP JUMP JUMPDEST PUSH0 DUP2 MLOAD SWAP1 POP SWAP2 SWAP1 POP JUMP JUMPDEST PUSH0 DUP3 DUP3 MSTORE PUSH1 0x20 DUP3 ADD SWAP1 POP SWAP3 SWAP2 POP POP JUMP JUMPDEST PUSH0 DUP2 SWAP1 POP PUSH1 0x20 DUP3 ADD SWAP1 POP SWAP2 SWAP1 POP JUMP JUMPDEST PUSH2 0x1489 DUP2 PUSH2 0x10FE JUMP JUMPDEST DUP3 MSTORE POP POP JUMP JUMPDEST PUSH2 0x1498 DUP2 PUSH2 0x10C3 JUMP JUMPDEST DUP3 MSTORE POP POP JUMP JUMPDEST PUSH0 DUP3 DUP3 MSTORE PUSH1 0x20 DUP3 ADD SWAP1 POP SWAP3 SWAP2 POP POP JUMP JUMPDEST PUSH0 PUSH2 0x14B8 DUP3 PUSH2 0x118D JUMP JUMPDEST PUSH2 0x14C2 DUP2 DUP6 PUSH2 0x149E JUMP JUMPDEST SWAP4 POP PUSH2 0x14D2 DUP2 DUP6 PUSH1 0x20 DUP7 ADD PUSH2 0x11A7 JUMP JUMPDEST PUSH2 0x14DB DUP2 PUSH2 0x11B5 JUMP JUMPDEST DUP5 ADD SWAP2 POP POP SWAP3 SWAP2 POP POP JUMP JUMPDEST PUSH0 PUSH1 0xA0 DUP4 ADD PUSH0 DUP4 ADD MLOAD PUSH2 0x14FB PUSH0 DUP7 ADD DUP3 PUSH2 0x1480 JUMP JUMPDEST POP PUSH1 0x20 DUP4 ADD MLOAD PUSH2 0x150E PUSH1 0x20 DUP7 ADD DUP3 PUSH2 0x148F JUMP JUMPDEST POP PUSH1 0x40 DUP4 ADD MLOAD DUP5 DUP3 SUB PUSH1 0x40 DUP7 ADD MSTORE PUSH2 0x1526 DUP3 DUP3 PUSH2 0x14AE JUMP JUMPDEST SWAP2 POP POP PUSH1 0x60 DUP4 ADD MLOAD PUSH2 0x153B PUSH1 0x60 DUP7 ADD DUP3 PUSH2 0x1480 JUMP JUMPDEST POP PUSH1 0x80 DUP4 ADD MLOAD PUSH2 0x154E PUSH1 0x80 DUP7 ADD DUP3 PUSH2 0x1480 JUMP JUMPDEST POP DUP1 SWAP2 POP POP SWAP3 SWAP2 POP POP JUMP JUMPDEST PUSH0 PUSH2 0x1564 DUP4 DUP4 PUSH2 0x14E6 JUMP JUMPDEST SWAP1 POP SWAP3 SWAP2 POP POP JUMP JUMPDEST PUSH0 PUSH1 0x20 DUP3 ADD SWAP1 POP SWAP2 SWAP1 POP JUMP JUMPDEST PUSH0 PUSH2 0x1582 DUP3 PUSH2 0x1457 JUMP JUMPDEST PUSH2 0x158C DUP2 DUP6 PUSH2 0x1461 JUMP JUMPDEST SWAP4 POP DUP4 PUSH1 0x20 DUP3 MUL DUP6 ADD PUSH2 0x159E DUP6 PUSH2 0x1471 JUMP JUMPDEST DUP1 PUSH0 JUMPDEST DUP6 DUP2 LT ISZERO PUSH2 0x15D9 JUMPI DUP5 DUP5 SUB DUP10 MSTORE DUP2 MLOAD PUSH2 0x15BA DUP6 DUP3 PUSH2 0x1559 JUMP JUMPDEST SWAP5 POP PUSH2 0x15C5 DUP4 PUSH2 0x156C JUMP JUMPDEST SWAP3 POP PUSH1 0x20 DUP11 ADD SWAP10 POP POP PUSH1 0x1 DUP2 ADD SWAP1 POP PUSH2 0x15A1 JUMP JUMPDEST POP DUP3 SWAP8 POP DUP8 SWAP6 POP POP POP POP POP POP SWAP3 SWAP2 POP POP JUMP JUMPDEST PUSH0 PUSH1 0x20 DUP3 ADD SWAP1 POP DUP2 DUP2 SUB PUSH0 DUP4 ADD MSTORE PUSH2 0x1603 DUP2 DUP5 PUSH2 0x1578 JUMP JUMPDEST SWAP1 POP SWAP3 SWAP2 POP POP JUMP JUMPDEST PUSH32 0x4E487B7100000000000000000000000000000000000000000000000000000000 PUSH0 MSTORE PUSH1 0x22 PUSH1 0x4 MSTORE PUSH1 0x24 PUSH0 REVERT JUMPDEST PUSH0 PUSH1 0x2 DUP3 DIV SWAP1 POP PUSH1 0x1 DUP3 AND DUP1 PUSH2 0x164F JUMPI PUSH1 0x7F DUP3 AND SWAP2 POP JUMPDEST PUSH1 0x20 DUP3 LT DUP2 SUB PUSH2 0x1662 JUMPI PUSH2 0x1661 PUSH2 0x160B JUMP JUMPDEST JUMPDEST POP SWAP2 SWAP1 POP JUMP JUMPDEST PUSH32 0x4E487B7100000000000000000000000000000000000000000000000000000000 PUSH0 MSTORE PUSH1 0x32 PUSH1 0x4 MSTORE PUSH1 0x24 PUSH0 REVERT JUMPDEST PUSH32 0x547765657420646F6573206E6F74206578697374000000000000000000000000 PUSH0 DUP3 ADD MSTORE POP JUMP JUMPDEST PUSH0 PUSH2 0x16C9 PUSH1 0x14 DUP4 PUSH2 0x1197 JUMP JUMPDEST SWAP2 POP PUSH2 0x16D4 DUP3 PUSH2 0x1695 JUMP JUMPDEST PUSH1 0x20 DUP3 ADD SWAP1 POP SWAP2 SWAP1 POP JUMP JUMPDEST PUSH0 PUSH1 0x20 DUP3 ADD SWAP1 POP DUP2 DUP2 SUB PUSH0 DUP4 ADD MSTORE PUSH2 0x16F6 DUP2 PUSH2 0x16BD JUMP JUMPDEST SWAP1 POP SWAP2 SWAP1 POP JUMP JUMPDEST PUSH32 0x4E487B7100000000000000000000000000000000000000000000000000000000 PUSH0 MSTORE PUSH1 0x11 PUSH1 0x4 MSTORE PUSH1 0x24 PUSH0 REVERT JUMPDEST PUSH0 PUSH2 0x1734 DUP3 PUSH2 0x10FE JUMP JUMPDEST SWAP2 POP PUSH2 0x173F DUP4 PUSH2 0x10FE JUMP JUMPDEST SWAP3 POP DUP3 DUP3 ADD SWAP1 POP DUP1 DUP3 GT ISZERO PUSH2 0x1757 JUMPI PUSH2 0x1756 PUSH2 0x16FD JUMP JUMPDEST JUMPDEST SWAP3 SWAP2 POP POP JUMP JUMPDEST PUSH0 PUSH1 0x80 DUP3 ADD SWAP1 POP PUSH2 0x1770 PUSH0 DUP4 ADD DUP8 PUSH2 0x117E JUMP JUMPDEST PUSH2 0x177D PUSH1 0x20 DUP4 ADD DUP7 PUSH2 0x117E JUMP JUMPDEST PUSH2 0x178A PUSH1 0x40 DUP4 ADD DUP6 PUSH2 0x116F JUMP JUMPDEST PUSH2 0x1797 PUSH1 0x60 DUP4 ADD DUP5 PUSH2 0x116F JUMP JUMPDEST SWAP6 SWAP5 POP POP POP POP POP JUMP JUMPDEST PUSH0 DUP2 SWAP1 POP DUP2 PUSH0 MSTORE PUSH1 0x20 PUSH0 KECCAK256 SWAP1 POP SWAP2 SWAP1 POP JUMP JUMPDEST PUSH0 PUSH1 0x20 PUSH1 0x1F DUP4 ADD DIV SWAP1 POP SWAP2 SWAP1 POP JUMP JUMPDEST PUSH0 DUP3 DUP3 SHL SWAP1 POP SWAP3 SWAP2 POP POP JUMP JUMPDEST PUSH0 PUSH1 0x8 DUP4 MUL PUSH2 0x17FC PUSH32 0xFFFFFFFFFFFFFFFFFFFFFFFFFFFFFFFFFFFFFFFFFFFFFFFFFFFFFFFFFFFFFFFF DUP3 PUSH2 0x17C1 JUMP JUMPDEST PUSH2 0x1806 DUP7 DUP4 PUSH2 0x17C1 JUMP JUMPDEST SWAP6 POP DUP1 NOT DUP5 AND SWAP4 POP DUP1 DUP7 AND DUP5 OR SWAP3 POP POP POP SWAP4 SWAP3 POP POP POP JUMP JUMPDEST PUSH0 DUP2 SWAP1 POP SWAP2 SWAP1 POP JUMP JUMPDEST PUSH0 PUSH2 0x1841 PUSH2 0x183C PUSH2 0x1837 DUP5 PUSH2 0x10FE JUMP JUMPDEST PUSH2 0x181E JUMP JUMPDEST PUSH2 0x10FE JUMP JUMPDEST SWAP1 POP SWAP2 SWAP1 POP JUMP JUMPDEST PUSH0 DUP2 SWAP1 POP SWAP2 SWAP1 POP JUMP JUMPDEST PUSH2 0x185A DUP4 PUSH2 0x1827 JUMP JUMPDEST PUSH2 0x186E PUSH2 0x1866 DUP3 PUSH2 0x1848 JUMP JUMPDEST DUP5 DUP5 SLOAD PUSH2 0x17CD JUMP JUMPDEST DUP3 SSTORE POP POP POP POP JUMP JUMPDEST PUSH0 PUSH0 SWAP1 POP SWAP1 JUMP JUMPDEST PUSH2 0x1885 PUSH2 0x1876 JUMP JUMPDEST PUSH2 0x1890 DUP2 DUP5 DUP5 PUSH2 0x1851 JUMP JUMPDEST POP POP POP JUMP JUMPDEST JUMPDEST DUP2 DUP2 LT ISZERO PUSH2 0x18B3 JUMPI PUSH2 0x18A8 PUSH0 DUP3 PUSH2 0x187D JUMP JUMPDEST PUSH1 0x1 DUP2 ADD SWAP1 POP PUSH2 0x1896 JUMP JUMPDEST POP POP JUMP JUMPDEST PUSH1 0x1F DUP3 GT ISZERO PUSH2 0x18F8 JUMPI PUSH2 0x18C9 DUP2 PUSH2 0x17A0 JUMP JUMPDEST PUSH2 0x18D2 DUP5 PUSH2 0x17B2 JUMP JUMPDEST DUP2 ADD PUSH1 0x20 DUP6 LT ISZERO PUSH2 0x18E1 JUMPI DUP2 SWAP1 POP JUMPDEST PUSH2 0x18F5 PUSH2 0x18ED DUP6 PUSH2 0x17B2 JUMP JUMPDEST DUP4 ADD DUP3 PUSH2 0x1895 JUMP JUMPDEST POP POP JUMPDEST POP POP POP JUMP JUMPDEST PUSH0 DUP3 DUP3 SHR SWAP1 POP SWAP3 SWAP2 POP POP JUMP JUMPDEST PUSH0 PUSH2 0x1918 PUSH0 NOT DUP5 PUSH1 0x8 MUL PUSH2 0x18FD JUMP JUMPDEST NOT DUP1 DUP4 AND SWAP2 POP POP SWAP3 SWAP2 POP POP JUMP JUMPDEST PUSH0 PUSH2 0x1930 DUP4 DUP4 PUSH2 0x1909 JUMP JUMPDEST SWAP2 POP DUP3 PUSH1 0x2 MUL DUP3 OR SWAP1 POP SWAP3 SWAP2 POP POP JUMP JUMPDEST PUSH2 0x1949 DUP3 PUSH2 0x118D JUMP JUMPDEST PUSH8 0xFFFFFFFFFFFFFFFF DUP2 GT ISZERO PUSH2 0x1962 JUMPI PUSH2 0x1961 PUSH2 0x127D JUMP JUMPDEST JUMPDEST PUSH2 0x196C DUP3 SLOAD PUSH2 0x1638 JUMP JUMPDEST PUSH2 0x1977 DUP3 DUP3 DUP6 PUSH2 0x18B7 JUMP JUMPDEST PUSH0 PUSH1 0x20 SWAP1 POP PUSH1 0x1F DUP4 GT PUSH1 0x1 DUP2 EQ PUSH2 0x19A8 JUMPI PUSH0 DUP5 ISZERO PUSH2 0x1996 JUMPI DUP3 DUP8 ADD MLOAD SWAP1 POP JUMPDEST PUSH2 0x19A0 DUP6 DUP3 PUSH2 0x1925 JUMP JUMPDEST DUP7 SSTORE POP PUSH2 0x1A07 JUMP JUMPDEST PUSH1 0x1F NOT DUP5 AND PUSH2 0x19B6 DUP7 PUSH2 0x17A0 JUMP JUMPDEST PUSH0 JUMPDEST DUP3 DUP2 LT ISZERO PUSH2 0x19DD JUMPI DUP5 DUP10 ADD MLOAD DUP3 SSTORE PUSH1 0x1 DUP3 ADD SWAP2 POP PUSH1 0x20 DUP6 ADD SWAP5 POP PUSH1 0x20 DUP2 ADD SWAP1 POP PUSH2 0x19B8 JUMP JUMPDEST DUP7 DUP4 LT ISZERO PUSH2 0x19FA JUMPI DUP5 DUP10 ADD MLOAD PUSH2 0x19F6 PUSH1 0x1F DUP10 AND DUP3 PUSH2 0x1909 JUMP JUMPDEST DUP4 SSTORE POP JUMPDEST PUSH1 0x1 PUSH1 0x2 DUP9 MUL ADD DUP9 SSTORE POP POP POP JUMPDEST POP POP POP POP POP POP JUMP JUMPDEST PUSH32 0x54776565742063616E6E6F7420626520656D7074790000000000000000000000 PUSH0 DUP3 ADD MSTORE POP JUMP JUMPDEST PUSH0 PUSH2 0x1A43 PUSH1 0x15 DUP4 PUSH2 0x1197 JUMP JUMPDEST SWAP2 POP PUSH2 0x1A4E DUP3 PUSH2 0x1A0F JUMP JUMPDEST PUSH1 0x20 DUP3 ADD SWAP1 POP SWAP2 SWAP1 POP JUMP JUMPDEST PUSH0 PUSH1 0x20 DUP3 ADD SWAP1 POP DUP2 DUP2 SUB PUSH0 DUP4 ADD MSTORE PUSH2 0x1A70 DUP2 PUSH2 0x1A37 JUMP JUMPDEST SWAP1 POP SWAP2 SWAP1 POP JUMP JUMPDEST PUSH32 0x54776565742063616E6E6F74206265206D6F7265207468616E20323830206368 PUSH0 DUP3 ADD MSTORE PUSH32 0x6172616374657273000000000000000000000000000000000000000000000000 PUSH1 0x20 DUP3 ADD MSTORE POP JUMP JUMPDEST PUSH0 PUSH2 0x1AD1 PUSH1 0x28 DUP4 PUSH2 0x1197 JUMP JUMPDEST SWAP2 POP PUSH2 0x1ADC DUP3 PUSH2 0x1A77 JUMP JUMPDEST PUSH1 0x40 DUP3 ADD SWAP1 POP SWAP2 SWAP1 POP JUMP JUMPDEST PUSH0 PUSH1 0x20 DUP3 ADD SWAP1 POP DUP2 DUP2 SUB PUSH0 DUP4 ADD MSTORE PUSH2 0x1AFE DUP2 PUSH2 0x1AC5 JUMP JUMPDEST SWAP1 POP SWAP2 SWAP1 POP JUMP JUMPDEST PUSH0 DUP2 SWAP1 POP SWAP2 SWAP1 POP JUMP JUMPDEST PUSH2 0x1B1F PUSH2 0x1B1A DUP3 PUSH2 0x10FE JUMP JUMPDEST PUSH2 0x1B05 JUMP JUMPDEST DUP3 MSTORE POP POP JUMP JUMPDEST PUSH0 DUP2 PUSH1 0x60 SHL SWAP1 POP SWAP2 SWAP1 POP JUMP JUMPDEST PUSH0 PUSH2 0x1B3B DUP3 PUSH2 0x1B25 JUMP JUMPDEST SWAP1 POP SWAP2 SWAP1 POP JUMP JUMPDEST PUSH0 PUSH2 0x1B4C DUP3 PUSH2 0x1B31 JUMP JUMPDEST SWAP1 POP SWAP2 SWAP1 POP JUMP JUMPDEST PUSH2 0x1B64 PUSH2 0x1B5F DUP3 PUSH2 0x10C3 JUMP JUMPDEST PUSH2 0x1B42 JUMP JUMPDEST DUP3 MSTORE POP POP JUMP JUMPDEST PUSH0 PUSH2 0x1B75 DUP3 DUP6 PUSH2 0x1B0E JUMP JUMPDEST PUSH1 0x20 DUP3 ADD SWAP2 POP PUSH2 0x1B85 DUP3 DUP5 PUSH2 0x1B53 JUMP JUMPDEST PUSH1 0x14 DUP3 ADD SWAP2 POP DUP2 SWAP1 POP SWAP4 SWAP3 POP POP POP JUMP JUMPDEST PUSH0 PUSH1 0x40 DUP3 ADD SWAP1 POP PUSH2 0x1BA8 PUSH0 DUP4 ADD DUP6 PUSH2 0x116F JUMP JUMPDEST PUSH2 0x1BB5 PUSH1 0x20 DUP4 ADD DUP5 PUSH2 0x117E JUMP JUMPDEST SWAP4 SWAP3 POP POP POP JUMP JUMPDEST PUSH32 0x547765657420646F6573206E6F74206861766520616E79206C696B6573000000 PUSH0 DUP3 ADD MSTORE POP JUMP JUMPDEST PUSH0 PUSH2 0x1BF0 PUSH1 0x1D DUP4 PUSH2 0x1197 JUMP JUMPDEST SWAP2 POP PUSH2 0x1BFB DUP3 PUSH2 0x1BBC JUMP JUMPDEST PUSH1 0x20 DUP3 ADD SWAP1 POP SWAP2 SWAP1 POP JUMP JUMPDEST PUSH0 PUSH1 0x20 DUP3 ADD SWAP1 POP DUP2 DUP2 SUB PUSH0 DUP4 ADD MSTORE PUSH2 0x1C1D DUP2 PUSH2 0x1BE4 JUMP JUMPDEST SWAP1 POP SWAP2 SWAP1 POP JUMP JUMPDEST PUSH0 PUSH2 0x1C2E DUP3 PUSH2 0x10FE JUMP JUMPDEST SWAP2 POP PUSH2 0x1C39 DUP4 PUSH2 0x10FE JUMP JUMPDEST SWAP3 POP DUP3 DUP3 SUB SWAP1 POP DUP2 DUP2 GT ISZERO PUSH2 0x1C51 JUMPI PUSH2 0x1C50 PUSH2 0x16FD JUMP JUMPDEST JUMPDEST SWAP3 SWAP2 POP POP JUMP JUMPDEST PUSH32 0x596F752063616E206F6E6C792067657420796F7572206F776E20747765657473 PUSH0 DUP3 ADD MSTORE POP JUMP JUMPDEST PUSH0 PUSH2 0x1C8B PUSH1 0x20 DUP4 PUSH2 0x1197 JUMP JUMPDEST SWAP2 POP PUSH2 0x1C96 DUP3 PUSH2 0x1C57 JUMP JUMPDEST PUSH1 0x20 DUP3 ADD SWAP1 POP SWAP2 SWAP1 POP JUMP JUMPDEST PUSH0 PUSH1 0x20 DUP3 ADD SWAP1 POP DUP2 DUP2 SUB PUSH0 DUP4 ADD MSTORE PUSH2 0x1CB8 DUP2 PUSH2 0x1C7F JUMP JUMPDEST SWAP1 POP SWAP2 SWAP1 POP JUMP INVALID LOG2 PUSH5 0x6970667358 0x22 SLT KECCAK256 0xB9 RETURNDATASIZE DUP16 0x21 0xB4 SMOD EOFCREATE 0x2C 0xBE DUPN 0x28 PUSH0 0xCA CALLVALUE ADDMOD 0xA6 PUSH27 0x41AFEE18F96561EAFC9905E1C1DC6364736F6C634300081F003300 "
				},
				"gasEstimates": {
					"creation": {
						"codeDepositCost": "1482600",
						"executionCost": "infinite",
						"totalCost": "infinite"
					},
					"external": {
						"actions(uint256)": "infinite",
						"createTweet(string)": "infinite",
						"getAction(uint256)": "infinite",
						"getActionsLength()": "2528",
						"getAllOwnerTweets(address)": "infinite",
						"getTweet(address,uint256)": "infinite",
						"getTweetLikes(address,uint256)": "infinite",
						"likeTweet(address,uint256)": "infinite",
						"tweets(address,uint256)": "infinite",
						"unLikeTweet(address,uint256)": "infinite",
						"updateUserActionsOptions(string)": "infinite"
					}
				},
				"methodIdentifiers": {
					"actions(uint256)": "83240f83",
					"createTweet(string)": "7c9cd2bc",
					"getAction(uint256)": "b6e76873",
					"getActionsLength()": "e78c65aa",
					"getAllOwnerTweets(address)": "ff5c520d",
					"getTweet(address,uint256)": "112f54e3",
					"getTweetLikes(address,uint256)": "80eb3587",
					"likeTweet(address,uint256)": "63378216",
					"tweets(address,uint256)": "05a1b4a9",
					"unLikeTweet(address,uint256)": "9ef8633f",
					"updateUserActionsOptions(string)": "78977bf4"
				}
			},
			"storageLayout": {
				"storage": [
					{
						"astId": 21,
						"contract": "Solidity/Twitter.sol:Twitter",
						"label": "tweets",
						"offset": 0,
						"slot": "0",
						"type": "t_mapping(t_address,t_array(t_struct(Tweet)15_storage)dyn_storage)"
					},
					{
						"astId": 28,
						"contract": "Solidity/Twitter.sol:Twitter",
						"label": "actions",
						"offset": 0,
						"slot": "1",
						"type": "t_array(t_string_storage)dyn_storage"
					}
				],
				"types": {
					"t_address": {
						"encoding": "inplace",
						"label": "address",
						"numberOfBytes": "20"
					},
					"t_array(t_string_storage)dyn_storage": {
						"base": "t_string_storage",
						"encoding": "dynamic_array",
						"label": "string[]",
						"numberOfBytes": "32"
					},
					"t_array(t_struct(Tweet)15_storage)dyn_storage": {
						"base": "t_struct(Tweet)15_storage",
						"encoding": "dynamic_array",
						"label": "struct Twitter.Tweet[]",
						"numberOfBytes": "32"
					},
					"t_mapping(t_address,t_array(t_struct(Tweet)15_storage)dyn_storage)": {
						"encoding": "mapping",
						"key": "t_address",
						"label": "mapping(address => struct Twitter.Tweet[])",
						"numberOfBytes": "32",
						"value": "t_array(t_struct(Tweet)15_storage)dyn_storage"
					},
					"t_string_storage": {
						"encoding": "bytes",
						"label": "string",
						"numberOfBytes": "32"
					},
					"t_struct(Tweet)15_storage": {
						"encoding": "inplace",
						"label": "struct Twitter.Tweet",
						"members": [
							{
								"astId": 6,
								"contract": "Solidity/Twitter.sol:Twitter",
								"label": "id",
								"offset": 0,
								"slot": "0",
								"type": "t_uint256"
							},
							{
								"astId": 8,
								"contract": "Solidity/Twitter.sol:Twitter",
								"label": "author",
								"offset": 0,
								"slot": "1",
								"type": "t_address"
							},
							{
								"astId": 10,
								"contract": "Solidity/Twitter.sol:Twitter",
								"label": "content",
								"offset": 0,
								"slot": "2",
								"type": "t_string_storage"
							},
							{
								"astId": 12,
								"contract": "Solidity/Twitter.sol:Twitter",
								"label": "timestamp",
								"offset": 0,
								"slot": "3",
								"type": "t_uint256"
							},
							{
								"astId": 14,
								"contract": "Solidity/Twitter.sol:Twitter",
								"label": "likes",
								"offset": 0,
								"slot": "4",
								"type": "t_uint256"
							}
						],
						"numberOfBytes": "160"
					},
					"t_uint256": {
						"encoding": "inplace",
						"label": "uint256",
						"numberOfBytes": "32"
					}
				}
			},
			"userdoc": {
				"kind": "user",
				"methods": {},
				"version": 1
			}
		}
	}
}