{
	"Solidity/Twitter.sol": {
		"Twitter": {
			"abi": [
				{
					"inputs": [
						{
							"internalType": "uint256",
							"name": "",
							"type": "uint256"
						}
					],
					"name": "actions",
					"outputs": [
						{
							"internalType": "string",
							"name": "",
							"type": "string"
						}
					],
					"stateMutability": "view",
					"type": "function"
				},
				{
					"inputs": [
						{
							"internalType": "string",
							"name": "_tweet",
							"type": "string"
						}
					],
					"name": "createTweet",
					"outputs": [],
					"stateMutability": "nonpayable",
					"type": "function"
				},
				{
					"inputs": [
						{
							"internalType": "uint256",
							"name": "_index",
							"type": "uint256"
						}
					],
					"name": "getAction",
					"outputs": [
						{
							"internalType": "string",
							"name": "",
							"type": "string"
						}
					],
					"stateMutability": "view",
					"type": "function"
				},
				{
					"inputs": [],
					"name": "getActionsLength",
					"outputs": [
						{
							"internalType": "uint256",
							"name": "",
							"type": "uint256"
						}
					],
					"stateMutability": "view",
					"type": "function"
				},
				{
					"inputs": [
						{
							"internalType": "address",
							"name": "_owner",
							"type": "address"
						}
					],
					"name": "getAllOwnerTweets",
					"outputs": [
						{
							"internalType": "string[]",
							"name": "",
							"type": "string[]"
						}
					],
					"stateMutability": "view",
					"type": "function"
				},
				{
					"inputs": [
						{
							"internalType": "address",
							"name": "_owner",
							"type": "address"
						},
						{
							"internalType": "uint256",
							"name": "_index",
							"type": "uint256"
						}
					],
					"name": "getTweet",
					"outputs": [
						{
							"internalType": "string",
							"name": "",
							"type": "string"
						}
					],
					"stateMutability": "view",
					"type": "function"
				},
				{
					"inputs": [
						{
							"internalType": "address",
							"name": "",
							"type": "address"
						},
						{
							"internalType": "uint256",
							"name": "",
							"type": "uint256"
						}
					],
					"name": "tweets",
					"outputs": [
						{
							"internalType": "string",
							"name": "",
							"type": "string"
						}
					],
					"stateMutability": "view",
					"type": "function"
				},
				{
					"inputs": [
						{
							"internalType": "string",
							"name": "_action",
							"type": "string"
						}
					],
					"name": "updateUserActionsOptions",
					"outputs": [],
					"stateMutability": "nonpayable",
					"type": "function"
				}
			],
			"devdoc": {
				"kind": "dev",
				"methods": {},
				"version": 1
			},
			"evm": {
				"assembly": "    /* \"Solidity/Twitter.sol\":57:922  contract Twitter {... */\n  mstore(0x40, 0x80)\n    /* \"Solidity/Twitter.sol\":177:231  string[] public actions = [\"like\", \"reply\", \"reshare\"] */\n  mload(0x40)\n  dup1\n  0x60\n  add\n  0x40\n  mstore\n  dup1\n  mload(0x40)\n  dup1\n  0x40\n  add\n  0x40\n  mstore\n  dup1\n  0x04\n  dup2\n  mstore\n  0x20\n  add\n  0x6c696b6500000000000000000000000000000000000000000000000000000000\n  dup2\n  mstore\n  pop\n  dup2\n  mstore\n  0x20\n  add\n  mload(0x40)\n  dup1\n  0x40\n  add\n  0x40\n  mstore\n  dup1\n  0x05\n  dup2\n  mstore\n  0x20\n  add\n  0x7265706c79000000000000000000000000000000000000000000000000000000\n  dup2\n  mstore\n  pop\n  dup2\n  mstore\n  0x20\n  add\n  mload(0x40)\n  dup1\n  0x40\n  add\n  0x40\n  mstore\n  dup1\n  0x07\n  dup2\n  mstore\n  0x20\n  add\n  0x7265736861726500000000000000000000000000000000000000000000000000\n  dup2\n  mstore\n  pop\n  dup2\n  mstore\n  pop\n  0x01\n  swap1\n  0x03\n  tag_1\n  swap3\n  swap2\n  swap1\n  tag_2\n  jump\t// in\ntag_1:\n  pop\n    /* \"Solidity/Twitter.sol\":57:922  contract Twitter {... */\n  callvalue\n  dup1\n  iszero\n  tag_3\n  jumpi\n  revert(0x00, 0x00)\ntag_3:\n  pop\n  jump(tag_4)\ntag_2:\n  dup3\n  dup1\n  sload\n  dup3\n  dup3\n  sstore\n  swap1\n  0x00\n  mstore\n  keccak256(0x00, 0x20)\n  swap1\n  dup2\n  add\n  swap3\n  dup3\n  iszero\n  tag_5\n  jumpi\n  swap2\n  0x20\n  mul\n  dup3\n  add\ntag_6:\n  dup3\n  dup2\n  gt\n  iszero\n  tag_7\n  jumpi\n  dup3\n  mload\n  dup3\n  swap1\n  dup2\n  tag_8\n  swap2\n  swap1\n  tag_9\n  jump\t// in\ntag_8:\n  pop\n  swap2\n  0x20\n  add\n  swap2\n  swap1\n  0x01\n  add\n  swap1\n  jump(tag_6)\ntag_7:\ntag_5:\n  pop\n  swap1\n  pop\n  tag_10\n  swap2\n  swap1\n  tag_11\n  jump\t// in\ntag_10:\n  pop\n  swap1\n  jump\t// out\ntag_11:\ntag_12:\n  dup1\n  dup3\n  gt\n  iszero\n  tag_13\n  jumpi\n  0x00\n  dup2\n  dup2\n  tag_14\n  swap2\n  swap1\n  tag_15\n  jump\t// in\ntag_14:\n  pop\n  0x01\n  add\n  jump(tag_12)\ntag_13:\n  pop\n  swap1\n  jump\t// out\ntag_15:\n  pop\n  dup1\n  sload\n  tag_16\n  swap1\n  tag_17\n  jump\t// in\ntag_16:\n  0x00\n  dup3\n  sstore\n  dup1\n  0x1f\n  lt\n  tag_19\n  jumpi\n  pop\n  jump(tag_18)\ntag_19:\n  0x1f\n  add\n  0x20\n  swap1\n  div\n  swap1\n  0x00\n  mstore\n  keccak256(0x00, 0x20)\n  swap1\n  dup2\n  add\n  swap1\n  tag_20\n  swap2\n  swap1\n  tag_21\n  jump\t// in\ntag_20:\ntag_18:\n  pop\n  jump\t// out\ntag_21:\ntag_22:\n  dup1\n  dup3\n  gt\n  iszero\n  tag_23\n  jumpi\n  0x00\n  dup2\n  0x00\n  swap1\n  sstore\n  pop\n  0x01\n  add\n  jump(tag_22)\ntag_23:\n  pop\n  swap1\n  jump\t// out\n    /* \"#utility.yul\":7:106   */\ntag_24:\n    /* \"#utility.yul\":59:65   */\n  0x00\n    /* \"#utility.yul\":93:98   */\n  dup2\n    /* \"#utility.yul\":87:99   */\n  mload\n    /* \"#utility.yul\":77:99   */\n  swap1\n  pop\n    /* \"#utility.yul\":7:106   */\n  swap2\n  swap1\n  pop\n  jump\t// out\n    /* \"#utility.yul\":112:292   */\ntag_25:\n    /* \"#utility.yul\":160:237   */\n  0x4e487b7100000000000000000000000000000000000000000000000000000000\n    /* \"#utility.yul\":157:158   */\n  0x00\n    /* \"#utility.yul\":150:238   */\n  mstore\n    /* \"#utility.yul\":257:261   */\n  0x41\n    /* \"#utility.yul\":254:255   */\n  0x04\n    /* \"#utility.yul\":247:262   */\n  mstore\n    /* \"#utility.yul\":281:285   */\n  0x24\n    /* \"#utility.yul\":278:279   */\n  0x00\n    /* \"#utility.yul\":271:286   */\n  revert\n    /* \"#utility.yul\":298:478   */\ntag_26:\n    /* \"#utility.yul\":346:423   */\n  0x4e487b7100000000000000000000000000000000000000000000000000000000\n    /* \"#utility.yul\":343:344   */\n  0x00\n    /* \"#utility.yul\":336:424   */\n  mstore\n    /* \"#utility.yul\":443:447   */\n  0x22\n    /* \"#utility.yul\":440:441   */\n  0x04\n    /* \"#utility.yul\":433:448   */\n  mstore\n    /* \"#utility.yul\":467:471   */\n  0x24\n    /* \"#utility.yul\":464:465   */\n  0x00\n    /* \"#utility.yul\":457:472   */\n  revert\n    /* \"#utility.yul\":484:804   */\ntag_17:\n    /* \"#utility.yul\":528:534   */\n  0x00\n    /* \"#utility.yul\":565:566   */\n  0x02\n    /* \"#utility.yul\":559:563   */\n  dup3\n    /* \"#utility.yul\":555:567   */\n  div\n    /* \"#utility.yul\":545:567   */\n  swap1\n  pop\n    /* \"#utility.yul\":612:613   */\n  0x01\n    /* \"#utility.yul\":606:610   */\n  dup3\n    /* \"#utility.yul\":602:614   */\n  and\n    /* \"#utility.yul\":633:651   */\n  dup1\n    /* \"#utility.yul\":623:704   */\n  tag_48\n  jumpi\n    /* \"#utility.yul\":689:693   */\n  0x7f\n    /* \"#utility.yul\":681:687   */\n  dup3\n    /* \"#utility.yul\":677:694   */\n  and\n    /* \"#utility.yul\":667:694   */\n  swap2\n  pop\n    /* \"#utility.yul\":623:704   */\ntag_48:\n    /* \"#utility.yul\":751:753   */\n  0x20\n    /* \"#utility.yul\":743:749   */\n  dup3\n    /* \"#utility.yul\":740:754   */\n  lt\n    /* \"#utility.yul\":720:738   */\n  dup2\n    /* \"#utility.yul\":717:755   */\n  sub\n    /* \"#utility.yul\":714:798   */\n  tag_49\n  jumpi\n    /* \"#utility.yul\":770:788   */\n  tag_50\n  tag_26\n  jump\t// in\ntag_50:\n    /* \"#utility.yul\":714:798   */\ntag_49:\n    /* \"#utility.yul\":535:804   */\n  pop\n    /* \"#utility.yul\":484:804   */\n  swap2\n  swap1\n  pop\n  jump\t// out\n    /* \"#utility.yul\":810:951   */\ntag_27:\n    /* \"#utility.yul\":859:863   */\n  0x00\n    /* \"#utility.yul\":882:885   */\n  dup2\n    /* \"#utility.yul\":874:885   */\n  swap1\n  pop\n    /* \"#utility.yul\":905:908   */\n  dup2\n    /* \"#utility.yul\":902:903   */\n  0x00\n    /* \"#utility.yul\":895:909   */\n  mstore\n    /* \"#utility.yul\":939:943   */\n  0x20\n    /* \"#utility.yul\":936:937   */\n  0x00\n    /* \"#utility.yul\":926:944   */\n  keccak256\n    /* \"#utility.yul\":918:944   */\n  swap1\n  pop\n    /* \"#utility.yul\":810:951   */\n  swap2\n  swap1\n  pop\n  jump\t// out\n    /* \"#utility.yul\":957:1050   */\ntag_28:\n    /* \"#utility.yul\":994:1000   */\n  0x00\n    /* \"#utility.yul\":1041:1043   */\n  0x20\n    /* \"#utility.yul\":1036:1038   */\n  0x1f\n    /* \"#utility.yul\":1029:1034   */\n  dup4\n    /* \"#utility.yul\":1025:1039   */\n  add\n    /* \"#utility.yul\":1021:1044   */\n  div\n    /* \"#utility.yul\":1011:1044   */\n  swap1\n  pop\n    /* \"#utility.yul\":957:1050   */\n  swap2\n  swap1\n  pop\n  jump\t// out\n    /* \"#utility.yul\":1056:1163   */\ntag_29:\n    /* \"#utility.yul\":1100:1108   */\n  0x00\n    /* \"#utility.yul\":1150:1155   */\n  dup3\n    /* \"#utility.yul\":1144:1148   */\n  dup3\n    /* \"#utility.yul\":1140:1156   */\n  shl\n    /* \"#utility.yul\":1119:1156   */\n  swap1\n  pop\n    /* \"#utility.yul\":1056:1163   */\n  swap3\n  swap2\n  pop\n  pop\n  jump\t// out\n    /* \"#utility.yul\":1169:1562   */\ntag_30:\n    /* \"#utility.yul\":1238:1244   */\n  0x00\n    /* \"#utility.yul\":1288:1289   */\n  0x08\n    /* \"#utility.yul\":1276:1286   */\n  dup4\n    /* \"#utility.yul\":1272:1290   */\n  mul\n    /* \"#utility.yul\":1311:1408   */\n  tag_55\n    /* \"#utility.yul\":1341:1407   */\n  0xffffffffffffffffffffffffffffffffffffffffffffffffffffffffffffffff\n    /* \"#utility.yul\":1330:1339   */\n  dup3\n    /* \"#utility.yul\":1311:1408   */\n  tag_29\n  jump\t// in\ntag_55:\n    /* \"#utility.yul\":1429:1468   */\n  tag_56\n    /* \"#utility.yul\":1459:1467   */\n  dup7\n    /* \"#utility.yul\":1448:1457   */\n  dup4\n    /* \"#utility.yul\":1429:1468   */\n  tag_29\n  jump\t// in\ntag_56:\n    /* \"#utility.yul\":1417:1468   */\n  swap6\n  pop\n    /* \"#utility.yul\":1501:1505   */\n  dup1\n    /* \"#utility.yul\":1497:1506   */\n  not\n    /* \"#utility.yul\":1490:1495   */\n  dup5\n    /* \"#utility.yul\":1486:1507   */\n  and\n    /* \"#utility.yul\":1477:1507   */\n  swap4\n  pop\n    /* \"#utility.yul\":1550:1554   */\n  dup1\n    /* \"#utility.yul\":1540:1548   */\n  dup7\n    /* \"#utility.yul\":1536:1555   */\n  and\n    /* \"#utility.yul\":1529:1534   */\n  dup5\n    /* \"#utility.yul\":1526:1556   */\n  or\n    /* \"#utility.yul\":1516:1556   */\n  swap3\n  pop\n    /* \"#utility.yul\":1245:1562   */\n  pop\n  pop\n    /* \"#utility.yul\":1169:1562   */\n  swap4\n  swap3\n  pop\n  pop\n  pop\n  jump\t// out\n    /* \"#utility.yul\":1568:1645   */\ntag_31:\n    /* \"#utility.yul\":1605:1612   */\n  0x00\n    /* \"#utility.yul\":1634:1639   */\n  dup2\n    /* \"#utility.yul\":1623:1639   */\n  swap1\n  pop\n    /* \"#utility.yul\":1568:1645   */\n  swap2\n  swap1\n  pop\n  jump\t// out\n    /* \"#utility.yul\":1651:1711   */\ntag_32:\n    /* \"#utility.yul\":1679:1682   */\n  0x00\n    /* \"#utility.yul\":1700:1705   */\n  dup2\n    /* \"#utility.yul\":1693:1705   */\n  swap1\n  pop\n    /* \"#utility.yul\":1651:1711   */\n  swap2\n  swap1\n  pop\n  jump\t// out\n    /* \"#utility.yul\":1717:1859   */\ntag_33:\n    /* \"#utility.yul\":1767:1776   */\n  0x00\n    /* \"#utility.yul\":1800:1853   */\n  tag_60\n    /* \"#utility.yul\":1818:1852   */\n  tag_61\n    /* \"#utility.yul\":1827:1851   */\n  tag_62\n    /* \"#utility.yul\":1845:1850   */\n  dup5\n    /* \"#utility.yul\":1827:1851   */\n  tag_31\n  jump\t// in\ntag_62:\n    /* \"#utility.yul\":1818:1852   */\n  tag_32\n  jump\t// in\ntag_61:\n    /* \"#utility.yul\":1800:1853   */\n  tag_31\n  jump\t// in\ntag_60:\n    /* \"#utility.yul\":1787:1853   */\n  swap1\n  pop\n    /* \"#utility.yul\":1717:1859   */\n  swap2\n  swap1\n  pop\n  jump\t// out\n    /* \"#utility.yul\":1865:1940   */\ntag_34:\n    /* \"#utility.yul\":1908:1911   */\n  0x00\n    /* \"#utility.yul\":1929:1934   */\n  dup2\n    /* \"#utility.yul\":1922:1934   */\n  swap1\n  pop\n    /* \"#utility.yul\":1865:1940   */\n  swap2\n  swap1\n  pop\n  jump\t// out\n    /* \"#utility.yul\":1946:2215   */\ntag_35:\n    /* \"#utility.yul\":2056:2095   */\n  tag_65\n    /* \"#utility.yul\":2087:2094   */\n  dup4\n    /* \"#utility.yul\":2056:2095   */\n  tag_33\n  jump\t// in\ntag_65:\n    /* \"#utility.yul\":2117:2208   */\n  tag_66\n    /* \"#utility.yul\":2166:2207   */\n  tag_67\n    /* \"#utility.yul\":2190:2206   */\n  dup3\n    /* \"#utility.yul\":2166:2207   */\n  tag_34\n  jump\t// in\ntag_67:\n    /* \"#utility.yul\":2158:2164   */\n  dup5\n    /* \"#utility.yul\":2151:2155   */\n  dup5\n    /* \"#utility.yul\":2145:2156   */\n  sload\n    /* \"#utility.yul\":2117:2208   */\n  tag_30\n  jump\t// in\ntag_66:\n    /* \"#utility.yul\":2111:2115   */\n  dup3\n    /* \"#utility.yul\":2104:2209   */\n  sstore\n    /* \"#utility.yul\":2022:2215   */\n  pop\n    /* \"#utility.yul\":1946:2215   */\n  pop\n  pop\n  pop\n  jump\t// out\n    /* \"#utility.yul\":2221:2294   */\ntag_36:\n    /* \"#utility.yul\":2266:2269   */\n  0x00\n    /* \"#utility.yul\":2287:2288   */\n  0x00\n    /* \"#utility.yul\":2280:2288   */\n  swap1\n  pop\n    /* \"#utility.yul\":2221:2294   */\n  swap1\n  jump\t// out\n    /* \"#utility.yul\":2300:2489   */\ntag_37:\n    /* \"#utility.yul\":2377:2409   */\n  tag_70\n  tag_36\n  jump\t// in\ntag_70:\n    /* \"#utility.yul\":2418:2483   */\n  tag_71\n    /* \"#utility.yul\":2476:2482   */\n  dup2\n    /* \"#utility.yul\":2468:2474   */\n  dup5\n    /* \"#utility.yul\":2462:2466   */\n  dup5\n    /* \"#utility.yul\":2418:2483   */\n  tag_35\n  jump\t// in\ntag_71:\n    /* \"#utility.yul\":2353:2489   */\n  pop\n    /* \"#utility.yul\":2300:2489   */\n  pop\n  pop\n  jump\t// out\n    /* \"#utility.yul\":2495:2681   */\ntag_38:\n    /* \"#utility.yul\":2555:2675   */\ntag_73:\n    /* \"#utility.yul\":2572:2575   */\n  dup2\n    /* \"#utility.yul\":2565:2570   */\n  dup2\n    /* \"#utility.yul\":2562:2576   */\n  lt\n    /* \"#utility.yul\":2555:2675   */\n  iszero\n  tag_75\n  jumpi\n    /* \"#utility.yul\":2626:2665   */\n  tag_76\n    /* \"#utility.yul\":2663:2664   */\n  0x00\n    /* \"#utility.yul\":2656:2661   */\n  dup3\n    /* \"#utility.yul\":2626:2665   */\n  tag_37\n  jump\t// in\ntag_76:\n    /* \"#utility.yul\":2599:2600   */\n  0x01\n    /* \"#utility.yul\":2592:2597   */\n  dup2\n    /* \"#utility.yul\":2588:2601   */\n  add\n    /* \"#utility.yul\":2579:2601   */\n  swap1\n  pop\n    /* \"#utility.yul\":2555:2675   */\n  jump(tag_73)\ntag_75:\n    /* \"#utility.yul\":2495:2681   */\n  pop\n  pop\n  jump\t// out\n    /* \"#utility.yul\":2687:3230   */\ntag_39:\n    /* \"#utility.yul\":2788:2790   */\n  0x1f\n    /* \"#utility.yul\":2783:2786   */\n  dup3\n    /* \"#utility.yul\":2780:2791   */\n  gt\n    /* \"#utility.yul\":2777:3223   */\n  iszero\n  tag_78\n  jumpi\n    /* \"#utility.yul\":2822:2860   */\n  tag_79\n    /* \"#utility.yul\":2854:2859   */\n  dup2\n    /* \"#utility.yul\":2822:2860   */\n  tag_27\n  jump\t// in\ntag_79:\n    /* \"#utility.yul\":2906:2935   */\n  tag_80\n    /* \"#utility.yul\":2924:2934   */\n  dup5\n    /* \"#utility.yul\":2906:2935   */\n  tag_28\n  jump\t// in\ntag_80:\n    /* \"#utility.yul\":2896:2904   */\n  dup2\n    /* \"#utility.yul\":2892:2936   */\n  add\n    /* \"#utility.yul\":3089:3091   */\n  0x20\n    /* \"#utility.yul\":3077:3087   */\n  dup6\n    /* \"#utility.yul\":3074:3092   */\n  lt\n    /* \"#utility.yul\":3071:3120   */\n  iszero\n  tag_81\n  jumpi\n    /* \"#utility.yul\":3110:3118   */\n  dup2\n    /* \"#utility.yul\":3095:3118   */\n  swap1\n  pop\n    /* \"#utility.yul\":3071:3120   */\ntag_81:\n    /* \"#utility.yul\":3133:3213   */\n  tag_82\n    /* \"#utility.yul\":3189:3211   */\n  tag_83\n    /* \"#utility.yul\":3207:3210   */\n  dup6\n    /* \"#utility.yul\":3189:3211   */\n  tag_28\n  jump\t// in\ntag_83:\n    /* \"#utility.yul\":3179:3187   */\n  dup4\n    /* \"#utility.yul\":3175:3212   */\n  add\n    /* \"#utility.yul\":3162:3173   */\n  dup3\n    /* \"#utility.yul\":3133:3213   */\n  tag_38\n  jump\t// in\ntag_82:\n    /* \"#utility.yul\":2792:3223   */\n  pop\n  pop\n    /* \"#utility.yul\":2777:3223   */\ntag_78:\n    /* \"#utility.yul\":2687:3230   */\n  pop\n  pop\n  pop\n  jump\t// out\n    /* \"#utility.yul\":3236:3353   */\ntag_40:\n    /* \"#utility.yul\":3290:3298   */\n  0x00\n    /* \"#utility.yul\":3340:3345   */\n  dup3\n    /* \"#utility.yul\":3334:3338   */\n  dup3\n    /* \"#utility.yul\":3330:3346   */\n  shr\n    /* \"#utility.yul\":3309:3346   */\n  swap1\n  pop\n    /* \"#utility.yul\":3236:3353   */\n  swap3\n  swap2\n  pop\n  pop\n  jump\t// out\n    /* \"#utility.yul\":3359:3528   */\ntag_41:\n    /* \"#utility.yul\":3403:3409   */\n  0x00\n    /* \"#utility.yul\":3436:3487   */\n  tag_86\n    /* \"#utility.yul\":3484:3485   */\n  0x00\n    /* \"#utility.yul\":3480:3486   */\n  not\n    /* \"#utility.yul\":3472:3477   */\n  dup5\n    /* \"#utility.yul\":3469:3470   */\n  0x08\n    /* \"#utility.yul\":3465:3478   */\n  mul\n    /* \"#utility.yul\":3436:3487   */\n  tag_40\n  jump\t// in\ntag_86:\n    /* \"#utility.yul\":3432:3488   */\n  not\n    /* \"#utility.yul\":3517:3521   */\n  dup1\n    /* \"#utility.yul\":3511:3515   */\n  dup4\n    /* \"#utility.yul\":3507:3522   */\n  and\n    /* \"#utility.yul\":3497:3522   */\n  swap2\n  pop\n    /* \"#utility.yul\":3410:3528   */\n  pop\n    /* \"#utility.yul\":3359:3528   */\n  swap3\n  swap2\n  pop\n  pop\n  jump\t// out\n    /* \"#utility.yul\":3533:3828   */\ntag_42:\n    /* \"#utility.yul\":3609:3613   */\n  0x00\n    /* \"#utility.yul\":3755:3784   */\n  tag_88\n    /* \"#utility.yul\":3780:3783   */\n  dup4\n    /* \"#utility.yul\":3774:3778   */\n  dup4\n    /* \"#utility.yul\":3755:3784   */\n  tag_41\n  jump\t// in\ntag_88:\n    /* \"#utility.yul\":3747:3784   */\n  swap2\n  pop\n    /* \"#utility.yul\":3817:3820   */\n  dup3\n    /* \"#utility.yul\":3814:3815   */\n  0x02\n    /* \"#utility.yul\":3810:3821   */\n  mul\n    /* \"#utility.yul\":3804:3808   */\n  dup3\n    /* \"#utility.yul\":3801:3822   */\n  or\n    /* \"#utility.yul\":3793:3822   */\n  swap1\n  pop\n    /* \"#utility.yul\":3533:3828   */\n  swap3\n  swap2\n  pop\n  pop\n  jump\t// out\n    /* \"#utility.yul\":3833:5228   */\ntag_9:\n    /* \"#utility.yul\":3950:3987   */\n  tag_90\n    /* \"#utility.yul\":3983:3986   */\n  dup3\n    /* \"#utility.yul\":3950:3987   */\n  tag_24\n  jump\t// in\ntag_90:\n    /* \"#utility.yul\":4052:4070   */\n  0xffffffffffffffff\n    /* \"#utility.yul\":4044:4050   */\n  dup2\n    /* \"#utility.yul\":4041:4071   */\n  gt\n    /* \"#utility.yul\":4038:4094   */\n  iszero\n  tag_91\n  jumpi\n    /* \"#utility.yul\":4074:4092   */\n  tag_92\n  tag_25\n  jump\t// in\ntag_92:\n    /* \"#utility.yul\":4038:4094   */\ntag_91:\n    /* \"#utility.yul\":4118:4156   */\n  tag_93\n    /* \"#utility.yul\":4150:4154   */\n  dup3\n    /* \"#utility.yul\":4144:4155   */\n  sload\n    /* \"#utility.yul\":4118:4156   */\n  tag_17\n  jump\t// in\ntag_93:\n    /* \"#utility.yul\":4203:4270   */\n  tag_94\n    /* \"#utility.yul\":4263:4269   */\n  dup3\n    /* \"#utility.yul\":4255:4261   */\n  dup3\n    /* \"#utility.yul\":4249:4253   */\n  dup6\n    /* \"#utility.yul\":4203:4270   */\n  tag_39\n  jump\t// in\ntag_94:\n    /* \"#utility.yul\":4297:4298   */\n  0x00\n    /* \"#utility.yul\":4321:4325   */\n  0x20\n    /* \"#utility.yul\":4308:4325   */\n  swap1\n  pop\n    /* \"#utility.yul\":4353:4355   */\n  0x1f\n    /* \"#utility.yul\":4345:4351   */\n  dup4\n    /* \"#utility.yul\":4342:4356   */\n  gt\n    /* \"#utility.yul\":4370:4371   */\n  0x01\n    /* \"#utility.yul\":4365:4983   */\n  dup2\n  eq\n  tag_96\n  jumpi\n    /* \"#utility.yul\":5027:5028   */\n  0x00\n    /* \"#utility.yul\":5044:5050   */\n  dup5\n    /* \"#utility.yul\":5041:5118   */\n  iszero\n  tag_97\n  jumpi\n    /* \"#utility.yul\":5093:5102   */\n  dup3\n    /* \"#utility.yul\":5088:5091   */\n  dup8\n    /* \"#utility.yul\":5084:5103   */\n  add\n    /* \"#utility.yul\":5078:5104   */\n  mload\n    /* \"#utility.yul\":5069:5104   */\n  swap1\n  pop\n    /* \"#utility.yul\":5041:5118   */\ntag_97:\n    /* \"#utility.yul\":5144:5211   */\n  tag_98\n    /* \"#utility.yul\":5204:5210   */\n  dup6\n    /* \"#utility.yul\":5197:5202   */\n  dup3\n    /* \"#utility.yul\":5144:5211   */\n  tag_42\n  jump\t// in\ntag_98:\n    /* \"#utility.yul\":5138:5142   */\n  dup7\n    /* \"#utility.yul\":5131:5212   */\n  sstore\n    /* \"#utility.yul\":5000:5222   */\n  pop\n    /* \"#utility.yul\":4335:5222   */\n  jump(tag_95)\n    /* \"#utility.yul\":4365:4983   */\ntag_96:\n    /* \"#utility.yul\":4417:4421   */\n  0x1f\n    /* \"#utility.yul\":4413:4422   */\n  not\n    /* \"#utility.yul\":4405:4411   */\n  dup5\n    /* \"#utility.yul\":4401:4423   */\n  and\n    /* \"#utility.yul\":4451:4488   */\n  tag_99\n    /* \"#utility.yul\":4483:4487   */\n  dup7\n    /* \"#utility.yul\":4451:4488   */\n  tag_27\n  jump\t// in\ntag_99:\n    /* \"#utility.yul\":4510:4511   */\n  0x00\n    /* \"#utility.yul\":4524:4732   */\ntag_100:\n    /* \"#utility.yul\":4538:4545   */\n  dup3\n    /* \"#utility.yul\":4535:4536   */\n  dup2\n    /* \"#utility.yul\":4532:4546   */\n  lt\n    /* \"#utility.yul\":4524:4732   */\n  iszero\n  tag_102\n  jumpi\n    /* \"#utility.yul\":4617:4626   */\n  dup5\n    /* \"#utility.yul\":4612:4615   */\n  dup10\n    /* \"#utility.yul\":4608:4627   */\n  add\n    /* \"#utility.yul\":4602:4628   */\n  mload\n    /* \"#utility.yul\":4594:4600   */\n  dup3\n    /* \"#utility.yul\":4587:4629   */\n  sstore\n    /* \"#utility.yul\":4668:4669   */\n  0x01\n    /* \"#utility.yul\":4660:4666   */\n  dup3\n    /* \"#utility.yul\":4656:4670   */\n  add\n    /* \"#utility.yul\":4646:4670   */\n  swap2\n  pop\n    /* \"#utility.yul\":4715:4717   */\n  0x20\n    /* \"#utility.yul\":4704:4713   */\n  dup6\n    /* \"#utility.yul\":4700:4718   */\n  add\n    /* \"#utility.yul\":4687:4718   */\n  swap5\n  pop\n    /* \"#utility.yul\":4561:4565   */\n  0x20\n    /* \"#utility.yul\":4558:4559   */\n  dup2\n    /* \"#utility.yul\":4554:4566   */\n  add\n    /* \"#utility.yul\":4549:4566   */\n  swap1\n  pop\n    /* \"#utility.yul\":4524:4732   */\n  jump(tag_100)\ntag_102:\n    /* \"#utility.yul\":4760:4766   */\n  dup7\n    /* \"#utility.yul\":4751:4758   */\n  dup4\n    /* \"#utility.yul\":4748:4767   */\n  lt\n    /* \"#utility.yul\":4745:4924   */\n  iszero\n  tag_103\n  jumpi\n    /* \"#utility.yul\":4818:4827   */\n  dup5\n    /* \"#utility.yul\":4813:4816   */\n  dup10\n    /* \"#utility.yul\":4809:4828   */\n  add\n    /* \"#utility.yul\":4803:4829   */\n  mload\n    /* \"#utility.yul\":4861:4909   */\n  tag_104\n    /* \"#utility.yul\":4903:4907   */\n  0x1f\n    /* \"#utility.yul\":4895:4901   */\n  dup10\n    /* \"#utility.yul\":4891:4908   */\n  and\n    /* \"#utility.yul\":4880:4889   */\n  dup3\n    /* \"#utility.yul\":4861:4909   */\n  tag_41\n  jump\t// in\ntag_104:\n    /* \"#utility.yul\":4853:4859   */\n  dup4\n    /* \"#utility.yul\":4846:4910   */\n  sstore\n    /* \"#utility.yul\":4768:4924   */\n  pop\n    /* \"#utility.yul\":4745:4924   */\ntag_103:\n    /* \"#utility.yul\":4970:4971   */\n  0x01\n    /* \"#utility.yul\":4966:4967   */\n  0x02\n    /* \"#utility.yul\":4958:4964   */\n  dup9\n    /* \"#utility.yul\":4954:4968   */\n  mul\n    /* \"#utility.yul\":4950:4972   */\n  add\n    /* \"#utility.yul\":4944:4948   */\n  dup9\n    /* \"#utility.yul\":4937:4973   */\n  sstore\n    /* \"#utility.yul\":4372:4983   */\n  pop\n  pop\n  pop\n    /* \"#utility.yul\":4335:5222   */\ntag_95:\n  pop\n    /* \"#utility.yul\":3925:5228   */\n  pop\n  pop\n  pop\n    /* \"#utility.yul\":3833:5228   */\n  pop\n  pop\n  jump\t// out\n    /* \"Solidity/Twitter.sol\":57:922  contract Twitter {... */\ntag_4:\n  dataSize(sub_0)\n  dup1\n  dataOffset(sub_0)\n  0x00\n  codecopy\n  0x00\n  return\nstop\n\nsub_0: assembly {\n        /* \"Solidity/Twitter.sol\":57:922  contract Twitter {... */\n      mstore(0x40, 0x80)\n      callvalue\n      dup1\n      iszero\n      tag_1\n      jumpi\n      revert(0x00, 0x00)\n    tag_1:\n      pop\n      jumpi(tag_2, lt(calldatasize, 0x04))\n      shr(0xe0, calldataload(0x00))\n      dup1\n      0x83240f83\n      gt\n      tag_11\n      jumpi\n      dup1\n      0x83240f83\n      eq\n      tag_7\n      jumpi\n      dup1\n      0xb6e76873\n      eq\n      tag_8\n      jumpi\n      dup1\n      0xe78c65aa\n      eq\n      tag_9\n      jumpi\n      dup1\n      0xff5c520d\n      eq\n      tag_10\n      jumpi\n      jump(tag_2)\n    tag_11:\n      dup1\n      0x05a1b4a9\n      eq\n      tag_3\n      jumpi\n      dup1\n      0x112f54e3\n      eq\n      tag_4\n      jumpi\n      dup1\n      0x78977bf4\n      eq\n      tag_5\n      jumpi\n      dup1\n      0x7c9cd2bc\n      eq\n      tag_6\n      jumpi\n    tag_2:\n      revert(0x00, 0x00)\n        /* \"Solidity/Twitter.sol\":127:170  mapping (address => string[]) public tweets */\n    tag_3:\n      tag_12\n      0x04\n      dup1\n      calldatasize\n      sub\n      dup2\n      add\n      swap1\n      tag_13\n      swap2\n      swap1\n      tag_14\n      jump\t// in\n    tag_13:\n      tag_15\n      jump\t// in\n    tag_12:\n      mload(0x40)\n      tag_16\n      swap2\n      swap1\n      tag_17\n      jump\t// in\n    tag_16:\n      mload(0x40)\n      dup1\n      swap2\n      sub\n      swap1\n      return\n        /* \"Solidity/Twitter.sol\":342:471  function getTweet(address _owner, uint _index) public view returns (string memory) {... */\n    tag_4:\n      tag_18\n      0x04\n      dup1\n      calldatasize\n      sub\n      dup2\n      add\n      swap1\n      tag_19\n      swap2\n      swap1\n      tag_14\n      jump\t// in\n    tag_19:\n      tag_20\n      jump\t// in\n    tag_18:\n      mload(0x40)\n      tag_21\n      swap2\n      swap1\n      tag_17\n      jump\t// in\n    tag_21:\n      mload(0x40)\n      dup1\n      swap2\n      sub\n      swap1\n      return\n        /* \"Solidity/Twitter.sol\":602:704  function updateUserActionsOptions(string memory _action) public {... */\n    tag_5:\n      tag_22\n      0x04\n      dup1\n      calldatasize\n      sub\n      dup2\n      add\n      swap1\n      tag_23\n      swap2\n      swap1\n      tag_24\n      jump\t// in\n    tag_23:\n      tag_25\n      jump\t// in\n    tag_22:\n      stop\n        /* \"Solidity/Twitter.sol\":238:336  function createTweet(string memory _tweet) public {... */\n    tag_6:\n      tag_26\n      0x04\n      dup1\n      calldatasize\n      sub\n      dup2\n      add\n      swap1\n      tag_27\n      swap2\n      swap1\n      tag_24\n      jump\t// in\n    tag_27:\n      tag_28\n      jump\t// in\n    tag_26:\n      stop\n        /* \"Solidity/Twitter.sol\":177:231  string[] public actions = [\"like\", \"reply\", \"reshare\"] */\n    tag_7:\n      tag_29\n      0x04\n      dup1\n      calldatasize\n      sub\n      dup2\n      add\n      swap1\n      tag_30\n      swap2\n      swap1\n      tag_31\n      jump\t// in\n    tag_30:\n      tag_32\n      jump\t// in\n    tag_29:\n      mload(0x40)\n      tag_33\n      swap2\n      swap1\n      tag_17\n      jump\t// in\n    tag_33:\n      mload(0x40)\n      dup1\n      swap2\n      sub\n      swap1\n      return\n        /* \"Solidity/Twitter.sol\":813:920  function getAction(uint _index) public view returns (string memory) {... */\n    tag_8:\n      tag_34\n      0x04\n      dup1\n      calldatasize\n      sub\n      dup2\n      add\n      swap1\n      tag_35\n      swap2\n      swap1\n      tag_31\n      jump\t// in\n    tag_35:\n      tag_36\n      jump\t// in\n    tag_34:\n      mload(0x40)\n      tag_37\n      swap2\n      swap1\n      tag_17\n      jump\t// in\n    tag_37:\n      mload(0x40)\n      dup1\n      swap2\n      sub\n      swap1\n      return\n        /* \"Solidity/Twitter.sol\":714:807  function getActionsLength() public view returns (uint) {... */\n    tag_9:\n      tag_38\n      tag_39\n      jump\t// in\n    tag_38:\n      mload(0x40)\n      tag_40\n      swap2\n      swap1\n      tag_41\n      jump\t// in\n    tag_40:\n      mload(0x40)\n      dup1\n      swap2\n      sub\n      swap1\n      return\n        /* \"Solidity/Twitter.sol\":477:596  function getAllOwnerTweets(address _owner) public view returns (string[] memory) {... */\n    tag_10:\n      tag_42\n      0x04\n      dup1\n      calldatasize\n      sub\n      dup2\n      add\n      swap1\n      tag_43\n      swap2\n      swap1\n      tag_44\n      jump\t// in\n    tag_43:\n      tag_45\n      jump\t// in\n    tag_42:\n      mload(0x40)\n      tag_46\n      swap2\n      swap1\n      tag_47\n      jump\t// in\n    tag_46:\n      mload(0x40)\n      dup1\n      swap2\n      sub\n      swap1\n      return\n        /* \"Solidity/Twitter.sol\":127:170  mapping (address => string[]) public tweets */\n    tag_15:\n      mstore(0x20, 0x00)\n      dup2\n      0x00\n      mstore\n      keccak256(0x00, 0x40)\n      dup2\n      dup2\n      sload\n      dup2\n      lt\n      tag_48\n      jumpi\n      0x00\n      dup1\n      revert\n    tag_48:\n      swap1\n      0x00\n      mstore\n      keccak256(0x00, 0x20)\n      add\n      0x00\n      swap2\n      pop\n      swap2\n      pop\n      pop\n      dup1\n      sload\n      tag_50\n      swap1\n      tag_51\n      jump\t// in\n    tag_50:\n      dup1\n      0x1f\n      add\n      0x20\n      dup1\n      swap2\n      div\n      mul\n      0x20\n      add\n      mload(0x40)\n      swap1\n      dup2\n      add\n      0x40\n      mstore\n      dup1\n      swap3\n      swap2\n      swap1\n      dup2\n      dup2\n      mstore\n      0x20\n      add\n      dup3\n      dup1\n      sload\n      tag_52\n      swap1\n      tag_51\n      jump\t// in\n    tag_52:\n      dup1\n      iszero\n      tag_53\n      jumpi\n      dup1\n      0x1f\n      lt\n      tag_54\n      jumpi\n      0x0100\n      dup1\n      dup4\n      sload\n      div\n      mul\n      dup4\n      mstore\n      swap2\n      0x20\n      add\n      swap2\n      jump(tag_53)\n    tag_54:\n      dup3\n      add\n      swap2\n      swap1\n      0x00\n      mstore\n      keccak256(0x00, 0x20)\n      swap1\n    tag_55:\n      dup2\n      sload\n      dup2\n      mstore\n      swap1\n      0x01\n      add\n      swap1\n      0x20\n      add\n      dup1\n      dup4\n      gt\n      tag_55\n      jumpi\n      dup3\n      swap1\n      sub\n      0x1f\n      and\n      dup3\n      add\n      swap2\n    tag_53:\n      pop\n      pop\n      pop\n      pop\n      pop\n      dup2\n      jump\t// out\n        /* \"Solidity/Twitter.sol\":342:471  function getTweet(address _owner, uint _index) public view returns (string memory) {... */\n    tag_20:\n        /* \"Solidity/Twitter.sol\":410:423  string memory */\n      0x60\n        /* \"Solidity/Twitter.sol\":442:448  tweets */\n      0x00\n        /* \"Solidity/Twitter.sol\":442:456  tweets[_owner] */\n      0x00\n        /* \"Solidity/Twitter.sol\":449:455  _owner */\n      dup5\n        /* \"Solidity/Twitter.sol\":442:456  tweets[_owner] */\n      0xffffffffffffffffffffffffffffffffffffffff\n      and\n      0xffffffffffffffffffffffffffffffffffffffff\n      and\n      dup2\n      mstore\n      0x20\n      add\n      swap1\n      dup2\n      mstore\n      0x20\n      add\n      0x00\n      keccak256\n        /* \"Solidity/Twitter.sol\":457:463  _index */\n      dup3\n        /* \"Solidity/Twitter.sol\":442:464  tweets[_owner][_index] */\n      dup2\n      sload\n      dup2\n      lt\n      tag_57\n      jumpi\n      tag_58\n      tag_59\n      jump\t// in\n    tag_58:\n    tag_57:\n      swap1\n      0x00\n      mstore\n      keccak256(0x00, 0x20)\n      add\n        /* \"Solidity/Twitter.sol\":435:464  return tweets[_owner][_index] */\n      dup1\n      sload\n      tag_61\n      swap1\n      tag_51\n      jump\t// in\n    tag_61:\n      dup1\n      0x1f\n      add\n      0x20\n      dup1\n      swap2\n      div\n      mul\n      0x20\n      add\n      mload(0x40)\n      swap1\n      dup2\n      add\n      0x40\n      mstore\n      dup1\n      swap3\n      swap2\n      swap1\n      dup2\n      dup2\n      mstore\n      0x20\n      add\n      dup3\n      dup1\n      sload\n      tag_62\n      swap1\n      tag_51\n      jump\t// in\n    tag_62:\n      dup1\n      iszero\n      tag_63\n      jumpi\n      dup1\n      0x1f\n      lt\n      tag_64\n      jumpi\n      0x0100\n      dup1\n      dup4\n      sload\n      div\n      mul\n      dup4\n      mstore\n      swap2\n      0x20\n      add\n      swap2\n      jump(tag_63)\n    tag_64:\n      dup3\n      add\n      swap2\n      swap1\n      0x00\n      mstore\n      keccak256(0x00, 0x20)\n      swap1\n    tag_65:\n      dup2\n      sload\n      dup2\n      mstore\n      swap1\n      0x01\n      add\n      swap1\n      0x20\n      add\n      dup1\n      dup4\n      gt\n      tag_65\n      jumpi\n      dup3\n      swap1\n      sub\n      0x1f\n      and\n      dup3\n      add\n      swap2\n    tag_63:\n      pop\n      pop\n      pop\n      pop\n      pop\n      swap1\n      pop\n        /* \"Solidity/Twitter.sol\":342:471  function getTweet(address _owner, uint _index) public view returns (string memory) {... */\n      swap3\n      swap2\n      pop\n      pop\n      jump\t// out\n        /* \"Solidity/Twitter.sol\":602:704  function updateUserActionsOptions(string memory _action) public {... */\n    tag_25:\n        /* \"Solidity/Twitter.sol\":676:683  actions */\n      0x01\n        /* \"Solidity/Twitter.sol\":689:696  _action */\n      dup2\n        /* \"Solidity/Twitter.sol\":676:697  actions.push(_action) */\n      swap1\n      dup1\n      0x01\n      dup2\n      sload\n      add\n      dup1\n      dup3\n      sstore\n      dup1\n      swap2\n      pop\n      pop\n      0x01\n      swap1\n      sub\n      swap1\n      0x00\n      mstore\n      keccak256(0x00, 0x20)\n      add\n      0x00\n      swap1\n      swap2\n      swap1\n      swap2\n      swap1\n      swap2\n      pop\n      swap1\n      dup2\n      tag_68\n      swap2\n      swap1\n      tag_69\n      jump\t// in\n    tag_68:\n      pop\n        /* \"Solidity/Twitter.sol\":602:704  function updateUserActionsOptions(string memory _action) public {... */\n      pop\n      jump\t// out\n        /* \"Solidity/Twitter.sol\":238:336  function createTweet(string memory _tweet) public {... */\n    tag_28:\n        /* \"Solidity/Twitter.sol\":298:304  tweets */\n      0x00\n        /* \"Solidity/Twitter.sol\":298:316  tweets[msg.sender] */\n      0x00\n        /* \"Solidity/Twitter.sol\":305:315  msg.sender */\n      caller\n        /* \"Solidity/Twitter.sol\":298:316  tweets[msg.sender] */\n      0xffffffffffffffffffffffffffffffffffffffff\n      and\n      0xffffffffffffffffffffffffffffffffffffffff\n      and\n      dup2\n      mstore\n      0x20\n      add\n      swap1\n      dup2\n      mstore\n      0x20\n      add\n      0x00\n      keccak256\n        /* \"Solidity/Twitter.sol\":322:328  _tweet */\n      dup2\n        /* \"Solidity/Twitter.sol\":298:329  tweets[msg.sender].push(_tweet) */\n      swap1\n      dup1\n      0x01\n      dup2\n      sload\n      add\n      dup1\n      dup3\n      sstore\n      dup1\n      swap2\n      pop\n      pop\n      0x01\n      swap1\n      sub\n      swap1\n      0x00\n      mstore\n      keccak256(0x00, 0x20)\n      add\n      0x00\n      swap1\n      swap2\n      swap1\n      swap2\n      swap1\n      swap2\n      pop\n      swap1\n      dup2\n      tag_72\n      swap2\n      swap1\n      tag_69\n      jump\t// in\n    tag_72:\n      pop\n        /* \"Solidity/Twitter.sol\":238:336  function createTweet(string memory _tweet) public {... */\n      pop\n      jump\t// out\n        /* \"Solidity/Twitter.sol\":177:231  string[] public actions = [\"like\", \"reply\", \"reshare\"] */\n    tag_32:\n      0x01\n      dup2\n      dup2\n      sload\n      dup2\n      lt\n      tag_73\n      jumpi\n      0x00\n      dup1\n      revert\n    tag_73:\n      swap1\n      0x00\n      mstore\n      keccak256(0x00, 0x20)\n      add\n      0x00\n      swap2\n      pop\n      swap1\n      pop\n      dup1\n      sload\n      tag_75\n      swap1\n      tag_51\n      jump\t// in\n    tag_75:\n      dup1\n      0x1f\n      add\n      0x20\n      dup1\n      swap2\n      div\n      mul\n      0x20\n      add\n      mload(0x40)\n      swap1\n      dup2\n      add\n      0x40\n      mstore\n      dup1\n      swap3\n      swap2\n      swap1\n      dup2\n      dup2\n      mstore\n      0x20\n      add\n      dup3\n      dup1\n      sload\n      tag_76\n      swap1\n      tag_51\n      jump\t// in\n    tag_76:\n      dup1\n      iszero\n      tag_77\n      jumpi\n      dup1\n      0x1f\n      lt\n      tag_78\n      jumpi\n      0x0100\n      dup1\n      dup4\n      sload\n      div\n      mul\n      dup4\n      mstore\n      swap2\n      0x20\n      add\n      swap2\n      jump(tag_77)\n    tag_78:\n      dup3\n      add\n      swap2\n      swap1\n      0x00\n      mstore\n      keccak256(0x00, 0x20)\n      swap1\n    tag_79:\n      dup2\n      sload\n      dup2\n      mstore\n      swap1\n      0x01\n      add\n      swap1\n      0x20\n      add\n      dup1\n      dup4\n      gt\n      tag_79\n      jumpi\n      dup3\n      swap1\n      sub\n      0x1f\n      and\n      dup3\n      add\n      swap2\n    tag_77:\n      pop\n      pop\n      pop\n      pop\n      pop\n      dup2\n      jump\t// out\n        /* \"Solidity/Twitter.sol\":813:920  function getAction(uint _index) public view returns (string memory) {... */\n    tag_36:\n        /* \"Solidity/Twitter.sol\":866:879  string memory */\n      0x60\n        /* \"Solidity/Twitter.sol\":898:905  actions */\n      0x01\n        /* \"Solidity/Twitter.sol\":906:912  _index */\n      dup3\n        /* \"Solidity/Twitter.sol\":898:913  actions[_index] */\n      dup2\n      sload\n      dup2\n      lt\n      tag_81\n      jumpi\n      tag_82\n      tag_59\n      jump\t// in\n    tag_82:\n    tag_81:\n      swap1\n      0x00\n      mstore\n      keccak256(0x00, 0x20)\n      add\n        /* \"Solidity/Twitter.sol\":891:913  return actions[_index] */\n      dup1\n      sload\n      tag_84\n      swap1\n      tag_51\n      jump\t// in\n    tag_84:\n      dup1\n      0x1f\n      add\n      0x20\n      dup1\n      swap2\n      div\n      mul\n      0x20\n      add\n      mload(0x40)\n      swap1\n      dup2\n      add\n      0x40\n      mstore\n      dup1\n      swap3\n      swap2\n      swap1\n      dup2\n      dup2\n      mstore\n      0x20\n      add\n      dup3\n      dup1\n      sload\n      tag_85\n      swap1\n      tag_51\n      jump\t// in\n    tag_85:\n      dup1\n      iszero\n      tag_86\n      jumpi\n      dup1\n      0x1f\n      lt\n      tag_87\n      jumpi\n      0x0100\n      dup1\n      dup4\n      sload\n      div\n      mul\n      dup4\n      mstore\n      swap2\n      0x20\n      add\n      swap2\n      jump(tag_86)\n    tag_87:\n      dup3\n      add\n      swap2\n      swap1\n      0x00\n      mstore\n      keccak256(0x00, 0x20)\n      swap1\n    tag_88:\n      dup2\n      sload\n      dup2\n      mstore\n      swap1\n      0x01\n      add\n      swap1\n      0x20\n      add\n      dup1\n      dup4\n      gt\n      tag_88\n      jumpi\n      dup3\n      swap1\n      sub\n      0x1f\n      and\n      dup3\n      add\n      swap2\n    tag_86:\n      pop\n      pop\n      pop\n      pop\n      pop\n      swap1\n      pop\n        /* \"Solidity/Twitter.sol\":813:920  function getAction(uint _index) public view returns (string memory) {... */\n      swap2\n      swap1\n      pop\n      jump\t// out\n        /* \"Solidity/Twitter.sol\":714:807  function getActionsLength() public view returns (uint) {... */\n    tag_39:\n        /* \"Solidity/Twitter.sol\":763:767  uint */\n      0x00\n        /* \"Solidity/Twitter.sol\":786:793  actions */\n      0x01\n        /* \"Solidity/Twitter.sol\":786:800  actions.length */\n      dup1\n      sload\n      swap1\n      pop\n        /* \"Solidity/Twitter.sol\":779:800  return actions.length */\n      swap1\n      pop\n        /* \"Solidity/Twitter.sol\":714:807  function getActionsLength() public view returns (uint) {... */\n      swap1\n      jump\t// out\n        /* \"Solidity/Twitter.sol\":477:596  function getAllOwnerTweets(address _owner) public view returns (string[] memory) {... */\n    tag_45:\n        /* \"Solidity/Twitter.sol\":541:556  string[] memory */\n      0x60\n        /* \"Solidity/Twitter.sol\":575:581  tweets */\n      0x00\n        /* \"Solidity/Twitter.sol\":575:589  tweets[_owner] */\n      0x00\n        /* \"Solidity/Twitter.sol\":582:588  _owner */\n      dup4\n        /* \"Solidity/Twitter.sol\":575:589  tweets[_owner] */\n      0xffffffffffffffffffffffffffffffffffffffff\n      and\n      0xffffffffffffffffffffffffffffffffffffffff\n      and\n      dup2\n      mstore\n      0x20\n      add\n      swap1\n      dup2\n      mstore\n      0x20\n      add\n      0x00\n      keccak256\n        /* \"Solidity/Twitter.sol\":568:589  return tweets[_owner] */\n      dup1\n      sload\n      dup1\n      0x20\n      mul\n      0x20\n      add\n      mload(0x40)\n      swap1\n      dup2\n      add\n      0x40\n      mstore\n      dup1\n      swap3\n      swap2\n      swap1\n      dup2\n      dup2\n      mstore\n      0x20\n      add\n      0x00\n      swap1\n    tag_91:\n      dup3\n      dup3\n      lt\n      iszero\n      tag_92\n      jumpi\n      dup4\n      dup3\n      swap1\n      0x00\n      mstore\n      keccak256(0x00, 0x20)\n      add\n      dup1\n      sload\n      tag_94\n      swap1\n      tag_51\n      jump\t// in\n    tag_94:\n      dup1\n      0x1f\n      add\n      0x20\n      dup1\n      swap2\n      div\n      mul\n      0x20\n      add\n      mload(0x40)\n      swap1\n      dup2\n      add\n      0x40\n      mstore\n      dup1\n      swap3\n      swap2\n      swap1\n      dup2\n      dup2\n      mstore\n      0x20\n      add\n      dup3\n      dup1\n      sload\n      tag_95\n      swap1\n      tag_51\n      jump\t// in\n    tag_95:\n      dup1\n      iszero\n      tag_96\n      jumpi\n      dup1\n      0x1f\n      lt\n      tag_97\n      jumpi\n      0x0100\n      dup1\n      dup4\n      sload\n      div\n      mul\n      dup4\n      mstore\n      swap2\n      0x20\n      add\n      swap2\n      jump(tag_96)\n    tag_97:\n      dup3\n      add\n      swap2\n      swap1\n      0x00\n      mstore\n      keccak256(0x00, 0x20)\n      swap1\n    tag_98:\n      dup2\n      sload\n      dup2\n      mstore\n      swap1\n      0x01\n      add\n      swap1\n      0x20\n      add\n      dup1\n      dup4\n      gt\n      tag_98\n      jumpi\n      dup3\n      swap1\n      sub\n      0x1f\n      and\n      dup3\n      add\n      swap2\n    tag_96:\n      pop\n      pop\n      pop\n      pop\n      pop\n      dup2\n      mstore\n      0x20\n      add\n      swap1\n      0x01\n      add\n      swap1\n      jump(tag_91)\n    tag_92:\n      pop\n      pop\n      pop\n      pop\n      swap1\n      pop\n        /* \"Solidity/Twitter.sol\":477:596  function getAllOwnerTweets(address _owner) public view returns (string[] memory) {... */\n      swap2\n      swap1\n      pop\n      jump\t// out\n        /* \"#utility.yul\":7:82   */\n    tag_99:\n        /* \"#utility.yul\":40:46   */\n      0x00\n        /* \"#utility.yul\":73:75   */\n      0x40\n        /* \"#utility.yul\":67:76   */\n      mload\n        /* \"#utility.yul\":57:76   */\n      swap1\n      pop\n        /* \"#utility.yul\":7:82   */\n      swap1\n      jump\t// out\n        /* \"#utility.yul\":88:205   */\n    tag_100:\n        /* \"#utility.yul\":197:198   */\n      0x00\n        /* \"#utility.yul\":194:195   */\n      0x00\n        /* \"#utility.yul\":187:199   */\n      revert\n        /* \"#utility.yul\":211:328   */\n    tag_101:\n        /* \"#utility.yul\":320:321   */\n      0x00\n        /* \"#utility.yul\":317:318   */\n      0x00\n        /* \"#utility.yul\":310:322   */\n      revert\n        /* \"#utility.yul\":334:460   */\n    tag_102:\n        /* \"#utility.yul\":371:378   */\n      0x00\n        /* \"#utility.yul\":411:453   */\n      0xffffffffffffffffffffffffffffffffffffffff\n        /* \"#utility.yul\":404:409   */\n      dup3\n        /* \"#utility.yul\":400:454   */\n      and\n        /* \"#utility.yul\":389:454   */\n      swap1\n      pop\n        /* \"#utility.yul\":334:460   */\n      swap2\n      swap1\n      pop\n      jump\t// out\n        /* \"#utility.yul\":466:562   */\n    tag_103:\n        /* \"#utility.yul\":503:510   */\n      0x00\n        /* \"#utility.yul\":532:556   */\n      tag_154\n        /* \"#utility.yul\":550:555   */\n      dup3\n        /* \"#utility.yul\":532:556   */\n      tag_102\n      jump\t// in\n    tag_154:\n        /* \"#utility.yul\":521:556   */\n      swap1\n      pop\n        /* \"#utility.yul\":466:562   */\n      swap2\n      swap1\n      pop\n      jump\t// out\n        /* \"#utility.yul\":568:690   */\n    tag_104:\n        /* \"#utility.yul\":641:665   */\n      tag_156\n        /* \"#utility.yul\":659:664   */\n      dup2\n        /* \"#utility.yul\":641:665   */\n      tag_103\n      jump\t// in\n    tag_156:\n        /* \"#utility.yul\":634:639   */\n      dup2\n        /* \"#utility.yul\":631:666   */\n      eq\n        /* \"#utility.yul\":621:684   */\n      tag_157\n      jumpi\n        /* \"#utility.yul\":680:681   */\n      0x00\n        /* \"#utility.yul\":677:678   */\n      0x00\n        /* \"#utility.yul\":670:682   */\n      revert\n        /* \"#utility.yul\":621:684   */\n    tag_157:\n        /* \"#utility.yul\":568:690   */\n      pop\n      jump\t// out\n        /* \"#utility.yul\":696:835   */\n    tag_105:\n        /* \"#utility.yul\":742:747   */\n      0x00\n        /* \"#utility.yul\":780:786   */\n      dup2\n        /* \"#utility.yul\":767:787   */\n      calldataload\n        /* \"#utility.yul\":758:787   */\n      swap1\n      pop\n        /* \"#utility.yul\":796:829   */\n      tag_159\n        /* \"#utility.yul\":823:828   */\n      dup2\n        /* \"#utility.yul\":796:829   */\n      tag_104\n      jump\t// in\n    tag_159:\n        /* \"#utility.yul\":696:835   */\n      swap3\n      swap2\n      pop\n      pop\n      jump\t// out\n        /* \"#utility.yul\":841:918   */\n    tag_106:\n        /* \"#utility.yul\":878:885   */\n      0x00\n        /* \"#utility.yul\":907:912   */\n      dup2\n        /* \"#utility.yul\":896:912   */\n      swap1\n      pop\n        /* \"#utility.yul\":841:918   */\n      swap2\n      swap1\n      pop\n      jump\t// out\n        /* \"#utility.yul\":924:1046   */\n    tag_107:\n        /* \"#utility.yul\":997:1021   */\n      tag_162\n        /* \"#utility.yul\":1015:1020   */\n      dup2\n        /* \"#utility.yul\":997:1021   */\n      tag_106\n      jump\t// in\n    tag_162:\n        /* \"#utility.yul\":990:995   */\n      dup2\n        /* \"#utility.yul\":987:1022   */\n      eq\n        /* \"#utility.yul\":977:1040   */\n      tag_163\n      jumpi\n        /* \"#utility.yul\":1036:1037   */\n      0x00\n        /* \"#utility.yul\":1033:1034   */\n      0x00\n        /* \"#utility.yul\":1026:1038   */\n      revert\n        /* \"#utility.yul\":977:1040   */\n    tag_163:\n        /* \"#utility.yul\":924:1046   */\n      pop\n      jump\t// out\n        /* \"#utility.yul\":1052:1191   */\n    tag_108:\n        /* \"#utility.yul\":1098:1103   */\n      0x00\n        /* \"#utility.yul\":1136:1142   */\n      dup2\n        /* \"#utility.yul\":1123:1143   */\n      calldataload\n        /* \"#utility.yul\":1114:1143   */\n      swap1\n      pop\n        /* \"#utility.yul\":1152:1185   */\n      tag_165\n        /* \"#utility.yul\":1179:1184   */\n      dup2\n        /* \"#utility.yul\":1152:1185   */\n      tag_107\n      jump\t// in\n    tag_165:\n        /* \"#utility.yul\":1052:1191   */\n      swap3\n      swap2\n      pop\n      pop\n      jump\t// out\n        /* \"#utility.yul\":1197:1671   */\n    tag_14:\n        /* \"#utility.yul\":1265:1271   */\n      0x00\n        /* \"#utility.yul\":1273:1279   */\n      0x00\n        /* \"#utility.yul\":1322:1324   */\n      0x40\n        /* \"#utility.yul\":1310:1319   */\n      dup4\n        /* \"#utility.yul\":1301:1308   */\n      dup6\n        /* \"#utility.yul\":1297:1320   */\n      sub\n        /* \"#utility.yul\":1293:1325   */\n      slt\n        /* \"#utility.yul\":1290:1409   */\n      iszero\n      tag_167\n      jumpi\n        /* \"#utility.yul\":1328:1407   */\n      tag_168\n      tag_100\n      jump\t// in\n    tag_168:\n        /* \"#utility.yul\":1290:1409   */\n    tag_167:\n        /* \"#utility.yul\":1448:1449   */\n      0x00\n        /* \"#utility.yul\":1473:1526   */\n      tag_169\n        /* \"#utility.yul\":1518:1525   */\n      dup6\n        /* \"#utility.yul\":1509:1515   */\n      dup3\n        /* \"#utility.yul\":1498:1507   */\n      dup7\n        /* \"#utility.yul\":1494:1516   */\n      add\n        /* \"#utility.yul\":1473:1526   */\n      tag_105\n      jump\t// in\n    tag_169:\n        /* \"#utility.yul\":1463:1526   */\n      swap3\n      pop\n        /* \"#utility.yul\":1419:1536   */\n      pop\n        /* \"#utility.yul\":1575:1577   */\n      0x20\n        /* \"#utility.yul\":1601:1654   */\n      tag_170\n        /* \"#utility.yul\":1646:1653   */\n      dup6\n        /* \"#utility.yul\":1637:1643   */\n      dup3\n        /* \"#utility.yul\":1626:1635   */\n      dup7\n        /* \"#utility.yul\":1622:1644   */\n      add\n        /* \"#utility.yul\":1601:1654   */\n      tag_108\n      jump\t// in\n    tag_170:\n        /* \"#utility.yul\":1591:1654   */\n      swap2\n      pop\n        /* \"#utility.yul\":1546:1664   */\n      pop\n        /* \"#utility.yul\":1197:1671   */\n      swap3\n      pop\n      swap3\n      swap1\n      pop\n      jump\t// out\n        /* \"#utility.yul\":1677:1776   */\n    tag_109:\n        /* \"#utility.yul\":1729:1735   */\n      0x00\n        /* \"#utility.yul\":1763:1768   */\n      dup2\n        /* \"#utility.yul\":1757:1769   */\n      mload\n        /* \"#utility.yul\":1747:1769   */\n      swap1\n      pop\n        /* \"#utility.yul\":1677:1776   */\n      swap2\n      swap1\n      pop\n      jump\t// out\n        /* \"#utility.yul\":1782:1951   */\n    tag_110:\n        /* \"#utility.yul\":1866:1877   */\n      0x00\n        /* \"#utility.yul\":1900:1906   */\n      dup3\n        /* \"#utility.yul\":1895:1898   */\n      dup3\n        /* \"#utility.yul\":1888:1907   */\n      mstore\n        /* \"#utility.yul\":1940:1944   */\n      0x20\n        /* \"#utility.yul\":1935:1938   */\n      dup3\n        /* \"#utility.yul\":1931:1945   */\n      add\n        /* \"#utility.yul\":1916:1945   */\n      swap1\n      pop\n        /* \"#utility.yul\":1782:1951   */\n      swap3\n      swap2\n      pop\n      pop\n      jump\t// out\n        /* \"#utility.yul\":1957:2096   */\n    tag_111:\n        /* \"#utility.yul\":2046:2052   */\n      dup3\n        /* \"#utility.yul\":2041:2044   */\n      dup2\n        /* \"#utility.yul\":2036:2039   */\n      dup4\n        /* \"#utility.yul\":2030:2053   */\n      mcopy\n        /* \"#utility.yul\":2087:2088   */\n      0x00\n        /* \"#utility.yul\":2078:2084   */\n      dup4\n        /* \"#utility.yul\":2073:2076   */\n      dup4\n        /* \"#utility.yul\":2069:2085   */\n      add\n        /* \"#utility.yul\":2062:2089   */\n      mstore\n        /* \"#utility.yul\":1957:2096   */\n      pop\n      pop\n      pop\n      jump\t// out\n        /* \"#utility.yul\":2102:2204   */\n    tag_112:\n        /* \"#utility.yul\":2143:2149   */\n      0x00\n        /* \"#utility.yul\":2194:2196   */\n      0x1f\n        /* \"#utility.yul\":2190:2197   */\n      not\n        /* \"#utility.yul\":2185:2187   */\n      0x1f\n        /* \"#utility.yul\":2178:2183   */\n      dup4\n        /* \"#utility.yul\":2174:2188   */\n      add\n        /* \"#utility.yul\":2170:2198   */\n      and\n        /* \"#utility.yul\":2160:2198   */\n      swap1\n      pop\n        /* \"#utility.yul\":2102:2204   */\n      swap2\n      swap1\n      pop\n      jump\t// out\n        /* \"#utility.yul\":2210:2587   */\n    tag_113:\n        /* \"#utility.yul\":2298:2301   */\n      0x00\n        /* \"#utility.yul\":2326:2365   */\n      tag_176\n        /* \"#utility.yul\":2359:2364   */\n      dup3\n        /* \"#utility.yul\":2326:2365   */\n      tag_109\n      jump\t// in\n    tag_176:\n        /* \"#utility.yul\":2381:2452   */\n      tag_177\n        /* \"#utility.yul\":2445:2451   */\n      dup2\n        /* \"#utility.yul\":2440:2443   */\n      dup6\n        /* \"#utility.yul\":2381:2452   */\n      tag_110\n      jump\t// in\n    tag_177:\n        /* \"#utility.yul\":2374:2452   */\n      swap4\n      pop\n        /* \"#utility.yul\":2461:2526   */\n      tag_178\n        /* \"#utility.yul\":2519:2525   */\n      dup2\n        /* \"#utility.yul\":2514:2517   */\n      dup6\n        /* \"#utility.yul\":2507:2511   */\n      0x20\n        /* \"#utility.yul\":2500:2505   */\n      dup7\n        /* \"#utility.yul\":2496:2512   */\n      add\n        /* \"#utility.yul\":2461:2526   */\n      tag_111\n      jump\t// in\n    tag_178:\n        /* \"#utility.yul\":2551:2580   */\n      tag_179\n        /* \"#utility.yul\":2573:2579   */\n      dup2\n        /* \"#utility.yul\":2551:2580   */\n      tag_112\n      jump\t// in\n    tag_179:\n        /* \"#utility.yul\":2546:2549   */\n      dup5\n        /* \"#utility.yul\":2542:2581   */\n      add\n        /* \"#utility.yul\":2535:2581   */\n      swap2\n      pop\n        /* \"#utility.yul\":2302:2587   */\n      pop\n        /* \"#utility.yul\":2210:2587   */\n      swap3\n      swap2\n      pop\n      pop\n      jump\t// out\n        /* \"#utility.yul\":2593:2906   */\n    tag_17:\n        /* \"#utility.yul\":2706:2710   */\n      0x00\n        /* \"#utility.yul\":2744:2746   */\n      0x20\n        /* \"#utility.yul\":2733:2742   */\n      dup3\n        /* \"#utility.yul\":2729:2747   */\n      add\n        /* \"#utility.yul\":2721:2747   */\n      swap1\n      pop\n        /* \"#utility.yul\":2793:2802   */\n      dup2\n        /* \"#utility.yul\":2787:2791   */\n      dup2\n        /* \"#utility.yul\":2783:2803   */\n      sub\n        /* \"#utility.yul\":2779:2780   */\n      0x00\n        /* \"#utility.yul\":2768:2777   */\n      dup4\n        /* \"#utility.yul\":2764:2781   */\n      add\n        /* \"#utility.yul\":2757:2804   */\n      mstore\n        /* \"#utility.yul\":2821:2899   */\n      tag_181\n        /* \"#utility.yul\":2894:2898   */\n      dup2\n        /* \"#utility.yul\":2885:2891   */\n      dup5\n        /* \"#utility.yul\":2821:2899   */\n      tag_113\n      jump\t// in\n    tag_181:\n        /* \"#utility.yul\":2813:2899   */\n      swap1\n      pop\n        /* \"#utility.yul\":2593:2906   */\n      swap3\n      swap2\n      pop\n      pop\n      jump\t// out\n        /* \"#utility.yul\":2912:3029   */\n    tag_114:\n        /* \"#utility.yul\":3021:3022   */\n      0x00\n        /* \"#utility.yul\":3018:3019   */\n      0x00\n        /* \"#utility.yul\":3011:3023   */\n      revert\n        /* \"#utility.yul\":3035:3152   */\n    tag_115:\n        /* \"#utility.yul\":3144:3145   */\n      0x00\n        /* \"#utility.yul\":3141:3142   */\n      0x00\n        /* \"#utility.yul\":3134:3146   */\n      revert\n        /* \"#utility.yul\":3158:3338   */\n    tag_116:\n        /* \"#utility.yul\":3206:3283   */\n      0x4e487b7100000000000000000000000000000000000000000000000000000000\n        /* \"#utility.yul\":3203:3204   */\n      0x00\n        /* \"#utility.yul\":3196:3284   */\n      mstore\n        /* \"#utility.yul\":3303:3307   */\n      0x41\n        /* \"#utility.yul\":3300:3301   */\n      0x04\n        /* \"#utility.yul\":3293:3308   */\n      mstore\n        /* \"#utility.yul\":3327:3331   */\n      0x24\n        /* \"#utility.yul\":3324:3325   */\n      0x00\n        /* \"#utility.yul\":3317:3332   */\n      revert\n        /* \"#utility.yul\":3344:3625   */\n    tag_117:\n        /* \"#utility.yul\":3427:3454   */\n      tag_186\n        /* \"#utility.yul\":3449:3453   */\n      dup3\n        /* \"#utility.yul\":3427:3454   */\n      tag_112\n      jump\t// in\n    tag_186:\n        /* \"#utility.yul\":3419:3425   */\n      dup2\n        /* \"#utility.yul\":3415:3455   */\n      add\n        /* \"#utility.yul\":3557:3563   */\n      dup2\n        /* \"#utility.yul\":3545:3555   */\n      dup2\n        /* \"#utility.yul\":3542:3564   */\n      lt\n        /* \"#utility.yul\":3521:3539   */\n      0xffffffffffffffff\n        /* \"#utility.yul\":3509:3519   */\n      dup3\n        /* \"#utility.yul\":3506:3540   */\n      gt\n        /* \"#utility.yul\":3503:3565   */\n      or\n        /* \"#utility.yul\":3500:3588   */\n      iszero\n      tag_187\n      jumpi\n        /* \"#utility.yul\":3568:3586   */\n      tag_188\n      tag_116\n      jump\t// in\n    tag_188:\n        /* \"#utility.yul\":3500:3588   */\n    tag_187:\n        /* \"#utility.yul\":3608:3618   */\n      dup1\n        /* \"#utility.yul\":3604:3606   */\n      0x40\n        /* \"#utility.yul\":3597:3619   */\n      mstore\n        /* \"#utility.yul\":3387:3625   */\n      pop\n        /* \"#utility.yul\":3344:3625   */\n      pop\n      pop\n      jump\t// out\n        /* \"#utility.yul\":3631:3760   */\n    tag_118:\n        /* \"#utility.yul\":3665:3671   */\n      0x00\n        /* \"#utility.yul\":3692:3712   */\n      tag_190\n      tag_99\n      jump\t// in\n    tag_190:\n        /* \"#utility.yul\":3682:3712   */\n      swap1\n      pop\n        /* \"#utility.yul\":3721:3754   */\n      tag_191\n        /* \"#utility.yul\":3749:3753   */\n      dup3\n        /* \"#utility.yul\":3741:3747   */\n      dup3\n        /* \"#utility.yul\":3721:3754   */\n      tag_117\n      jump\t// in\n    tag_191:\n        /* \"#utility.yul\":3631:3760   */\n      swap2\n      swap1\n      pop\n      jump\t// out\n        /* \"#utility.yul\":3766:4074   */\n    tag_119:\n        /* \"#utility.yul\":3828:3832   */\n      0x00\n        /* \"#utility.yul\":3918:3936   */\n      0xffffffffffffffff\n        /* \"#utility.yul\":3910:3916   */\n      dup3\n        /* \"#utility.yul\":3907:3937   */\n      gt\n        /* \"#utility.yul\":3904:3960   */\n      iszero\n      tag_193\n      jumpi\n        /* \"#utility.yul\":3940:3958   */\n      tag_194\n      tag_116\n      jump\t// in\n    tag_194:\n        /* \"#utility.yul\":3904:3960   */\n    tag_193:\n        /* \"#utility.yul\":3978:4007   */\n      tag_195\n        /* \"#utility.yul\":4000:4006   */\n      dup3\n        /* \"#utility.yul\":3978:4007   */\n      tag_112\n      jump\t// in\n    tag_195:\n        /* \"#utility.yul\":3970:4007   */\n      swap1\n      pop\n        /* \"#utility.yul\":4062:4066   */\n      0x20\n        /* \"#utility.yul\":4056:4060   */\n      dup2\n        /* \"#utility.yul\":4052:4067   */\n      add\n        /* \"#utility.yul\":4044:4067   */\n      swap1\n      pop\n        /* \"#utility.yul\":3766:4074   */\n      swap2\n      swap1\n      pop\n      jump\t// out\n        /* \"#utility.yul\":4080:4228   */\n    tag_120:\n        /* \"#utility.yul\":4178:4184   */\n      dup3\n        /* \"#utility.yul\":4173:4176   */\n      dup2\n        /* \"#utility.yul\":4168:4171   */\n      dup4\n        /* \"#utility.yul\":4155:4185   */\n      calldatacopy\n        /* \"#utility.yul\":4219:4220   */\n      0x00\n        /* \"#utility.yul\":4210:4216   */\n      dup4\n        /* \"#utility.yul\":4205:4208   */\n      dup4\n        /* \"#utility.yul\":4201:4217   */\n      add\n        /* \"#utility.yul\":4194:4221   */\n      mstore\n        /* \"#utility.yul\":4080:4228   */\n      pop\n      pop\n      pop\n      jump\t// out\n        /* \"#utility.yul\":4234:4659   */\n    tag_121:\n        /* \"#utility.yul\":4312:4317   */\n      0x00\n        /* \"#utility.yul\":4337:4403   */\n      tag_198\n        /* \"#utility.yul\":4353:4402   */\n      tag_199\n        /* \"#utility.yul\":4395:4401   */\n      dup5\n        /* \"#utility.yul\":4353:4402   */\n      tag_119\n      jump\t// in\n    tag_199:\n        /* \"#utility.yul\":4337:4403   */\n      tag_118\n      jump\t// in\n    tag_198:\n        /* \"#utility.yul\":4328:4403   */\n      swap1\n      pop\n        /* \"#utility.yul\":4426:4432   */\n      dup3\n        /* \"#utility.yul\":4419:4424   */\n      dup2\n        /* \"#utility.yul\":4412:4433   */\n      mstore\n        /* \"#utility.yul\":4464:4468   */\n      0x20\n        /* \"#utility.yul\":4457:4462   */\n      dup2\n        /* \"#utility.yul\":4453:4469   */\n      add\n        /* \"#utility.yul\":4502:4505   */\n      dup5\n        /* \"#utility.yul\":4493:4499   */\n      dup5\n        /* \"#utility.yul\":4488:4491   */\n      dup5\n        /* \"#utility.yul\":4484:4500   */\n      add\n        /* \"#utility.yul\":4481:4506   */\n      gt\n        /* \"#utility.yul\":4478:4590   */\n      iszero\n      tag_200\n      jumpi\n        /* \"#utility.yul\":4509:4588   */\n      tag_201\n      tag_115\n      jump\t// in\n    tag_201:\n        /* \"#utility.yul\":4478:4590   */\n    tag_200:\n        /* \"#utility.yul\":4599:4653   */\n      tag_202\n        /* \"#utility.yul\":4646:4652   */\n      dup5\n        /* \"#utility.yul\":4641:4644   */\n      dup3\n        /* \"#utility.yul\":4636:4639   */\n      dup6\n        /* \"#utility.yul\":4599:4653   */\n      tag_120\n      jump\t// in\n    tag_202:\n        /* \"#utility.yul\":4318:4659   */\n      pop\n        /* \"#utility.yul\":4234:4659   */\n      swap4\n      swap3\n      pop\n      pop\n      pop\n      jump\t// out\n        /* \"#utility.yul\":4679:5019   */\n    tag_122:\n        /* \"#utility.yul\":4735:4740   */\n      0x00\n        /* \"#utility.yul\":4784:4787   */\n      dup3\n        /* \"#utility.yul\":4777:4781   */\n      0x1f\n        /* \"#utility.yul\":4769:4775   */\n      dup4\n        /* \"#utility.yul\":4765:4782   */\n      add\n        /* \"#utility.yul\":4761:4788   */\n      slt\n        /* \"#utility.yul\":4751:4873   */\n      tag_204\n      jumpi\n        /* \"#utility.yul\":4792:4871   */\n      tag_205\n      tag_114\n      jump\t// in\n    tag_205:\n        /* \"#utility.yul\":4751:4873   */\n    tag_204:\n        /* \"#utility.yul\":4909:4915   */\n      dup2\n        /* \"#utility.yul\":4896:4916   */\n      calldataload\n        /* \"#utility.yul\":4934:5013   */\n      tag_206\n        /* \"#utility.yul\":5009:5012   */\n      dup5\n        /* \"#utility.yul\":5001:5007   */\n      dup3\n        /* \"#utility.yul\":4994:4998   */\n      0x20\n        /* \"#utility.yul\":4986:4992   */\n      dup7\n        /* \"#utility.yul\":4982:4999   */\n      add\n        /* \"#utility.yul\":4934:5013   */\n      tag_121\n      jump\t// in\n    tag_206:\n        /* \"#utility.yul\":4925:5013   */\n      swap2\n      pop\n        /* \"#utility.yul\":4741:5019   */\n      pop\n        /* \"#utility.yul\":4679:5019   */\n      swap3\n      swap2\n      pop\n      pop\n      jump\t// out\n        /* \"#utility.yul\":5025:5534   */\n    tag_24:\n        /* \"#utility.yul\":5094:5100   */\n      0x00\n        /* \"#utility.yul\":5143:5145   */\n      0x20\n        /* \"#utility.yul\":5131:5140   */\n      dup3\n        /* \"#utility.yul\":5122:5129   */\n      dup5\n        /* \"#utility.yul\":5118:5141   */\n      sub\n        /* \"#utility.yul\":5114:5146   */\n      slt\n        /* \"#utility.yul\":5111:5230   */\n      iszero\n      tag_208\n      jumpi\n        /* \"#utility.yul\":5149:5228   */\n      tag_209\n      tag_100\n      jump\t// in\n    tag_209:\n        /* \"#utility.yul\":5111:5230   */\n    tag_208:\n        /* \"#utility.yul\":5297:5298   */\n      0x00\n        /* \"#utility.yul\":5286:5295   */\n      dup3\n        /* \"#utility.yul\":5282:5299   */\n      add\n        /* \"#utility.yul\":5269:5300   */\n      calldataload\n        /* \"#utility.yul\":5327:5345   */\n      0xffffffffffffffff\n        /* \"#utility.yul\":5319:5325   */\n      dup2\n        /* \"#utility.yul\":5316:5346   */\n      gt\n        /* \"#utility.yul\":5313:5430   */\n      iszero\n      tag_210\n      jumpi\n        /* \"#utility.yul\":5349:5428   */\n      tag_211\n      tag_101\n      jump\t// in\n    tag_211:\n        /* \"#utility.yul\":5313:5430   */\n    tag_210:\n        /* \"#utility.yul\":5454:5517   */\n      tag_212\n        /* \"#utility.yul\":5509:5516   */\n      dup5\n        /* \"#utility.yul\":5500:5506   */\n      dup3\n        /* \"#utility.yul\":5489:5498   */\n      dup6\n        /* \"#utility.yul\":5485:5507   */\n      add\n        /* \"#utility.yul\":5454:5517   */\n      tag_122\n      jump\t// in\n    tag_212:\n        /* \"#utility.yul\":5444:5517   */\n      swap2\n      pop\n        /* \"#utility.yul\":5240:5527   */\n      pop\n        /* \"#utility.yul\":5025:5534   */\n      swap3\n      swap2\n      pop\n      pop\n      jump\t// out\n        /* \"#utility.yul\":5540:5869   */\n    tag_31:\n        /* \"#utility.yul\":5599:5605   */\n      0x00\n        /* \"#utility.yul\":5648:5650   */\n      0x20\n        /* \"#utility.yul\":5636:5645   */\n      dup3\n        /* \"#utility.yul\":5627:5634   */\n      dup5\n        /* \"#utility.yul\":5623:5646   */\n      sub\n        /* \"#utility.yul\":5619:5651   */\n      slt\n        /* \"#utility.yul\":5616:5735   */\n      iszero\n      tag_214\n      jumpi\n        /* \"#utility.yul\":5654:5733   */\n      tag_215\n      tag_100\n      jump\t// in\n    tag_215:\n        /* \"#utility.yul\":5616:5735   */\n    tag_214:\n        /* \"#utility.yul\":5774:5775   */\n      0x00\n        /* \"#utility.yul\":5799:5852   */\n      tag_216\n        /* \"#utility.yul\":5844:5851   */\n      dup5\n        /* \"#utility.yul\":5835:5841   */\n      dup3\n        /* \"#utility.yul\":5824:5833   */\n      dup6\n        /* \"#utility.yul\":5820:5842   */\n      add\n        /* \"#utility.yul\":5799:5852   */\n      tag_108\n      jump\t// in\n    tag_216:\n        /* \"#utility.yul\":5789:5852   */\n      swap2\n      pop\n        /* \"#utility.yul\":5745:5862   */\n      pop\n        /* \"#utility.yul\":5540:5869   */\n      swap3\n      swap2\n      pop\n      pop\n      jump\t// out\n        /* \"#utility.yul\":5875:5993   */\n    tag_123:\n        /* \"#utility.yul\":5962:5986   */\n      tag_218\n        /* \"#utility.yul\":5980:5985   */\n      dup2\n        /* \"#utility.yul\":5962:5986   */\n      tag_106\n      jump\t// in\n    tag_218:\n        /* \"#utility.yul\":5957:5960   */\n      dup3\n        /* \"#utility.yul\":5950:5987   */\n      mstore\n        /* \"#utility.yul\":5875:5993   */\n      pop\n      pop\n      jump\t// out\n        /* \"#utility.yul\":5999:6221   */\n    tag_41:\n        /* \"#utility.yul\":6092:6096   */\n      0x00\n        /* \"#utility.yul\":6130:6132   */\n      0x20\n        /* \"#utility.yul\":6119:6128   */\n      dup3\n        /* \"#utility.yul\":6115:6133   */\n      add\n        /* \"#utility.yul\":6107:6133   */\n      swap1\n      pop\n        /* \"#utility.yul\":6143:6214   */\n      tag_220\n        /* \"#utility.yul\":6211:6212   */\n      0x00\n        /* \"#utility.yul\":6200:6209   */\n      dup4\n        /* \"#utility.yul\":6196:6213   */\n      add\n        /* \"#utility.yul\":6187:6193   */\n      dup5\n        /* \"#utility.yul\":6143:6214   */\n      tag_123\n      jump\t// in\n    tag_220:\n        /* \"#utility.yul\":5999:6221   */\n      swap3\n      swap2\n      pop\n      pop\n      jump\t// out\n        /* \"#utility.yul\":6227:6556   */\n    tag_44:\n        /* \"#utility.yul\":6286:6292   */\n      0x00\n        /* \"#utility.yul\":6335:6337   */\n      0x20\n        /* \"#utility.yul\":6323:6332   */\n      dup3\n        /* \"#utility.yul\":6314:6321   */\n      dup5\n        /* \"#utility.yul\":6310:6333   */\n      sub\n        /* \"#utility.yul\":6306:6338   */\n      slt\n        /* \"#utility.yul\":6303:6422   */\n      iszero\n      tag_222\n      jumpi\n        /* \"#utility.yul\":6341:6420   */\n      tag_223\n      tag_100\n      jump\t// in\n    tag_223:\n        /* \"#utility.yul\":6303:6422   */\n    tag_222:\n        /* \"#utility.yul\":6461:6462   */\n      0x00\n        /* \"#utility.yul\":6486:6539   */\n      tag_224\n        /* \"#utility.yul\":6531:6538   */\n      dup5\n        /* \"#utility.yul\":6522:6528   */\n      dup3\n        /* \"#utility.yul\":6511:6520   */\n      dup6\n        /* \"#utility.yul\":6507:6529   */\n      add\n        /* \"#utility.yul\":6486:6539   */\n      tag_105\n      jump\t// in\n    tag_224:\n        /* \"#utility.yul\":6476:6539   */\n      swap2\n      pop\n        /* \"#utility.yul\":6432:6549   */\n      pop\n        /* \"#utility.yul\":6227:6556   */\n      swap3\n      swap2\n      pop\n      pop\n      jump\t// out\n        /* \"#utility.yul\":6562:6686   */\n    tag_124:\n        /* \"#utility.yul\":6639:6645   */\n      0x00\n        /* \"#utility.yul\":6673:6678   */\n      dup2\n        /* \"#utility.yul\":6667:6679   */\n      mload\n        /* \"#utility.yul\":6657:6679   */\n      swap1\n      pop\n        /* \"#utility.yul\":6562:6686   */\n      swap2\n      swap1\n      pop\n      jump\t// out\n        /* \"#utility.yul\":6692:6886   */\n    tag_125:\n        /* \"#utility.yul\":6801:6812   */\n      0x00\n        /* \"#utility.yul\":6835:6841   */\n      dup3\n        /* \"#utility.yul\":6830:6833   */\n      dup3\n        /* \"#utility.yul\":6823:6842   */\n      mstore\n        /* \"#utility.yul\":6875:6879   */\n      0x20\n        /* \"#utility.yul\":6870:6873   */\n      dup3\n        /* \"#utility.yul\":6866:6880   */\n      add\n        /* \"#utility.yul\":6851:6880   */\n      swap1\n      pop\n        /* \"#utility.yul\":6692:6886   */\n      swap3\n      swap2\n      pop\n      pop\n      jump\t// out\n        /* \"#utility.yul\":6892:7034   */\n    tag_126:\n        /* \"#utility.yul\":6969:6973   */\n      0x00\n        /* \"#utility.yul\":6992:6995   */\n      dup2\n        /* \"#utility.yul\":6984:6995   */\n      swap1\n      pop\n        /* \"#utility.yul\":7022:7026   */\n      0x20\n        /* \"#utility.yul\":7017:7020   */\n      dup3\n        /* \"#utility.yul\":7013:7027   */\n      add\n        /* \"#utility.yul\":7005:7027   */\n      swap1\n      pop\n        /* \"#utility.yul\":6892:7034   */\n      swap2\n      swap1\n      pop\n      jump\t// out\n        /* \"#utility.yul\":7040:7199   */\n    tag_127:\n        /* \"#utility.yul\":7114:7125   */\n      0x00\n        /* \"#utility.yul\":7148:7154   */\n      dup3\n        /* \"#utility.yul\":7143:7146   */\n      dup3\n        /* \"#utility.yul\":7136:7155   */\n      mstore\n        /* \"#utility.yul\":7188:7192   */\n      0x20\n        /* \"#utility.yul\":7183:7186   */\n      dup3\n        /* \"#utility.yul\":7179:7193   */\n      add\n        /* \"#utility.yul\":7164:7193   */\n      swap1\n      pop\n        /* \"#utility.yul\":7040:7199   */\n      swap3\n      swap2\n      pop\n      pop\n      jump\t// out\n        /* \"#utility.yul\":7205:7562   */\n    tag_128:\n        /* \"#utility.yul\":7283:7286   */\n      0x00\n        /* \"#utility.yul\":7311:7350   */\n      tag_230\n        /* \"#utility.yul\":7344:7349   */\n      dup3\n        /* \"#utility.yul\":7311:7350   */\n      tag_109\n      jump\t// in\n    tag_230:\n        /* \"#utility.yul\":7366:7427   */\n      tag_231\n        /* \"#utility.yul\":7420:7426   */\n      dup2\n        /* \"#utility.yul\":7415:7418   */\n      dup6\n        /* \"#utility.yul\":7366:7427   */\n      tag_127\n      jump\t// in\n    tag_231:\n        /* \"#utility.yul\":7359:7427   */\n      swap4\n      pop\n        /* \"#utility.yul\":7436:7501   */\n      tag_232\n        /* \"#utility.yul\":7494:7500   */\n      dup2\n        /* \"#utility.yul\":7489:7492   */\n      dup6\n        /* \"#utility.yul\":7482:7486   */\n      0x20\n        /* \"#utility.yul\":7475:7480   */\n      dup7\n        /* \"#utility.yul\":7471:7487   */\n      add\n        /* \"#utility.yul\":7436:7501   */\n      tag_111\n      jump\t// in\n    tag_232:\n        /* \"#utility.yul\":7526:7555   */\n      tag_233\n        /* \"#utility.yul\":7548:7554   */\n      dup2\n        /* \"#utility.yul\":7526:7555   */\n      tag_112\n      jump\t// in\n    tag_233:\n        /* \"#utility.yul\":7521:7524   */\n      dup5\n        /* \"#utility.yul\":7517:7556   */\n      add\n        /* \"#utility.yul\":7510:7556   */\n      swap2\n      pop\n        /* \"#utility.yul\":7287:7562   */\n      pop\n        /* \"#utility.yul\":7205:7562   */\n      swap3\n      swap2\n      pop\n      pop\n      jump\t// out\n        /* \"#utility.yul\":7568:7764   */\n    tag_129:\n        /* \"#utility.yul\":7657:7667   */\n      0x00\n        /* \"#utility.yul\":7692:7758   */\n      tag_235\n        /* \"#utility.yul\":7754:7757   */\n      dup4\n        /* \"#utility.yul\":7746:7752   */\n      dup4\n        /* \"#utility.yul\":7692:7758   */\n      tag_128\n      jump\t// in\n    tag_235:\n        /* \"#utility.yul\":7678:7758   */\n      swap1\n      pop\n        /* \"#utility.yul\":7568:7764   */\n      swap3\n      swap2\n      pop\n      pop\n      jump\t// out\n        /* \"#utility.yul\":7770:7893   */\n    tag_130:\n        /* \"#utility.yul\":7850:7854   */\n      0x00\n        /* \"#utility.yul\":7882:7886   */\n      0x20\n        /* \"#utility.yul\":7877:7880   */\n      dup3\n        /* \"#utility.yul\":7873:7887   */\n      add\n        /* \"#utility.yul\":7865:7887   */\n      swap1\n      pop\n        /* \"#utility.yul\":7770:7893   */\n      swap2\n      swap1\n      pop\n      jump\t// out\n        /* \"#utility.yul\":7927:8918   */\n    tag_131:\n        /* \"#utility.yul\":8066:8069   */\n      0x00\n        /* \"#utility.yul\":8095:8159   */\n      tag_238\n        /* \"#utility.yul\":8153:8158   */\n      dup3\n        /* \"#utility.yul\":8095:8159   */\n      tag_124\n      jump\t// in\n    tag_238:\n        /* \"#utility.yul\":8175:8271   */\n      tag_239\n        /* \"#utility.yul\":8264:8270   */\n      dup2\n        /* \"#utility.yul\":8259:8262   */\n      dup6\n        /* \"#utility.yul\":8175:8271   */\n      tag_125\n      jump\t// in\n    tag_239:\n        /* \"#utility.yul\":8168:8271   */\n      swap4\n      pop\n        /* \"#utility.yul\":8297:8300   */\n      dup4\n        /* \"#utility.yul\":8342:8346   */\n      0x20\n        /* \"#utility.yul\":8334:8340   */\n      dup3\n        /* \"#utility.yul\":8330:8347   */\n      mul\n        /* \"#utility.yul\":8325:8328   */\n      dup6\n        /* \"#utility.yul\":8321:8348   */\n      add\n        /* \"#utility.yul\":8372:8438   */\n      tag_240\n        /* \"#utility.yul\":8432:8437   */\n      dup6\n        /* \"#utility.yul\":8372:8438   */\n      tag_126\n      jump\t// in\n    tag_240:\n        /* \"#utility.yul\":8461:8468   */\n      dup1\n        /* \"#utility.yul\":8492:8493   */\n      0x00\n        /* \"#utility.yul\":8477:8873   */\n    tag_241:\n        /* \"#utility.yul\":8502:8508   */\n      dup6\n        /* \"#utility.yul\":8499:8500   */\n      dup2\n        /* \"#utility.yul\":8496:8509   */\n      lt\n        /* \"#utility.yul\":8477:8873   */\n      iszero\n      tag_243\n      jumpi\n        /* \"#utility.yul\":8573:8582   */\n      dup5\n        /* \"#utility.yul\":8567:8571   */\n      dup5\n        /* \"#utility.yul\":8563:8583   */\n      sub\n        /* \"#utility.yul\":8558:8561   */\n      dup10\n        /* \"#utility.yul\":8551:8584   */\n      mstore\n        /* \"#utility.yul\":8624:8630   */\n      dup2\n        /* \"#utility.yul\":8618:8631   */\n      mload\n        /* \"#utility.yul\":8652:8736   */\n      tag_244\n        /* \"#utility.yul\":8731:8735   */\n      dup6\n        /* \"#utility.yul\":8716:8729   */\n      dup3\n        /* \"#utility.yul\":8652:8736   */\n      tag_129\n      jump\t// in\n    tag_244:\n        /* \"#utility.yul\":8644:8736   */\n      swap5\n      pop\n        /* \"#utility.yul\":8759:8829   */\n      tag_245\n        /* \"#utility.yul\":8822:8828   */\n      dup4\n        /* \"#utility.yul\":8759:8829   */\n      tag_130\n      jump\t// in\n    tag_245:\n        /* \"#utility.yul\":8749:8829   */\n      swap3\n      pop\n        /* \"#utility.yul\":8858:8862   */\n      0x20\n        /* \"#utility.yul\":8853:8856   */\n      dup11\n        /* \"#utility.yul\":8849:8863   */\n      add\n        /* \"#utility.yul\":8842:8863   */\n      swap10\n      pop\n        /* \"#utility.yul\":8537:8873   */\n      pop\n        /* \"#utility.yul\":8524:8525   */\n      0x01\n        /* \"#utility.yul\":8521:8522   */\n      dup2\n        /* \"#utility.yul\":8517:8526   */\n      add\n        /* \"#utility.yul\":8512:8526   */\n      swap1\n      pop\n        /* \"#utility.yul\":8477:8873   */\n      jump(tag_241)\n    tag_243:\n        /* \"#utility.yul\":8481:8495   */\n      pop\n        /* \"#utility.yul\":8889:8893   */\n      dup3\n        /* \"#utility.yul\":8882:8893   */\n      swap8\n      pop\n        /* \"#utility.yul\":8909:8912   */\n      dup8\n        /* \"#utility.yul\":8902:8912   */\n      swap6\n      pop\n        /* \"#utility.yul\":8071:8918   */\n      pop\n      pop\n      pop\n      pop\n      pop\n        /* \"#utility.yul\":7927:8918   */\n      swap3\n      swap2\n      pop\n      pop\n      jump\t// out\n        /* \"#utility.yul\":8924:9337   */\n    tag_47:\n        /* \"#utility.yul\":9087:9091   */\n      0x00\n        /* \"#utility.yul\":9125:9127   */\n      0x20\n        /* \"#utility.yul\":9114:9123   */\n      dup3\n        /* \"#utility.yul\":9110:9128   */\n      add\n        /* \"#utility.yul\":9102:9128   */\n      swap1\n      pop\n        /* \"#utility.yul\":9174:9183   */\n      dup2\n        /* \"#utility.yul\":9168:9172   */\n      dup2\n        /* \"#utility.yul\":9164:9184   */\n      sub\n        /* \"#utility.yul\":9160:9161   */\n      0x00\n        /* \"#utility.yul\":9149:9158   */\n      dup4\n        /* \"#utility.yul\":9145:9162   */\n      add\n        /* \"#utility.yul\":9138:9185   */\n      mstore\n        /* \"#utility.yul\":9202:9330   */\n      tag_247\n        /* \"#utility.yul\":9325:9329   */\n      dup2\n        /* \"#utility.yul\":9316:9322   */\n      dup5\n        /* \"#utility.yul\":9202:9330   */\n      tag_131\n      jump\t// in\n    tag_247:\n        /* \"#utility.yul\":9194:9330   */\n      swap1\n      pop\n        /* \"#utility.yul\":8924:9337   */\n      swap3\n      swap2\n      pop\n      pop\n      jump\t// out\n        /* \"#utility.yul\":9343:9523   */\n    tag_132:\n        /* \"#utility.yul\":9391:9468   */\n      0x4e487b7100000000000000000000000000000000000000000000000000000000\n        /* \"#utility.yul\":9388:9389   */\n      0x00\n        /* \"#utility.yul\":9381:9469   */\n      mstore\n        /* \"#utility.yul\":9488:9492   */\n      0x22\n        /* \"#utility.yul\":9485:9486   */\n      0x04\n        /* \"#utility.yul\":9478:9493   */\n      mstore\n        /* \"#utility.yul\":9512:9516   */\n      0x24\n        /* \"#utility.yul\":9509:9510   */\n      0x00\n        /* \"#utility.yul\":9502:9517   */\n      revert\n        /* \"#utility.yul\":9529:9849   */\n    tag_51:\n        /* \"#utility.yul\":9573:9579   */\n      0x00\n        /* \"#utility.yul\":9610:9611   */\n      0x02\n        /* \"#utility.yul\":9604:9608   */\n      dup3\n        /* \"#utility.yul\":9600:9612   */\n      div\n        /* \"#utility.yul\":9590:9612   */\n      swap1\n      pop\n        /* \"#utility.yul\":9657:9658   */\n      0x01\n        /* \"#utility.yul\":9651:9655   */\n      dup3\n        /* \"#utility.yul\":9647:9659   */\n      and\n        /* \"#utility.yul\":9678:9696   */\n      dup1\n        /* \"#utility.yul\":9668:9749   */\n      tag_250\n      jumpi\n        /* \"#utility.yul\":9734:9738   */\n      0x7f\n        /* \"#utility.yul\":9726:9732   */\n      dup3\n        /* \"#utility.yul\":9722:9739   */\n      and\n        /* \"#utility.yul\":9712:9739   */\n      swap2\n      pop\n        /* \"#utility.yul\":9668:9749   */\n    tag_250:\n        /* \"#utility.yul\":9796:9798   */\n      0x20\n        /* \"#utility.yul\":9788:9794   */\n      dup3\n        /* \"#utility.yul\":9785:9799   */\n      lt\n        /* \"#utility.yul\":9765:9783   */\n      dup2\n        /* \"#utility.yul\":9762:9800   */\n      sub\n        /* \"#utility.yul\":9759:9843   */\n      tag_251\n      jumpi\n        /* \"#utility.yul\":9815:9833   */\n      tag_252\n      tag_132\n      jump\t// in\n    tag_252:\n        /* \"#utility.yul\":9759:9843   */\n    tag_251:\n        /* \"#utility.yul\":9580:9849   */\n      pop\n        /* \"#utility.yul\":9529:9849   */\n      swap2\n      swap1\n      pop\n      jump\t// out\n        /* \"#utility.yul\":9855:10035   */\n    tag_59:\n        /* \"#utility.yul\":9903:9980   */\n      0x4e487b7100000000000000000000000000000000000000000000000000000000\n        /* \"#utility.yul\":9900:9901   */\n      0x00\n        /* \"#utility.yul\":9893:9981   */\n      mstore\n        /* \"#utility.yul\":10000:10004   */\n      0x32\n        /* \"#utility.yul\":9997:9998   */\n      0x04\n        /* \"#utility.yul\":9990:10005   */\n      mstore\n        /* \"#utility.yul\":10024:10028   */\n      0x24\n        /* \"#utility.yul\":10021:10022   */\n      0x00\n        /* \"#utility.yul\":10014:10029   */\n      revert\n        /* \"#utility.yul\":10041:10182   */\n    tag_133:\n        /* \"#utility.yul\":10090:10094   */\n      0x00\n        /* \"#utility.yul\":10113:10116   */\n      dup2\n        /* \"#utility.yul\":10105:10116   */\n      swap1\n      pop\n        /* \"#utility.yul\":10136:10139   */\n      dup2\n        /* \"#utility.yul\":10133:10134   */\n      0x00\n        /* \"#utility.yul\":10126:10140   */\n      mstore\n        /* \"#utility.yul\":10170:10174   */\n      0x20\n        /* \"#utility.yul\":10167:10168   */\n      0x00\n        /* \"#utility.yul\":10157:10175   */\n      keccak256\n        /* \"#utility.yul\":10149:10175   */\n      swap1\n      pop\n        /* \"#utility.yul\":10041:10182   */\n      swap2\n      swap1\n      pop\n      jump\t// out\n        /* \"#utility.yul\":10188:10281   */\n    tag_134:\n        /* \"#utility.yul\":10225:10231   */\n      0x00\n        /* \"#utility.yul\":10272:10274   */\n      0x20\n        /* \"#utility.yul\":10267:10269   */\n      0x1f\n        /* \"#utility.yul\":10260:10265   */\n      dup4\n        /* \"#utility.yul\":10256:10270   */\n      add\n        /* \"#utility.yul\":10252:10275   */\n      div\n        /* \"#utility.yul\":10242:10275   */\n      swap1\n      pop\n        /* \"#utility.yul\":10188:10281   */\n      swap2\n      swap1\n      pop\n      jump\t// out\n        /* \"#utility.yul\":10287:10394   */\n    tag_135:\n        /* \"#utility.yul\":10331:10339   */\n      0x00\n        /* \"#utility.yul\":10381:10386   */\n      dup3\n        /* \"#utility.yul\":10375:10379   */\n      dup3\n        /* \"#utility.yul\":10371:10387   */\n      shl\n        /* \"#utility.yul\":10350:10387   */\n      swap1\n      pop\n        /* \"#utility.yul\":10287:10394   */\n      swap3\n      swap2\n      pop\n      pop\n      jump\t// out\n        /* \"#utility.yul\":10400:10793   */\n    tag_136:\n        /* \"#utility.yul\":10469:10475   */\n      0x00\n        /* \"#utility.yul\":10519:10520   */\n      0x08\n        /* \"#utility.yul\":10507:10517   */\n      dup4\n        /* \"#utility.yul\":10503:10521   */\n      mul\n        /* \"#utility.yul\":10542:10639   */\n      tag_258\n        /* \"#utility.yul\":10572:10638   */\n      0xffffffffffffffffffffffffffffffffffffffffffffffffffffffffffffffff\n        /* \"#utility.yul\":10561:10570   */\n      dup3\n        /* \"#utility.yul\":10542:10639   */\n      tag_135\n      jump\t// in\n    tag_258:\n        /* \"#utility.yul\":10660:10699   */\n      tag_259\n        /* \"#utility.yul\":10690:10698   */\n      dup7\n        /* \"#utility.yul\":10679:10688   */\n      dup4\n        /* \"#utility.yul\":10660:10699   */\n      tag_135\n      jump\t// in\n    tag_259:\n        /* \"#utility.yul\":10648:10699   */\n      swap6\n      pop\n        /* \"#utility.yul\":10732:10736   */\n      dup1\n        /* \"#utility.yul\":10728:10737   */\n      not\n        /* \"#utility.yul\":10721:10726   */\n      dup5\n        /* \"#utility.yul\":10717:10738   */\n      and\n        /* \"#utility.yul\":10708:10738   */\n      swap4\n      pop\n        /* \"#utility.yul\":10781:10785   */\n      dup1\n        /* \"#utility.yul\":10771:10779   */\n      dup7\n        /* \"#utility.yul\":10767:10786   */\n      and\n        /* \"#utility.yul\":10760:10765   */\n      dup5\n        /* \"#utility.yul\":10757:10787   */\n      or\n        /* \"#utility.yul\":10747:10787   */\n      swap3\n      pop\n        /* \"#utility.yul\":10476:10793   */\n      pop\n      pop\n        /* \"#utility.yul\":10400:10793   */\n      swap4\n      swap3\n      pop\n      pop\n      pop\n      jump\t// out\n        /* \"#utility.yul\":10799:10859   */\n    tag_137:\n        /* \"#utility.yul\":10827:10830   */\n      0x00\n        /* \"#utility.yul\":10848:10853   */\n      dup2\n        /* \"#utility.yul\":10841:10853   */\n      swap1\n      pop\n        /* \"#utility.yul\":10799:10859   */\n      swap2\n      swap1\n      pop\n      jump\t// out\n        /* \"#utility.yul\":10865:11007   */\n    tag_138:\n        /* \"#utility.yul\":10915:10924   */\n      0x00\n        /* \"#utility.yul\":10948:11001   */\n      tag_262\n        /* \"#utility.yul\":10966:11000   */\n      tag_263\n        /* \"#utility.yul\":10975:10999   */\n      tag_264\n        /* \"#utility.yul\":10993:10998   */\n      dup5\n        /* \"#utility.yul\":10975:10999   */\n      tag_106\n      jump\t// in\n    tag_264:\n        /* \"#utility.yul\":10966:11000   */\n      tag_137\n      jump\t// in\n    tag_263:\n        /* \"#utility.yul\":10948:11001   */\n      tag_106\n      jump\t// in\n    tag_262:\n        /* \"#utility.yul\":10935:11001   */\n      swap1\n      pop\n        /* \"#utility.yul\":10865:11007   */\n      swap2\n      swap1\n      pop\n      jump\t// out\n        /* \"#utility.yul\":11013:11088   */\n    tag_139:\n        /* \"#utility.yul\":11056:11059   */\n      0x00\n        /* \"#utility.yul\":11077:11082   */\n      dup2\n        /* \"#utility.yul\":11070:11082   */\n      swap1\n      pop\n        /* \"#utility.yul\":11013:11088   */\n      swap2\n      swap1\n      pop\n      jump\t// out\n        /* \"#utility.yul\":11094:11363   */\n    tag_140:\n        /* \"#utility.yul\":11204:11243   */\n      tag_267\n        /* \"#utility.yul\":11235:11242   */\n      dup4\n        /* \"#utility.yul\":11204:11243   */\n      tag_138\n      jump\t// in\n    tag_267:\n        /* \"#utility.yul\":11265:11356   */\n      tag_268\n        /* \"#utility.yul\":11314:11355   */\n      tag_269\n        /* \"#utility.yul\":11338:11354   */\n      dup3\n        /* \"#utility.yul\":11314:11355   */\n      tag_139\n      jump\t// in\n    tag_269:\n        /* \"#utility.yul\":11306:11312   */\n      dup5\n        /* \"#utility.yul\":11299:11303   */\n      dup5\n        /* \"#utility.yul\":11293:11304   */\n      sload\n        /* \"#utility.yul\":11265:11356   */\n      tag_136\n      jump\t// in\n    tag_268:\n        /* \"#utility.yul\":11259:11263   */\n      dup3\n        /* \"#utility.yul\":11252:11357   */\n      sstore\n        /* \"#utility.yul\":11170:11363   */\n      pop\n        /* \"#utility.yul\":11094:11363   */\n      pop\n      pop\n      pop\n      jump\t// out\n        /* \"#utility.yul\":11369:11442   */\n    tag_141:\n        /* \"#utility.yul\":11414:11417   */\n      0x00\n        /* \"#utility.yul\":11435:11436   */\n      0x00\n        /* \"#utility.yul\":11428:11436   */\n      swap1\n      pop\n        /* \"#utility.yul\":11369:11442   */\n      swap1\n      jump\t// out\n        /* \"#utility.yul\":11448:11637   */\n    tag_142:\n        /* \"#utility.yul\":11525:11557   */\n      tag_272\n      tag_141\n      jump\t// in\n    tag_272:\n        /* \"#utility.yul\":11566:11631   */\n      tag_273\n        /* \"#utility.yul\":11624:11630   */\n      dup2\n        /* \"#utility.yul\":11616:11622   */\n      dup5\n        /* \"#utility.yul\":11610:11614   */\n      dup5\n        /* \"#utility.yul\":11566:11631   */\n      tag_140\n      jump\t// in\n    tag_273:\n        /* \"#utility.yul\":11501:11637   */\n      pop\n        /* \"#utility.yul\":11448:11637   */\n      pop\n      pop\n      jump\t// out\n        /* \"#utility.yul\":11643:11829   */\n    tag_143:\n        /* \"#utility.yul\":11703:11823   */\n    tag_275:\n        /* \"#utility.yul\":11720:11723   */\n      dup2\n        /* \"#utility.yul\":11713:11718   */\n      dup2\n        /* \"#utility.yul\":11710:11724   */\n      lt\n        /* \"#utility.yul\":11703:11823   */\n      iszero\n      tag_277\n      jumpi\n        /* \"#utility.yul\":11774:11813   */\n      tag_278\n        /* \"#utility.yul\":11811:11812   */\n      0x00\n        /* \"#utility.yul\":11804:11809   */\n      dup3\n        /* \"#utility.yul\":11774:11813   */\n      tag_142\n      jump\t// in\n    tag_278:\n        /* \"#utility.yul\":11747:11748   */\n      0x01\n        /* \"#utility.yul\":11740:11745   */\n      dup2\n        /* \"#utility.yul\":11736:11749   */\n      add\n        /* \"#utility.yul\":11727:11749   */\n      swap1\n      pop\n        /* \"#utility.yul\":11703:11823   */\n      jump(tag_275)\n    tag_277:\n        /* \"#utility.yul\":11643:11829   */\n      pop\n      pop\n      jump\t// out\n        /* \"#utility.yul\":11835:12378   */\n    tag_144:\n        /* \"#utility.yul\":11936:11938   */\n      0x1f\n        /* \"#utility.yul\":11931:11934   */\n      dup3\n        /* \"#utility.yul\":11928:11939   */\n      gt\n        /* \"#utility.yul\":11925:12371   */\n      iszero\n      tag_280\n      jumpi\n        /* \"#utility.yul\":11970:12008   */\n      tag_281\n        /* \"#utility.yul\":12002:12007   */\n      dup2\n        /* \"#utility.yul\":11970:12008   */\n      tag_133\n      jump\t// in\n    tag_281:\n        /* \"#utility.yul\":12054:12083   */\n      tag_282\n        /* \"#utility.yul\":12072:12082   */\n      dup5\n        /* \"#utility.yul\":12054:12083   */\n      tag_134\n      jump\t// in\n    tag_282:\n        /* \"#utility.yul\":12044:12052   */\n      dup2\n        /* \"#utility.yul\":12040:12084   */\n      add\n        /* \"#utility.yul\":12237:12239   */\n      0x20\n        /* \"#utility.yul\":12225:12235   */\n      dup6\n        /* \"#utility.yul\":12222:12240   */\n      lt\n        /* \"#utility.yul\":12219:12268   */\n      iszero\n      tag_283\n      jumpi\n        /* \"#utility.yul\":12258:12266   */\n      dup2\n        /* \"#utility.yul\":12243:12266   */\n      swap1\n      pop\n        /* \"#utility.yul\":12219:12268   */\n    tag_283:\n        /* \"#utility.yul\":12281:12361   */\n      tag_284\n        /* \"#utility.yul\":12337:12359   */\n      tag_285\n        /* \"#utility.yul\":12355:12358   */\n      dup6\n        /* \"#utility.yul\":12337:12359   */\n      tag_134\n      jump\t// in\n    tag_285:\n        /* \"#utility.yul\":12327:12335   */\n      dup4\n        /* \"#utility.yul\":12323:12360   */\n      add\n        /* \"#utility.yul\":12310:12321   */\n      dup3\n        /* \"#utility.yul\":12281:12361   */\n      tag_143\n      jump\t// in\n    tag_284:\n        /* \"#utility.yul\":11940:12371   */\n      pop\n      pop\n        /* \"#utility.yul\":11925:12371   */\n    tag_280:\n        /* \"#utility.yul\":11835:12378   */\n      pop\n      pop\n      pop\n      jump\t// out\n        /* \"#utility.yul\":12384:12501   */\n    tag_145:\n        /* \"#utility.yul\":12438:12446   */\n      0x00\n        /* \"#utility.yul\":12488:12493   */\n      dup3\n        /* \"#utility.yul\":12482:12486   */\n      dup3\n        /* \"#utility.yul\":12478:12494   */\n      shr\n        /* \"#utility.yul\":12457:12494   */\n      swap1\n      pop\n        /* \"#utility.yul\":12384:12501   */\n      swap3\n      swap2\n      pop\n      pop\n      jump\t// out\n        /* \"#utility.yul\":12507:12676   */\n    tag_146:\n        /* \"#utility.yul\":12551:12557   */\n      0x00\n        /* \"#utility.yul\":12584:12635   */\n      tag_288\n        /* \"#utility.yul\":12632:12633   */\n      0x00\n        /* \"#utility.yul\":12628:12634   */\n      not\n        /* \"#utility.yul\":12620:12625   */\n      dup5\n        /* \"#utility.yul\":12617:12618   */\n      0x08\n        /* \"#utility.yul\":12613:12626   */\n      mul\n        /* \"#utility.yul\":12584:12635   */\n      tag_145\n      jump\t// in\n    tag_288:\n        /* \"#utility.yul\":12580:12636   */\n      not\n        /* \"#utility.yul\":12665:12669   */\n      dup1\n        /* \"#utility.yul\":12659:12663   */\n      dup4\n        /* \"#utility.yul\":12655:12670   */\n      and\n        /* \"#utility.yul\":12645:12670   */\n      swap2\n      pop\n        /* \"#utility.yul\":12558:12676   */\n      pop\n        /* \"#utility.yul\":12507:12676   */\n      swap3\n      swap2\n      pop\n      pop\n      jump\t// out\n        /* \"#utility.yul\":12681:12976   */\n    tag_147:\n        /* \"#utility.yul\":12757:12761   */\n      0x00\n        /* \"#utility.yul\":12903:12932   */\n      tag_290\n        /* \"#utility.yul\":12928:12931   */\n      dup4\n        /* \"#utility.yul\":12922:12926   */\n      dup4\n        /* \"#utility.yul\":12903:12932   */\n      tag_146\n      jump\t// in\n    tag_290:\n        /* \"#utility.yul\":12895:12932   */\n      swap2\n      pop\n        /* \"#utility.yul\":12965:12968   */\n      dup3\n        /* \"#utility.yul\":12962:12963   */\n      0x02\n        /* \"#utility.yul\":12958:12969   */\n      mul\n        /* \"#utility.yul\":12952:12956   */\n      dup3\n        /* \"#utility.yul\":12949:12970   */\n      or\n        /* \"#utility.yul\":12941:12970   */\n      swap1\n      pop\n        /* \"#utility.yul\":12681:12976   */\n      swap3\n      swap2\n      pop\n      pop\n      jump\t// out\n        /* \"#utility.yul\":12981:14376   */\n    tag_69:\n        /* \"#utility.yul\":13098:13135   */\n      tag_292\n        /* \"#utility.yul\":13131:13134   */\n      dup3\n        /* \"#utility.yul\":13098:13135   */\n      tag_109\n      jump\t// in\n    tag_292:\n        /* \"#utility.yul\":13200:13218   */\n      0xffffffffffffffff\n        /* \"#utility.yul\":13192:13198   */\n      dup2\n        /* \"#utility.yul\":13189:13219   */\n      gt\n        /* \"#utility.yul\":13186:13242   */\n      iszero\n      tag_293\n      jumpi\n        /* \"#utility.yul\":13222:13240   */\n      tag_294\n      tag_116\n      jump\t// in\n    tag_294:\n        /* \"#utility.yul\":13186:13242   */\n    tag_293:\n        /* \"#utility.yul\":13266:13304   */\n      tag_295\n        /* \"#utility.yul\":13298:13302   */\n      dup3\n        /* \"#utility.yul\":13292:13303   */\n      sload\n        /* \"#utility.yul\":13266:13304   */\n      tag_51\n      jump\t// in\n    tag_295:\n        /* \"#utility.yul\":13351:13418   */\n      tag_296\n        /* \"#utility.yul\":13411:13417   */\n      dup3\n        /* \"#utility.yul\":13403:13409   */\n      dup3\n        /* \"#utility.yul\":13397:13401   */\n      dup6\n        /* \"#utility.yul\":13351:13418   */\n      tag_144\n      jump\t// in\n    tag_296:\n        /* \"#utility.yul\":13445:13446   */\n      0x00\n        /* \"#utility.yul\":13469:13473   */\n      0x20\n        /* \"#utility.yul\":13456:13473   */\n      swap1\n      pop\n        /* \"#utility.yul\":13501:13503   */\n      0x1f\n        /* \"#utility.yul\":13493:13499   */\n      dup4\n        /* \"#utility.yul\":13490:13504   */\n      gt\n        /* \"#utility.yul\":13518:13519   */\n      0x01\n        /* \"#utility.yul\":13513:14131   */\n      dup2\n      eq\n      tag_298\n      jumpi\n        /* \"#utility.yul\":14175:14176   */\n      0x00\n        /* \"#utility.yul\":14192:14198   */\n      dup5\n        /* \"#utility.yul\":14189:14266   */\n      iszero\n      tag_299\n      jumpi\n        /* \"#utility.yul\":14241:14250   */\n      dup3\n        /* \"#utility.yul\":14236:14239   */\n      dup8\n        /* \"#utility.yul\":14232:14251   */\n      add\n        /* \"#utility.yul\":14226:14252   */\n      mload\n        /* \"#utility.yul\":14217:14252   */\n      swap1\n      pop\n        /* \"#utility.yul\":14189:14266   */\n    tag_299:\n        /* \"#utility.yul\":14292:14359   */\n      tag_300\n        /* \"#utility.yul\":14352:14358   */\n      dup6\n        /* \"#utility.yul\":14345:14350   */\n      dup3\n        /* \"#utility.yul\":14292:14359   */\n      tag_147\n      jump\t// in\n    tag_300:\n        /* \"#utility.yul\":14286:14290   */\n      dup7\n        /* \"#utility.yul\":14279:14360   */\n      sstore\n        /* \"#utility.yul\":14148:14370   */\n      pop\n        /* \"#utility.yul\":13483:14370   */\n      jump(tag_297)\n        /* \"#utility.yul\":13513:14131   */\n    tag_298:\n        /* \"#utility.yul\":13565:13569   */\n      0x1f\n        /* \"#utility.yul\":13561:13570   */\n      not\n        /* \"#utility.yul\":13553:13559   */\n      dup5\n        /* \"#utility.yul\":13549:13571   */\n      and\n        /* \"#utility.yul\":13599:13636   */\n      tag_301\n        /* \"#utility.yul\":13631:13635   */\n      dup7\n        /* \"#utility.yul\":13599:13636   */\n      tag_133\n      jump\t// in\n    tag_301:\n        /* \"#utility.yul\":13658:13659   */\n      0x00\n        /* \"#utility.yul\":13672:13880   */\n    tag_302:\n        /* \"#utility.yul\":13686:13693   */\n      dup3\n        /* \"#utility.yul\":13683:13684   */\n      dup2\n        /* \"#utility.yul\":13680:13694   */\n      lt\n        /* \"#utility.yul\":13672:13880   */\n      iszero\n      tag_304\n      jumpi\n        /* \"#utility.yul\":13765:13774   */\n      dup5\n        /* \"#utility.yul\":13760:13763   */\n      dup10\n        /* \"#utility.yul\":13756:13775   */\n      add\n        /* \"#utility.yul\":13750:13776   */\n      mload\n        /* \"#utility.yul\":13742:13748   */\n      dup3\n        /* \"#utility.yul\":13735:13777   */\n      sstore\n        /* \"#utility.yul\":13816:13817   */\n      0x01\n        /* \"#utility.yul\":13808:13814   */\n      dup3\n        /* \"#utility.yul\":13804:13818   */\n      add\n        /* \"#utility.yul\":13794:13818   */\n      swap2\n      pop\n        /* \"#utility.yul\":13863:13865   */\n      0x20\n        /* \"#utility.yul\":13852:13861   */\n      dup6\n        /* \"#utility.yul\":13848:13866   */\n      add\n        /* \"#utility.yul\":13835:13866   */\n      swap5\n      pop\n        /* \"#utility.yul\":13709:13713   */\n      0x20\n        /* \"#utility.yul\":13706:13707   */\n      dup2\n        /* \"#utility.yul\":13702:13714   */\n      add\n        /* \"#utility.yul\":13697:13714   */\n      swap1\n      pop\n        /* \"#utility.yul\":13672:13880   */\n      jump(tag_302)\n    tag_304:\n        /* \"#utility.yul\":13908:13914   */\n      dup7\n        /* \"#utility.yul\":13899:13906   */\n      dup4\n        /* \"#utility.yul\":13896:13915   */\n      lt\n        /* \"#utility.yul\":13893:14072   */\n      iszero\n      tag_305\n      jumpi\n        /* \"#utility.yul\":13966:13975   */\n      dup5\n        /* \"#utility.yul\":13961:13964   */\n      dup10\n        /* \"#utility.yul\":13957:13976   */\n      add\n        /* \"#utility.yul\":13951:13977   */\n      mload\n        /* \"#utility.yul\":14009:14057   */\n      tag_306\n        /* \"#utility.yul\":14051:14055   */\n      0x1f\n        /* \"#utility.yul\":14043:14049   */\n      dup10\n        /* \"#utility.yul\":14039:14056   */\n      and\n        /* \"#utility.yul\":14028:14037   */\n      dup3\n        /* \"#utility.yul\":14009:14057   */\n      tag_146\n      jump\t// in\n    tag_306:\n        /* \"#utility.yul\":14001:14007   */\n      dup4\n        /* \"#utility.yul\":13994:14058   */\n      sstore\n        /* \"#utility.yul\":13916:14072   */\n      pop\n        /* \"#utility.yul\":13893:14072   */\n    tag_305:\n        /* \"#utility.yul\":14118:14119   */\n      0x01\n        /* \"#utility.yul\":14114:14115   */\n      0x02\n        /* \"#utility.yul\":14106:14112   */\n      dup9\n        /* \"#utility.yul\":14102:14116   */\n      mul\n        /* \"#utility.yul\":14098:14120   */\n      add\n        /* \"#utility.yul\":14092:14096   */\n      dup9\n        /* \"#utility.yul\":14085:14121   */\n      sstore\n        /* \"#utility.yul\":13520:14131   */\n      pop\n      pop\n      pop\n        /* \"#utility.yul\":13483:14370   */\n    tag_297:\n      pop\n        /* \"#utility.yul\":13073:14376   */\n      pop\n      pop\n      pop\n        /* \"#utility.yul\":12981:14376   */\n      pop\n      pop\n      jump\t// out\n\n    auxdata: 0xa264697066735822122070b380136d33d081e9297b9dcbd37ccefbadecec50d4b3ec8837cfec6e484a0e64736f6c634300081f0033\n}\n",
				"bytecode": {
					"linkReferences": {},
					"object": "608060405260405180606001604052806040518060400160405280600481526020017f6c696b650000000000000000000000000000000000000000000000000000000081525081526020016040518060400160405280600581526020017f7265706c7900000000000000000000000000000000000000000000000000000081525081526020016040518060400160405280600781526020017f726573686172650000000000000000000000000000000000000000000000000081525081525060019060036100ce9291906100e0565b503480156100da575f5ffd5b506104be565b828054828255905f5260205f20908101928215610126579160200282015b8281111561012557825182908161011591906103ef565b50916020019190600101906100fe565b5b5090506101339190610137565b5090565b5b80821115610156575f818161014d919061015a565b50600101610138565b5090565b50805461016690610216565b5f825580601f106101775750610194565b601f0160209004905f5260205f20908101906101939190610197565b5b50565b5b808211156101ae575f815f905550600101610198565b5090565b5f81519050919050565b7f4e487b71000000000000000000000000000000000000000000000000000000005f52604160045260245ffd5b7f4e487b71000000000000000000000000000000000000000000000000000000005f52602260045260245ffd5b5f600282049050600182168061022d57607f821691505b6020821081036102405761023f6101e9565b5b50919050565b5f819050815f5260205f209050919050565b5f6020601f8301049050919050565b5f82821b905092915050565b5f600883026102a27fffffffffffffffffffffffffffffffffffffffffffffffffffffffffffffffff82610267565b6102ac8683610267565b95508019841693508086168417925050509392505050565b5f819050919050565b5f819050919050565b5f6102f06102eb6102e6846102c4565b6102cd565b6102c4565b9050919050565b5f819050919050565b610309836102d6565b61031d610315826102f7565b848454610273565b825550505050565b5f5f905090565b610334610325565b61033f818484610300565b505050565b5b81811015610362576103575f8261032c565b600181019050610345565b5050565b601f8211156103a75761037881610246565b61038184610258565b81016020851015610390578190505b6103a461039c85610258565b830182610344565b50505b505050565b5f82821c905092915050565b5f6103c75f19846008026103ac565b1980831691505092915050565b5f6103df83836103b8565b9150826002028217905092915050565b6103f8826101b2565b67ffffffffffffffff811115610411576104106101bc565b5b61041b8254610216565b610426828285610366565b5f60209050601f831160018114610457575f8415610445578287015190505b61044f85826103d4565b8655506104b6565b601f19841661046586610246565b5f5b8281101561048c57848901518255600182019150602085019450602081019050610467565b868310156104a957848901516104a5601f8916826103b8565b8355505b6001600288020188555050505b505050505050565b610e28806104cb5f395ff3fe608060405234801561000f575f5ffd5b5060043610610086575f3560e01c806383240f831161005957806383240f8314610122578063b6e7687314610152578063e78c65aa14610182578063ff5c520d146101a057610086565b806305a1b4a91461008a578063112f54e3146100ba57806378977bf4146100ea5780637c9cd2bc14610106575b5f5ffd5b6100a4600480360381019061009f9190610717565b6101d0565b6040516100b191906107c5565b60405180910390f35b6100d460048036038101906100cf9190610717565b610280565b6040516100e191906107c5565b60405180910390f35b61010460048036038101906100ff9190610911565b610367565b005b610120600480360381019061011b9190610911565b61039c565b005b61013c60048036038101906101379190610958565b61040b565b60405161014991906107c5565b60405180910390f35b61016c60048036038101906101679190610958565b6104b1565b60405161017991906107c5565b60405180910390f35b61018a61055d565b6040516101979190610992565b60405180910390f35b6101ba60048036038101906101b591906109ab565b610569565b6040516101c79190610ad9565b60405180910390f35b5f602052815f5260405f2081815481106101e8575f80fd5b905f5260205f20015f9150915050805461020190610b26565b80601f016020809104026020016040519081016040528092919081815260200182805461022d90610b26565b80156102785780601f1061024f57610100808354040283529160200191610278565b820191905f5260205f20905b81548152906001019060200180831161025b57829003601f168201915b505050505081565b60605f5f8473ffffffffffffffffffffffffffffffffffffffff1673ffffffffffffffffffffffffffffffffffffffff1681526020019081526020015f2082815481106102d0576102cf610b56565b5b905f5260205f200180546102e390610b26565b80601f016020809104026020016040519081016040528092919081815260200182805461030f90610b26565b801561035a5780601f106103315761010080835404028352916020019161035a565b820191905f5260205f20905b81548152906001019060200180831161033d57829003601f168201915b5050505050905092915050565b600181908060018154018082558091505060019003905f5260205f20015f9091909190915090816103989190610d23565b5050565b5f5f3373ffffffffffffffffffffffffffffffffffffffff1673ffffffffffffffffffffffffffffffffffffffff1681526020019081526020015f2081908060018154018082558091505060019003905f5260205f20015f9091909190915090816104079190610d23565b5050565b6001818154811061041a575f80fd5b905f5260205f20015f91509050805461043290610b26565b80601f016020809104026020016040519081016040528092919081815260200182805461045e90610b26565b80156104a95780601f10610480576101008083540402835291602001916104a9565b820191905f5260205f20905b81548152906001019060200180831161048c57829003601f168201915b505050505081565b6060600182815481106104c7576104c6610b56565b5b905f5260205f200180546104da90610b26565b80601f016020809104026020016040519081016040528092919081815260200182805461050690610b26565b80156105515780601f1061052857610100808354040283529160200191610551565b820191905f5260205f20905b81548152906001019060200180831161053457829003601f168201915b50505050509050919050565b5f600180549050905090565b60605f5f8373ffffffffffffffffffffffffffffffffffffffff1673ffffffffffffffffffffffffffffffffffffffff1681526020019081526020015f20805480602002602001604051908101604052809291908181526020015f905b8282101561066e578382905f5260205f200180546105e390610b26565b80601f016020809104026020016040519081016040528092919081815260200182805461060f90610b26565b801561065a5780601f106106315761010080835404028352916020019161065a565b820191905f5260205f20905b81548152906001019060200180831161063d57829003601f168201915b5050505050815260200190600101906105c6565b505050509050919050565b5f604051905090565b5f5ffd5b5f5ffd5b5f73ffffffffffffffffffffffffffffffffffffffff82169050919050565b5f6106b38261068a565b9050919050565b6106c3816106a9565b81146106cd575f5ffd5b50565b5f813590506106de816106ba565b92915050565b5f819050919050565b6106f6816106e4565b8114610700575f5ffd5b50565b5f81359050610711816106ed565b92915050565b5f5f6040838503121561072d5761072c610682565b5b5f61073a858286016106d0565b925050602061074b85828601610703565b9150509250929050565b5f81519050919050565b5f82825260208201905092915050565b8281835e5f83830152505050565b5f601f19601f8301169050919050565b5f61079782610755565b6107a1818561075f565b93506107b181856020860161076f565b6107ba8161077d565b840191505092915050565b5f6020820190508181035f8301526107dd818461078d565b905092915050565b5f5ffd5b5f5ffd5b7f4e487b71000000000000000000000000000000000000000000000000000000005f52604160045260245ffd5b6108238261077d565b810181811067ffffffffffffffff82111715610842576108416107ed565b5b80604052505050565b5f610854610679565b9050610860828261081a565b919050565b5f67ffffffffffffffff82111561087f5761087e6107ed565b5b6108888261077d565b9050602081019050919050565b828183375f83830152505050565b5f6108b56108b084610865565b61084b565b9050828152602081018484840111156108d1576108d06107e9565b5b6108dc848285610895565b509392505050565b5f82601f8301126108f8576108f76107e5565b5b81356109088482602086016108a3565b91505092915050565b5f6020828403121561092657610925610682565b5b5f82013567ffffffffffffffff81111561094357610942610686565b5b61094f848285016108e4565b91505092915050565b5f6020828403121561096d5761096c610682565b5b5f61097a84828501610703565b91505092915050565b61098c816106e4565b82525050565b5f6020820190506109a55f830184610983565b92915050565b5f602082840312156109c0576109bf610682565b5b5f6109cd848285016106d0565b91505092915050565b5f81519050919050565b5f82825260208201905092915050565b5f819050602082019050919050565b5f82825260208201905092915050565b5f610a1982610755565b610a2381856109ff565b9350610a3381856020860161076f565b610a3c8161077d565b840191505092915050565b5f610a528383610a0f565b905092915050565b5f602082019050919050565b5f610a70826109d6565b610a7a81856109e0565b935083602082028501610a8c856109f0565b805f5b85811015610ac75784840389528151610aa88582610a47565b9450610ab383610a5a565b925060208a01995050600181019050610a8f565b50829750879550505050505092915050565b5f6020820190508181035f830152610af18184610a66565b905092915050565b7f4e487b71000000000000000000000000000000000000000000000000000000005f52602260045260245ffd5b5f6002820490506001821680610b3d57607f821691505b602082108103610b5057610b4f610af9565b5b50919050565b7f4e487b71000000000000000000000000000000000000000000000000000000005f52603260045260245ffd5b5f819050815f5260205f209050919050565b5f6020601f8301049050919050565b5f82821b905092915050565b5f60088302610bdf7fffffffffffffffffffffffffffffffffffffffffffffffffffffffffffffffff82610ba4565b610be98683610ba4565b95508019841693508086168417925050509392505050565b5f819050919050565b5f610c24610c1f610c1a846106e4565b610c01565b6106e4565b9050919050565b5f819050919050565b610c3d83610c0a565b610c51610c4982610c2b565b848454610bb0565b825550505050565b5f5f905090565b610c68610c59565b610c73818484610c34565b505050565b5b81811015610c9657610c8b5f82610c60565b600181019050610c79565b5050565b601f821115610cdb57610cac81610b83565b610cb584610b95565b81016020851015610cc4578190505b610cd8610cd085610b95565b830182610c78565b50505b505050565b5f82821c905092915050565b5f610cfb5f1984600802610ce0565b1980831691505092915050565b5f610d138383610cec565b9150826002028217905092915050565b610d2c82610755565b67ffffffffffffffff811115610d4557610d446107ed565b5b610d4f8254610b26565b610d5a828285610c9a565b5f60209050601f831160018114610d8b575f8415610d79578287015190505b610d838582610d08565b865550610dea565b601f198416610d9986610b83565b5f5b82811015610dc057848901518255600182019150602085019450602081019050610d9b565b86831015610ddd5784890151610dd9601f891682610cec565b8355505b6001600288020188555050505b50505050505056fea264697066735822122070b380136d33d081e9297b9dcbd37ccefbadecec50d4b3ec8837cfec6e484a0e64736f6c634300081f0033",
					"opcodes": "PUSH1 0x80 PUSH1 0x40 MSTORE PUSH1 0x40 MLOAD DUP1 PUSH1 0x60 ADD PUSH1 0x40 MSTORE DUP1 PUSH1 0x40 MLOAD DUP1 PUSH1 0x40 ADD PUSH1 0x40 MSTORE DUP1 PUSH1 0x4 DUP2 MSTORE PUSH1 0x20 ADD PUSH32 0x6C696B6500000000000000000000000000000000000000000000000000000000 DUP2 MSTORE POP DUP2 MSTORE PUSH1 0x20 ADD PUSH1 0x40 MLOAD DUP1 PUSH1 0x40 ADD PUSH1 0x40 MSTORE DUP1 PUSH1 0x5 DUP2 MSTORE PUSH1 0x20 ADD PUSH32 0x7265706C79000000000000000000000000000000000000000000000000000000 DUP2 MSTORE POP DUP2 MSTORE PUSH1 0x20 ADD PUSH1 0x40 MLOAD DUP1 PUSH1 0x40 ADD PUSH1 0x40 MSTORE DUP1 PUSH1 0x7 DUP2 MSTORE PUSH1 0x20 ADD PUSH32 0x7265736861726500000000000000000000000000000000000000000000000000 DUP2 MSTORE POP DUP2 MSTORE POP PUSH1 0x1 SWAP1 PUSH1 0x3 PUSH2 0xCE SWAP3 SWAP2 SWAP1 PUSH2 0xE0 JUMP JUMPDEST POP CALLVALUE DUP1 ISZERO PUSH2 0xDA JUMPI PUSH0 PUSH0 REVERT JUMPDEST POP PUSH2 0x4BE JUMP JUMPDEST DUP3 DUP1 SLOAD DUP3 DUP3 SSTORE SWAP1 PUSH0 MSTORE PUSH1 0x20 PUSH0 KECCAK256 SWAP1 DUP2 ADD SWAP3 DUP3 ISZERO PUSH2 0x126 JUMPI SWAP2 PUSH1 0x20 MUL DUP3 ADD JUMPDEST DUP3 DUP2 GT ISZERO PUSH2 0x125 JUMPI DUP3 MLOAD DUP3 SWAP1 DUP2 PUSH2 0x115 SWAP2 SWAP1 PUSH2 0x3EF JUMP JUMPDEST POP SWAP2 PUSH1 0x20 ADD SWAP2 SWAP1 PUSH1 0x1 ADD SWAP1 PUSH2 0xFE JUMP JUMPDEST JUMPDEST POP SWAP1 POP PUSH2 0x133 SWAP2 SWAP1 PUSH2 0x137 JUMP JUMPDEST POP SWAP1 JUMP JUMPDEST JUMPDEST DUP1 DUP3 GT ISZERO PUSH2 0x156 JUMPI PUSH0 DUP2 DUP2 PUSH2 0x14D SWAP2 SWAP1 PUSH2 0x15A JUMP JUMPDEST POP PUSH1 0x1 ADD PUSH2 0x138 JUMP JUMPDEST POP SWAP1 JUMP JUMPDEST POP DUP1 SLOAD PUSH2 0x166 SWAP1 PUSH2 0x216 JUMP JUMPDEST PUSH0 DUP3 SSTORE DUP1 PUSH1 0x1F LT PUSH2 0x177 JUMPI POP PUSH2 0x194 JUMP JUMPDEST PUSH1 0x1F ADD PUSH1 0x20 SWAP1 DIV SWAP1 PUSH0 MSTORE PUSH1 0x20 PUSH0 KECCAK256 SWAP1 DUP2 ADD SWAP1 PUSH2 0x193 SWAP2 SWAP1 PUSH2 0x197 JUMP JUMPDEST JUMPDEST POP JUMP JUMPDEST JUMPDEST DUP1 DUP3 GT ISZERO PUSH2 0x1AE JUMPI PUSH0 DUP2 PUSH0 SWAP1 SSTORE POP PUSH1 0x1 ADD PUSH2 0x198 JUMP JUMPDEST POP SWAP1 JUMP JUMPDEST PUSH0 DUP2 MLOAD SWAP1 POP SWAP2 SWAP1 POP JUMP JUMPDEST PUSH32 0x4E487B7100000000000000000000000000000000000000000000000000000000 PUSH0 MSTORE PUSH1 0x41 PUSH1 0x4 MSTORE PUSH1 0x24 PUSH0 REVERT JUMPDEST PUSH32 0x4E487B7100000000000000000000000000000000000000000000000000000000 PUSH0 MSTORE PUSH1 0x22 PUSH1 0x4 MSTORE PUSH1 0x24 PUSH0 REVERT JUMPDEST PUSH0 PUSH1 0x2 DUP3 DIV SWAP1 POP PUSH1 0x1 DUP3 AND DUP1 PUSH2 0x22D JUMPI PUSH1 0x7F DUP3 AND SWAP2 POP JUMPDEST PUSH1 0x20 DUP3 LT DUP2 SUB PUSH2 0x240 JUMPI PUSH2 0x23F PUSH2 0x1E9 JUMP JUMPDEST JUMPDEST POP SWAP2 SWAP1 POP JUMP JUMPDEST PUSH0 DUP2 SWAP1 POP DUP2 PUSH0 MSTORE PUSH1 0x20 PUSH0 KECCAK256 SWAP1 POP SWAP2 SWAP1 POP JUMP JUMPDEST PUSH0 PUSH1 0x20 PUSH1 0x1F DUP4 ADD DIV SWAP1 POP SWAP2 SWAP1 POP JUMP JUMPDEST PUSH0 DUP3 DUP3 SHL SWAP1 POP SWAP3 SWAP2 POP POP JUMP JUMPDEST PUSH0 PUSH1 0x8 DUP4 MUL PUSH2 0x2A2 PUSH32 0xFFFFFFFFFFFFFFFFFFFFFFFFFFFFFFFFFFFFFFFFFFFFFFFFFFFFFFFFFFFFFFFF DUP3 PUSH2 0x267 JUMP JUMPDEST PUSH2 0x2AC DUP7 DUP4 PUSH2 0x267 JUMP JUMPDEST SWAP6 POP DUP1 NOT DUP5 AND SWAP4 POP DUP1 DUP7 AND DUP5 OR SWAP3 POP POP POP SWAP4 SWAP3 POP POP POP JUMP JUMPDEST PUSH0 DUP2 SWAP1 POP SWAP2 SWAP1 POP JUMP JUMPDEST PUSH0 DUP2 SWAP1 POP SWAP2 SWAP1 POP JUMP JUMPDEST PUSH0 PUSH2 0x2F0 PUSH2 0x2EB PUSH2 0x2E6 DUP5 PUSH2 0x2C4 JUMP JUMPDEST PUSH2 0x2CD JUMP JUMPDEST PUSH2 0x2C4 JUMP JUMPDEST SWAP1 POP SWAP2 SWAP1 POP JUMP JUMPDEST PUSH0 DUP2 SWAP1 POP SWAP2 SWAP1 POP JUMP JUMPDEST PUSH2 0x309 DUP4 PUSH2 0x2D6 JUMP JUMPDEST PUSH2 0x31D PUSH2 0x315 DUP3 PUSH2 0x2F7 JUMP JUMPDEST DUP5 DUP5 SLOAD PUSH2 0x273 JUMP JUMPDEST DUP3 SSTORE POP POP POP POP JUMP JUMPDEST PUSH0 PUSH0 SWAP1 POP SWAP1 JUMP JUMPDEST PUSH2 0x334 PUSH2 0x325 JUMP JUMPDEST PUSH2 0x33F DUP2 DUP5 DUP5 PUSH2 0x300 JUMP JUMPDEST POP POP POP JUMP JUMPDEST JUMPDEST DUP2 DUP2 LT ISZERO PUSH2 0x362 JUMPI PUSH2 0x357 PUSH0 DUP3 PUSH2 0x32C JUMP JUMPDEST PUSH1 0x1 DUP2 ADD SWAP1 POP PUSH2 0x345 JUMP JUMPDEST POP POP JUMP JUMPDEST PUSH1 0x1F DUP3 GT ISZERO PUSH2 0x3A7 JUMPI PUSH2 0x378 DUP2 PUSH2 0x246 JUMP JUMPDEST PUSH2 0x381 DUP5 PUSH2 0x258 JUMP JUMPDEST DUP2 ADD PUSH1 0x20 DUP6 LT ISZERO PUSH2 0x390 JUMPI DUP2 SWAP1 POP JUMPDEST PUSH2 0x3A4 PUSH2 0x39C DUP6 PUSH2 0x258 JUMP JUMPDEST DUP4 ADD DUP3 PUSH2 0x344 JUMP JUMPDEST POP POP JUMPDEST POP POP POP JUMP JUMPDEST PUSH0 DUP3 DUP3 SHR SWAP1 POP SWAP3 SWAP2 POP POP JUMP JUMPDEST PUSH0 PUSH2 0x3C7 PUSH0 NOT DUP5 PUSH1 0x8 MUL PUSH2 0x3AC JUMP JUMPDEST NOT DUP1 DUP4 AND SWAP2 POP POP SWAP3 SWAP2 POP POP JUMP JUMPDEST PUSH0 PUSH2 0x3DF DUP4 DUP4 PUSH2 0x3B8 JUMP JUMPDEST SWAP2 POP DUP3 PUSH1 0x2 MUL DUP3 OR SWAP1 POP SWAP3 SWAP2 POP POP JUMP JUMPDEST PUSH2 0x3F8 DUP3 PUSH2 0x1B2 JUMP JUMPDEST PUSH8 0xFFFFFFFFFFFFFFFF DUP2 GT ISZERO PUSH2 0x411 JUMPI PUSH2 0x410 PUSH2 0x1BC JUMP JUMPDEST JUMPDEST PUSH2 0x41B DUP3 SLOAD PUSH2 0x216 JUMP JUMPDEST PUSH2 0x426 DUP3 DUP3 DUP6 PUSH2 0x366 JUMP JUMPDEST PUSH0 PUSH1 0x20 SWAP1 POP PUSH1 0x1F DUP4 GT PUSH1 0x1 DUP2 EQ PUSH2 0x457 JUMPI PUSH0 DUP5 ISZERO PUSH2 0x445 JUMPI DUP3 DUP8 ADD MLOAD SWAP1 POP JUMPDEST PUSH2 0x44F DUP6 DUP3 PUSH2 0x3D4 JUMP JUMPDEST DUP7 SSTORE POP PUSH2 0x4B6 JUMP JUMPDEST PUSH1 0x1F NOT DUP5 AND PUSH2 0x465 DUP7 PUSH2 0x246 JUMP JUMPDEST PUSH0 JUMPDEST DUP3 DUP2 LT ISZERO PUSH2 0x48C JUMPI DUP5 DUP10 ADD MLOAD DUP3 SSTORE PUSH1 0x1 DUP3 ADD SWAP2 POP PUSH1 0x20 DUP6 ADD SWAP5 POP PUSH1 0x20 DUP2 ADD SWAP1 POP PUSH2 0x467 JUMP JUMPDEST DUP7 DUP4 LT ISZERO PUSH2 0x4A9 JUMPI DUP5 DUP10 ADD MLOAD PUSH2 0x4A5 PUSH1 0x1F DUP10 AND DUP3 PUSH2 0x3B8 JUMP JUMPDEST DUP4 SSTORE POP JUMPDEST PUSH1 0x1 PUSH1 0x2 DUP9 MUL ADD DUP9 SSTORE POP POP POP JUMPDEST POP POP POP POP POP POP JUMP JUMPDEST PUSH2 0xE28 DUP1 PUSH2 0x4CB PUSH0 CODECOPY PUSH0 RETURN INVALID PUSH1 0x80 PUSH1 0x40 MSTORE CALLVALUE DUP1 ISZERO PUSH2 0xF JUMPI PUSH0 PUSH0 REVERT JUMPDEST POP PUSH1 0x4 CALLDATASIZE LT PUSH2 0x86 JUMPI PUSH0 CALLDATALOAD PUSH1 0xE0 SHR DUP1 PUSH4 0x83240F83 GT PUSH2 0x59 JUMPI DUP1 PUSH4 0x83240F83 EQ PUSH2 0x122 JUMPI DUP1 PUSH4 0xB6E76873 EQ PUSH2 0x152 JUMPI DUP1 PUSH4 0xE78C65AA EQ PUSH2 0x182 JUMPI DUP1 PUSH4 0xFF5C520D EQ PUSH2 0x1A0 JUMPI PUSH2 0x86 JUMP JUMPDEST DUP1 PUSH4 0x5A1B4A9 EQ PUSH2 0x8A JUMPI DUP1 PUSH4 0x112F54E3 EQ PUSH2 0xBA JUMPI DUP1 PUSH4 0x78977BF4 EQ PUSH2 0xEA JUMPI DUP1 PUSH4 0x7C9CD2BC EQ PUSH2 0x106 JUMPI JUMPDEST PUSH0 PUSH0 REVERT JUMPDEST PUSH2 0xA4 PUSH1 0x4 DUP1 CALLDATASIZE SUB DUP2 ADD SWAP1 PUSH2 0x9F SWAP2 SWAP1 PUSH2 0x717 JUMP JUMPDEST PUSH2 0x1D0 JUMP JUMPDEST PUSH1 0x40 MLOAD PUSH2 0xB1 SWAP2 SWAP1 PUSH2 0x7C5 JUMP JUMPDEST PUSH1 0x40 MLOAD DUP1 SWAP2 SUB SWAP1 RETURN JUMPDEST PUSH2 0xD4 PUSH1 0x4 DUP1 CALLDATASIZE SUB DUP2 ADD SWAP1 PUSH2 0xCF SWAP2 SWAP1 PUSH2 0x717 JUMP JUMPDEST PUSH2 0x280 JUMP JUMPDEST PUSH1 0x40 MLOAD PUSH2 0xE1 SWAP2 SWAP1 PUSH2 0x7C5 JUMP JUMPDEST PUSH1 0x40 MLOAD DUP1 SWAP2 SUB SWAP1 RETURN JUMPDEST PUSH2 0x104 PUSH1 0x4 DUP1 CALLDATASIZE SUB DUP2 ADD SWAP1 PUSH2 0xFF SWAP2 SWAP1 PUSH2 0x911 JUMP JUMPDEST PUSH2 0x367 JUMP JUMPDEST STOP JUMPDEST PUSH2 0x120 PUSH1 0x4 DUP1 CALLDATASIZE SUB DUP2 ADD SWAP1 PUSH2 0x11B SWAP2 SWAP1 PUSH2 0x911 JUMP JUMPDEST PUSH2 0x39C JUMP JUMPDEST STOP JUMPDEST PUSH2 0x13C PUSH1 0x4 DUP1 CALLDATASIZE SUB DUP2 ADD SWAP1 PUSH2 0x137 SWAP2 SWAP1 PUSH2 0x958 JUMP JUMPDEST PUSH2 0x40B JUMP JUMPDEST PUSH1 0x40 MLOAD PUSH2 0x149 SWAP2 SWAP1 PUSH2 0x7C5 JUMP JUMPDEST PUSH1 0x40 MLOAD DUP1 SWAP2 SUB SWAP1 RETURN JUMPDEST PUSH2 0x16C PUSH1 0x4 DUP1 CALLDATASIZE SUB DUP2 ADD SWAP1 PUSH2 0x167 SWAP2 SWAP1 PUSH2 0x958 JUMP JUMPDEST PUSH2 0x4B1 JUMP JUMPDEST PUSH1 0x40 MLOAD PUSH2 0x179 SWAP2 SWAP1 PUSH2 0x7C5 JUMP JUMPDEST PUSH1 0x40 MLOAD DUP1 SWAP2 SUB SWAP1 RETURN JUMPDEST PUSH2 0x18A PUSH2 0x55D JUMP JUMPDEST PUSH1 0x40 MLOAD PUSH2 0x197 SWAP2 SWAP1 PUSH2 0x992 JUMP JUMPDEST PUSH1 0x40 MLOAD DUP1 SWAP2 SUB SWAP1 RETURN JUMPDEST PUSH2 0x1BA PUSH1 0x4 DUP1 CALLDATASIZE SUB DUP2 ADD SWAP1 PUSH2 0x1B5 SWAP2 SWAP1 PUSH2 0x9AB JUMP JUMPDEST PUSH2 0x569 JUMP JUMPDEST PUSH1 0x40 MLOAD PUSH2 0x1C7 SWAP2 SWAP1 PUSH2 0xAD9 JUMP JUMPDEST PUSH1 0x40 MLOAD DUP1 SWAP2 SUB SWAP1 RETURN JUMPDEST PUSH0 PUSH1 0x20 MSTORE DUP2 PUSH0 MSTORE PUSH1 0x40 PUSH0 KECCAK256 DUP2 DUP2 SLOAD DUP2 LT PUSH2 0x1E8 JUMPI PUSH0 DUP1 REVERT JUMPDEST SWAP1 PUSH0 MSTORE PUSH1 0x20 PUSH0 KECCAK256 ADD PUSH0 SWAP2 POP SWAP2 POP POP DUP1 SLOAD PUSH2 0x201 SWAP1 PUSH2 0xB26 JUMP JUMPDEST DUP1 PUSH1 0x1F ADD PUSH1 0x20 DUP1 SWAP2 DIV MUL PUSH1 0x20 ADD PUSH1 0x40 MLOAD SWAP1 DUP2 ADD PUSH1 0x40 MSTORE DUP1 SWAP3 SWAP2 SWAP1 DUP2 DUP2 MSTORE PUSH1 0x20 ADD DUP3 DUP1 SLOAD PUSH2 0x22D SWAP1 PUSH2 0xB26 JUMP JUMPDEST DUP1 ISZERO PUSH2 0x278 JUMPI DUP1 PUSH1 0x1F LT PUSH2 0x24F JUMPI PUSH2 0x100 DUP1 DUP4 SLOAD DIV MUL DUP4 MSTORE SWAP2 PUSH1 0x20 ADD SWAP2 PUSH2 0x278 JUMP JUMPDEST DUP3 ADD SWAP2 SWAP1 PUSH0 MSTORE PUSH1 0x20 PUSH0 KECCAK256 SWAP1 JUMPDEST DUP2 SLOAD DUP2 MSTORE SWAP1 PUSH1 0x1 ADD SWAP1 PUSH1 0x20 ADD DUP1 DUP4 GT PUSH2 0x25B JUMPI DUP3 SWAP1 SUB PUSH1 0x1F AND DUP3 ADD SWAP2 JUMPDEST POP POP POP POP POP DUP2 JUMP JUMPDEST PUSH1 0x60 PUSH0 PUSH0 DUP5 PUSH20 0xFFFFFFFFFFFFFFFFFFFFFFFFFFFFFFFFFFFFFFFF AND PUSH20 0xFFFFFFFFFFFFFFFFFFFFFFFFFFFFFFFFFFFFFFFF AND DUP2 MSTORE PUSH1 0x20 ADD SWAP1 DUP2 MSTORE PUSH1 0x20 ADD PUSH0 KECCAK256 DUP3 DUP2 SLOAD DUP2 LT PUSH2 0x2D0 JUMPI PUSH2 0x2CF PUSH2 0xB56 JUMP JUMPDEST JUMPDEST SWAP1 PUSH0 MSTORE PUSH1 0x20 PUSH0 KECCAK256 ADD DUP1 SLOAD PUSH2 0x2E3 SWAP1 PUSH2 0xB26 JUMP JUMPDEST DUP1 PUSH1 0x1F ADD PUSH1 0x20 DUP1 SWAP2 DIV MUL PUSH1 0x20 ADD PUSH1 0x40 MLOAD SWAP1 DUP2 ADD PUSH1 0x40 MSTORE DUP1 SWAP3 SWAP2 SWAP1 DUP2 DUP2 MSTORE PUSH1 0x20 ADD DUP3 DUP1 SLOAD PUSH2 0x30F SWAP1 PUSH2 0xB26 JUMP JUMPDEST DUP1 ISZERO PUSH2 0x35A JUMPI DUP1 PUSH1 0x1F LT PUSH2 0x331 JUMPI PUSH2 0x100 DUP1 DUP4 SLOAD DIV MUL DUP4 MSTORE SWAP2 PUSH1 0x20 ADD SWAP2 PUSH2 0x35A JUMP JUMPDEST DUP3 ADD SWAP2 SWAP1 PUSH0 MSTORE PUSH1 0x20 PUSH0 KECCAK256 SWAP1 JUMPDEST DUP2 SLOAD DUP2 MSTORE SWAP1 PUSH1 0x1 ADD SWAP1 PUSH1 0x20 ADD DUP1 DUP4 GT PUSH2 0x33D JUMPI DUP3 SWAP1 SUB PUSH1 0x1F AND DUP3 ADD SWAP2 JUMPDEST POP POP POP POP POP SWAP1 POP SWAP3 SWAP2 POP POP JUMP JUMPDEST PUSH1 0x1 DUP2 SWAP1 DUP1 PUSH1 0x1 DUP2 SLOAD ADD DUP1 DUP3 SSTORE DUP1 SWAP2 POP POP PUSH1 0x1 SWAP1 SUB SWAP1 PUSH0 MSTORE PUSH1 0x20 PUSH0 KECCAK256 ADD PUSH0 SWAP1 SWAP2 SWAP1 SWAP2 SWAP1 SWAP2 POP SWAP1 DUP2 PUSH2 0x398 SWAP2 SWAP1 PUSH2 0xD23 JUMP JUMPDEST POP POP JUMP JUMPDEST PUSH0 PUSH0 CALLER PUSH20 0xFFFFFFFFFFFFFFFFFFFFFFFFFFFFFFFFFFFFFFFF AND PUSH20 0xFFFFFFFFFFFFFFFFFFFFFFFFFFFFFFFFFFFFFFFF AND DUP2 MSTORE PUSH1 0x20 ADD SWAP1 DUP2 MSTORE PUSH1 0x20 ADD PUSH0 KECCAK256 DUP2 SWAP1 DUP1 PUSH1 0x1 DUP2 SLOAD ADD DUP1 DUP3 SSTORE DUP1 SWAP2 POP POP PUSH1 0x1 SWAP1 SUB SWAP1 PUSH0 MSTORE PUSH1 0x20 PUSH0 KECCAK256 ADD PUSH0 SWAP1 SWAP2 SWAP1 SWAP2 SWAP1 SWAP2 POP SWAP1 DUP2 PUSH2 0x407 SWAP2 SWAP1 PUSH2 0xD23 JUMP JUMPDEST POP POP JUMP JUMPDEST PUSH1 0x1 DUP2 DUP2 SLOAD DUP2 LT PUSH2 0x41A JUMPI PUSH0 DUP1 REVERT JUMPDEST SWAP1 PUSH0 MSTORE PUSH1 0x20 PUSH0 KECCAK256 ADD PUSH0 SWAP2 POP SWAP1 POP DUP1 SLOAD PUSH2 0x432 SWAP1 PUSH2 0xB26 JUMP JUMPDEST DUP1 PUSH1 0x1F ADD PUSH1 0x20 DUP1 SWAP2 DIV MUL PUSH1 0x20 ADD PUSH1 0x40 MLOAD SWAP1 DUP2 ADD PUSH1 0x40 MSTORE DUP1 SWAP3 SWAP2 SWAP1 DUP2 DUP2 MSTORE PUSH1 0x20 ADD DUP3 DUP1 SLOAD PUSH2 0x45E SWAP1 PUSH2 0xB26 JUMP JUMPDEST DUP1 ISZERO PUSH2 0x4A9 JUMPI DUP1 PUSH1 0x1F LT PUSH2 0x480 JUMPI PUSH2 0x100 DUP1 DUP4 SLOAD DIV MUL DUP4 MSTORE SWAP2 PUSH1 0x20 ADD SWAP2 PUSH2 0x4A9 JUMP JUMPDEST DUP3 ADD SWAP2 SWAP1 PUSH0 MSTORE PUSH1 0x20 PUSH0 KECCAK256 SWAP1 JUMPDEST DUP2 SLOAD DUP2 MSTORE SWAP1 PUSH1 0x1 ADD SWAP1 PUSH1 0x20 ADD DUP1 DUP4 GT PUSH2 0x48C JUMPI DUP3 SWAP1 SUB PUSH1 0x1F AND DUP3 ADD SWAP2 JUMPDEST POP POP POP POP POP DUP2 JUMP JUMPDEST PUSH1 0x60 PUSH1 0x1 DUP3 DUP2 SLOAD DUP2 LT PUSH2 0x4C7 JUMPI PUSH2 0x4C6 PUSH2 0xB56 JUMP JUMPDEST JUMPDEST SWAP1 PUSH0 MSTORE PUSH1 0x20 PUSH0 KECCAK256 ADD DUP1 SLOAD PUSH2 0x4DA SWAP1 PUSH2 0xB26 JUMP JUMPDEST DUP1 PUSH1 0x1F ADD PUSH1 0x20 DUP1 SWAP2 DIV MUL PUSH1 0x20 ADD PUSH1 0x40 MLOAD SWAP1 DUP2 ADD PUSH1 0x40 MSTORE DUP1 SWAP3 SWAP2 SWAP1 DUP2 DUP2 MSTORE PUSH1 0x20 ADD DUP3 DUP1 SLOAD PUSH2 0x506 SWAP1 PUSH2 0xB26 JUMP JUMPDEST DUP1 ISZERO PUSH2 0x551 JUMPI DUP1 PUSH1 0x1F LT PUSH2 0x528 JUMPI PUSH2 0x100 DUP1 DUP4 SLOAD DIV MUL DUP4 MSTORE SWAP2 PUSH1 0x20 ADD SWAP2 PUSH2 0x551 JUMP JUMPDEST DUP3 ADD SWAP2 SWAP1 PUSH0 MSTORE PUSH1 0x20 PUSH0 KECCAK256 SWAP1 JUMPDEST DUP2 SLOAD DUP2 MSTORE SWAP1 PUSH1 0x1 ADD SWAP1 PUSH1 0x20 ADD DUP1 DUP4 GT PUSH2 0x534 JUMPI DUP3 SWAP1 SUB PUSH1 0x1F AND DUP3 ADD SWAP2 JUMPDEST POP POP POP POP POP SWAP1 POP SWAP2 SWAP1 POP JUMP JUMPDEST PUSH0 PUSH1 0x1 DUP1 SLOAD SWAP1 POP SWAP1 POP SWAP1 JUMP JUMPDEST PUSH1 0x60 PUSH0 PUSH0 DUP4 PUSH20 0xFFFFFFFFFFFFFFFFFFFFFFFFFFFFFFFFFFFFFFFF AND PUSH20 0xFFFFFFFFFFFFFFFFFFFFFFFFFFFFFFFFFFFFFFFF AND DUP2 MSTORE PUSH1 0x20 ADD SWAP1 DUP2 MSTORE PUSH1 0x20 ADD PUSH0 KECCAK256 DUP1 SLOAD DUP1 PUSH1 0x20 MUL PUSH1 0x20 ADD PUSH1 0x40 MLOAD SWAP1 DUP2 ADD PUSH1 0x40 MSTORE DUP1 SWAP3 SWAP2 SWAP1 DUP2 DUP2 MSTORE PUSH1 0x20 ADD PUSH0 SWAP1 JUMPDEST DUP3 DUP3 LT ISZERO PUSH2 0x66E JUMPI DUP4 DUP3 SWAP1 PUSH0 MSTORE PUSH1 0x20 PUSH0 KECCAK256 ADD DUP1 SLOAD PUSH2 0x5E3 SWAP1 PUSH2 0xB26 JUMP JUMPDEST DUP1 PUSH1 0x1F ADD PUSH1 0x20 DUP1 SWAP2 DIV MUL PUSH1 0x20 ADD PUSH1 0x40 MLOAD SWAP1 DUP2 ADD PUSH1 0x40 MSTORE DUP1 SWAP3 SWAP2 SWAP1 DUP2 DUP2 MSTORE PUSH1 0x20 ADD DUP3 DUP1 SLOAD PUSH2 0x60F SWAP1 PUSH2 0xB26 JUMP JUMPDEST DUP1 ISZERO PUSH2 0x65A JUMPI DUP1 PUSH1 0x1F LT PUSH2 0x631 JUMPI PUSH2 0x100 DUP1 DUP4 SLOAD DIV MUL DUP4 MSTORE SWAP2 PUSH1 0x20 ADD SWAP2 PUSH2 0x65A JUMP JUMPDEST DUP3 ADD SWAP2 SWAP1 PUSH0 MSTORE PUSH1 0x20 PUSH0 KECCAK256 SWAP1 JUMPDEST DUP2 SLOAD DUP2 MSTORE SWAP1 PUSH1 0x1 ADD SWAP1 PUSH1 0x20 ADD DUP1 DUP4 GT PUSH2 0x63D JUMPI DUP3 SWAP1 SUB PUSH1 0x1F AND DUP3 ADD SWAP2 JUMPDEST POP POP POP POP POP DUP2 MSTORE PUSH1 0x20 ADD SWAP1 PUSH1 0x1 ADD SWAP1 PUSH2 0x5C6 JUMP JUMPDEST POP POP POP POP SWAP1 POP SWAP2 SWAP1 POP JUMP JUMPDEST PUSH0 PUSH1 0x40 MLOAD SWAP1 POP SWAP1 JUMP JUMPDEST PUSH0 PUSH0 REVERT JUMPDEST PUSH0 PUSH0 REVERT JUMPDEST PUSH0 PUSH20 0xFFFFFFFFFFFFFFFFFFFFFFFFFFFFFFFFFFFFFFFF DUP3 AND SWAP1 POP SWAP2 SWAP1 POP JUMP JUMPDEST PUSH0 PUSH2 0x6B3 DUP3 PUSH2 0x68A JUMP JUMPDEST SWAP1 POP SWAP2 SWAP1 POP JUMP JUMPDEST PUSH2 0x6C3 DUP2 PUSH2 0x6A9 JUMP JUMPDEST DUP2 EQ PUSH2 0x6CD JUMPI PUSH0 PUSH0 REVERT JUMPDEST POP JUMP JUMPDEST PUSH0 DUP2 CALLDATALOAD SWAP1 POP PUSH2 0x6DE DUP2 PUSH2 0x6BA JUMP JUMPDEST SWAP3 SWAP2 POP POP JUMP JUMPDEST PUSH0 DUP2 SWAP1 POP SWAP2 SWAP1 POP JUMP JUMPDEST PUSH2 0x6F6 DUP2 PUSH2 0x6E4 JUMP JUMPDEST DUP2 EQ PUSH2 0x700 JUMPI PUSH0 PUSH0 REVERT JUMPDEST POP JUMP JUMPDEST PUSH0 DUP2 CALLDATALOAD SWAP1 POP PUSH2 0x711 DUP2 PUSH2 0x6ED JUMP JUMPDEST SWAP3 SWAP2 POP POP JUMP JUMPDEST PUSH0 PUSH0 PUSH1 0x40 DUP4 DUP6 SUB SLT ISZERO PUSH2 0x72D JUMPI PUSH2 0x72C PUSH2 0x682 JUMP JUMPDEST JUMPDEST PUSH0 PUSH2 0x73A DUP6 DUP3 DUP7 ADD PUSH2 0x6D0 JUMP JUMPDEST SWAP3 POP POP PUSH1 0x20 PUSH2 0x74B DUP6 DUP3 DUP7 ADD PUSH2 0x703 JUMP JUMPDEST SWAP2 POP POP SWAP3 POP SWAP3 SWAP1 POP JUMP JUMPDEST PUSH0 DUP2 MLOAD SWAP1 POP SWAP2 SWAP1 POP JUMP JUMPDEST PUSH0 DUP3 DUP3 MSTORE PUSH1 0x20 DUP3 ADD SWAP1 POP SWAP3 SWAP2 POP POP JUMP JUMPDEST DUP3 DUP2 DUP4 MCOPY PUSH0 DUP4 DUP4 ADD MSTORE POP POP POP JUMP JUMPDEST PUSH0 PUSH1 0x1F NOT PUSH1 0x1F DUP4 ADD AND SWAP1 POP SWAP2 SWAP1 POP JUMP JUMPDEST PUSH0 PUSH2 0x797 DUP3 PUSH2 0x755 JUMP JUMPDEST PUSH2 0x7A1 DUP2 DUP6 PUSH2 0x75F JUMP JUMPDEST SWAP4 POP PUSH2 0x7B1 DUP2 DUP6 PUSH1 0x20 DUP7 ADD PUSH2 0x76F JUMP JUMPDEST PUSH2 0x7BA DUP2 PUSH2 0x77D JUMP JUMPDEST DUP5 ADD SWAP2 POP POP SWAP3 SWAP2 POP POP JUMP JUMPDEST PUSH0 PUSH1 0x20 DUP3 ADD SWAP1 POP DUP2 DUP2 SUB PUSH0 DUP4 ADD MSTORE PUSH2 0x7DD DUP2 DUP5 PUSH2 0x78D JUMP JUMPDEST SWAP1 POP SWAP3 SWAP2 POP POP JUMP JUMPDEST PUSH0 PUSH0 REVERT JUMPDEST PUSH0 PUSH0 REVERT JUMPDEST PUSH32 0x4E487B7100000000000000000000000000000000000000000000000000000000 PUSH0 MSTORE PUSH1 0x41 PUSH1 0x4 MSTORE PUSH1 0x24 PUSH0 REVERT JUMPDEST PUSH2 0x823 DUP3 PUSH2 0x77D JUMP JUMPDEST DUP2 ADD DUP2 DUP2 LT PUSH8 0xFFFFFFFFFFFFFFFF DUP3 GT OR ISZERO PUSH2 0x842 JUMPI PUSH2 0x841 PUSH2 0x7ED JUMP JUMPDEST JUMPDEST DUP1 PUSH1 0x40 MSTORE POP POP POP JUMP JUMPDEST PUSH0 PUSH2 0x854 PUSH2 0x679 JUMP JUMPDEST SWAP1 POP PUSH2 0x860 DUP3 DUP3 PUSH2 0x81A JUMP JUMPDEST SWAP2 SWAP1 POP JUMP JUMPDEST PUSH0 PUSH8 0xFFFFFFFFFFFFFFFF DUP3 GT ISZERO PUSH2 0x87F JUMPI PUSH2 0x87E PUSH2 0x7ED JUMP JUMPDEST JUMPDEST PUSH2 0x888 DUP3 PUSH2 0x77D JUMP JUMPDEST SWAP1 POP PUSH1 0x20 DUP2 ADD SWAP1 POP SWAP2 SWAP1 POP JUMP JUMPDEST DUP3 DUP2 DUP4 CALLDATACOPY PUSH0 DUP4 DUP4 ADD MSTORE POP POP POP JUMP JUMPDEST PUSH0 PUSH2 0x8B5 PUSH2 0x8B0 DUP5 PUSH2 0x865 JUMP JUMPDEST PUSH2 0x84B JUMP JUMPDEST SWAP1 POP DUP3 DUP2 MSTORE PUSH1 0x20 DUP2 ADD DUP5 DUP5 DUP5 ADD GT ISZERO PUSH2 0x8D1 JUMPI PUSH2 0x8D0 PUSH2 0x7E9 JUMP JUMPDEST JUMPDEST PUSH2 0x8DC DUP5 DUP3 DUP6 PUSH2 0x895 JUMP JUMPDEST POP SWAP4 SWAP3 POP POP POP JUMP JUMPDEST PUSH0 DUP3 PUSH1 0x1F DUP4 ADD SLT PUSH2 0x8F8 JUMPI PUSH2 0x8F7 PUSH2 0x7E5 JUMP JUMPDEST JUMPDEST DUP2 CALLDATALOAD PUSH2 0x908 DUP5 DUP3 PUSH1 0x20 DUP7 ADD PUSH2 0x8A3 JUMP JUMPDEST SWAP2 POP POP SWAP3 SWAP2 POP POP JUMP JUMPDEST PUSH0 PUSH1 0x20 DUP3 DUP5 SUB SLT ISZERO PUSH2 0x926 JUMPI PUSH2 0x925 PUSH2 0x682 JUMP JUMPDEST JUMPDEST PUSH0 DUP3 ADD CALLDATALOAD PUSH8 0xFFFFFFFFFFFFFFFF DUP2 GT ISZERO PUSH2 0x943 JUMPI PUSH2 0x942 PUSH2 0x686 JUMP JUMPDEST JUMPDEST PUSH2 0x94F DUP5 DUP3 DUP6 ADD PUSH2 0x8E4 JUMP JUMPDEST SWAP2 POP POP SWAP3 SWAP2 POP POP JUMP JUMPDEST PUSH0 PUSH1 0x20 DUP3 DUP5 SUB SLT ISZERO PUSH2 0x96D JUMPI PUSH2 0x96C PUSH2 0x682 JUMP JUMPDEST JUMPDEST PUSH0 PUSH2 0x97A DUP5 DUP3 DUP6 ADD PUSH2 0x703 JUMP JUMPDEST SWAP2 POP POP SWAP3 SWAP2 POP POP JUMP JUMPDEST PUSH2 0x98C DUP2 PUSH2 0x6E4 JUMP JUMPDEST DUP3 MSTORE POP POP JUMP JUMPDEST PUSH0 PUSH1 0x20 DUP3 ADD SWAP1 POP PUSH2 0x9A5 PUSH0 DUP4 ADD DUP5 PUSH2 0x983 JUMP JUMPDEST SWAP3 SWAP2 POP POP JUMP JUMPDEST PUSH0 PUSH1 0x20 DUP3 DUP5 SUB SLT ISZERO PUSH2 0x9C0 JUMPI PUSH2 0x9BF PUSH2 0x682 JUMP JUMPDEST JUMPDEST PUSH0 PUSH2 0x9CD DUP5 DUP3 DUP6 ADD PUSH2 0x6D0 JUMP JUMPDEST SWAP2 POP POP SWAP3 SWAP2 POP POP JUMP JUMPDEST PUSH0 DUP2 MLOAD SWAP1 POP SWAP2 SWAP1 POP JUMP JUMPDEST PUSH0 DUP3 DUP3 MSTORE PUSH1 0x20 DUP3 ADD SWAP1 POP SWAP3 SWAP2 POP POP JUMP JUMPDEST PUSH0 DUP2 SWAP1 POP PUSH1 0x20 DUP3 ADD SWAP1 POP SWAP2 SWAP1 POP JUMP JUMPDEST PUSH0 DUP3 DUP3 MSTORE PUSH1 0x20 DUP3 ADD SWAP1 POP SWAP3 SWAP2 POP POP JUMP JUMPDEST PUSH0 PUSH2 0xA19 DUP3 PUSH2 0x755 JUMP JUMPDEST PUSH2 0xA23 DUP2 DUP6 PUSH2 0x9FF JUMP JUMPDEST SWAP4 POP PUSH2 0xA33 DUP2 DUP6 PUSH1 0x20 DUP7 ADD PUSH2 0x76F JUMP JUMPDEST PUSH2 0xA3C DUP2 PUSH2 0x77D JUMP JUMPDEST DUP5 ADD SWAP2 POP POP SWAP3 SWAP2 POP POP JUMP JUMPDEST PUSH0 PUSH2 0xA52 DUP4 DUP4 PUSH2 0xA0F JUMP JUMPDEST SWAP1 POP SWAP3 SWAP2 POP POP JUMP JUMPDEST PUSH0 PUSH1 0x20 DUP3 ADD SWAP1 POP SWAP2 SWAP1 POP JUMP JUMPDEST PUSH0 PUSH2 0xA70 DUP3 PUSH2 0x9D6 JUMP JUMPDEST PUSH2 0xA7A DUP2 DUP6 PUSH2 0x9E0 JUMP JUMPDEST SWAP4 POP DUP4 PUSH1 0x20 DUP3 MUL DUP6 ADD PUSH2 0xA8C DUP6 PUSH2 0x9F0 JUMP JUMPDEST DUP1 PUSH0 JUMPDEST DUP6 DUP2 LT ISZERO PUSH2 0xAC7 JUMPI DUP5 DUP5 SUB DUP10 MSTORE DUP2 MLOAD PUSH2 0xAA8 DUP6 DUP3 PUSH2 0xA47 JUMP JUMPDEST SWAP5 POP PUSH2 0xAB3 DUP4 PUSH2 0xA5A JUMP JUMPDEST SWAP3 POP PUSH1 0x20 DUP11 ADD SWAP10 POP POP PUSH1 0x1 DUP2 ADD SWAP1 POP PUSH2 0xA8F JUMP JUMPDEST POP DUP3 SWAP8 POP DUP8 SWAP6 POP POP POP POP POP POP SWAP3 SWAP2 POP POP JUMP JUMPDEST PUSH0 PUSH1 0x20 DUP3 ADD SWAP1 POP DUP2 DUP2 SUB PUSH0 DUP4 ADD MSTORE PUSH2 0xAF1 DUP2 DUP5 PUSH2 0xA66 JUMP JUMPDEST SWAP1 POP SWAP3 SWAP2 POP POP JUMP JUMPDEST PUSH32 0x4E487B7100000000000000000000000000000000000000000000000000000000 PUSH0 MSTORE PUSH1 0x22 PUSH1 0x4 MSTORE PUSH1 0x24 PUSH0 REVERT JUMPDEST PUSH0 PUSH1 0x2 DUP3 DIV SWAP1 POP PUSH1 0x1 DUP3 AND DUP1 PUSH2 0xB3D JUMPI PUSH1 0x7F DUP3 AND SWAP2 POP JUMPDEST PUSH1 0x20 DUP3 LT DUP2 SUB PUSH2 0xB50 JUMPI PUSH2 0xB4F PUSH2 0xAF9 JUMP JUMPDEST JUMPDEST POP SWAP2 SWAP1 POP JUMP JUMPDEST PUSH32 0x4E487B7100000000000000000000000000000000000000000000000000000000 PUSH0 MSTORE PUSH1 0x32 PUSH1 0x4 MSTORE PUSH1 0x24 PUSH0 REVERT JUMPDEST PUSH0 DUP2 SWAP1 POP DUP2 PUSH0 MSTORE PUSH1 0x20 PUSH0 KECCAK256 SWAP1 POP SWAP2 SWAP1 POP JUMP JUMPDEST PUSH0 PUSH1 0x20 PUSH1 0x1F DUP4 ADD DIV SWAP1 POP SWAP2 SWAP1 POP JUMP JUMPDEST PUSH0 DUP3 DUP3 SHL SWAP1 POP SWAP3 SWAP2 POP POP JUMP JUMPDEST PUSH0 PUSH1 0x8 DUP4 MUL PUSH2 0xBDF PUSH32 0xFFFFFFFFFFFFFFFFFFFFFFFFFFFFFFFFFFFFFFFFFFFFFFFFFFFFFFFFFFFFFFFF DUP3 PUSH2 0xBA4 JUMP JUMPDEST PUSH2 0xBE9 DUP7 DUP4 PUSH2 0xBA4 JUMP JUMPDEST SWAP6 POP DUP1 NOT DUP5 AND SWAP4 POP DUP1 DUP7 AND DUP5 OR SWAP3 POP POP POP SWAP4 SWAP3 POP POP POP JUMP JUMPDEST PUSH0 DUP2 SWAP1 POP SWAP2 SWAP1 POP JUMP JUMPDEST PUSH0 PUSH2 0xC24 PUSH2 0xC1F PUSH2 0xC1A DUP5 PUSH2 0x6E4 JUMP JUMPDEST PUSH2 0xC01 JUMP JUMPDEST PUSH2 0x6E4 JUMP JUMPDEST SWAP1 POP SWAP2 SWAP1 POP JUMP JUMPDEST PUSH0 DUP2 SWAP1 POP SWAP2 SWAP1 POP JUMP JUMPDEST PUSH2 0xC3D DUP4 PUSH2 0xC0A JUMP JUMPDEST PUSH2 0xC51 PUSH2 0xC49 DUP3 PUSH2 0xC2B JUMP JUMPDEST DUP5 DUP5 SLOAD PUSH2 0xBB0 JUMP JUMPDEST DUP3 SSTORE POP POP POP POP JUMP JUMPDEST PUSH0 PUSH0 SWAP1 POP SWAP1 JUMP JUMPDEST PUSH2 0xC68 PUSH2 0xC59 JUMP JUMPDEST PUSH2 0xC73 DUP2 DUP5 DUP5 PUSH2 0xC34 JUMP JUMPDEST POP POP POP JUMP JUMPDEST JUMPDEST DUP2 DUP2 LT ISZERO PUSH2 0xC96 JUMPI PUSH2 0xC8B PUSH0 DUP3 PUSH2 0xC60 JUMP JUMPDEST PUSH1 0x1 DUP2 ADD SWAP1 POP PUSH2 0xC79 JUMP JUMPDEST POP POP JUMP JUMPDEST PUSH1 0x1F DUP3 GT ISZERO PUSH2 0xCDB JUMPI PUSH2 0xCAC DUP2 PUSH2 0xB83 JUMP JUMPDEST PUSH2 0xCB5 DUP5 PUSH2 0xB95 JUMP JUMPDEST DUP2 ADD PUSH1 0x20 DUP6 LT ISZERO PUSH2 0xCC4 JUMPI DUP2 SWAP1 POP JUMPDEST PUSH2 0xCD8 PUSH2 0xCD0 DUP6 PUSH2 0xB95 JUMP JUMPDEST DUP4 ADD DUP3 PUSH2 0xC78 JUMP JUMPDEST POP POP JUMPDEST POP POP POP JUMP JUMPDEST PUSH0 DUP3 DUP3 SHR SWAP1 POP SWAP3 SWAP2 POP POP JUMP JUMPDEST PUSH0 PUSH2 0xCFB PUSH0 NOT DUP5 PUSH1 0x8 MUL PUSH2 0xCE0 JUMP JUMPDEST NOT DUP1 DUP4 AND SWAP2 POP POP SWAP3 SWAP2 POP POP JUMP JUMPDEST PUSH0 PUSH2 0xD13 DUP4 DUP4 PUSH2 0xCEC JUMP JUMPDEST SWAP2 POP DUP3 PUSH1 0x2 MUL DUP3 OR SWAP1 POP SWAP3 SWAP2 POP POP JUMP JUMPDEST PUSH2 0xD2C DUP3 PUSH2 0x755 JUMP JUMPDEST PUSH8 0xFFFFFFFFFFFFFFFF DUP2 GT ISZERO PUSH2 0xD45 JUMPI PUSH2 0xD44 PUSH2 0x7ED JUMP JUMPDEST JUMPDEST PUSH2 0xD4F DUP3 SLOAD PUSH2 0xB26 JUMP JUMPDEST PUSH2 0xD5A DUP3 DUP3 DUP6 PUSH2 0xC9A JUMP JUMPDEST PUSH0 PUSH1 0x20 SWAP1 POP PUSH1 0x1F DUP4 GT PUSH1 0x1 DUP2 EQ PUSH2 0xD8B JUMPI PUSH0 DUP5 ISZERO PUSH2 0xD79 JUMPI DUP3 DUP8 ADD MLOAD SWAP1 POP JUMPDEST PUSH2 0xD83 DUP6 DUP3 PUSH2 0xD08 JUMP JUMPDEST DUP7 SSTORE POP PUSH2 0xDEA JUMP JUMPDEST PUSH1 0x1F NOT DUP5 AND PUSH2 0xD99 DUP7 PUSH2 0xB83 JUMP JUMPDEST PUSH0 JUMPDEST DUP3 DUP2 LT ISZERO PUSH2 0xDC0 JUMPI DUP5 DUP10 ADD MLOAD DUP3 SSTORE PUSH1 0x1 DUP3 ADD SWAP2 POP PUSH1 0x20 DUP6 ADD SWAP5 POP PUSH1 0x20 DUP2 ADD SWAP1 POP PUSH2 0xD9B JUMP JUMPDEST DUP7 DUP4 LT ISZERO PUSH2 0xDDD JUMPI DUP5 DUP10 ADD MLOAD PUSH2 0xDD9 PUSH1 0x1F DUP10 AND DUP3 PUSH2 0xCEC JUMP JUMPDEST DUP4 SSTORE POP JUMPDEST PUSH1 0x1 PUSH1 0x2 DUP9 MUL ADD DUP9 SSTORE POP POP POP JUMPDEST POP POP POP POP POP POP JUMP INVALID LOG2 PUSH5 0x6970667358 0x22 SLT KECCAK256 PUSH17 0xB380136D33D081E9297B9DCBD37CCEFBAD EOFCREATE 0xEC POP 0xD4 0xB3 EOFCREATE 0x88 CALLDATACOPY 0xCF EOFCREATE 0x6E BASEFEE BLOBBASEFEE 0xE PUSH5 0x736F6C6343 STOP ADDMOD 0x1F STOP CALLER "
				},
				"gasEstimates": {
					"creation": {
						"codeDepositCost": "724800",
						"executionCost": "infinite",
						"totalCost": "infinite"
					},
					"external": {
						"actions(uint256)": "infinite",
						"createTweet(string)": "infinite",
						"getAction(uint256)": "infinite",
						"getActionsLength()": "2484",
						"getAllOwnerTweets(address)": "infinite",
						"getTweet(address,uint256)": "infinite",
						"tweets(address,uint256)": "infinite",
						"updateUserActionsOptions(string)": "infinite"
					}
				},
				"methodIdentifiers": {
					"actions(uint256)": "83240f83",
					"createTweet(string)": "7c9cd2bc",
					"getAction(uint256)": "b6e76873",
					"getActionsLength()": "e78c65aa",
					"getAllOwnerTweets(address)": "ff5c520d",
					"getTweet(address,uint256)": "112f54e3",
					"tweets(address,uint256)": "05a1b4a9",
					"updateUserActionsOptions(string)": "78977bf4"
				}
			},
			"storageLayout": {
				"storage": [
					{
						"astId": 6,
						"contract": "Solidity/Twitter.sol:Twitter",
						"label": "tweets",
						"offset": 0,
						"slot": "0",
						"type": "t_mapping(t_address,t_array(t_string_storage)dyn_storage)"
					},
					{
						"astId": 13,
						"contract": "Solidity/Twitter.sol:Twitter",
						"label": "actions",
						"offset": 0,
						"slot": "1",
						"type": "t_array(t_string_storage)dyn_storage"
					}
				],
				"types": {
					"t_address": {
						"encoding": "inplace",
						"label": "address",
						"numberOfBytes": "20"
					},
					"t_array(t_string_storage)dyn_storage": {
						"base": "t_string_storage",
						"encoding": "dynamic_array",
						"label": "string[]",
						"numberOfBytes": "32"
					},
					"t_mapping(t_address,t_array(t_string_storage)dyn_storage)": {
						"encoding": "mapping",
						"key": "t_address",
						"label": "mapping(address => string[])",
						"numberOfBytes": "32",
						"value": "t_array(t_string_storage)dyn_storage"
					},
					"t_string_storage": {
						"encoding": "bytes",
						"label": "string",
						"numberOfBytes": "32"
					}
				}
			},
			"userdoc": {
				"kind": "user",
				"methods": {},
				"version": 1
			}
		}
	}
}